{
  "address": "0x3B9871088DefD27836029AB380f5f1A08Baf32aC",
  "abi": [
    {
      "inputs": [],
      "stateMutability": "nonpayable",
      "type": "constructor"
    },
    {
      "anonymous": false,
      "inputs": [
        {
          "indexed": false,
          "internalType": "uint256",
          "name": "proposalThreshold_",
          "type": "uint256"
        },
        {
          "indexed": false,
          "internalType": "uint256",
          "name": "quorumThreshold_",
          "type": "uint256"
        },
        {
          "indexed": false,
          "internalType": "uint256",
          "name": "decisionThreshold_",
          "type": "uint256"
        },
        {
          "indexed": false,
          "internalType": "uint256",
          "name": "votingDuration_",
          "type": "uint256"
        },
        {
          "indexed": false,
          "internalType": "uint256",
          "name": "transferValueForDelay_",
          "type": "uint256"
        },
        {
          "indexed": false,
          "internalType": "uint256[4]",
          "name": "executionDelays_",
          "type": "uint256[4]"
        }
      ],
      "name": "GovernanceSettingsSet",
      "type": "event"
    },
    {
      "anonymous": false,
      "inputs": [
        {
          "indexed": false,
          "internalType": "uint8",
          "name": "version",
          "type": "uint8"
        }
      ],
      "name": "Initialized",
      "type": "event"
    },
    {
      "anonymous": false,
      "inputs": [
        {
          "indexed": true,
          "internalType": "address",
          "name": "previousOwner",
          "type": "address"
        },
        {
          "indexed": true,
          "internalType": "address",
          "name": "newOwner",
          "type": "address"
        }
      ],
      "name": "OwnershipTransferred",
      "type": "event"
    },
    {
      "anonymous": false,
      "inputs": [
        {
          "indexed": false,
          "internalType": "address",
          "name": "account",
          "type": "address"
        }
      ],
      "name": "Paused",
      "type": "event"
    },
    {
      "anonymous": false,
      "inputs": [
        {
          "indexed": false,
          "internalType": "uint256",
          "name": "proposalId",
          "type": "uint256"
        }
      ],
      "name": "ProposalCancelled",
      "type": "event"
    },
    {
      "anonymous": false,
      "inputs": [
        {
          "indexed": false,
          "internalType": "uint256",
          "name": "proposalId",
          "type": "uint256"
        },
        {
          "components": [
            {
              "internalType": "address[]",
              "name": "targets",
              "type": "address[]"
            },
            {
              "internalType": "uint256[]",
              "name": "values",
              "type": "uint256[]"
            },
            {
              "internalType": "bytes[]",
              "name": "callDatas",
              "type": "bytes[]"
            },
            {
              "internalType": "uint256",
              "name": "quorumThreshold",
              "type": "uint256"
            },
            {
              "internalType": "uint256",
              "name": "decisionThreshold",
              "type": "uint256"
            },
            {
              "internalType": "uint256",
              "name": "executionDelay",
              "type": "uint256"
            }
          ],
          "indexed": false,
          "internalType": "struct Governor.ProposalCoreData",
          "name": "core",
          "type": "tuple"
        },
        {
          "components": [
            {
              "internalType": "enum IRecordsRegistry.EventType",
              "name": "proposalType",
              "type": "uint8"
            },
            {
              "internalType": "string",
              "name": "description",
              "type": "string"
            },
            {
              "internalType": "string",
              "name": "metaHash",
              "type": "string"
            }
          ],
          "indexed": false,
          "internalType": "struct Governor.ProposalMetaData",
          "name": "meta",
          "type": "tuple"
        }
      ],
      "name": "ProposalCreated",
      "type": "event"
    },
    {
      "anonymous": false,
      "inputs": [
        {
          "indexed": false,
          "internalType": "uint256",
          "name": "proposalId",
          "type": "uint256"
        }
      ],
      "name": "ProposalExecuted",
      "type": "event"
    },
    {
      "anonymous": false,
      "inputs": [
        {
          "indexed": false,
          "internalType": "uint256",
          "name": "amount",
          "type": "uint256"
        }
      ],
      "name": "Received",
      "type": "event"
    },
    {
      "anonymous": false,
      "inputs": [
        {
          "indexed": false,
          "internalType": "address",
          "name": "account",
          "type": "address"
        }
      ],
      "name": "Unpaused",
      "type": "event"
    },
    {
      "anonymous": false,
      "inputs": [
        {
          "indexed": false,
          "internalType": "address",
          "name": "voter",
          "type": "address"
        },
        {
          "indexed": false,
          "internalType": "uint256",
          "name": "proposalId",
          "type": "uint256"
        },
        {
          "indexed": false,
          "internalType": "uint256",
          "name": "votes",
          "type": "uint256"
        },
        {
          "indexed": false,
          "internalType": "enum Governor.Ballot",
          "name": "ballot",
          "type": "uint8"
        }
      ],
      "name": "VoteCast",
      "type": "event"
    },
    {
      "inputs": [],
      "name": "MAX_BASE_EXECUTION_DELAY",
      "outputs": [
        {
          "internalType": "uint256",
          "name": "",
          "type": "uint256"
        }
      ],
      "stateMutability": "view",
      "type": "function"
    },
    {
      "inputs": [
        {
          "internalType": "address",
          "name": "",
          "type": "address"
        },
        {
          "internalType": "uint256",
          "name": "",
          "type": "uint256"
        }
      ],
      "name": "ballots",
      "outputs": [
        {
          "internalType": "enum Governor.Ballot",
          "name": "",
          "type": "uint8"
        }
      ],
      "stateMutability": "view",
      "type": "function"
    },
    {
      "inputs": [
        {
          "internalType": "uint256",
          "name": "proposalId",
          "type": "uint256"
        }
      ],
      "name": "cancelProposal",
      "outputs": [],
      "stateMutability": "nonpayable",
      "type": "function"
    },
    {
      "inputs": [
        {
          "internalType": "uint256",
          "name": "proposalId",
          "type": "uint256"
        },
        {
          "internalType": "bool",
          "name": "support",
          "type": "bool"
        }
      ],
      "name": "castVote",
      "outputs": [],
      "stateMutability": "nonpayable",
      "type": "function"
    },
    {
      "inputs": [],
      "name": "companyInfo",
      "outputs": [
        {
          "internalType": "uint256",
          "name": "jurisdiction",
          "type": "uint256"
        },
        {
          "internalType": "uint256",
          "name": "entityType",
          "type": "uint256"
        },
        {
          "internalType": "string",
          "name": "ein",
          "type": "string"
        },
        {
          "internalType": "string",
          "name": "dateOfIncorporation",
          "type": "string"
        },
        {
          "internalType": "uint256",
          "name": "fee",
          "type": "uint256"
        }
      ],
      "stateMutability": "view",
      "type": "function"
    },
    {
      "inputs": [],
      "name": "decisionThreshold",
      "outputs": [
        {
          "internalType": "uint256",
          "name": "",
          "type": "uint256"
        }
      ],
      "stateMutability": "view",
      "type": "function"
    },
    {
      "inputs": [
        {
          "internalType": "uint256",
          "name": "proposalId",
          "type": "uint256"
        }
      ],
      "name": "executeProposal",
      "outputs": [],
      "stateMutability": "nonpayable",
      "type": "function"
    },
    {
      "inputs": [
        {
          "internalType": "enum IRecordsRegistry.EventType",
          "name": "",
          "type": "uint8"
        }
      ],
      "name": "executionDelays",
      "outputs": [
        {
          "internalType": "uint256",
          "name": "",
          "type": "uint256"
        }
      ],
      "stateMutability": "view",
      "type": "function"
    },
    {
      "inputs": [
        {
          "internalType": "address",
          "name": "account",
          "type": "address"
        },
        {
          "internalType": "uint256",
          "name": "proposalId",
          "type": "uint256"
        }
      ],
      "name": "getBallot",
      "outputs": [
        {
          "internalType": "enum Governor.Ballot",
          "name": "ballot",
          "type": "uint8"
        },
        {
          "internalType": "uint256",
          "name": "votes",
          "type": "uint256"
        }
      ],
      "stateMutability": "view",
      "type": "function"
    },
    {
      "inputs": [
        {
          "internalType": "enum IToken.TokenType",
          "name": "tokenType",
          "type": "uint8"
        }
      ],
      "name": "getToken",
      "outputs": [
        {
          "internalType": "contract IToken",
          "name": "",
          "type": "address"
        }
      ],
      "stateMutability": "view",
      "type": "function"
    },
    {
      "inputs": [
        {
          "internalType": "address",
          "name": "owner_",
          "type": "address"
        },
        {
          "internalType": "string",
          "name": "trademark_",
          "type": "string"
        },
        {
          "components": [
            {
              "internalType": "uint256",
              "name": "proposalThreshold",
              "type": "uint256"
            },
            {
              "internalType": "uint256",
              "name": "quorumThreshold",
              "type": "uint256"
            },
            {
              "internalType": "uint256",
              "name": "decisionThreshold",
              "type": "uint256"
            },
            {
              "internalType": "uint256",
              "name": "votingDuration",
              "type": "uint256"
            },
            {
              "internalType": "uint256",
              "name": "transferValueForDelay",
              "type": "uint256"
            },
            {
              "internalType": "uint256[4]",
              "name": "executionDelays",
              "type": "uint256[4]"
            }
          ],
          "internalType": "struct IGovernanceSettings.NewGovernanceSettings",
          "name": "governanceSettings_",
          "type": "tuple"
        },
        {
          "components": [
            {
              "internalType": "uint256",
              "name": "jurisdiction",
              "type": "uint256"
            },
            {
              "internalType": "uint256",
              "name": "entityType",
              "type": "uint256"
            },
            {
              "internalType": "string",
              "name": "ein",
              "type": "string"
            },
            {
              "internalType": "string",
              "name": "dateOfIncorporation",
              "type": "string"
            },
            {
              "internalType": "uint256",
              "name": "fee",
              "type": "uint256"
            }
          ],
          "internalType": "struct ICompaniesRegistry.CompanyInfo",
          "name": "companyInfo_",
          "type": "tuple"
        }
      ],
      "name": "initialize",
      "outputs": [],
      "stateMutability": "nonpayable",
      "type": "function"
    },
    {
      "inputs": [],
      "name": "isDAO",
      "outputs": [
        {
          "internalType": "bool",
          "name": "",
          "type": "bool"
        }
      ],
      "stateMutability": "view",
      "type": "function"
    },
    {
      "inputs": [],
      "name": "lastProposalId",
      "outputs": [
        {
          "internalType": "uint256",
          "name": "",
          "type": "uint256"
        }
      ],
      "stateMutability": "view",
      "type": "function"
    },
    {
      "inputs": [],
      "name": "owner",
      "outputs": [
        {
          "internalType": "address",
          "name": "",
          "type": "address"
        }
      ],
      "stateMutability": "view",
      "type": "function"
    },
    {
      "inputs": [],
      "name": "pause",
      "outputs": [],
      "stateMutability": "nonpayable",
      "type": "function"
    },
    {
      "inputs": [],
      "name": "paused",
      "outputs": [
        {
          "internalType": "bool",
          "name": "",
          "type": "bool"
        }
      ],
      "stateMutability": "view",
      "type": "function"
    },
    {
      "inputs": [
        {
          "internalType": "uint256",
          "name": "proposalId",
          "type": "uint256"
        }
      ],
      "name": "proposalState",
      "outputs": [
        {
          "internalType": "enum Governor.ProposalState",
          "name": "",
          "type": "uint8"
        }
      ],
      "stateMutability": "view",
      "type": "function"
    },
    {
      "inputs": [],
      "name": "proposalThreshold",
      "outputs": [
        {
          "internalType": "uint256",
          "name": "",
          "type": "uint256"
        }
      ],
      "stateMutability": "view",
      "type": "function"
    },
    {
      "inputs": [
        {
          "internalType": "uint256",
          "name": "",
          "type": "uint256"
        }
      ],
      "name": "proposals",
      "outputs": [
        {
          "components": [
            {
              "internalType": "address[]",
              "name": "targets",
              "type": "address[]"
            },
            {
              "internalType": "uint256[]",
              "name": "values",
              "type": "uint256[]"
            },
            {
              "internalType": "bytes[]",
              "name": "callDatas",
              "type": "bytes[]"
            },
            {
              "internalType": "uint256",
              "name": "quorumThreshold",
              "type": "uint256"
            },
            {
              "internalType": "uint256",
              "name": "decisionThreshold",
              "type": "uint256"
            },
            {
              "internalType": "uint256",
              "name": "executionDelay",
              "type": "uint256"
            }
          ],
          "internalType": "struct Governor.ProposalCoreData",
          "name": "core",
          "type": "tuple"
        },
        {
          "components": [
            {
              "internalType": "uint256",
              "name": "startBlock",
              "type": "uint256"
            },
            {
              "internalType": "uint256",
              "name": "endBlock",
              "type": "uint256"
            },
            {
              "internalType": "uint256",
              "name": "availableVotes",
              "type": "uint256"
            },
            {
              "internalType": "uint256",
              "name": "forVotes",
              "type": "uint256"
            },
            {
              "internalType": "uint256",
              "name": "againstVotes",
              "type": "uint256"
            },
            {
              "internalType": "enum Governor.ProposalState",
              "name": "executionState",
              "type": "uint8"
            }
          ],
          "internalType": "struct Governor.ProposalVotingData",
          "name": "vote",
          "type": "tuple"
        },
        {
          "components": [
            {
              "internalType": "enum IRecordsRegistry.EventType",
              "name": "proposalType",
              "type": "uint8"
            },
            {
              "internalType": "string",
              "name": "description",
              "type": "string"
            },
            {
              "internalType": "string",
              "name": "metaHash",
              "type": "string"
            }
          ],
          "internalType": "struct Governor.ProposalMetaData",
          "name": "meta",
          "type": "tuple"
        }
      ],
      "stateMutability": "view",
      "type": "function"
    },
    {
      "inputs": [
        {
          "components": [
            {
              "internalType": "uint256",
              "name": "proposalThreshold",
              "type": "uint256"
            },
            {
              "internalType": "uint256",
              "name": "quorumThreshold",
              "type": "uint256"
            },
            {
              "internalType": "uint256",
              "name": "decisionThreshold",
              "type": "uint256"
            },
            {
              "internalType": "uint256",
              "name": "votingDuration",
              "type": "uint256"
            },
            {
              "internalType": "uint256",
              "name": "transferValueForDelay",
              "type": "uint256"
            },
            {
              "internalType": "uint256[4]",
              "name": "executionDelays",
              "type": "uint256[4]"
            }
          ],
          "internalType": "struct IGovernanceSettings.NewGovernanceSettings",
          "name": "settings",
          "type": "tuple"
        },
        {
          "internalType": "string",
          "name": "description",
          "type": "string"
        },
        {
          "internalType": "string",
          "name": "metaHash",
          "type": "string"
        }
      ],
      "name": "proposeGovernanceSettings",
      "outputs": [
        {
          "internalType": "uint256",
          "name": "proposalId",
          "type": "uint256"
        }
      ],
      "stateMutability": "nonpayable",
      "type": "function"
    },
    {
      "inputs": [
        {
          "components": [
            {
              "internalType": "uint256",
              "name": "price",
              "type": "uint256"
            },
            {
              "internalType": "uint256",
              "name": "hardcap",
              "type": "uint256"
            },
            {
              "internalType": "uint256",
              "name": "softcap",
              "type": "uint256"
            },
            {
              "internalType": "uint256",
              "name": "minPurchase",
              "type": "uint256"
            },
            {
              "internalType": "uint256",
              "name": "maxPurchase",
              "type": "uint256"
            },
            {
              "internalType": "uint256",
              "name": "vestingPercent",
              "type": "uint256"
            },
            {
              "internalType": "uint256",
              "name": "vestingDuration",
              "type": "uint256"
            },
            {
              "internalType": "uint256",
              "name": "vestingTVL",
              "type": "uint256"
            },
            {
              "internalType": "uint256",
              "name": "duration",
              "type": "uint256"
            },
            {
              "internalType": "address[]",
              "name": "userWhitelist",
              "type": "address[]"
            },
            {
              "internalType": "address",
              "name": "unitOfAccount",
              "type": "address"
            },
            {
              "internalType": "uint256",
              "name": "lockupDuration",
              "type": "uint256"
            },
            {
              "internalType": "uint256",
              "name": "lockupTVL",
              "type": "uint256"
            }
          ],
          "internalType": "struct ITGE.TGEInfo",
          "name": "tgeInfo",
          "type": "tuple"
        },
        {
          "components": [
            {
              "internalType": "enum IToken.TokenType",
              "name": "tokenType",
              "type": "uint8"
            },
            {
              "internalType": "string",
              "name": "name",
              "type": "string"
            },
            {
              "internalType": "string",
              "name": "symbol",
              "type": "string"
            },
            {
              "internalType": "string",
              "name": "description",
              "type": "string"
            },
            {
              "internalType": "uint256",
              "name": "cap",
              "type": "uint256"
            },
            {
              "internalType": "uint8",
              "name": "decimals",
              "type": "uint8"
            }
          ],
          "internalType": "struct IToken.TokenInfo",
          "name": "tokenInfo",
          "type": "tuple"
        },
        {
          "internalType": "string",
          "name": "metadataURI",
          "type": "string"
        },
        {
          "internalType": "string",
          "name": "description",
          "type": "string"
        },
        {
          "internalType": "string",
          "name": "metaHash",
          "type": "string"
        }
      ],
      "name": "proposeTGE",
      "outputs": [
        {
          "internalType": "uint256",
          "name": "proposalId",
          "type": "uint256"
        }
      ],
      "stateMutability": "nonpayable",
      "type": "function"
    },
    {
      "inputs": [
        {
          "internalType": "address",
          "name": "asset",
          "type": "address"
        },
        {
          "internalType": "address[]",
          "name": "recipients",
          "type": "address[]"
        },
        {
          "internalType": "uint256[]",
          "name": "amounts",
          "type": "uint256[]"
        },
        {
          "internalType": "string",
          "name": "description",
          "type": "string"
        },
        {
          "internalType": "string",
          "name": "metaHash",
          "type": "string"
        }
      ],
      "name": "proposeTransfer",
      "outputs": [
        {
          "internalType": "uint256",
          "name": "proposalId",
          "type": "uint256"
        }
      ],
      "stateMutability": "nonpayable",
      "type": "function"
    },
    {
      "inputs": [],
      "name": "quorumThreshold",
      "outputs": [
        {
          "internalType": "uint256",
          "name": "",
          "type": "uint256"
        }
      ],
      "stateMutability": "view",
      "type": "function"
    },
    {
      "inputs": [],
      "name": "renounceOwnership",
      "outputs": [],
      "stateMutability": "nonpayable",
      "type": "function"
    },
    {
      "inputs": [],
      "name": "service",
      "outputs": [
        {
          "internalType": "contract IService",
          "name": "",
          "type": "address"
        }
      ],
      "stateMutability": "view",
      "type": "function"
    },
    {
      "inputs": [
        {
          "components": [
            {
              "internalType": "uint256",
              "name": "proposalThreshold",
              "type": "uint256"
            },
            {
              "internalType": "uint256",
              "name": "quorumThreshold",
              "type": "uint256"
            },
            {
              "internalType": "uint256",
              "name": "decisionThreshold",
              "type": "uint256"
            },
            {
              "internalType": "uint256",
              "name": "votingDuration",
              "type": "uint256"
            },
            {
              "internalType": "uint256",
              "name": "transferValueForDelay",
              "type": "uint256"
            },
            {
              "internalType": "uint256[4]",
              "name": "executionDelays",
              "type": "uint256[4]"
            }
          ],
          "internalType": "struct IGovernanceSettings.NewGovernanceSettings",
          "name": "settings",
          "type": "tuple"
        }
      ],
      "name": "setGovernanceSettings",
      "outputs": [],
      "stateMutability": "nonpayable",
      "type": "function"
    },
    {
      "inputs": [
        {
          "internalType": "address",
          "name": "token_",
          "type": "address"
        },
        {
          "internalType": "enum IToken.TokenType",
          "name": "tokenType_",
          "type": "uint8"
        }
      ],
      "name": "setToken",
      "outputs": [],
      "stateMutability": "nonpayable",
      "type": "function"
    },
    {
      "inputs": [
        {
          "internalType": "enum IToken.TokenType",
          "name": "",
          "type": "uint8"
        }
      ],
      "name": "tokens",
      "outputs": [
        {
          "internalType": "address",
          "name": "",
          "type": "address"
        }
      ],
      "stateMutability": "view",
      "type": "function"
    },
    {
      "inputs": [],
      "name": "trademark",
      "outputs": [
        {
          "internalType": "string",
          "name": "",
          "type": "string"
        }
      ],
      "stateMutability": "view",
      "type": "function"
    },
    {
      "inputs": [
        {
          "internalType": "address",
          "name": "newOwner",
          "type": "address"
        }
      ],
      "name": "transferOwnership",
      "outputs": [],
      "stateMutability": "nonpayable",
      "type": "function"
    },
    {
      "inputs": [],
      "name": "transferValueForDelay",
      "outputs": [
        {
          "internalType": "uint256",
          "name": "",
          "type": "uint256"
        }
      ],
      "stateMutability": "view",
      "type": "function"
    },
    {
      "inputs": [],
      "name": "unpause",
      "outputs": [],
      "stateMutability": "nonpayable",
      "type": "function"
    },
    {
      "inputs": [],
      "name": "votingDuration",
      "outputs": [
        {
          "internalType": "uint256",
          "name": "",
          "type": "uint256"
        }
      ],
      "stateMutability": "view",
      "type": "function"
    },
    {
      "stateMutability": "payable",
      "type": "receive"
    }
  ],
  "transactionHash": "0x3c9f3200b813ea7045e69f20f25488e2044b218634ca3c89b4058c8959fa5d78",
  "args": [],
  "numDeployments": 1,
  "solcInputHash": "73e1d27fa3b1fad97fd6222f02a1bb42",
  "bytecode": "0x60806040523480156200001157600080fd5b506200001c62000022565b620000e4565b600054610100900460ff16156200008f5760405162461bcd60e51b815260206004820152602760248201527f496e697469616c697a61626c653a20636f6e747261637420697320696e697469604482015266616c697a696e6760c81b606482015260840160405180910390fd5b60005460ff9081161015620000e2576000805460ff191660ff9081179091556040519081527f7f26b83ff96e1f2b6a682f133852f6798a09c465da95921460cefb38474024989060200160405180910390a15b565b61535280620000f46000396000f3fe6080604052600436106101f25760003560e01c806382b866001161010d578063c4767b95116100a0578063d598d4c91161006f578063d598d4c9146105f2578063e0a8f6f514610613578063e47bfee814610633578063e83c2d8b14610648578063f2fde38b1461066857600080fd5b8063c4767b951461056f578063c59512911461058f578063d26331d4146105a5578063d3b1b64a146105d257600080fd5b8063964765b0116100dc578063964765b0146104f6578063aecb96c91461050c578063b58131b01461052c578063c249e8621461054257600080fd5b806382b866001461045d5780638456cb59146104955780638856c0d6146104aa5780638da5cb5b146104e157600080fd5b80633f4ba83a116101855780636256dc45116101545780636256dc45146103fc578063715018a61461041c57806374cb3041146104315780637b7a91dd1461044757600080fd5b80633f4ba83a1461034c578063450a747a1461036157806354b598ec1461038f5780635c975abb146103d757600080fd5b806316561076116101c157806316561076146102cf57806319e09c2a146102f157806330e712fe1461030657806336f281a91461032657600080fd5b8063013cf08b146102315780630d61b51914610269578063132002fc1461028b57806315373e3d146102af57600080fd5b3661022c576040513481527fa8142743f8f70a4c26f3691cf4ed59718381fb2f18070ec52be1f1022d8555579060200160405180910390a1005b600080fd5b34801561023d57600080fd5b5061025161024c366004614202565b610688565b60405161026093929190614426565b60405180910390f35b34801561027557600080fd5b50610289610284366004614202565b610a31565b005b34801561029757600080fd5b506102a160cf5481565b604051908152602001610260565b3480156102bb57600080fd5b506102896102ca3660046144a8565b610bae565b3480156102db57600080fd5b506102e4610bd2565b60405161026091906144d8565b3480156102fd57600080fd5b506102a1601481565b34801561031257600080fd5b506102a161032136600461489a565b610c61565b34801561033257600080fd5b5061033b6111b0565b60405161026095949392919061496b565b34801561035857600080fd5b506102896112e2565b34801561036d57600080fd5b5061038161037c3660046149af565b611412565b6040516102609291906149eb565b34801561039b57600080fd5b506103ca6103aa3660046149af565b60ca60209081526000928352604080842090915290825290205460ff1681565b6040516102609190614a02565b3480156103e357600080fd5b506103ec61145d565b6040519015158152602001610260565b34801561040857600080fd5b506102a1610417366004614ab4565b611470565b34801561042857600080fd5b5061028961166d565b34801561043d57600080fd5b506102a160cb5481565b34801561045357600080fd5b506102a160cd5481565b34801561046957600080fd5b5061047d610478366004614b2b565b61167f565b6040516001600160a01b039091168152602001610260565b3480156104a157600080fd5b506102896116c9565b3480156104b657600080fd5b5061047d6104c5366004614b2b565b61013d602052600090815260409020546001600160a01b031681565b3480156104ed57600080fd5b5061047d6117f7565b34801561050257600080fd5b506102a160ce5481565b34801561051857600080fd5b50610289610527366004614b46565b61180b565b34801561053857600080fd5b506102a160cc5481565b34801561054e57600080fd5b506102a161055d366004614c41565b60d16020526000908152604090205481565b34801561057b57600080fd5b5061028961058a366004614c62565b6119a3565b34801561059b57600080fd5b506102a160d05481565b3480156105b157600080fd5b506105c56105c0366004614202565b611a9d565b6040516102609190614c97565b3480156105de57600080fd5b506102896105ed366004614ca5565b611f73565b3480156105fe57600080fd5b506101045461047d906001600160a01b031681565b34801561061f57600080fd5b5061028961062e366004614202565b611fc3565b34801561063f57600080fd5b506103ec61201c565b34801561065457600080fd5b506102a1610663366004614cc2565b6120a0565b34801561067457600080fd5b50610289610683366004614dcb565b612461565b60c9602090815260009182526040918290208251815460e09381028201840190945260c08101848152919390928492849290918491908401828280156106f757602002820191906000526020600020905b81546001600160a01b031681526001909101906020018083116106d9575b505050505081526020016001820180548060200260200160405190810160405280929190818152602001828054801561074f57602002820191906000526020600020905b81548152602001906001019080831161073b575b5050505050815260200160028201805480602002602001604051908101604052809291908181526020016000905b8282101561082957838290600052602060002001805461079c90614de8565b80601f01602080910402602001604051908101604052809291908181526020018280546107c890614de8565b80156108155780601f106107ea57610100808354040283529160200191610815565b820191906000526020600020905b8154815290600101906020018083116107f857829003601f168201915b50505050508152602001906001019061077d565b505050508152602001600382015481526020016004820154815260200160058201548152505090806006016040518060c001604052908160008201548152602001600182015481526020016002820154815260200160038201548152602001600482015481526020016005820160009054906101000a900460ff1660068111156108b5576108b56143a4565b60068111156108c6576108c66143a4565b9052506040805160608101909152600c83018054929392829060ff1660038111156108f3576108f36143a4565b6003811115610904576109046143a4565b815260200160018201805461091890614de8565b80601f016020809104026020016040519081016040528092919081815260200182805461094490614de8565b80156109915780601f1061096657610100808354040283529160200191610991565b820191906000526020600020905b81548152906001019060200180831161097457829003601f168201915b505050505081526020016002820180546109aa90614de8565b80601f01602080910402602001604051908101604052809291908181526020018280546109d690614de8565b8015610a235780601f106109f857610100808354040283529160200191610a23565b820191906000526020600020905b815481529060010190602001808311610a0657829003601f168201915b505050505081525050905083565b610a396124d7565b806001600082815260c960205260409020600c015460ff166003811115610a6257610a626143a4565b03610b925761010454604080516307bd026560e01b815290516001600160a01b03909216916391d148549183916307bd0265916004808201926020929091908290030181865afa158015610aba573d6000803e3d6000fd5b505050506040513d601f19601f82011682018060405250810190610ade9190614e22565b6040516001600160e01b031960e084901b1681526004810191909152336024820152604401602060405180830381865afa158015610b20573d6000803e3d6000fd5b505050506040513d601f19601f82011682018060405250810190610b449190614e3b565b6040518060400160405280600c81526020016b24a72b20a624a22faaa9a2a960a11b81525090610b905760405162461bcd60e51b8152600401610b8791906144d8565b60405180910390fd5b505b61010454610baa9083906001600160a01b031661251f565b5050565b610bb6612b1f565b610bbe6124d7565b610bc88282612b78565b610baa6001606555565b6101378054610be090614de8565b80601f0160208091040260200160405190810160405280929190818152602001828054610c0c90614de8565b8015610c595780601f10610c2e57610100808354040283529160200191610c59565b820191906000526020600020905b815481529060010190602001808311610c3c57829003601f168201915b505050505081565b6000610c7f610c6f33612db3565b610c77612e47565b60cc54612f41565b604051806040016040528060158152602001741512149154d213d31117d393d517d4915050d21151605a1b81525090610ccb5760405162461bcd60e51b8152600401610b8791906144d8565b50845160405162415c3360e91b8152600091829130916382b8660091610cf49190600401614a02565b602060405180830381865afa158015610d11573d6000803e3d6000fd5b505050506040513d601f19601f82011682018060405250810190610d359190614e58565b9050600187516002811115610d4c57610d4c6143a4565b03610e2557806001600160a01b031663355274ea6040518163ffffffff1660e01b8152600401602060405180830381865afa158015610d8f573d6000803e3d6000fd5b505050506040513d601f19601f82011682018060405250810190610db39190614e22565b876080018181525050806001600160a01b03166318160ddd6040518163ffffffff1660e01b8152600401602060405180830381865afa158015610dfa573d6000803e3d6000fd5b505050506040513d601f19601f82011682018060405250810190610e1e9190614e22565b9150610f85565b600287516002811115610e3a57610e3a6143a4565b03610f85576001600160a01b03811615610f8557806001600160a01b031663d04d79b56040518163ffffffff1660e01b8152600401602060405180830381865afa158015610e8c573d6000803e3d6000fd5b505050506040513d601f19601f82011682018060405250810190610eb09190614e3b565b15610f8557806001600160a01b031663355274ea6040518163ffffffff1660e01b8152600401602060405180830381865afa158015610ef3573d6000803e3d6000fd5b505050506040513d601f19601f82011682018060405250810190610f179190614e22565b876080018181525050806001600160a01b03166318160ddd6040518163ffffffff1660e01b8152600401602060405180830381865afa158015610f5e573d6000803e3d6000fd5b505050506040513d601f19601f82011682018060405250810190610f829190614e22565b91505b61010454608088015160405163d7f964fd60e01b81526001600160a01b039092169163d7f964fd91610fbe918c91908790600401614f27565b60006040518083038186803b158015610fd657600080fd5b505afa158015610fea573d6000803e3d6000fd5b506000925060019150610ffa9050565b604051908082528060200260200182016040528015611023578160200160208202803683370190505b506101045481519192506001600160a01b031690829060009061104857611048614f4c565b6001600160a01b03929092166020928302919091019091015260408051600180825281830190925260009181602001602082028036833701905050905060008160008151811061109a5761109a614f4c565b6020908102919091010152604080516001808252818301909252600091816020015b60608152602001906001900390816110bc575050604051909150632359db1360e11b906110f1908d908d908d90602401614f62565b604051602081830303815290604052906001600160e01b0319166020820180516001600160e01b0383818316178352505050508160008151811061113757611137614f4c565b60200260200101819052506111a16040518060c0016040528085815260200184815260200183815260200160cd54815260200160ce54815260200161117c6002612f64565b90526040805160608101825260028152602081018c90529081018a905260cf54612fcd565b9b9a5050505050505050505050565b61013880546101395461013a8054929391926111cb90614de8565b80601f01602080910402602001604051908101604052809291908181526020018280546111f790614de8565b80156112445780601f1061121957610100808354040283529160200191611244565b820191906000526020600020905b81548152906001019060200180831161122757829003601f168201915b50505050509080600301805461125990614de8565b80601f016020809104026020016040519081016040528092919081815260200182805461128590614de8565b80156112d25780601f106112a7576101008083540402835291602001916112d2565b820191906000526020600020905b8154815290600101906020018083116112b557829003601f168201915b5050505050908060040154905085565b6101045460408051631d6c8e3f60e21b815290516001600160a01b03909216916391d148549183916375b238fc916004808201926020929091908290030181865afa158015611335573d6000803e3d6000fd5b505050506040513d601f19601f820116820180604052508101906113599190614e22565b6040516001600160e01b031960e084901b1681526004810191909152336024820152604401602060405180830381865afa15801561139b573d6000803e3d6000fd5b505050506040513d601f19601f820116820180604052508101906113bf9190614e3b565b604051806040016040528060118152602001702727aa2fa9a2a92b24a1a2afa7aba722a960791b815250906114075760405162461bcd60e51b8152600401610b8791906144d8565b506114106131fb565b565b6001600160a01b038216600090815260ca6020908152604080832084845282528083205460c9909252822060060154829160ff169061145290869061324d565b915091509250929050565b600061146b60975460ff1690565b905090565b600061147e610c6f33612db3565b604051806040016040528060158152602001741512149154d213d31117d393d517d4915050d21151605a1b815250906114ca5760405162461bcd60e51b8152600401610b8791906144d8565b506114d4846132e9565b60408051600180825281830190925260009160208083019080368337019050509050308160008151811061150a5761150a614f4c565b6001600160a01b03929092166020928302919091019091015260408051600180825281830190925260009181602001602082028036833701905050905060008160008151811061155c5761155c614f4c565b6020908102919091010152604080516001808252818301909252600091816020015b606081526020019060019003908161157e5750506040519091506369d8db2560e11b906115af908990602401615004565b604051602081830303815290604052906001600160e01b0319166020820180516001600160e01b038381831617835250505050816000815181106115f5576115f5614f4c565b60200260200101819052506116626040518060c0016040528085815260200184815260200183815260200160cd54815260200160ce54815260200161163a6002612f64565b905260408051606081019091528060025b81526020018981526020018881525060cf54612fcd565b979650505050505050565b61167561347b565b61141060006134da565b600061013d6000836002811115611698576116986143a4565b60028111156116a9576116a96143a4565b81526020810191909152604001600020546001600160a01b031692915050565b6101045460408051631d6c8e3f60e21b815290516001600160a01b03909216916391d148549183916375b238fc916004808201926020929091908290030181865afa15801561171c573d6000803e3d6000fd5b505050506040513d601f19601f820116820180604052508101906117409190614e22565b6040516001600160e01b031960e084901b1681526004810191909152336024820152604401602060405180830381865afa158015611782573d6000803e3d6000fd5b505050506040513d601f19601f820116820180604052508101906117a69190614e3b565b604051806040016040528060118152602001702727aa2fa9a2a92b24a1a2afa7aba722a960791b815250906117ee5760405162461bcd60e51b8152600401610b8791906144d8565b5061141061352c565b600061146b6033546001600160a01b031690565b600054610100900460ff161580801561182b5750600054600160ff909116105b806118455750303b158015611845575060005460ff166001145b6118a85760405162461bcd60e51b815260206004820152602e60248201527f496e697469616c697a61626c653a20636f6e747261637420697320616c72656160448201526d191e481a5b9a5d1a585b1a5e995960921b6064820152608401610b87565b6000805460ff1916600117905580156118cb576000805461ff0019166101001790555b6118d3613569565b6118db613598565b6118e36135c7565b6118ec336135f6565b6118f5856134da565b61013761190285826150ba565b5061190c83613640565b8151610138908155602083015161013955604083015183919061013a9061193390826150ba565b506060820151600382019061194890826150ba565b5060808201518160040155905050801561199c576000805461ff0019169055604051600181527f7f26b83ff96e1f2b6a682f133852f6798a09c465da95921460cefb38474024989060200160405180910390a15b5050505050565b6101045460408051808201909152600b81526a4e4f545f5345525649434560a81b6020820152906001600160a01b031633146119f25760405162461bcd60e51b8152600401610b8791906144d8565b5060408051808201909152600c81526b414444524553535f5a45524f60a01b60208201526001600160a01b038316611a3d5760405162461bcd60e51b8152600401610b8791906144d8565b508161013d6000836002811115611a5657611a566143a4565b6002811115611a6757611a676143a4565b815260200190815260200160002060006101000a8154816001600160a01b0302191690836001600160a01b031602179055505050565b600081815260c96020908152604080832081518154610140948102820185019093526101208101838152859491938492606084019285928492849190870182828015611b1257602002820191906000526020600020905b81546001600160a01b03168152600190910190602001808311611af4575b5050505050815260200160018201805480602002602001604051908101604052809291908181526020018280548015611b6a57602002820191906000526020600020905b815481526020019060010190808311611b56575b5050505050815260200160028201805480602002602001604051908101604052809291908181526020016000905b82821015611c44578382906000526020600020018054611bb790614de8565b80601f0160208091040260200160405190810160405280929190818152602001828054611be390614de8565b8015611c305780601f10611c0557610100808354040283529160200191611c30565b820191906000526020600020905b815481529060010190602001808311611c1357829003601f168201915b505050505081526020019060010190611b98565b50505050815260200160038201548152602001600482015481526020016005820154815250508152602001600682016040518060c001604052908160008201548152602001600182015481526020016002820154815260200160038201548152602001600482015481526020016005820160009054906101000a900460ff166006811115611cd457611cd46143a4565b6006811115611ce557611ce56143a4565b90525081526040805160608101909152600c83018054602090930192829060ff166003811115611d1757611d176143a4565b6003811115611d2857611d286143a4565b8152602001600182018054611d3c90614de8565b80601f0160208091040260200160405190810160405280929190818152602001828054611d6890614de8565b8015611db55780601f10611d8a57610100808354040283529160200191611db5565b820191906000526020600020905b815481529060010190602001808311611d9857829003601f168201915b50505050508152602001600282018054611dce90614de8565b80601f0160208091040260200160405190810160405280929190818152602001828054611dfa90614de8565b8015611e475780601f10611e1c57610100808354040283529160200191611e47565b820191906000526020600020905b815481529060010190602001808311611e2a57829003601f168201915b5050509190925250505090525090506005816020015160a001516006811115611e7257611e726143a4565b1480611e9757506006816020015160a001516006811115611e9557611e956143a4565b145b80611ea55750602081015151155b15611eb8576020015160a0015192915050565b60208101516080810151606090910151600091611ed49161518f565b90508160200151602001514310611f6957611f0081836020015160400151846000015160600151612f41565b611f0e575060029392505050565b611f2982602001516060015182846000015160800151612f41565b611f37575060029392505050565b815160a001516020808401510151611f4f919061518f565b4310611f5f575060049392505050565b5060039392505050565b5060019392505050565b60408051808201909152600c81526b24a72b20a624a22faaa9a2a960a11b6020820152333014611fb65760405162461bcd60e51b8152600401610b8791906144d8565b50611fc081613640565b50565b6101045460408051808201909152600b81526a4e4f545f5345525649434560a81b6020820152906001600160a01b031633146120125760405162461bcd60e51b8152600401610b8791906144d8565b50611fc08161372c565b6001600090815261013d60209081526000805160206152d4833981519152546040805163d04d79b560e01b815290516001600160a01b039092169263d04d79b5926004808401938290030181865afa15801561207c573d6000803e3d6000fd5b505050506040513d601f19601f8201168201806040525081019061146b9190614e3b565b60006120ae610c6f33612db3565b604051806040016040528060158152602001741512149154d213d31117d393d517d4915050d21151605a1b815250906120fa5760405162461bcd60e51b8152600401610b8791906144d8565b5083518551146040518060400160405280600d81526020016c494e56414c49445f56414c554560981b815250906121445760405162461bcd60e51b8152600401610b8791906144d8565b50600085516001600160401b03811115612160576121606144eb565b604051908082528060200260200182016040528015612189578160200160208202803683370190505b509050600086516001600160401b038111156121a7576121a76144eb565b6040519080825280602002602001820160405280156121d0578160200160208202803683370190505b509050600087516001600160401b038111156121ee576121ee6144eb565b60405190808252806020026020018201604052801561222157816020015b606081526020019060019003908161220c5790505b50905060005b8851811015612404576001600160a01b038a166122f45788818151811061225057612250614f4c565b602002602001015184828151811061226a5761226a614f4c565b60200260200101906001600160a01b031690816001600160a01b031681525050604051806020016040528060008152508282815181106122ac576122ac614f4c565b60200260200101819052508781815181106122c9576122c9614f4c565b60200260200101518382815181106122e3576122e3614f4c565b6020026020010181815250506123f2565b8984828151811061230757612307614f4c565b60200260200101906001600160a01b031690816001600160a01b03168152505063a9059cbb60e01b89828151811061234157612341614f4c565b602002602001015189838151811061235b5761235b614f4c565b60209081029190910101516040516001600160a01b0390921660248301526044820152606401604051602081830303815290604052906001600160e01b0319166020820180516001600160e01b0383818316178352505050508282815181106123c6576123c6614f4c565b602002602001018190525060008382815181106123e5576123e5614f4c565b6020026020010181815250505b806123fc816151a2565b915050612227565b506124546040518060c0016040528085815260200184815260200183815260200160cd54815260200160ce54815260200161243f6001612f64565b9052604080516060810190915280600161164b565b9998505050505050505050565b61246961347b565b6001600160a01b0381166124ce5760405162461bcd60e51b815260206004820152602660248201527f4f776e61626c653a206e6577206f776e657220697320746865207a65726f206160448201526564647265737360d01b6064820152608401610b87565b611fc0816134da565b6124df61145d565b156114105760405162461bcd60e51b815260206004820152601060248201526f14185d5cd8589b194e881c185d5cd95960821b6044820152606401610b87565b600461252a83611a9d565b600681111561253b5761253b6143a4565b146040518060400160405280600b81526020016a57524f4e475f535441544560a81b8152509061257e5760405162461bcd60e51b8152600401610b8791906144d8565b50600082815260c960209081526040808320600b8101805460ff191660051790558151815493840281016101409081019093526101208101848152909391928492606084019285928492849187018282801561260357602002820191906000526020600020905b81546001600160a01b031681526001909101906020018083116125e5575b505050505081526020016001820180548060200260200160405190810160405280929190818152602001828054801561265b57602002820191906000526020600020905b815481526020019060010190808311612647575b5050505050815260200160028201805480602002602001604051908101604052809291908181526020016000905b828210156127355783829060005260206000200180546126a890614de8565b80601f01602080910402602001604051908101604052809291908181526020018280546126d490614de8565b80156127215780601f106126f657610100808354040283529160200191612721565b820191906000526020600020905b81548152906001019060200180831161270457829003601f168201915b505050505081526020019060010190612689565b50505050815260200160038201548152602001600482015481526020016005820154815250508152602001600682016040518060c001604052908160008201548152602001600182015481526020016002820154815260200160038201548152602001600482015481526020016005820160009054906101000a900460ff1660068111156127c5576127c56143a4565b60068111156127d6576127d66143a4565b90525081526040805160608101909152600c83018054602090930192829060ff166003811115612808576128086143a4565b6003811115612819576128196143a4565b815260200160018201805461282d90614de8565b80601f016020809104026020016040519081016040528092919081815260200182805461285990614de8565b80156128a65780601f1061287b576101008083540402835291602001916128a6565b820191906000526020600020905b81548152906001019060200180831161288957829003601f168201915b505050505081526020016002820180546128bf90614de8565b80601f01602080910402602001604051908101604052809291908181526020018280546128eb90614de8565b80156129385780601f1061290d57610100808354040283529160200191612938565b820191906000526020600020905b81548152906001019060200180831161291b57829003601f168201915b50505050508152505081525050905060005b81515151811015612a755781516040015180518290811061296d5761296d614f4c565b6020026020010151516000036129e0576129db826000015160200151828151811061299a5761299a614f4c565b602002602001015183600001516000015183815181106129bc576129bc614f4c565b60200260200101516001600160a01b031661381d90919063ffffffff16565b612a63565b612a6182600001516040015182815181106129fd576129fd614f4c565b60200260200101518360000151602001518381518110612a1f57612a1f614f4c565b60200260200101518460000151600001518481518110612a4157612a41614f4c565b60200260200101516001600160a01b031661393b9092919063ffffffff16565b505b80612a6d816151a2565b91505061294a565b50604080820151805190820151915163b677bc6960e01b81526001600160a01b0385169263b677bc6992612aaf92909188916004016151bb565b600060405180830381600087803b158015612ac957600080fd5b505af1158015612add573d6000803e3d6000fd5b505050507f712ae1383f79ac853f8d882153778e0260ef8f03b504e2866e0593e04d2b291f83604051612b1291815260200190565b60405180910390a1505050565b600260655403612b715760405162461bcd60e51b815260206004820152601f60248201527f5265656e7472616e637947756172643a207265656e7472616e742063616c6c006044820152606401610b87565b6002606555565b600082815260c96020908152604091829020600601548251808401909352600c83526b1393d517d310555390d2115160a21b91830191909152612bce5760405162461bcd60e51b8152600401610b8791906144d8565b504360c960008481526020019081526020016000206006016000015411156040518060400160405280600c81526020016b1393d517d310555390d2115160a21b81525090612c2f5760405162461bcd60e51b8152600401610b8791906144d8565b504360c9600084815260200190815260200160002060060160010154116040518060400160405280600f81526020016e1593d5125391d7d192539254d21151608a1b81525090612c925760405162461bcd60e51b8152600401610b8791906144d8565b50600082815260c96020526040812060060154612cbc903390612cb7906001906151e1565b61324d565b90508115612d1457600083815260c9602052604081206009018054839290612ce590849061518f565b909155505033600090815260ca602090815260408083208684529091529020805460ff19166002179055612d60565b600083815260c960205260408120600a018054839290612d3590849061518f565b909155505033600090815260ca602090815260408083208684529091529020805460ff191660011790555b612d6983613969565b7f77d94b0c4db39f796091e7fef268f44482302e115be932a80c0ecf6e5455d7aa33848385612d99576001612d9c565b60025b604051612b1294939291906151f4565b6001606555565b6001600090815261013d60209081526000805160206152d483398151915254604080516309ab24eb60e41b81526001600160a01b03868116600483015291519190921692639ab24eb092602480820193918290030181865afa158015612e1d573d6000803e3d6000fd5b505050506040513d601f19601f82011682018060405250810190612e419190614e22565b92915050565b6001600090815261013d60209081526000805160206152d4833981519152546040805163d554934b60e01b815290516001600160a01b0390921692839263d554934b9260048082019392918290030181865afa158015612eab573d6000803e3d6000fd5b505050506040513d601f19601f82011682018060405250810190612ecf9190614e22565b816001600160a01b03166318160ddd6040518163ffffffff1660e01b8152600401602060405180830381865afa158015612f0d573d6000803e3d6000fd5b505050506040513d601f19601f82011682018060405250810190612f319190614e22565b612f3b91906151e1565b91505090565b6000612f4d838361522a565b612f5a620f42408661522a565b1015949350505050565b600080805260d160208190527efa5413e7b01fc543d01f0911de573ace463b956369df4472f39030e8d98b7754612e419183856003811115612fa857612fa86143a4565b6003811115612fb957612fb96143a4565b815260200190815260200160002054613df5565b600060cb60008154612fde906151a2565b919050819055905060405180606001604052808581526020016040518060c0016040528043600161300f919061518f565b81526020018561302043600161518f565b61302a919061518f565b8152602001613037612e47565b815260200160008152602001600081526020016000600681111561305d5761305d6143a4565b905281526020908101859052600083815260c98252604090208251805180519293919284926130909284929101906140a4565b5060208281015180516130a99260018501920190614109565b50604082015180516130c5916002840191602090910190614144565b50606082015181600301556080820151816004015560a082015181600501555050602082015181600601600082015181600001556020820151816001015560408201518160020155606082015181600301556080820151816004015560a08201518160050160006101000a81548160ff0219169083600681111561314b5761314b6143a4565b0217905550505060408201518051600c83018054909190829060ff1916600183600381111561317c5761317c6143a4565b02179055506020820151600182019061319590826150ba565b50604082015160028201906131aa90826150ba565b5050509050506131b981613e0b565b7f8fd94d78543f5e6b57da702ca98bdb467625b6c4a8d80ea80d5ab4a4ce302b388185856040516131ec93929190615241565b60405180910390a19392505050565b613203613e66565b6097805460ff191690557f5db9ee0a495bf2e6ff9c91a7834c1ba4fdd244a5e8aa4e537bd38aeae4b073aa335b6040516001600160a01b03909116815260200160405180910390a1565b6001600090815261013d60209081526000805160206152d48339815191525460408051630748d63560e31b81526001600160a01b0387811660048301526024820187905291519190921692633a46b1a892604480820193918290030181865afa1580156132be573d6000803e3d6000fd5b505050506040513d601f19601f820116820180604052508101906132e29190614e22565b9392505050565b805160408051808201909152600d81526c494e56414c49445f56414c554560981b602082015290620f4240116133325760405162461bcd60e51b8152600401610b8791906144d8565b50620f42408160200151106040518060400160405280600d81526020016c494e56414c49445f56414c554560981b815250906133815760405162461bcd60e51b8152600401610b8791906144d8565b50620f42408160400151106040518060400160405280600d81526020016c494e56414c49445f56414c554560981b815250906133d05760405162461bcd60e51b8152600401610b8791906144d8565b5060008160600151116040518060400160405280600d81526020016c494e56414c49445f56414c554560981b8152509061341d5760405162461bcd60e51b8152600401610b8791906144d8565b5060a08101515115801590613437575060a0810151516014115b6040518060400160405280600d81526020016c494e56414c49445f56414c554560981b81525090610baa5760405162461bcd60e51b8152600401610b8791906144d8565b336134846117f7565b6001600160a01b0316146114105760405162461bcd60e51b815260206004820181905260248201527f4f776e61626c653a2063616c6c6572206973206e6f7420746865206f776e65726044820152606401610b87565b603380546001600160a01b038381166001600160a01b0319831681179093556040519116919082907f8be0079c531659141344cd1fd0a4f28419497f9722a3daafe3b4186f6b6457e090600090a35050565b6135346124d7565b6097805460ff191660011790557f62e78cea01bee320cd4e420270b5ea74000d11b0c9f74754ebdbfc544b05a2586132303390565b600054610100900460ff166135905760405162461bcd60e51b8152600401610b879061526c565b611410613eb1565b600054610100900460ff166135bf5760405162461bcd60e51b8152600401610b879061526c565b611410613ee1565b600054610100900460ff166135ee5760405162461bcd60e51b8152600401610b879061526c565b611410613f14565b600054610100900460ff1661361d5760405162461bcd60e51b8152600401610b879061526c565b61010480546001600160a01b0319166001600160a01b0392909216919091179055565b613649816132e9565b805160cc5560208082015160cd5560408083015160ce5560608084015160cf55608084015160d05560a0909301805151600080805260d185527efa5413e7b01fc543d01f0911de573ace463b956369df4472f39030e8d98b7791909155815190930151600184527fb41c81a20ee1317ccb9b438d7e5d59d66d5a6ec10e50c28bfec0bae0f14bf52755805190910151600283527f32ea06fcf2721a86a5d9ed09fff93f12af8d61fae22ffe196961f9320ec53d3f55519091015160039091527f507fbfbc4604457cf48784aed8fcaf8ef1e156d984c943cc8583366a2705be5e55565b600061373782611a9d565b9050600181600681111561374d5761374d6143a4565b148061376a57506003816006811115613768576137686143a4565b145b8061378657506004816006811115613784576137846143a4565b145b6040518060400160405280600b81526020016a57524f4e475f535441544560a81b815250906137c85760405162461bcd60e51b8152600401610b8791906144d8565b50600082815260c96020908152604091829020600b01805460ff1916600617905590518381527f416e669c63d9a3a5e36ee7cc7e2104b8db28ccd286aa18966e98fa230c73b08c910160405180910390a15050565b8047101561386d5760405162461bcd60e51b815260206004820152601d60248201527f416464726573733a20696e73756666696369656e742062616c616e63650000006044820152606401610b87565b6000826001600160a01b03168260405160006040518083038185875af1925050503d80600081146138ba576040519150601f19603f3d011682016040523d82523d6000602084013e6138bf565b606091505b50509050806139365760405162461bcd60e51b815260206004820152603a60248201527f416464726573733a20756e61626c6520746f2073656e642076616c75652c207260448201527f6563697069656e74206d617920686176652072657665727465640000000000006064820152608401610b87565b505050565b60606139618484846040518060600160405280602981526020016152f460299139613f3b565b949350505050565b600081815260c960209081526040808320815181546101409481028201850190935261012081018381529093919284926060840192859284928491908701828280156139de57602002820191906000526020600020905b81546001600160a01b031681526001909101906020018083116139c0575b5050505050815260200160018201805480602002602001604051908101604052809291908181526020018280548015613a3657602002820191906000526020600020905b815481526020019060010190808311613a22575b5050505050815260200160028201805480602002602001604051908101604052809291908181526020016000905b82821015613b10578382906000526020600020018054613a8390614de8565b80601f0160208091040260200160405190810160405280929190818152602001828054613aaf90614de8565b8015613afc5780601f10613ad157610100808354040283529160200191613afc565b820191906000526020600020905b815481529060010190602001808311613adf57829003601f168201915b505050505081526020019060010190613a64565b50505050815260200160038201548152602001600482015481526020016005820154815250508152602001600682016040518060c001604052908160008201548152602001600182015481526020016002820154815260200160038201548152602001600482015481526020016005820160009054906101000a900460ff166006811115613ba057613ba06143a4565b6006811115613bb157613bb16143a4565b90525081526040805160608101909152600c83018054602090930192829060ff166003811115613be357613be36143a4565b6003811115613bf457613bf46143a4565b8152602001600182018054613c0890614de8565b80601f0160208091040260200160405190810160405280929190818152602001828054613c3490614de8565b8015613c815780601f10613c5657610100808354040283529160200191613c81565b820191906000526020600020905b815481529060010190602001808311613c6457829003601f168201915b50505050508152602001600282018054613c9a90614de8565b80601f0160208091040260200160405190810160405280929190818152602001828054613cc690614de8565b8015613d135780601f10613ce857610100808354040283529160200191613d13565b820191906000526020600020905b815481529060010190602001808311613cf657829003601f168201915b5050505050815250508152505090506000816020015160800151826020015160600151613d40919061518f565b9050600081836020015160400151613d5891906151e1565b9050613d7582846020015160400151856000015160600151612f41565b613d7f5750505050565b613daa81846020015160600151613d96919061518f565b602085015160400151855160800151612f41565b1580613dd45750613dd4836020015160600151846020015160400151856000015160800151612f41565b15613def57600084815260c960205260409020436007909101555b50505050565b6000818311613e0457816132e2565b5090919050565b61010454604051630ffb246960e21b8152600481018390526001600160a01b0390911690633fec91a490602401600060405180830381600087803b158015613e5257600080fd5b505af115801561199c573d6000803e3d6000fd5b613e6e61145d565b6114105760405162461bcd60e51b815260206004820152601460248201527314185d5cd8589b194e881b9bdd081c185d5cd95960621b6044820152606401610b87565b600054610100900460ff16613ed85760405162461bcd60e51b8152600401610b879061526c565b611410336134da565b600054610100900460ff16613f085760405162461bcd60e51b8152600401610b879061526c565b6097805460ff19169055565b600054610100900460ff16612dac5760405162461bcd60e51b8152600401610b879061526c565b606082471015613f9c5760405162461bcd60e51b815260206004820152602660248201527f416464726573733a20696e73756666696369656e742062616c616e636520666f6044820152651c8818d85b1b60d21b6064820152608401610b87565b600080866001600160a01b03168587604051613fb891906152b7565b60006040518083038185875af1925050503d8060008114613ff5576040519150601f19603f3d011682016040523d82523d6000602084013e613ffa565b606091505b5091509150611662878383876060831561407557825160000361406e576001600160a01b0385163b61406e5760405162461bcd60e51b815260206004820152601d60248201527f416464726573733a2063616c6c20746f206e6f6e2d636f6e74726163740000006044820152606401610b87565b5081613961565b613961838381511561408a5781518083602001fd5b8060405162461bcd60e51b8152600401610b8791906144d8565b8280548282559060005260206000209081019282156140f9579160200282015b828111156140f957825182546001600160a01b0319166001600160a01b039091161782556020909201916001909101906140c4565b50614105929150614196565b5090565b8280548282559060005260206000209081019282156140f9579160200282015b828111156140f9578251825591602001919060010190614129565b82805482825590600052602060002090810192821561418a579160200282015b8281111561418a578251829061417a90826150ba565b5091602001919060010190614164565b506141059291506141ab565b5b808211156141055760008155600101614197565b808211156141055760006141bf82826141c8565b506001016141ab565b5080546141d490614de8565b6000825580601f106141e4575050565b601f016020900490600052602060002090810190611fc09190614196565b60006020828403121561421457600080fd5b5035919050565b600081518084526020808501945080840160005b838110156142545781516001600160a01b03168752958201959082019060010161422f565b509495945050505050565b60005b8381101561427a578181015183820152602001614262565b50506000910152565b6000815180845261429b81602086016020860161425f565b601f01601f19169290920160200192915050565b600082825180855260208086019550808260051b84010181860160005b848110156142fa57601f198684030189526142e8838351614283565b988401989250908301906001016142cc565b5090979650505050505050565b6000815160c0845261431c60c085018261421b565b60208481015186830387830152805180845290820193509091600091908301905b8083101561435d578451825293830193600192909201919083019061433d565b5060408601519350868103604088015261437781856142af565b9350505050606083015160608501526080830151608085015260a083015160a08501528091505092915050565b634e487b7160e01b600052602160045260246000fd5b600781106143ca576143ca6143a4565b9052565b600481106143ca576143ca6143a4565b6143e98282516143ce565b60006020820151606060208501526144046060850182614283565b90506040830151848203604086015261441d8282614283565b95945050505050565b600061010080835261443a81840187614307565b905084516020840152602085015160408401526040850151606084015260608501516080840152608085015160a084015260a085015161447d60c08501826143ba565b5082810360e084015261449081856143de565b9695505050505050565b8015158114611fc057600080fd5b600080604083850312156144bb57600080fd5b8235915060208301356144cd8161449a565b809150509250929050565b6020815260006132e26020830184614283565b634e487b7160e01b600052604160045260246000fd5b6040516101a081016001600160401b0381118282101715614524576145246144eb565b60405290565b60405160c081016001600160401b0381118282101715614524576145246144eb565b604051608081016001600160401b0381118282101715614524576145246144eb565b60405160a081016001600160401b0381118282101715614524576145246144eb565b604051601f8201601f191681016001600160401b03811182821017156145b8576145b86144eb565b604052919050565b60006001600160401b038211156145d9576145d96144eb565b5060051b60200190565b6001600160a01b0381168114611fc057600080fd5b8035614603816145e3565b919050565b600082601f83011261461957600080fd5b8135602061462e614629836145c0565b614590565b82815260059290921b8401810191818101908684111561464d57600080fd5b8286015b84811015614671578035614664816145e3565b8352918301918301614651565b509695505050505050565b60006101a0828403121561468f57600080fd5b614697614501565b9050813581526020820135602082015260408201356040820152606082013560608201526080820135608082015260a082013560a082015260c082013560c082015260e082013560e0820152610100808301358183015250610120808301356001600160401b0381111561470a57600080fd5b61471685828601614608565b82840152505061014061472a8184016145f8565b9082015261016082810135908201526101809182013591810191909152919050565b80356003811061460357600080fd5b600082601f83011261476c57600080fd5b81356001600160401b03811115614785576147856144eb565b614798601f8201601f1916602001614590565b8181528460208386010111156147ad57600080fd5b816020850160208301376000918101602001919091529392505050565b803560ff8116811461460357600080fd5b600060c082840312156147ed57600080fd5b6147f561452a565b90506148008261474c565b815260208201356001600160401b038082111561481c57600080fd5b6148288583860161475b565b6020840152604084013591508082111561484157600080fd5b61484d8583860161475b565b6040840152606084013591508082111561486657600080fd5b506148738482850161475b565b6060830152506080820135608082015261488f60a083016147ca565b60a082015292915050565b600080600080600060a086880312156148b257600080fd5b85356001600160401b03808211156148c957600080fd5b6148d589838a0161467c565b965060208801359150808211156148eb57600080fd5b6148f789838a016147db565b9550604088013591508082111561490d57600080fd5b61491989838a0161475b565b9450606088013591508082111561492f57600080fd5b61493b89838a0161475b565b9350608088013591508082111561495157600080fd5b5061495e8882890161475b565b9150509295509295909350565b85815284602082015260a06040820152600061498a60a0830186614283565b828103606084015261499c8186614283565b9150508260808301529695505050505050565b600080604083850312156149c257600080fd5b82356149cd816145e3565b946020939093013593505050565b60038110611fc057611fc06143a4565b604081016149f8846149db565b9281526020015290565b60208101614a0f836149db565b91905290565b6000610120808385031215614a2957600080fd5b614a3161452a565b915082358252602080840135818401526040840135604084015260608401356060840152608084013560808401528460bf850112614a6e57600080fd5b614a7661454c565b918401918086841115614a8857600080fd5b60a086015b84811015614aa45780358352918301918301614a8d565b5060a08501525091949350505050565b60008060006101608486031215614aca57600080fd5b614ad48585614a15565b92506101208401356001600160401b0380821115614af157600080fd5b614afd8783880161475b565b9350610140860135915080821115614b1457600080fd5b50614b218682870161475b565b9150509250925092565b600060208284031215614b3d57600080fd5b6132e28261474c565b6000806000806101808587031215614b5d57600080fd5b8435614b68816145e3565b935060208501356001600160401b0380821115614b8457600080fd5b614b908883890161475b565b9450614b9f8860408901614a15565b9350610160870135915080821115614bb657600080fd5b9086019060a08289031215614bca57600080fd5b614bd261456e565b8235815260208301356020820152604083013582811115614bf257600080fd5b614bfe8a82860161475b565b604083015250606083013582811115614c1657600080fd5b614c228a82860161475b565b6060830152506080830135608082015280935050505092959194509250565b600060208284031215614c5357600080fd5b8135600481106132e257600080fd5b60008060408385031215614c7557600080fd5b8235614c80816145e3565b9150614c8e6020840161474c565b90509250929050565b60208101612e4182846143ba565b60006101208284031215614cb857600080fd5b6132e28383614a15565b600080600080600060a08688031215614cda57600080fd5b8535614ce5816145e3565b94506020868101356001600160401b0380821115614d0257600080fd5b614d0e8a838b01614608565b96506040890135915080821115614d2457600080fd5b818901915089601f830112614d3857600080fd5b8135614d46614629826145c0565b81815260059190911b8301840190848101908c831115614d6557600080fd5b938501935b82851015614d8357843582529385019390850190614d6a565b975050506060890135925080831115614d9b57600080fd5b614da78a848b0161475b565b94506080890135925080831115614dbd57600080fd5b505061495e8882890161475b565b600060208284031215614ddd57600080fd5b81356132e2816145e3565b600181811c90821680614dfc57607f821691505b602082108103614e1c57634e487b7160e01b600052602260045260246000fd5b50919050565b600060208284031215614e3457600080fd5b5051919050565b600060208284031215614e4d57600080fd5b81516132e28161449a565b600060208284031215614e6a57600080fd5b81516132e2816145e3565b60006101a0825184526020830151602085015260408301516040850152606083015160608501526080830151608085015260a083015160a085015260c083015160c085015260e083015160e0850152610100808401518186015250610120808401518282870152614ee88387018261421b565b9250505061014080840151614f07828701826001600160a01b03169052565b505061016083810151908501526101809283015192909301919091525090565b606081526000614f3a6060830186614e75565b60208301949094525060400152919050565b634e487b7160e01b600052603260045260246000fd5b606081526000614f756060830186614e75565b82810360208401528451614f88816149db565b80825250602085015160c06020830152614fa560c0830182614283565b905060408601518282036040840152614fbe8282614283565b91505060608601518282036060840152614fd88282614283565b9150506080860151608083015260ff60a08701511660a083015283810360408501526116628186614283565b600061012082019050825182526020808401518184015260408401516040840152606084015160608401526080840151608084015260a084015160a0840160005b600481101561506257825182529183019190830190600101615045565b5050505092915050565b601f82111561393657600081815260208120601f850160051c810160208610156150935750805b601f850160051c820191505b818110156150b25782815560010161509f565b505050505050565b81516001600160401b038111156150d3576150d36144eb565b6150e7816150e18454614de8565b8461506c565b602080601f83116001811461511c57600084156151045750858301515b600019600386901b1c1916600185901b1785556150b2565b600085815260208120601f198616915b8281101561514b5788860151825594840194600190910190840161512c565b50858210156151695787850151600019600388901b60f8161c191681555b5050505050600190811b01905550565b634e487b7160e01b600052601160045260246000fd5b80820180821115612e4157612e41615179565b6000600182016151b4576151b4615179565b5060010190565b6151c581856143ce565b82602082015260606040820152600061441d6060830184614283565b81810381811115612e4157612e41615179565b6001600160a01b038516815260208101849052604081018390526080810161521b836149db565b82606083015295945050505050565b8082028115828204841417612e4157612e41615179565b83815260606020820152600061525a6060830185614307565b828103604084015261449081856143de565b6020808252602b908201527f496e697469616c697a61626c653a20636f6e7472616374206973206e6f74206960408201526a6e697469616c697a696e6760a81b606082015260800190565b600082516152c981846020870161425f565b919091019291505056fe629d646ec67bfbeb7c6606ef8cc3b08ea57953ef9e89bc573ebaeb509393412b416464726573733a206c6f772d6c6576656c2063616c6c20776974682076616c7565206661696c6564a2646970667358221220f9e6e159d1b14cd849e83b5e84701f46369140e20b998729ad46e5732a3218ff64736f6c63430008110033",
  "devdoc": {
    "details": "Company Entry Point",
    "events": {
      "Received(uint256)": {
        "details": "Event emitted when pool contract receives ETH.",
        "params": {
          "amount": "Amount of received ETH"
        }
      }
    },
    "kind": "dev",
    "methods": {
      "cancelProposal(uint256)": {
        "details": "Cancel proposal, callable only by Service",
        "params": {
          "proposalId": "Proposal ID"
        }
      },
      "castVote(uint256,bool)": {
        "details": "Cast proposal vote",
        "params": {
          "proposalId": "Pool proposal ID",
          "support": "Against or for"
        }
      },
      "constructor": {
        "custom:oz-upgrades-unsafe-allow": "constructor"
      },
      "executeProposal(uint256)": {
        "details": "Execute proposal",
        "params": {
          "proposalId": "Proposal ID"
        }
      },
      "getBallot(address,uint256)": {
        "details": "Return voting result for a given account and proposal",
        "params": {
          "account": "Account address",
          "proposalId": "Proposal ID"
        },
        "returns": {
          "ballot": "Vote type",
          "votes": "Number of votes cast"
        }
      },
      "initialize(address,string,(uint256,uint256,uint256,uint256,uint256,uint256[4]),(uint256,uint256,string,string,uint256))": {
        "details": "Create TransferETH proposal",
        "params": {
          "companyInfo_": "Company info",
          "governanceSettings_": "GovernanceSettings_",
          "owner_": "Pool owner",
          "trademark_": "Trademark"
        }
      },
      "isDAO()": {
        "details": "Return if pool had a successful governance TGE",
        "returns": {
          "_0": "Is any governance TGE successful"
        }
      },
      "owner()": {
        "details": "Return pool owner",
        "returns": {
          "_0": "Owner address"
        }
      },
      "pause()": {
        "details": "Pause pool and corresponding TGEs and Tokens"
      },
      "paused()": {
        "details": "Return pool paused status",
        "returns": {
          "_0": "Is pool paused"
        }
      },
      "proposalState(uint256)": {
        "details": "Return proposal state",
        "params": {
          "proposalId": "Proposal ID"
        },
        "returns": {
          "_0": "ProposalState"
        }
      },
      "proposeGovernanceSettings((uint256,uint256,uint256,uint256,uint256,uint256[4]),string,string)": {
        "params": {
          "description": "Proposal description",
          "metaHash": "Hash value of proposal metadata",
          "settings": "New governance settings"
        },
        "returns": {
          "proposalId": "Created proposal's ID"
        }
      },
      "proposeTGE((uint256,uint256,uint256,uint256,uint256,uint256,uint256,uint256,uint256,address[],address,uint256,uint256),(uint8,string,string,string,uint256,uint8),string,string,string)": {
        "details": "Propose new TGE",
        "params": {
          "description": "Proposal description",
          "metaHash": "Hash value of proposal metadata",
          "metadataURI": "TGE metadata URI",
          "tgeInfo": "TGE parameters",
          "tokenInfo": "Token parameters"
        },
        "returns": {
          "proposalId": "Created proposal's ID"
        }
      },
      "proposeTransfer(address,address[],uint256[],string,string)": {
        "details": "Propose transfer of assets",
        "params": {
          "amounts": "Transfer amounts",
          "asset": "Asset to transfer (address(0) for ETH transfers)",
          "description": "Proposal description",
          "metaHash": "Hash value of proposal metadata",
          "recipients": "Transfer recipients"
        },
        "returns": {
          "proposalId": "Created proposal's ID"
        }
      },
      "renounceOwnership()": {
        "details": "Leaves the contract without owner. It will not be possible to call `onlyOwner` functions anymore. Can only be called by the current owner. NOTE: Renouncing ownership will leave the contract without an owner, thereby removing any functionality that is only available to the owner."
      },
      "setGovernanceSettings((uint256,uint256,uint256,uint256,uint256,uint256[4]))": {
        "params": {
          "settings": "New governance settings"
        }
      },
      "setToken(address,uint8)": {
        "details": "Set pool preference token",
        "params": {
          "tokenType_": "Token type",
          "token_": "Token address"
        }
      },
      "transferOwnership(address)": {
        "details": "Transfers ownership of the contract to a new account (`newOwner`). Can only be called by the current owner."
      },
      "unpause()": {
        "details": "Pause pool and corresponding TGEs and Tokens"
      }
    },
    "stateVariables": {
      "companyInfo": {
        "details": "Company info"
      },
      "tokens": {
        "details": "Pool tokens addresses"
      },
      "trademark": {
        "details": "Pool trademark"
      }
    },
    "version": 1
  },
  "userdoc": {
    "events": {
      "GovernanceSettingsSet(uint256,uint256,uint256,uint256,uint256,uint256[4])": {
        "notice": "Event emitted when governance settings are set"
      }
    },
    "kind": "user",
    "methods": {
      "MAX_BASE_EXECUTION_DELAY()": {
        "notice": "Max base execution delay (as blocks)"
      },
      "decisionThreshold()": {
        "notice": "Threshold of for votes required for proposal to succeed"
      },
      "executionDelays(uint8)": {
        "notice": "Delays for proposal types"
      },
      "proposalThreshold()": {
        "notice": "Threshold of votes required to propose"
      },
      "proposeGovernanceSettings((uint256,uint256,uint256,uint256,uint256,uint256[4]),string,string)": {
        "notice": "Propose new governance settings"
      },
      "quorumThreshold()": {
        "notice": "Threshold of votes required to reach quorum"
      },
      "setGovernanceSettings((uint256,uint256,uint256,uint256,uint256,uint256[4]))": {
        "notice": "Updates governance settings"
      },
      "transferValueForDelay()": {
        "notice": "Minimal transfer value to trigger delay"
      },
      "votingDuration()": {
        "notice": "Duration of proposal voting (as blocks)"
      }
    },
    "version": 1
  },
  "storageLayout": {
    "storage": [
      {
        "astId": 1184,
        "contract": "contracts/Pool.sol:Pool",
        "label": "_initialized",
        "offset": 0,
        "slot": "0",
        "type": "t_uint8"
      },
      {
        "astId": 1187,
        "contract": "contracts/Pool.sol:Pool",
        "label": "_initializing",
        "offset": 1,
        "slot": "0",
        "type": "t_bool"
      },
      {
        "astId": 4034,
        "contract": "contracts/Pool.sol:Pool",
        "label": "__gap",
        "offset": 0,
        "slot": "1",
        "type": "t_array(t_uint256)50_storage"
      },
      {
        "astId": 589,
        "contract": "contracts/Pool.sol:Pool",
        "label": "_owner",
        "offset": 0,
        "slot": "51",
        "type": "t_address"
      },
      {
        "astId": 709,
        "contract": "contracts/Pool.sol:Pool",
        "label": "__gap",
        "offset": 0,
        "slot": "52",
        "type": "t_array(t_uint256)49_storage"
      },
      {
        "astId": 1623,
        "contract": "contracts/Pool.sol:Pool",
        "label": "_status",
        "offset": 0,
        "slot": "101",
        "type": "t_uint256"
      },
      {
        "astId": 1681,
        "contract": "contracts/Pool.sol:Pool",
        "label": "__gap",
        "offset": 0,
        "slot": "102",
        "type": "t_array(t_uint256)49_storage"
      },
      {
        "astId": 1503,
        "contract": "contracts/Pool.sol:Pool",
        "label": "_paused",
        "offset": 0,
        "slot": "151",
        "type": "t_bool"
      },
      {
        "astId": 1608,
        "contract": "contracts/Pool.sol:Pool",
        "label": "__gap",
        "offset": 0,
        "slot": "152",
        "type": "t_array(t_uint256)49_storage"
      },
      {
        "astId": 15927,
        "contract": "contracts/Pool.sol:Pool",
        "label": "proposals",
        "offset": 0,
        "slot": "201",
        "type": "t_mapping(t_uint256,t_struct(Proposal)15921_storage)"
      },
      {
        "astId": 15939,
        "contract": "contracts/Pool.sol:Pool",
        "label": "ballots",
        "offset": 0,
        "slot": "202",
        "type": "t_mapping(t_address,t_mapping(t_uint256,t_enum(Ballot)15931))"
      },
      {
        "astId": 15942,
        "contract": "contracts/Pool.sol:Pool",
        "label": "lastProposalId",
        "offset": 0,
        "slot": "203",
        "type": "t_uint256"
      },
      {
        "astId": 15630,
        "contract": "contracts/Pool.sol:Pool",
        "label": "proposalThreshold",
        "offset": 0,
        "slot": "204",
        "type": "t_uint256"
      },
      {
        "astId": 15633,
        "contract": "contracts/Pool.sol:Pool",
        "label": "quorumThreshold",
        "offset": 0,
        "slot": "205",
        "type": "t_uint256"
      },
      {
        "astId": 15636,
        "contract": "contracts/Pool.sol:Pool",
        "label": "decisionThreshold",
        "offset": 0,
        "slot": "206",
        "type": "t_uint256"
      },
      {
        "astId": 15639,
        "contract": "contracts/Pool.sol:Pool",
        "label": "votingDuration",
        "offset": 0,
        "slot": "207",
        "type": "t_uint256"
      },
      {
        "astId": 15642,
        "contract": "contracts/Pool.sol:Pool",
        "label": "transferValueForDelay",
        "offset": 0,
        "slot": "208",
        "type": "t_uint256"
      },
      {
        "astId": 15648,
        "contract": "contracts/Pool.sol:Pool",
        "label": "executionDelays",
        "offset": 0,
        "slot": "209",
        "type": "t_mapping(t_enum(EventType)17575,t_uint256)"
      },
      {
        "astId": 15653,
        "contract": "contracts/Pool.sol:Pool",
        "label": "__gap",
        "offset": 0,
        "slot": "210",
        "type": "t_array(t_uint256)50_storage"
      },
      {
        "astId": 16607,
        "contract": "contracts/Pool.sol:Pool",
        "label": "service",
        "offset": 0,
        "slot": "260",
        "type": "t_contract(IService)17303"
      },
      {
        "astId": 16612,
        "contract": "contracts/Pool.sol:Pool",
        "label": "__gap",
        "offset": 0,
        "slot": "261",
        "type": "t_array(t_uint256)50_storage"
      },
      {
        "astId": 12341,
        "contract": "contracts/Pool.sol:Pool",
        "label": "trademark",
        "offset": 0,
        "slot": "311",
        "type": "t_string_storage"
      },
      {
        "astId": 12345,
        "contract": "contracts/Pool.sol:Pool",
        "label": "companyInfo",
        "offset": 0,
        "slot": "312",
        "type": "t_struct(CompanyInfo)17551_storage"
      },
      {
        "astId": 12351,
        "contract": "contracts/Pool.sol:Pool",
        "label": "tokens",
        "offset": 0,
        "slot": "317",
        "type": "t_mapping(t_enum(TokenType)17412,t_address)"
      }
    ],
    "types": {
      "t_address": {
        "encoding": "inplace",
        "label": "address",
        "numberOfBytes": "20"
      },
      "t_array(t_address)dyn_storage": {
        "base": "t_address",
        "encoding": "dynamic_array",
        "label": "address[]",
        "numberOfBytes": "32"
      },
      "t_array(t_bytes_storage)dyn_storage": {
        "base": "t_bytes_storage",
        "encoding": "dynamic_array",
        "label": "bytes[]",
        "numberOfBytes": "32"
      },
      "t_array(t_uint256)49_storage": {
        "base": "t_uint256",
        "encoding": "inplace",
        "label": "uint256[49]",
        "numberOfBytes": "1568"
      },
      "t_array(t_uint256)50_storage": {
        "base": "t_uint256",
        "encoding": "inplace",
        "label": "uint256[50]",
        "numberOfBytes": "1600"
      },
      "t_array(t_uint256)dyn_storage": {
        "base": "t_uint256",
        "encoding": "dynamic_array",
        "label": "uint256[]",
        "numberOfBytes": "32"
      },
      "t_bool": {
        "encoding": "inplace",
        "label": "bool",
        "numberOfBytes": "1"
      },
      "t_bytes_storage": {
        "encoding": "bytes",
        "label": "bytes",
        "numberOfBytes": "32"
      },
      "t_contract(IService)17303": {
        "encoding": "inplace",
        "label": "contract IService",
        "numberOfBytes": "20"
      },
      "t_enum(Ballot)15931": {
        "encoding": "inplace",
        "label": "enum Governor.Ballot",
        "numberOfBytes": "1"
      },
      "t_enum(EventType)17575": {
        "encoding": "inplace",
        "label": "enum IRecordsRegistry.EventType",
        "numberOfBytes": "1"
      },
      "t_enum(ProposalState)15873": {
        "encoding": "inplace",
        "label": "enum Governor.ProposalState",
        "numberOfBytes": "1"
      },
      "t_enum(TokenType)17412": {
        "encoding": "inplace",
        "label": "enum IToken.TokenType",
        "numberOfBytes": "1"
      },
      "t_mapping(t_address,t_mapping(t_uint256,t_enum(Ballot)15931))": {
        "encoding": "mapping",
        "key": "t_address",
        "label": "mapping(address => mapping(uint256 => enum Governor.Ballot))",
        "numberOfBytes": "32",
        "value": "t_mapping(t_uint256,t_enum(Ballot)15931)"
      },
      "t_mapping(t_enum(EventType)17575,t_uint256)": {
        "encoding": "mapping",
        "key": "t_enum(EventType)17575",
        "label": "mapping(enum IRecordsRegistry.EventType => uint256)",
        "numberOfBytes": "32",
        "value": "t_uint256"
      },
      "t_mapping(t_enum(TokenType)17412,t_address)": {
        "encoding": "mapping",
        "key": "t_enum(TokenType)17412",
        "label": "mapping(enum IToken.TokenType => address)",
        "numberOfBytes": "32",
        "value": "t_address"
      },
      "t_mapping(t_uint256,t_enum(Ballot)15931)": {
        "encoding": "mapping",
        "key": "t_uint256",
        "label": "mapping(uint256 => enum Governor.Ballot)",
        "numberOfBytes": "32",
        "value": "t_enum(Ballot)15931"
      },
      "t_mapping(t_uint256,t_struct(Proposal)15921_storage)": {
        "encoding": "mapping",
        "key": "t_uint256",
        "label": "mapping(uint256 => struct Governor.Proposal)",
        "numberOfBytes": "32",
        "value": "t_struct(Proposal)15921_storage"
      },
      "t_string_storage": {
        "encoding": "bytes",
        "label": "string",
        "numberOfBytes": "32"
      },
      "t_struct(CompanyInfo)17551_storage": {
        "encoding": "inplace",
        "label": "struct ICompaniesRegistry.CompanyInfo",
        "members": [
          {
            "astId": 17542,
            "contract": "contracts/Pool.sol:Pool",
            "label": "jurisdiction",
            "offset": 0,
            "slot": "0",
            "type": "t_uint256"
          },
          {
            "astId": 17544,
            "contract": "contracts/Pool.sol:Pool",
            "label": "entityType",
            "offset": 0,
            "slot": "1",
            "type": "t_uint256"
          },
          {
            "astId": 17546,
            "contract": "contracts/Pool.sol:Pool",
            "label": "ein",
            "offset": 0,
            "slot": "2",
            "type": "t_string_storage"
          },
          {
            "astId": 17548,
            "contract": "contracts/Pool.sol:Pool",
            "label": "dateOfIncorporation",
            "offset": 0,
            "slot": "3",
            "type": "t_string_storage"
          },
          {
            "astId": 17550,
            "contract": "contracts/Pool.sol:Pool",
            "label": "fee",
            "offset": 0,
            "slot": "4",
            "type": "t_uint256"
          }
        ],
        "numberOfBytes": "160"
      },
      "t_struct(Proposal)15921_storage": {
        "encoding": "inplace",
        "label": "struct Governor.Proposal",
        "members": [
          {
            "astId": 15914,
            "contract": "contracts/Pool.sol:Pool",
            "label": "core",
            "offset": 0,
            "slot": "0",
            "type": "t_struct(ProposalCoreData)15889_storage"
          },
          {
            "astId": 15917,
            "contract": "contracts/Pool.sol:Pool",
            "label": "vote",
            "offset": 0,
            "slot": "6",
            "type": "t_struct(ProposalVotingData)15903_storage"
          },
          {
            "astId": 15920,
            "contract": "contracts/Pool.sol:Pool",
            "label": "meta",
            "offset": 0,
            "slot": "12",
            "type": "t_struct(ProposalMetaData)15911_storage"
          }
        ],
        "numberOfBytes": "480"
      },
      "t_struct(ProposalCoreData)15889_storage": {
        "encoding": "inplace",
        "label": "struct Governor.ProposalCoreData",
        "members": [
          {
            "astId": 15876,
            "contract": "contracts/Pool.sol:Pool",
            "label": "targets",
            "offset": 0,
            "slot": "0",
            "type": "t_array(t_address)dyn_storage"
          },
          {
            "astId": 15879,
            "contract": "contracts/Pool.sol:Pool",
            "label": "values",
            "offset": 0,
            "slot": "1",
            "type": "t_array(t_uint256)dyn_storage"
          },
          {
            "astId": 15882,
            "contract": "contracts/Pool.sol:Pool",
            "label": "callDatas",
            "offset": 0,
            "slot": "2",
            "type": "t_array(t_bytes_storage)dyn_storage"
          },
          {
            "astId": 15884,
            "contract": "contracts/Pool.sol:Pool",
            "label": "quorumThreshold",
            "offset": 0,
            "slot": "3",
            "type": "t_uint256"
          },
          {
            "astId": 15886,
            "contract": "contracts/Pool.sol:Pool",
            "label": "decisionThreshold",
            "offset": 0,
            "slot": "4",
            "type": "t_uint256"
          },
          {
            "astId": 15888,
            "contract": "contracts/Pool.sol:Pool",
            "label": "executionDelay",
            "offset": 0,
            "slot": "5",
            "type": "t_uint256"
          }
        ],
        "numberOfBytes": "192"
      },
      "t_struct(ProposalMetaData)15911_storage": {
        "encoding": "inplace",
        "label": "struct Governor.ProposalMetaData",
        "members": [
          {
            "astId": 15906,
            "contract": "contracts/Pool.sol:Pool",
            "label": "proposalType",
            "offset": 0,
            "slot": "0",
            "type": "t_enum(EventType)17575"
          },
          {
            "astId": 15908,
            "contract": "contracts/Pool.sol:Pool",
            "label": "description",
            "offset": 0,
            "slot": "1",
            "type": "t_string_storage"
          },
          {
            "astId": 15910,
            "contract": "contracts/Pool.sol:Pool",
            "label": "metaHash",
            "offset": 0,
            "slot": "2",
            "type": "t_string_storage"
          }
        ],
        "numberOfBytes": "96"
      },
      "t_struct(ProposalVotingData)15903_storage": {
        "encoding": "inplace",
        "label": "struct Governor.ProposalVotingData",
        "members": [
          {
            "astId": 15891,
            "contract": "contracts/Pool.sol:Pool",
            "label": "startBlock",
            "offset": 0,
            "slot": "0",
            "type": "t_uint256"
          },
          {
            "astId": 15893,
            "contract": "contracts/Pool.sol:Pool",
            "label": "endBlock",
            "offset": 0,
            "slot": "1",
            "type": "t_uint256"
          },
          {
            "astId": 15895,
            "contract": "contracts/Pool.sol:Pool",
            "label": "availableVotes",
            "offset": 0,
            "slot": "2",
            "type": "t_uint256"
          },
          {
            "astId": 15897,
            "contract": "contracts/Pool.sol:Pool",
            "label": "forVotes",
            "offset": 0,
            "slot": "3",
            "type": "t_uint256"
          },
          {
            "astId": 15899,
            "contract": "contracts/Pool.sol:Pool",
            "label": "againstVotes",
            "offset": 0,
            "slot": "4",
            "type": "t_uint256"
          },
          {
            "astId": 15902,
            "contract": "contracts/Pool.sol:Pool",
            "label": "executionState",
            "offset": 0,
            "slot": "5",
            "type": "t_enum(ProposalState)15873"
          }
        ],
        "numberOfBytes": "192"
      },
      "t_uint256": {
        "encoding": "inplace",
        "label": "uint256",
        "numberOfBytes": "32"
      },
      "t_uint8": {
        "encoding": "inplace",
        "label": "uint8",
        "numberOfBytes": "1"
      }
    }
  }
}