{
  "address": "0x676E0f3D737321B9Ecc6EED5C258184C4F61194A",
  "abi": [
    {
      "inputs": [],
      "stateMutability": "nonpayable",
      "type": "constructor"
    },
    {
      "anonymous": false,
      "inputs": [
        {
          "indexed": false,
          "internalType": "uint256",
          "name": "index",
          "type": "uint256"
        },
        {
          "components": [
            {
              "internalType": "uint256",
              "name": "jurisdiction",
              "type": "uint256"
            },
            {
              "internalType": "uint256",
              "name": "entityType",
              "type": "uint256"
            },
            {
              "internalType": "string",
              "name": "ein",
              "type": "string"
            },
            {
              "internalType": "string",
              "name": "dateOfIncorporation",
              "type": "string"
            },
            {
              "internalType": "uint256",
              "name": "fee",
              "type": "uint256"
            }
          ],
          "indexed": false,
          "internalType": "struct ICompaniesRegistry.CompanyInfo",
          "name": "info",
          "type": "tuple"
        }
      ],
      "name": "CompanyCreated",
      "type": "event"
    },
    {
      "anonymous": false,
      "inputs": [
        {
          "indexed": false,
          "internalType": "uint256",
          "name": "metadataIndex",
          "type": "uint256"
        }
      ],
      "name": "CompanyDeleted",
      "type": "event"
    },
    {
      "anonymous": false,
      "inputs": [
        {
          "indexed": false,
          "internalType": "uint256",
          "name": "jurisdiction",
          "type": "uint256"
        },
        {
          "indexed": false,
          "internalType": "uint256",
          "name": "entityType",
          "type": "uint256"
        },
        {
          "indexed": false,
          "internalType": "uint256",
          "name": "id",
          "type": "uint256"
        },
        {
          "indexed": false,
          "internalType": "uint256",
          "name": "fee",
          "type": "uint256"
        }
      ],
      "name": "CompanyFeeUpdated",
      "type": "event"
    },
    {
      "anonymous": false,
      "inputs": [
        {
          "indexed": false,
          "internalType": "uint256",
          "name": "index",
          "type": "uint256"
        },
        {
          "indexed": false,
          "internalType": "address",
          "name": "addr",
          "type": "address"
        },
        {
          "indexed": false,
          "internalType": "enum IRecordsRegistry.ContractType",
          "name": "contractType",
          "type": "uint8"
        }
      ],
      "name": "ContractRecordAdded",
      "type": "event"
    },
    {
      "anonymous": false,
      "inputs": [
        {
          "indexed": false,
          "internalType": "uint256",
          "name": "index",
          "type": "uint256"
        },
        {
          "indexed": false,
          "internalType": "enum IRecordsRegistry.EventType",
          "name": "eventType",
          "type": "uint8"
        },
        {
          "indexed": false,
          "internalType": "address",
          "name": "pool",
          "type": "address"
        },
        {
          "indexed": false,
          "internalType": "uint256",
          "name": "proposalId",
          "type": "uint256"
        }
      ],
      "name": "EventRecordAdded",
      "type": "event"
    },
    {
      "anonymous": false,
      "inputs": [
        {
          "indexed": false,
          "internalType": "uint8",
          "name": "version",
          "type": "uint8"
        }
      ],
      "name": "Initialized",
      "type": "event"
    },
    {
      "anonymous": false,
      "inputs": [
        {
          "indexed": false,
          "internalType": "uint256",
          "name": "index",
          "type": "uint256"
        },
        {
          "indexed": false,
          "internalType": "address",
          "name": "pool",
          "type": "address"
        },
        {
          "indexed": false,
          "internalType": "uint256",
          "name": "proposalId",
          "type": "uint256"
        }
      ],
      "name": "ProposalRecordAdded",
      "type": "event"
    },
    {
      "anonymous": false,
      "inputs": [
        {
          "indexed": true,
          "internalType": "bytes32",
          "name": "role",
          "type": "bytes32"
        },
        {
          "indexed": true,
          "internalType": "bytes32",
          "name": "previousAdminRole",
          "type": "bytes32"
        },
        {
          "indexed": true,
          "internalType": "bytes32",
          "name": "newAdminRole",
          "type": "bytes32"
        }
      ],
      "name": "RoleAdminChanged",
      "type": "event"
    },
    {
      "anonymous": false,
      "inputs": [
        {
          "indexed": true,
          "internalType": "bytes32",
          "name": "role",
          "type": "bytes32"
        },
        {
          "indexed": true,
          "internalType": "address",
          "name": "account",
          "type": "address"
        },
        {
          "indexed": true,
          "internalType": "address",
          "name": "sender",
          "type": "address"
        }
      ],
      "name": "RoleGranted",
      "type": "event"
    },
    {
      "anonymous": false,
      "inputs": [
        {
          "indexed": true,
          "internalType": "bytes32",
          "name": "role",
          "type": "bytes32"
        },
        {
          "indexed": true,
          "internalType": "address",
          "name": "account",
          "type": "address"
        },
        {
          "indexed": true,
          "internalType": "address",
          "name": "sender",
          "type": "address"
        }
      ],
      "name": "RoleRevoked",
      "type": "event"
    },
    {
      "inputs": [],
      "name": "COMPANIES_MANAGER_ROLE",
      "outputs": [
        {
          "internalType": "bytes32",
          "name": "",
          "type": "bytes32"
        }
      ],
      "stateMutability": "view",
      "type": "function"
    },
    {
      "inputs": [],
      "name": "DEFAULT_ADMIN_ROLE",
      "outputs": [
        {
          "internalType": "bytes32",
          "name": "",
          "type": "bytes32"
        }
      ],
      "stateMutability": "view",
      "type": "function"
    },
    {
      "inputs": [],
      "name": "WHITELISTED_TOKEN_ROLE",
      "outputs": [
        {
          "internalType": "bytes32",
          "name": "",
          "type": "bytes32"
        }
      ],
      "stateMutability": "view",
      "type": "function"
    },
    {
      "inputs": [
        {
          "internalType": "address",
          "name": "addr",
          "type": "address"
        },
        {
          "internalType": "enum IRecordsRegistry.ContractType",
          "name": "contractType",
          "type": "uint8"
        },
        {
          "internalType": "string",
          "name": "description",
          "type": "string"
        }
      ],
      "name": "addContractRecord",
      "outputs": [
        {
          "internalType": "uint256",
          "name": "index",
          "type": "uint256"
        }
      ],
      "stateMutability": "nonpayable",
      "type": "function"
    },
    {
      "inputs": [
        {
          "internalType": "address",
          "name": "pool",
          "type": "address"
        },
        {
          "internalType": "enum IRecordsRegistry.EventType",
          "name": "eventType",
          "type": "uint8"
        },
        {
          "internalType": "uint256",
          "name": "proposalId",
          "type": "uint256"
        },
        {
          "internalType": "string",
          "name": "metaHash",
          "type": "string"
        }
      ],
      "name": "addEventRecord",
      "outputs": [
        {
          "internalType": "uint256",
          "name": "index",
          "type": "uint256"
        }
      ],
      "stateMutability": "nonpayable",
      "type": "function"
    },
    {
      "inputs": [
        {
          "internalType": "address",
          "name": "pool",
          "type": "address"
        },
        {
          "internalType": "uint256",
          "name": "proposalId",
          "type": "uint256"
        }
      ],
      "name": "addProposalRecord",
      "outputs": [
        {
          "internalType": "uint256",
          "name": "index",
          "type": "uint256"
        }
      ],
      "stateMutability": "nonpayable",
      "type": "function"
    },
    {
      "inputs": [
        {
          "internalType": "uint256",
          "name": "",
          "type": "uint256"
        }
      ],
      "name": "companies",
      "outputs": [
        {
          "internalType": "uint256",
          "name": "jurisdiction",
          "type": "uint256"
        },
        {
          "internalType": "uint256",
          "name": "entityType",
          "type": "uint256"
        },
        {
          "internalType": "string",
          "name": "ein",
          "type": "string"
        },
        {
          "internalType": "string",
          "name": "dateOfIncorporation",
          "type": "string"
        },
        {
          "internalType": "uint256",
          "name": "fee",
          "type": "uint256"
        }
      ],
      "stateMutability": "view",
      "type": "function"
    },
    {
      "inputs": [
        {
          "internalType": "uint256",
          "name": "jurisdiction",
          "type": "uint256"
        },
        {
          "internalType": "uint256",
          "name": "entityType",
          "type": "uint256"
        }
      ],
      "name": "companyAvailable",
      "outputs": [
        {
          "internalType": "bool",
          "name": "",
          "type": "bool"
        }
      ],
      "stateMutability": "view",
      "type": "function"
    },
    {
      "inputs": [
        {
          "internalType": "bytes32",
          "name": "",
          "type": "bytes32"
        }
      ],
      "name": "companyExists",
      "outputs": [
        {
          "internalType": "bool",
          "name": "",
          "type": "bool"
        }
      ],
      "stateMutability": "view",
      "type": "function"
    },
    {
      "inputs": [
        {
          "internalType": "uint256",
          "name": "",
          "type": "uint256"
        }
      ],
      "name": "contractRecords",
      "outputs": [
        {
          "internalType": "address",
          "name": "addr",
          "type": "address"
        },
        {
          "internalType": "enum IRecordsRegistry.ContractType",
          "name": "contractType",
          "type": "uint8"
        },
        {
          "internalType": "string",
          "name": "description",
          "type": "string"
        }
      ],
      "stateMutability": "view",
      "type": "function"
    },
    {
      "inputs": [
        {
          "components": [
            {
              "internalType": "uint256",
              "name": "jurisdiction",
              "type": "uint256"
            },
            {
              "internalType": "uint256",
              "name": "entityType",
              "type": "uint256"
            },
            {
              "internalType": "string",
              "name": "ein",
              "type": "string"
            },
            {
              "internalType": "string",
              "name": "dateOfIncorporation",
              "type": "string"
            },
            {
              "internalType": "uint256",
              "name": "fee",
              "type": "uint256"
            }
          ],
          "internalType": "struct ICompaniesRegistry.CompanyInfo",
          "name": "info",
          "type": "tuple"
        }
      ],
      "name": "createCompany",
      "outputs": [],
      "stateMutability": "nonpayable",
      "type": "function"
    },
    {
      "inputs": [
        {
          "internalType": "uint256",
          "name": "jurisdiction",
          "type": "uint256"
        },
        {
          "internalType": "uint256",
          "name": "entityType",
          "type": "uint256"
        },
        {
          "internalType": "uint256",
          "name": "id",
          "type": "uint256"
        }
      ],
      "name": "deleteCompany",
      "outputs": [],
      "stateMutability": "nonpayable",
      "type": "function"
    },
    {
      "inputs": [
        {
          "internalType": "uint256",
          "name": "",
          "type": "uint256"
        }
      ],
      "name": "events",
      "outputs": [
        {
          "internalType": "enum IRecordsRegistry.EventType",
          "name": "eventType",
          "type": "uint8"
        },
        {
          "internalType": "address",
          "name": "pool",
          "type": "address"
        },
        {
          "internalType": "uint256",
          "name": "proposalId",
          "type": "uint256"
        },
        {
          "internalType": "string",
          "name": "metaHash",
          "type": "string"
        }
      ],
      "stateMutability": "view",
      "type": "function"
    },
    {
      "inputs": [
        {
          "internalType": "bytes32",
          "name": "role",
          "type": "bytes32"
        }
      ],
      "name": "getRoleAdmin",
      "outputs": [
        {
          "internalType": "bytes32",
          "name": "",
          "type": "bytes32"
        }
      ],
      "stateMutability": "view",
      "type": "function"
    },
    {
      "inputs": [
        {
          "internalType": "bytes32",
          "name": "role",
          "type": "bytes32"
        },
        {
          "internalType": "uint256",
          "name": "index",
          "type": "uint256"
        }
      ],
      "name": "getRoleMember",
      "outputs": [
        {
          "internalType": "address",
          "name": "",
          "type": "address"
        }
      ],
      "stateMutability": "view",
      "type": "function"
    },
    {
      "inputs": [
        {
          "internalType": "bytes32",
          "name": "role",
          "type": "bytes32"
        }
      ],
      "name": "getRoleMemberCount",
      "outputs": [
        {
          "internalType": "uint256",
          "name": "",
          "type": "uint256"
        }
      ],
      "stateMutability": "view",
      "type": "function"
    },
    {
      "inputs": [
        {
          "internalType": "bytes32",
          "name": "role",
          "type": "bytes32"
        },
        {
          "internalType": "address",
          "name": "account",
          "type": "address"
        }
      ],
      "name": "grantRole",
      "outputs": [],
      "stateMutability": "nonpayable",
      "type": "function"
    },
    {
      "inputs": [
        {
          "internalType": "bytes32",
          "name": "role",
          "type": "bytes32"
        },
        {
          "internalType": "address",
          "name": "account",
          "type": "address"
        }
      ],
      "name": "hasRole",
      "outputs": [
        {
          "internalType": "bool",
          "name": "",
          "type": "bool"
        }
      ],
      "stateMutability": "view",
      "type": "function"
    },
    {
      "inputs": [
        {
          "internalType": "address",
          "name": "",
          "type": "address"
        }
      ],
      "name": "indexOfContract",
      "outputs": [
        {
          "internalType": "bool",
          "name": "exists",
          "type": "bool"
        },
        {
          "internalType": "uint160",
          "name": "index",
          "type": "uint160"
        }
      ],
      "stateMutability": "view",
      "type": "function"
    },
    {
      "inputs": [],
      "name": "initialize",
      "outputs": [],
      "stateMutability": "nonpayable",
      "type": "function"
    },
    {
      "inputs": [
        {
          "internalType": "address",
          "name": "token",
          "type": "address"
        }
      ],
      "name": "isTokenWhitelisted",
      "outputs": [
        {
          "internalType": "bool",
          "name": "",
          "type": "bool"
        }
      ],
      "stateMutability": "view",
      "type": "function"
    },
    {
      "inputs": [],
      "name": "lastCompanyIndex",
      "outputs": [
        {
          "internalType": "uint256",
          "name": "",
          "type": "uint256"
        }
      ],
      "stateMutability": "view",
      "type": "function"
    },
    {
      "inputs": [
        {
          "internalType": "uint256",
          "name": "jurisdiction",
          "type": "uint256"
        },
        {
          "internalType": "uint256",
          "name": "entityType",
          "type": "uint256"
        }
      ],
      "name": "lockCompany",
      "outputs": [
        {
          "components": [
            {
              "internalType": "uint256",
              "name": "jurisdiction",
              "type": "uint256"
            },
            {
              "internalType": "uint256",
              "name": "entityType",
              "type": "uint256"
            },
            {
              "internalType": "string",
              "name": "ein",
              "type": "string"
            },
            {
              "internalType": "string",
              "name": "dateOfIncorporation",
              "type": "string"
            },
            {
              "internalType": "uint256",
              "name": "fee",
              "type": "uint256"
            }
          ],
          "internalType": "struct ICompaniesRegistry.CompanyInfo",
          "name": "info",
          "type": "tuple"
        }
      ],
      "stateMutability": "nonpayable",
      "type": "function"
    },
    {
      "inputs": [
        {
          "internalType": "uint256",
          "name": "",
          "type": "uint256"
        }
      ],
      "name": "proposalRecords",
      "outputs": [
        {
          "internalType": "address",
          "name": "pool",
          "type": "address"
        },
        {
          "internalType": "uint256",
          "name": "proposalId",
          "type": "uint256"
        },
        {
          "internalType": "string",
          "name": "description",
          "type": "string"
        }
      ],
      "stateMutability": "view",
      "type": "function"
    },
    {
      "inputs": [
        {
          "internalType": "uint256",
          "name": "",
          "type": "uint256"
        },
        {
          "internalType": "uint256",
          "name": "",
          "type": "uint256"
        },
        {
          "internalType": "uint256",
          "name": "",
          "type": "uint256"
        }
      ],
      "name": "queue",
      "outputs": [
        {
          "internalType": "uint256",
          "name": "",
          "type": "uint256"
        }
      ],
      "stateMutability": "view",
      "type": "function"
    },
    {
      "inputs": [
        {
          "internalType": "bytes32",
          "name": "role",
          "type": "bytes32"
        },
        {
          "internalType": "address",
          "name": "account",
          "type": "address"
        }
      ],
      "name": "renounceRole",
      "outputs": [],
      "stateMutability": "nonpayable",
      "type": "function"
    },
    {
      "inputs": [
        {
          "internalType": "bytes32",
          "name": "role",
          "type": "bytes32"
        },
        {
          "internalType": "address",
          "name": "account",
          "type": "address"
        }
      ],
      "name": "revokeRole",
      "outputs": [],
      "stateMutability": "nonpayable",
      "type": "function"
    },
    {
      "inputs": [],
      "name": "service",
      "outputs": [
        {
          "internalType": "address",
          "name": "",
          "type": "address"
        }
      ],
      "stateMutability": "view",
      "type": "function"
    },
    {
      "inputs": [
        {
          "internalType": "address",
          "name": "service_",
          "type": "address"
        }
      ],
      "name": "setService",
      "outputs": [],
      "stateMutability": "nonpayable",
      "type": "function"
    },
    {
      "inputs": [
        {
          "internalType": "bytes4",
          "name": "interfaceId",
          "type": "bytes4"
        }
      ],
      "name": "supportsInterface",
      "outputs": [
        {
          "internalType": "bool",
          "name": "",
          "type": "bool"
        }
      ],
      "stateMutability": "view",
      "type": "function"
    },
    {
      "inputs": [
        {
          "internalType": "address",
          "name": "addr",
          "type": "address"
        }
      ],
      "name": "typeOf",
      "outputs": [
        {
          "internalType": "enum IRecordsRegistry.ContractType",
          "name": "",
          "type": "uint8"
        }
      ],
      "stateMutability": "view",
      "type": "function"
    },
    {
      "inputs": [
        {
          "internalType": "uint256",
          "name": "jurisdiction",
          "type": "uint256"
        },
        {
          "internalType": "uint256",
          "name": "entityType",
          "type": "uint256"
        },
        {
          "internalType": "uint256",
          "name": "id",
          "type": "uint256"
        },
        {
          "internalType": "uint256",
          "name": "fee",
          "type": "uint256"
        }
      ],
      "name": "updateCompanyFee",
      "outputs": [],
      "stateMutability": "nonpayable",
      "type": "function"
    },
    {
      "inputs": [
        {
          "internalType": "address[]",
          "name": "tokens",
          "type": "address[]"
        }
      ],
      "name": "whitelistTokens",
      "outputs": [],
      "stateMutability": "nonpayable",
      "type": "function"
    }
  ],
  "transactionHash": "0xaf1c57d4db82f9b0d5df616f32aa5f2001ae8d4a39d1bf12524311e801af830b",
  "args": [],
  "numDeployments": 1,
  "solcInputHash": "73e1d27fa3b1fad97fd6222f02a1bb42",
  "bytecode": "0x60806040523480156200001157600080fd5b506200001c62000022565b620000e4565b600054610100900460ff16156200008f5760405162461bcd60e51b815260206004820152602760248201527f496e697469616c697a61626c653a20636f6e747261637420697320696e697469604482015266616c697a696e6760c81b606482015260840160405180910390fd5b60005460ff9081161015620000e2576000805460ff191660ff9081179091556040519081527f7f26b83ff96e1f2b6a682f133852f6798a09c465da95921460cefb38474024989060200160405180910390a15b565b612b9e80620000f46000396000f3fe608060405234801561001057600080fd5b50600436106101fb5760003560e01c80638129fc1c1161011a578063d247616c116100ad578063e79d59301161007c578063e79d593014610516578063e7fce55f1461051f578063ee1019d414610532578063f05fdfa614610552578063f4be93691461056557600080fd5b8063d247616c146104c8578063d547741f146104db578063d598d4c9146104ee578063e2938db51461050157600080fd5b8063b5af090f116100e9578063b5af090f1461047c578063bf8bdac11461048f578063ca15c873146104a2578063ca197b31146104b557600080fd5b80638129fc1c1461042e5780639010d07c1461043657806391d1485414610461578063a217fddf1461047457600080fd5b80632813d19d116101925780634cb1e9e3116101615780634cb1e9e3146103b65780635d9c7cba146103c95780636dcb0cf8146103eb5780636f50aa301461040b57600080fd5b80632813d19d146103575780632f2ff15d1461037b57806336568abe1461039057806346179c58146103a357600080fd5b80631d5033a6116101ce5780631d5033a6146102ca5780631f8b4005146102ff57806323689a0b14610312578063248a9ca31461033457600080fd5b806301ffc9a7146102005780630962c8c4146102285780630b79143014610255578063121f661c14610278575b600080fd5b61021361020e366004611fad565b610578565b60405190151581526020015b60405180910390f35b610213610236366004611fd7565b600091825260ca60209081526040808420928452919052902054151590565b610268610263366004611ff9565b6105a3565b60405161021f949392919061208c565b6102ab6102863660046120e6565b60cf6020526000908152604090205460ff81169061010090046001600160a01b031682565b6040805192151583526001600160a01b0390911660208301520161021f565b6102f17fa21b4d8440b478c033018a500413e67ca2910a10ce4992fb2dcba26856a32e8981565b60405190815260200161021f565b6102f161030d366004612117565b610674565b610325610320366004611ff9565b610833565b60405161021f939291906121ef565b6102f1610342366004611ff9565b60009081526065602052604090206001015490565b61036a610365366004611ff9565b6108fc565b60405161021f95949392919061221f565b61038e610389366004612263565b610a3b565b005b61038e61039e366004612263565b610a65565b6102f16103b136600461228f565b610ae3565b61038e6103c4366004612330565b610c86565b6103dc6103d7366004611ff9565b610d04565b60405161021f939291906123b5565b6103fe6103f93660046120e6565b610d4e565b60405161021f91906123e4565b610213610419366004611ff9565b60cd6020526000908152604090205460ff1681565b61038e610ddc565b610449610444366004611fd7565b610eed565b6040516001600160a01b03909116815260200161021f565b61021361046f366004612263565b610f05565b6102f1600081565b61021361048a3660046120e6565b610f30565b61038e61049d3660046120e6565b610f5c565b6102f16104b0366004611ff9565b610f8a565b61038e6104c33660046123f2565b610fa1565b6102f16104d63660046123f2565b611223565b61038e6104e9366004612263565b611261565b60c954610449906001600160a01b031681565b6102f1600080516020612b4983398151915281565b6102f160cc5481565b61038e61052d36600461241e565b611286565b610545610540366004611fd7565b611473565b60405161021f9190612459565b61038e6105603660046124bd565b611779565b6102f16105733660046124ef565b61183b565b60006001600160e01b03198216635a05180f60e01b148061059d575061059d826119c4565b92915050565b60d181815481106105b357600080fd5b600091825260209091206003909102018054600182015460028301805460ff841695506101009093046001600160a01b03169391926105f190612519565b80601f016020809104026020016040519081016040528092919081815260200182805461061d90612519565b801561066a5780601f1061063f5761010080835404028352916020019161066a565b820191906000526020600020905b81548152906001019060200180831161064d57829003601f168201915b5050505050905084565b60c95460408051808201909152600b81526a4e4f545f5345525649434560a81b60208201526000916001600160a01b031633146106cd5760405162461bcd60e51b81526004016106c49190612553565b60405180910390fd5b5060ce6040518060600160405280866001600160a01b031681526020018560048111156106fc576106fc612012565b815260209081018590528254600181018455600093845292819020825160029094020180546001600160a01b039094166001600160a01b031985168117825591830151929390929183916001600160a81b03191617600160a01b83600481111561076857610768612012565b02179055506040820151600182019061078190826125c9565b505060ce546107939150600190612699565b604080518082018252600181526001600160a01b038381166020808401918252898316600090815260cf9091528490209251835491516001600160a81b0319909216901515610100600160a81b031916176101009190921602179055519091507f30ae76c641f7b77628da0dd91b34591e5b1dc7422220e5eb1080af2adfa142ef90610824908390879087906126ac565b60405180910390a19392505050565b60d0818154811061084357600080fd5b60009182526020909120600390910201805460018201546002830180546001600160a01b03909316945090929161087990612519565b80601f01602080910402602001604051908101604052809291908181526020018280546108a590612519565b80156108f25780601f106108c7576101008083540402835291602001916108f2565b820191906000526020600020905b8154815290600101906020018083116108d557829003601f168201915b5050505050905083565b60cb602052600090815260409020805460018201546002830180549293919261092490612519565b80601f016020809104026020016040519081016040528092919081815260200182805461095090612519565b801561099d5780601f106109725761010080835404028352916020019161099d565b820191906000526020600020905b81548152906001019060200180831161098057829003601f168201915b5050505050908060030180546109b290612519565b80601f01602080910402602001604051908101604052809291908181526020018280546109de90612519565b8015610a2b5780601f10610a0057610100808354040283529160200191610a2b565b820191906000526020600020905b815481529060010190602001808311610a0e57829003601f168201915b5050505050908060040154905085565b600082815260656020526040902060010154610a56816119f9565b610a608383611a03565b505050565b6001600160a01b0381163314610ad55760405162461bcd60e51b815260206004820152602f60248201527f416363657373436f6e74726f6c3a2063616e206f6e6c792072656e6f756e636560448201526e103937b632b9903337b91039b2b63360891b60648201526084016106c4565b610adf8282611a25565b5050565b60c95460408051808201909152600b81526a4e4f545f5345525649434560a81b60208201526000916001600160a01b03163314610b335760405162461bcd60e51b81526004016106c49190612553565b5060d16040518060800160405280876003811115610b5357610b53612012565b8152602001886001600160a01b0316815260200186815260200185858080601f0160208091040260200160405190810160405280939291908181526020018383808284376000920182905250939094525050835460018181018655948252602090912083516003928302909101805494959094919350849260ff19909216918490811115610be357610be3612012565b0217905550602082015181546001600160a01b0390911661010002610100600160a81b03199091161781556040820151600182015560608201516002820190610c2c90826125c9565b505060d154610c3e9150600190612699565b90507fcd6a83e26b7223cb3ee566d6b45eb10629b98ee7442e79f67db857b62247eb4381868887604051610c7594939291906126d7565b60405180910390a195945050505050565b6000610c91816119f9565b60005b82811015610cfe57610cec7fa21b4d8440b478c033018a500413e67ca2910a10ce4992fb2dcba26856a32e89858584818110610cd257610cd2612706565b9050602002016020810190610ce791906120e6565b611a03565b80610cf68161271c565b915050610c94565b50505050565b60ce8181548110610d1457600080fd5b6000918252602090912060029091020180546001820180546001600160a01b0383169450600160a01b90920460ff16929161087990612519565b6001600160a01b03808216600090815260cf6020908152604080832081518083019092525460ff81161515808352610100909104909416918101919091529091610d99576000610dd5565b60ce81602001516001600160a01b031681548110610db957610db9612706565b6000918252602090912060029091020154600160a01b900460ff165b9392505050565b600054610100900460ff1615808015610dfc5750600054600160ff909116105b80610e165750303b158015610e16575060005460ff166001145b610e795760405162461bcd60e51b815260206004820152602e60248201527f496e697469616c697a61626c653a20636f6e747261637420697320616c72656160448201526d191e481a5b9a5d1a585b1a5e995960921b60648201526084016106c4565b6000805460ff191660011790558015610e9c576000805461ff0019166101001790555b610ea4611a47565b8015610eea576000805461ff0019169055604051600181527f7f26b83ff96e1f2b6a682f133852f6798a09c465da95921460cefb38474024989060200160405180910390a15b50565b6000828152609760205260408120610dd59083611abf565b60009182526065602090815260408084206001600160a01b0393909316845291905290205460ff1690565b600061059d7fa21b4d8440b478c033018a500413e67ca2910a10ce4992fb2dcba26856a32e8983610f05565b6000610f67816119f9565b5060c980546001600160a01b0319166001600160a01b0392909216919091179055565b600081815260976020526040812061059d90611acb565b600080516020612b49833981519152610fb9816119f9565b600084815260ca602090815260408083208684529091528120805484908110610fe457610fe4612706565b600091825260208083209091015487835260ca825260408084208885529092529082205490925061101790600190612699565b600087815260ca6020908152604080832089845290915290208054919250908290811061104657611046612706565b600091825260208083209091015488835260ca82526040808420898552909252912080548690811061107a5761107a612706565b600091825260208083209091019290925587815260ca82526040808220888352909252208054806110ad576110ad612735565b60019003818190600052602060002001600090559055600060cb600084815260200190815260200160002060020180546110e690612519565b80601f016020809104026020016040519081016040528092919081815260200182805461111290612519565b801561115f5780601f106111345761010080835404028352916020019161115f565b820191906000526020600020905b81548152906001019060200180831161114257829003601f168201915b505050600086815260cb6020526040812081815560018101829055939450915061118e90506002830182611f5f565b61119c600383016000611f5f565b6004820160009055505060008787836040516020016111bd9392919061274b565b60408051601f198184030181528282528051602091820120600081815260cd8352839020805460ff1916905589845291519193507f2becd600b42eb771bee46672694b5a9e9d0acb6638d9c9a5e39bcc70954b7416928290030190a15050505050505050565b60ca602052826000526040600020602052816000526040600020818154811061124b57600080fd5b9060005260206000200160009250925050505481565b60008281526065602052604090206001015461127c816119f9565b610a608383611a25565b600080516020612b4983398151915261129e816119f9565b8135158015906112bb57506112b66040830183612778565b151590505b80156112d457506112cf6060830183612778565b151590505b80156112e4575060008260200135115b6040518060400160405280600a81526020016956414c55455f5a45524f60b01b815250906113255760405162461bcd60e51b81526004016106c49190612553565b5060008235602084013561133c6040860186612778565b60405160200161134f94939291906127c6565b60408051601f198184030181528282528051602091820120600081815260cd835283902054848401909352600b84526a24a72b20a624a22fa2a4a760a91b91840191909152925060ff16156113b75760405162461bcd60e51b81526004016106c49190612553565b50600081815260cd60205260408120805460ff1916600117905560cc805482906113e09061271c565b9182905550600081815260cb60205260409020909150849061140282826128a2565b50508335600090815260ca60209081526040808320828801358452825280832080546001810182559084529190922001829055517f45baac83b696783d108ca0f3c55b9ab33e858c32a0bc218fde16792113ebc763906114659083908790612a13565b60405180910390a150505050565b6114a56040518060a0016040528060008152602001600081526020016060815260200160608152602001600081525090565b60c95460408051808201909152600b81526a4e4f545f5345525649434560a81b6020820152906001600160a01b031633146114f35760405162461bcd60e51b81526004016106c49190612553565b50600083815260ca60209081526040808320858452825291829020548251808401909352600a8352694e4f5f434f4d50414e5960b01b91830191909152908161154f5760405162461bcd60e51b81526004016106c49190612553565b50600084815260ca602090815260408083208684529091528120611574600184612699565b8154811061158457611584612706565b600091825260208083209091015487835260ca825260408084208885529092529120805491925090806115b9576115b9612735565b6001900381819060005260206000200160009055905560cb60008281526020019081526020016000206040518060a0016040529081600082015481526020016001820154815260200160028201805461161190612519565b80601f016020809104026020016040519081016040528092919081815260200182805461163d90612519565b801561168a5780601f1061165f5761010080835404028352916020019161168a565b820191906000526020600020905b81548152906001019060200180831161166d57829003601f168201915b505050505081526020016003820180546116a390612519565b80601f01602080910402602001604051908101604052809291908181526020018280546116cf90612519565b801561171c5780601f106116f15761010080835404028352916020019161171c565b820191906000526020600020905b8154815290600101906020018083116116ff57829003601f168201915b505050918352505060049190910154602091820152600083815260cb90915260408120818155600181018290559194506117596002830182611f5f565b611767600383016000611f5f565b60048201600090555050505092915050565b600080516020612b49833981519152611791816119f9565b600085815260ca602090815260408083208784529091528120805491906117b9600184612699565b815481106117c9576117c9612706565b600091825260208083209091015480835260cb825260409283902060040187905582518a8152918201899052918101879052606081018690529091507f8aa521ded3813d116c8e8814b232c4f842dcf88bc533edf4f4e52741138e3bd39060800160405180910390a150505050505050565b60c95460408051808201909152600b81526a4e4f545f5345525649434560a81b60208201526000916001600160a01b0316331461188b5760405162461bcd60e51b81526004016106c49190612553565b50604080516060810182526001600160a01b038581168252602080830186815284519182018552600080835294840191825260d08054600181018255955283517fe89d44c8fd6a9bac8af33ce47f56337617d449bf7ff3956b618c646de829cbcb600390960295860180546001600160a01b03191691909416178355517fe89d44c8fd6a9bac8af33ce47f56337617d449bf7ff3956b618c646de829cbcc85015551919290917fe89d44c8fd6a9bac8af33ce47f56337617d449bf7ff3956b618c646de829cbcd9091019061196090826125c9565b505060d0546119729150600190612699565b604080518281526001600160a01b03861660208201529081018490529091507f275b6fbf6c9e793a28d01c614ff750fb316acacb6c25f06fdb8ac72d9dbabb089060600160405180910390a192915050565b60006001600160e01b03198216637965db0b60e01b148061059d57506301ffc9a760e01b6001600160e01b031983161461059d565b610eea8133611ad5565b611a0d8282611b2e565b6000828152609760205260409020610a609082611bb4565b611a2f8282611bc9565b6000828152609760205260409020610a609082611c30565b600054610100900460ff16611ab25760405162461bcd60e51b815260206004820152602b60248201527f496e697469616c697a61626c653a20636f6e7472616374206973206e6f74206960448201526a6e697469616c697a696e6760a81b60648201526084016106c4565b611abd600033611a03565b565b6000610dd58383611c45565b600061059d825490565b611adf8282610f05565b610adf57611aec81611c6f565b611af7836020611c81565b604051602001611b08929190612a92565b60408051601f198184030181529082905262461bcd60e51b82526106c491600401612553565b611b388282610f05565b610adf5760008281526065602090815260408083206001600160a01b03851684529091529020805460ff19166001179055611b703390565b6001600160a01b0316816001600160a01b0316837f2f8788117e7eff1d82e926ec794901d17c78024a50270940304540a733656f0d60405160405180910390a45050565b6000610dd5836001600160a01b038416611e1d565b611bd38282610f05565b15610adf5760008281526065602090815260408083206001600160a01b0385168085529252808320805460ff1916905551339285917ff6391f5c32d9c69d2a47ea670b442974b53935d1edc7fd64eb21e047a839171b9190a45050565b6000610dd5836001600160a01b038416611e6c565b6000826000018281548110611c5c57611c5c612706565b9060005260206000200154905092915050565b606061059d6001600160a01b03831660145b60606000611c90836002612b07565b611c9b906002612b1e565b67ffffffffffffffff811115611cb357611cb3612101565b6040519080825280601f01601f191660200182016040528015611cdd576020820181803683370190505b509050600360fc1b81600081518110611cf857611cf8612706565b60200101906001600160f81b031916908160001a905350600f60fb1b81600181518110611d2757611d27612706565b60200101906001600160f81b031916908160001a9053506000611d4b846002612b07565b611d56906001612b1e565b90505b6001811115611dce576f181899199a1a9b1b9c1cb0b131b232b360811b85600f1660108110611d8a57611d8a612706565b1a60f81b828281518110611da057611da0612706565b60200101906001600160f81b031916908160001a90535060049490941c93611dc781612b31565b9050611d59565b508315610dd55760405162461bcd60e51b815260206004820181905260248201527f537472696e67733a20686578206c656e67746820696e73756666696369656e7460448201526064016106c4565b6000818152600183016020526040812054611e645750815460018181018455600084815260208082209093018490558454848252828601909352604090209190915561059d565b50600061059d565b60008181526001830160205260408120548015611f55576000611e90600183612699565b8554909150600090611ea490600190612699565b9050818114611f09576000866000018281548110611ec457611ec4612706565b9060005260206000200154905080876000018481548110611ee757611ee7612706565b6000918252602080832090910192909255918252600188019052604090208390555b8554869080611f1a57611f1a612735565b60019003818190600052602060002001600090559055856001016000868152602001908152602001600020600090556001935050505061059d565b600091505061059d565b508054611f6b90612519565b6000825580601f10611f7b575050565b601f016020900490600052602060002090810190610eea91905b80821115611fa95760008155600101611f95565b5090565b600060208284031215611fbf57600080fd5b81356001600160e01b031981168114610dd557600080fd5b60008060408385031215611fea57600080fd5b50508035926020909101359150565b60006020828403121561200b57600080fd5b5035919050565b634e487b7160e01b600052602160045260246000fd5b6004811061203857612038612012565b9052565b60005b8381101561205757818101518382015260200161203f565b50506000910152565b6000815180845261207881602086016020860161203c565b601f01601f19169290920160200192915050565b6120968186612028565b60018060a01b03841660208201528260408201526080606082015260006120c06080830184612060565b9695505050505050565b80356001600160a01b03811681146120e157600080fd5b919050565b6000602082840312156120f857600080fd5b610dd5826120ca565b634e487b7160e01b600052604160045260246000fd5b60008060006060848603121561212c57600080fd5b612135846120ca565b925060208401356005811061214957600080fd5b9150604084013567ffffffffffffffff8082111561216657600080fd5b818601915086601f83011261217a57600080fd5b81358181111561218c5761218c612101565b604051601f8201601f19908116603f011681019083821181831017156121b4576121b4612101565b816040528281528960208487010111156121cd57600080fd5b8260208601602083013760006020848301015280955050505050509250925092565b60018060a01b03841681528260208201526060604082015260006122166060830184612060565b95945050505050565b85815284602082015260a06040820152600061223e60a0830186612060565b82810360608401526122508186612060565b9150508260808301529695505050505050565b6000806040838503121561227657600080fd5b82359150612286602084016120ca565b90509250929050565b6000806000806000608086880312156122a757600080fd5b6122b0866120ca565b94506020860135600481106122c457600080fd5b935060408601359250606086013567ffffffffffffffff808211156122e857600080fd5b818801915088601f8301126122fc57600080fd5b81358181111561230b57600080fd5b89602082850101111561231d57600080fd5b9699959850939650602001949392505050565b6000806020838503121561234357600080fd5b823567ffffffffffffffff8082111561235b57600080fd5b818501915085601f83011261236f57600080fd5b81358181111561237e57600080fd5b8660208260051b850101111561239357600080fd5b60209290920196919550909350505050565b6005811061203857612038612012565b6001600160a01b03841681526123ce60208201846123a5565b6060604082015260006122166060830184612060565b6020810161059d82846123a5565b60008060006060848603121561240757600080fd5b505081359360208301359350604090920135919050565b60006020828403121561243057600080fd5b813567ffffffffffffffff81111561244757600080fd5b820160a08185031215610dd557600080fd5b6020815281516020820152602082015160408201526000604083015160a0606084015261248960c0840182612060565b90506060840151601f198483030160808501526124a68282612060565b915050608084015160a08401528091505092915050565b600080600080608085870312156124d357600080fd5b5050823594602084013594506040840135936060013592509050565b6000806040838503121561250257600080fd5b61250b836120ca565b946020939093013593505050565b600181811c9082168061252d57607f821691505b60208210810361254d57634e487b7160e01b600052602260045260246000fd5b50919050565b602081526000610dd56020830184612060565b601f821115610a6057600081815260208120601f850160051c8101602086101561258d5750805b601f850160051c820191505b818110156125ac57828155600101612599565b505050505050565b600019600383901b1c191660019190911b1790565b815167ffffffffffffffff8111156125e3576125e3612101565b6125f7816125f18454612519565b84612566565b602080601f83116001811461262657600084156126145750858301515b61261e85826125b4565b8655506125ac565b600085815260208120601f198616915b8281101561265557888601518255948401946001909101908401612636565b50858210156126735787850151600019600388901b60f8161c191681555b5050505050600190811b01905550565b634e487b7160e01b600052601160045260246000fd5b8181038181111561059d5761059d612683565b8381526001600160a01b0383166020820152606081016126cf60408301846123a5565b949350505050565b848152608081016126eb6020830186612028565b6001600160a01b039390931660408201526060015292915050565b634e487b7160e01b600052603260045260246000fd5b60006001820161272e5761272e612683565b5060010190565b634e487b7160e01b600052603160045260246000fd5b8381528260208201526000825161276981604085016020870161203c565b91909101604001949350505050565b6000808335601e1984360301811261278f57600080fd5b83018035915067ffffffffffffffff8211156127aa57600080fd5b6020019150368190038213156127bf57600080fd5b9250929050565b84815283602082015281836040830137600091016040019081529392505050565b67ffffffffffffffff8311156127ff576127ff612101565b6128138361280d8354612519565b83612566565b6000601f841160018114612841576000851561282f5750838201355b61283986826125b4565b84555061289b565b600083815260209020601f19861690835b828110156128725786850135825560209485019460019092019101612852565b508682101561288f5760001960f88860031b161c19848701351681555b505060018560011b0183555b5050505050565b81358155600160208084013582840155600283016128c36040860186612778565b67ffffffffffffffff8111156128db576128db612101565b6128ef816128e98554612519565b85612566565b6000601f82116001811461291d576000831561290b5750838201355b61291584826125b4565b865550612972565b600085815260209020601f19841690835b8281101561294b578685013582559388019390890190880161292e565b50848210156129685760001960f88660031b161c19848701351681555b50508683881b0185555b505050505050506129866060830183612778565b6129948183600386016127e7565b5050608082013560048201555050565b6000808335601e198436030181126129bb57600080fd5b830160208101925035905067ffffffffffffffff8111156129db57600080fd5b8036038213156127bf57600080fd5b81835281816020850137506000828201602090810191909152601f909101601f19169091010190565b8281526040602082015281356040820152602082013560608201526000612a3d60408401846129a4565b60a06080850152612a5260e0850182846129ea565b915050612a6260608501856129a4565b848303603f190160a0860152612a798382846129ea565b92505050608084013560c0840152809150509392505050565b7f416363657373436f6e74726f6c3a206163636f756e7420000000000000000000815260008351612aca81601785016020880161203c565b7001034b99036b4b9b9b4b733903937b6329607d1b6017918401918201528351612afb81602884016020880161203c565b01602801949350505050565b808202811582820484141761059d5761059d612683565b8082018082111561059d5761059d612683565b600081612b4057612b40612683565b50600019019056fe0482b95699990ff052aaeda01e4b518e6066bb6d6932719cd6a7bf74a2fb5e81a2646970667358221220ecacfc2c5cdf3c08848f04ccfe57a536457b927dc3a9e006cc204c69a0a6eac064736f6c63430008110033",
  "devdoc": {
    "details": "Protocol registry",
    "kind": "dev",
    "methods": {
      "addContractRecord(address,uint8,string)": {
        "details": "Add contract record",
        "params": {
          "addr": "Contract address",
          "contractType": "Contract type"
        },
        "returns": {
          "index": "Record index"
        }
      },
      "addEventRecord(address,uint8,uint256,string)": {
        "details": "Add event record",
        "params": {
          "eventType": "Event type",
          "metaHash": "Hash value of event metadata",
          "pool": "Pool address",
          "proposalId": "Proposal ID"
        },
        "returns": {
          "index": "Record index"
        }
      },
      "addProposalRecord(address,uint256)": {
        "details": "Add proposal record",
        "params": {
          "pool": "Pool address",
          "proposalId": "Proposal ID"
        },
        "returns": {
          "index": "Record index"
        }
      },
      "companyAvailable(uint256,uint256)": {
        "details": "Check if pool available",
        "params": {
          "entityType": "Entity type",
          "jurisdiction": "Jurisdiction"
        },
        "returns": {
          "_0": "Flag if company is available"
        }
      },
      "constructor": {
        "custom:oz-upgrades-unsafe-allow": "constructor"
      },
      "createCompany((uint256,uint256,string,string,uint256))": {
        "details": "Create company record",
        "params": {
          "info": "Company Info"
        }
      },
      "deleteCompany(uint256,uint256,uint256)": {
        "details": "Delete queue record",
        "params": {
          "entityType": "Entity type",
          "id": "Queue index",
          "jurisdiction": "Jurisdiction"
        }
      },
      "getRoleAdmin(bytes32)": {
        "details": "Returns the admin role that controls `role`. See {grantRole} and {revokeRole}. To change a role's admin, use {_setRoleAdmin}."
      },
      "getRoleMember(bytes32,uint256)": {
        "details": "Returns one of the accounts that have `role`. `index` must be a value between 0 and {getRoleMemberCount}, non-inclusive. Role bearers are not sorted in any particular way, and their ordering may change at any point. WARNING: When using {getRoleMember} and {getRoleMemberCount}, make sure you perform all queries on the same block. See the following https://forum.openzeppelin.com/t/iterating-over-elements-on-enumerableset-in-openzeppelin-contracts/2296[forum post] for more information."
      },
      "getRoleMemberCount(bytes32)": {
        "details": "Returns the number of accounts that have `role`. Can be used together with {getRoleMember} to enumerate all bearers of a role."
      },
      "grantRole(bytes32,address)": {
        "details": "Grants `role` to `account`. If `account` had not been already granted `role`, emits a {RoleGranted} event. Requirements: - the caller must have ``role``'s admin role. May emit a {RoleGranted} event."
      },
      "hasRole(bytes32,address)": {
        "details": "Returns `true` if `account` has been granted `role`."
      },
      "initialize()": {
        "details": "Initializer"
      },
      "isTokenWhitelisted(address)": {
        "details": "Check if token is whitelisted",
        "params": {
          "token": "Token"
        },
        "returns": {
          "_0": "Is token whitelisted"
        }
      },
      "lockCompany(uint256,uint256)": {
        "details": "Lock company record",
        "returns": {
          "info": "Company info"
        }
      },
      "renounceRole(bytes32,address)": {
        "details": "Revokes `role` from the calling account. Roles are often managed via {grantRole} and {revokeRole}: this function's purpose is to provide a mechanism for accounts to lose their privileges if they are compromised (such as when a trusted device is misplaced). If the calling account had been revoked `role`, emits a {RoleRevoked} event. Requirements: - the caller must be `account`. May emit a {RoleRevoked} event."
      },
      "revokeRole(bytes32,address)": {
        "details": "Revokes `role` from `account`. If `account` had been granted `role`, emits a {RoleRevoked} event. Requirements: - the caller must have ``role``'s admin role. May emit a {RoleRevoked} event."
      },
      "supportsInterface(bytes4)": {
        "details": "See {IERC165-supportsInterface}."
      },
      "typeOf(address)": {
        "params": {
          "addr": "Address of contract"
        },
        "returns": {
          "_0": "Contract type"
        }
      },
      "updateCompanyFee(uint256,uint256,uint256,uint256)": {
        "details": "Update company fee",
        "params": {
          "entityType": "Entity type",
          "fee": "Fee to update",
          "id": "Queue index",
          "jurisdiction": "Jurisdiction"
        }
      }
    },
    "version": 1
  },
  "userdoc": {
    "kind": "user",
    "methods": {
      "typeOf(address)": {
        "notice": "Returns type of given contract"
      }
    },
    "version": 1
  },
  "storageLayout": {
    "storage": [
      {
        "astId": 1184,
        "contract": "contracts/Registry.sol:Registry",
        "label": "_initialized",
        "offset": 0,
        "slot": "0",
        "type": "t_uint8"
      },
      {
        "astId": 1187,
        "contract": "contracts/Registry.sol:Registry",
        "label": "_initializing",
        "offset": 1,
        "slot": "0",
        "type": "t_bool"
      },
      {
        "astId": 4034,
        "contract": "contracts/Registry.sol:Registry",
        "label": "__gap",
        "offset": 0,
        "slot": "1",
        "type": "t_array(t_uint256)50_storage"
      },
      {
        "astId": 4898,
        "contract": "contracts/Registry.sol:Registry",
        "label": "__gap",
        "offset": 0,
        "slot": "51",
        "type": "t_array(t_uint256)50_storage"
      },
      {
        "astId": 184,
        "contract": "contracts/Registry.sol:Registry",
        "label": "_roles",
        "offset": 0,
        "slot": "101",
        "type": "t_mapping(t_bytes32,t_struct(RoleData)179_storage)"
      },
      {
        "astId": 479,
        "contract": "contracts/Registry.sol:Registry",
        "label": "__gap",
        "offset": 0,
        "slot": "102",
        "type": "t_array(t_uint256)49_storage"
      },
      {
        "astId": 33,
        "contract": "contracts/Registry.sol:Registry",
        "label": "_roleMembers",
        "offset": 0,
        "slot": "151",
        "type": "t_mapping(t_bytes32,t_struct(AddressSet)7643_storage)"
      },
      {
        "astId": 143,
        "contract": "contracts/Registry.sol:Registry",
        "label": "__gap",
        "offset": 0,
        "slot": "152",
        "type": "t_array(t_uint256)49_storage"
      },
      {
        "astId": 18447,
        "contract": "contracts/Registry.sol:Registry",
        "label": "service",
        "offset": 0,
        "slot": "201",
        "type": "t_address"
      },
      {
        "astId": 17851,
        "contract": "contracts/Registry.sol:Registry",
        "label": "queue",
        "offset": 0,
        "slot": "202",
        "type": "t_mapping(t_uint256,t_mapping(t_uint256,t_array(t_uint256)dyn_storage))"
      },
      {
        "astId": 17857,
        "contract": "contracts/Registry.sol:Registry",
        "label": "companies",
        "offset": 0,
        "slot": "203",
        "type": "t_mapping(t_uint256,t_struct(CompanyInfo)17551_storage)"
      },
      {
        "astId": 17860,
        "contract": "contracts/Registry.sol:Registry",
        "label": "lastCompanyIndex",
        "offset": 0,
        "slot": "204",
        "type": "t_uint256"
      },
      {
        "astId": 17865,
        "contract": "contracts/Registry.sol:Registry",
        "label": "companyExists",
        "offset": 0,
        "slot": "205",
        "type": "t_mapping(t_bytes32,t_bool)"
      },
      {
        "astId": 18227,
        "contract": "contracts/Registry.sol:Registry",
        "label": "contractRecords",
        "offset": 0,
        "slot": "206",
        "type": "t_array(t_struct(ContractInfo)17583_storage)dyn_storage"
      },
      {
        "astId": 18238,
        "contract": "contracts/Registry.sol:Registry",
        "label": "indexOfContract",
        "offset": 0,
        "slot": "207",
        "type": "t_mapping(t_address,t_struct(ContractIndex)18232_storage)"
      },
      {
        "astId": 18243,
        "contract": "contracts/Registry.sol:Registry",
        "label": "proposalRecords",
        "offset": 0,
        "slot": "208",
        "type": "t_array(t_struct(ProposalInfo)17590_storage)dyn_storage"
      },
      {
        "astId": 18248,
        "contract": "contracts/Registry.sol:Registry",
        "label": "events",
        "offset": 0,
        "slot": "209",
        "type": "t_array(t_struct(Event)17600_storage)dyn_storage"
      }
    ],
    "types": {
      "t_address": {
        "encoding": "inplace",
        "label": "address",
        "numberOfBytes": "20"
      },
      "t_array(t_bytes32)dyn_storage": {
        "base": "t_bytes32",
        "encoding": "dynamic_array",
        "label": "bytes32[]",
        "numberOfBytes": "32"
      },
      "t_array(t_struct(ContractInfo)17583_storage)dyn_storage": {
        "base": "t_struct(ContractInfo)17583_storage",
        "encoding": "dynamic_array",
        "label": "struct IRecordsRegistry.ContractInfo[]",
        "numberOfBytes": "32"
      },
      "t_array(t_struct(Event)17600_storage)dyn_storage": {
        "base": "t_struct(Event)17600_storage",
        "encoding": "dynamic_array",
        "label": "struct IRecordsRegistry.Event[]",
        "numberOfBytes": "32"
      },
      "t_array(t_struct(ProposalInfo)17590_storage)dyn_storage": {
        "base": "t_struct(ProposalInfo)17590_storage",
        "encoding": "dynamic_array",
        "label": "struct IRecordsRegistry.ProposalInfo[]",
        "numberOfBytes": "32"
      },
      "t_array(t_uint256)49_storage": {
        "base": "t_uint256",
        "encoding": "inplace",
        "label": "uint256[49]",
        "numberOfBytes": "1568"
      },
      "t_array(t_uint256)50_storage": {
        "base": "t_uint256",
        "encoding": "inplace",
        "label": "uint256[50]",
        "numberOfBytes": "1600"
      },
      "t_array(t_uint256)dyn_storage": {
        "base": "t_uint256",
        "encoding": "dynamic_array",
        "label": "uint256[]",
        "numberOfBytes": "32"
      },
      "t_bool": {
        "encoding": "inplace",
        "label": "bool",
        "numberOfBytes": "1"
      },
      "t_bytes32": {
        "encoding": "inplace",
        "label": "bytes32",
        "numberOfBytes": "32"
      },
      "t_enum(ContractType)17570": {
        "encoding": "inplace",
        "label": "enum IRecordsRegistry.ContractType",
        "numberOfBytes": "1"
      },
      "t_enum(EventType)17575": {
        "encoding": "inplace",
        "label": "enum IRecordsRegistry.EventType",
        "numberOfBytes": "1"
      },
      "t_mapping(t_address,t_bool)": {
        "encoding": "mapping",
        "key": "t_address",
        "label": "mapping(address => bool)",
        "numberOfBytes": "32",
        "value": "t_bool"
      },
      "t_mapping(t_address,t_struct(ContractIndex)18232_storage)": {
        "encoding": "mapping",
        "key": "t_address",
        "label": "mapping(address => struct RecordsRegistry.ContractIndex)",
        "numberOfBytes": "32",
        "value": "t_struct(ContractIndex)18232_storage"
      },
      "t_mapping(t_bytes32,t_bool)": {
        "encoding": "mapping",
        "key": "t_bytes32",
        "label": "mapping(bytes32 => bool)",
        "numberOfBytes": "32",
        "value": "t_bool"
      },
      "t_mapping(t_bytes32,t_struct(AddressSet)7643_storage)": {
        "encoding": "mapping",
        "key": "t_bytes32",
        "label": "mapping(bytes32 => struct EnumerableSetUpgradeable.AddressSet)",
        "numberOfBytes": "32",
        "value": "t_struct(AddressSet)7643_storage"
      },
      "t_mapping(t_bytes32,t_struct(RoleData)179_storage)": {
        "encoding": "mapping",
        "key": "t_bytes32",
        "label": "mapping(bytes32 => struct AccessControlUpgradeable.RoleData)",
        "numberOfBytes": "32",
        "value": "t_struct(RoleData)179_storage"
      },
      "t_mapping(t_bytes32,t_uint256)": {
        "encoding": "mapping",
        "key": "t_bytes32",
        "label": "mapping(bytes32 => uint256)",
        "numberOfBytes": "32",
        "value": "t_uint256"
      },
      "t_mapping(t_uint256,t_array(t_uint256)dyn_storage)": {
        "encoding": "mapping",
        "key": "t_uint256",
        "label": "mapping(uint256 => uint256[])",
        "numberOfBytes": "32",
        "value": "t_array(t_uint256)dyn_storage"
      },
      "t_mapping(t_uint256,t_mapping(t_uint256,t_array(t_uint256)dyn_storage))": {
        "encoding": "mapping",
        "key": "t_uint256",
        "label": "mapping(uint256 => mapping(uint256 => uint256[]))",
        "numberOfBytes": "32",
        "value": "t_mapping(t_uint256,t_array(t_uint256)dyn_storage)"
      },
      "t_mapping(t_uint256,t_struct(CompanyInfo)17551_storage)": {
        "encoding": "mapping",
        "key": "t_uint256",
        "label": "mapping(uint256 => struct ICompaniesRegistry.CompanyInfo)",
        "numberOfBytes": "32",
        "value": "t_struct(CompanyInfo)17551_storage"
      },
      "t_string_storage": {
        "encoding": "bytes",
        "label": "string",
        "numberOfBytes": "32"
      },
      "t_struct(AddressSet)7643_storage": {
        "encoding": "inplace",
        "label": "struct EnumerableSetUpgradeable.AddressSet",
        "members": [
          {
            "astId": 7642,
            "contract": "contracts/Registry.sol:Registry",
            "label": "_inner",
            "offset": 0,
            "slot": "0",
            "type": "t_struct(Set)7328_storage"
          }
        ],
        "numberOfBytes": "64"
      },
      "t_struct(CompanyInfo)17551_storage": {
        "encoding": "inplace",
        "label": "struct ICompaniesRegistry.CompanyInfo",
        "members": [
          {
            "astId": 17542,
            "contract": "contracts/Registry.sol:Registry",
            "label": "jurisdiction",
            "offset": 0,
            "slot": "0",
            "type": "t_uint256"
          },
          {
            "astId": 17544,
            "contract": "contracts/Registry.sol:Registry",
            "label": "entityType",
            "offset": 0,
            "slot": "1",
            "type": "t_uint256"
          },
          {
            "astId": 17546,
            "contract": "contracts/Registry.sol:Registry",
            "label": "ein",
            "offset": 0,
            "slot": "2",
            "type": "t_string_storage"
          },
          {
            "astId": 17548,
            "contract": "contracts/Registry.sol:Registry",
            "label": "dateOfIncorporation",
            "offset": 0,
            "slot": "3",
            "type": "t_string_storage"
          },
          {
            "astId": 17550,
            "contract": "contracts/Registry.sol:Registry",
            "label": "fee",
            "offset": 0,
            "slot": "4",
            "type": "t_uint256"
          }
        ],
        "numberOfBytes": "160"
      },
      "t_struct(ContractIndex)18232_storage": {
        "encoding": "inplace",
        "label": "struct RecordsRegistry.ContractIndex",
        "members": [
          {
            "astId": 18229,
            "contract": "contracts/Registry.sol:Registry",
            "label": "exists",
            "offset": 0,
            "slot": "0",
            "type": "t_bool"
          },
          {
            "astId": 18231,
            "contract": "contracts/Registry.sol:Registry",
            "label": "index",
            "offset": 1,
            "slot": "0",
            "type": "t_uint160"
          }
        ],
        "numberOfBytes": "32"
      },
      "t_struct(ContractInfo)17583_storage": {
        "encoding": "inplace",
        "label": "struct IRecordsRegistry.ContractInfo",
        "members": [
          {
            "astId": 17577,
            "contract": "contracts/Registry.sol:Registry",
            "label": "addr",
            "offset": 0,
            "slot": "0",
            "type": "t_address"
          },
          {
            "astId": 17580,
            "contract": "contracts/Registry.sol:Registry",
            "label": "contractType",
            "offset": 20,
            "slot": "0",
            "type": "t_enum(ContractType)17570"
          },
          {
            "astId": 17582,
            "contract": "contracts/Registry.sol:Registry",
            "label": "description",
            "offset": 0,
            "slot": "1",
            "type": "t_string_storage"
          }
        ],
        "numberOfBytes": "64"
      },
      "t_struct(Event)17600_storage": {
        "encoding": "inplace",
        "label": "struct IRecordsRegistry.Event",
        "members": [
          {
            "astId": 17593,
            "contract": "contracts/Registry.sol:Registry",
            "label": "eventType",
            "offset": 0,
            "slot": "0",
            "type": "t_enum(EventType)17575"
          },
          {
            "astId": 17595,
            "contract": "contracts/Registry.sol:Registry",
            "label": "pool",
            "offset": 1,
            "slot": "0",
            "type": "t_address"
          },
          {
            "astId": 17597,
            "contract": "contracts/Registry.sol:Registry",
            "label": "proposalId",
            "offset": 0,
            "slot": "1",
            "type": "t_uint256"
          },
          {
            "astId": 17599,
            "contract": "contracts/Registry.sol:Registry",
            "label": "metaHash",
            "offset": 0,
            "slot": "2",
            "type": "t_string_storage"
          }
        ],
        "numberOfBytes": "96"
      },
      "t_struct(ProposalInfo)17590_storage": {
        "encoding": "inplace",
        "label": "struct IRecordsRegistry.ProposalInfo",
        "members": [
          {
            "astId": 17585,
            "contract": "contracts/Registry.sol:Registry",
            "label": "pool",
            "offset": 0,
            "slot": "0",
            "type": "t_address"
          },
          {
            "astId": 17587,
            "contract": "contracts/Registry.sol:Registry",
            "label": "proposalId",
            "offset": 0,
            "slot": "1",
            "type": "t_uint256"
          },
          {
            "astId": 17589,
            "contract": "contracts/Registry.sol:Registry",
            "label": "description",
            "offset": 0,
            "slot": "2",
            "type": "t_string_storage"
          }
        ],
        "numberOfBytes": "96"
      },
      "t_struct(RoleData)179_storage": {
        "encoding": "inplace",
        "label": "struct AccessControlUpgradeable.RoleData",
        "members": [
          {
            "astId": 176,
            "contract": "contracts/Registry.sol:Registry",
            "label": "members",
            "offset": 0,
            "slot": "0",
            "type": "t_mapping(t_address,t_bool)"
          },
          {
            "astId": 178,
            "contract": "contracts/Registry.sol:Registry",
            "label": "adminRole",
            "offset": 0,
            "slot": "1",
            "type": "t_bytes32"
          }
        ],
        "numberOfBytes": "64"
      },
      "t_struct(Set)7328_storage": {
        "encoding": "inplace",
        "label": "struct EnumerableSetUpgradeable.Set",
        "members": [
          {
            "astId": 7323,
            "contract": "contracts/Registry.sol:Registry",
            "label": "_values",
            "offset": 0,
            "slot": "0",
            "type": "t_array(t_bytes32)dyn_storage"
          },
          {
            "astId": 7327,
            "contract": "contracts/Registry.sol:Registry",
            "label": "_indexes",
            "offset": 0,
            "slot": "1",
            "type": "t_mapping(t_bytes32,t_uint256)"
          }
        ],
        "numberOfBytes": "64"
      },
      "t_uint160": {
        "encoding": "inplace",
        "label": "uint160",
        "numberOfBytes": "20"
      },
      "t_uint256": {
        "encoding": "inplace",
        "label": "uint256",
        "numberOfBytes": "32"
      },
      "t_uint8": {
        "encoding": "inplace",
        "label": "uint8",
        "numberOfBytes": "1"
      }
    }
  }
}