{
  "address": "0x800221CceD09b568be50462FfE6568Fcc603bDdF",
  "abi": [
    {
      "inputs": [],
      "stateMutability": "nonpayable",
      "type": "constructor"
    },
    {
      "anonymous": false,
      "inputs": [
        {
          "indexed": false,
          "internalType": "uint256",
          "name": "index",
          "type": "uint256"
        },
        {
          "indexed": false,
          "internalType": "address",
          "name": "poolAddress",
          "type": "address"
        }
      ],
      "name": "CompanyCreated",
      "type": "event"
    },
    {
      "anonymous": false,
      "inputs": [
        {
          "indexed": false,
          "internalType": "uint256",
          "name": "metadataIndex",
          "type": "uint256"
        }
      ],
      "name": "CompanyDeleted",
      "type": "event"
    },
    {
      "anonymous": false,
      "inputs": [
        {
          "indexed": false,
          "internalType": "uint256",
          "name": "jurisdiction",
          "type": "uint256"
        },
        {
          "indexed": false,
          "internalType": "uint256",
          "name": "entityType",
          "type": "uint256"
        },
        {
          "indexed": false,
          "internalType": "uint256",
          "name": "id",
          "type": "uint256"
        },
        {
          "indexed": false,
          "internalType": "uint256",
          "name": "fee",
          "type": "uint256"
        }
      ],
      "name": "CompanyFeeUpdated",
      "type": "event"
    },
    {
      "anonymous": false,
      "inputs": [
        {
          "indexed": false,
          "internalType": "uint256",
          "name": "index",
          "type": "uint256"
        },
        {
          "indexed": false,
          "internalType": "address",
          "name": "addr",
          "type": "address"
        },
        {
          "indexed": false,
          "internalType": "enum IRecordsRegistry.ContractType",
          "name": "contractType",
          "type": "uint8"
        }
      ],
      "name": "ContractRecordAdded",
      "type": "event"
    },
    {
      "anonymous": false,
      "inputs": [
        {
          "indexed": false,
          "internalType": "uint256",
          "name": "index",
          "type": "uint256"
        },
        {
          "indexed": false,
          "internalType": "enum IRecordsRegistry.EventType",
          "name": "eventType",
          "type": "uint8"
        },
        {
          "indexed": false,
          "internalType": "address",
          "name": "pool",
          "type": "address"
        },
        {
          "indexed": false,
          "internalType": "uint256",
          "name": "proposalId",
          "type": "uint256"
        }
      ],
      "name": "EventRecordAdded",
      "type": "event"
    },
    {
      "anonymous": false,
      "inputs": [
        {
          "indexed": false,
          "internalType": "uint8",
          "name": "version",
          "type": "uint8"
        }
      ],
      "name": "Initialized",
      "type": "event"
    },
    {
      "anonymous": false,
      "inputs": [
        {
          "indexed": false,
          "internalType": "uint256",
          "name": "index",
          "type": "uint256"
        },
        {
          "indexed": false,
          "internalType": "address",
          "name": "pool",
          "type": "address"
        },
        {
          "indexed": false,
          "internalType": "uint256",
          "name": "proposalId",
          "type": "uint256"
        }
      ],
      "name": "ProposalRecordAdded",
      "type": "event"
    },
    {
      "anonymous": false,
      "inputs": [
        {
          "indexed": true,
          "internalType": "bytes32",
          "name": "role",
          "type": "bytes32"
        },
        {
          "indexed": true,
          "internalType": "bytes32",
          "name": "previousAdminRole",
          "type": "bytes32"
        },
        {
          "indexed": true,
          "internalType": "bytes32",
          "name": "newAdminRole",
          "type": "bytes32"
        }
      ],
      "name": "RoleAdminChanged",
      "type": "event"
    },
    {
      "anonymous": false,
      "inputs": [
        {
          "indexed": true,
          "internalType": "bytes32",
          "name": "role",
          "type": "bytes32"
        },
        {
          "indexed": true,
          "internalType": "address",
          "name": "account",
          "type": "address"
        },
        {
          "indexed": true,
          "internalType": "address",
          "name": "sender",
          "type": "address"
        }
      ],
      "name": "RoleGranted",
      "type": "event"
    },
    {
      "anonymous": false,
      "inputs": [
        {
          "indexed": true,
          "internalType": "bytes32",
          "name": "role",
          "type": "bytes32"
        },
        {
          "indexed": true,
          "internalType": "address",
          "name": "account",
          "type": "address"
        },
        {
          "indexed": true,
          "internalType": "address",
          "name": "sender",
          "type": "address"
        }
      ],
      "name": "RoleRevoked",
      "type": "event"
    },
    {
      "inputs": [],
      "name": "COMPANIES_MANAGER_ROLE",
      "outputs": [
        {
          "internalType": "bytes32",
          "name": "",
          "type": "bytes32"
        }
      ],
      "stateMutability": "view",
      "type": "function"
    },
    {
      "inputs": [],
      "name": "DEFAULT_ADMIN_ROLE",
      "outputs": [
        {
          "internalType": "bytes32",
          "name": "",
          "type": "bytes32"
        }
      ],
      "stateMutability": "view",
      "type": "function"
    },
    {
      "inputs": [],
      "name": "WHITELISTED_TOKEN_ROLE",
      "outputs": [
        {
          "internalType": "bytes32",
          "name": "",
          "type": "bytes32"
        }
      ],
      "stateMutability": "view",
      "type": "function"
    },
    {
      "inputs": [
        {
          "internalType": "address",
          "name": "addr",
          "type": "address"
        },
        {
          "internalType": "enum IRecordsRegistry.ContractType",
          "name": "contractType",
          "type": "uint8"
        },
        {
          "internalType": "string",
          "name": "description",
          "type": "string"
        }
      ],
      "name": "addContractRecord",
      "outputs": [
        {
          "internalType": "uint256",
          "name": "index",
          "type": "uint256"
        }
      ],
      "stateMutability": "nonpayable",
      "type": "function"
    },
    {
      "inputs": [
        {
          "internalType": "address",
          "name": "pool",
          "type": "address"
        },
        {
          "internalType": "enum IRecordsRegistry.EventType",
          "name": "eventType",
          "type": "uint8"
        },
        {
          "internalType": "address",
          "name": "eventContract",
          "type": "address"
        },
        {
          "internalType": "uint256",
          "name": "proposalId",
          "type": "uint256"
        },
        {
          "internalType": "string",
          "name": "metaHash",
          "type": "string"
        }
      ],
      "name": "addEventRecord",
      "outputs": [
        {
          "internalType": "uint256",
          "name": "index",
          "type": "uint256"
        }
      ],
      "stateMutability": "nonpayable",
      "type": "function"
    },
    {
      "inputs": [
        {
          "internalType": "address",
          "name": "pool",
          "type": "address"
        },
        {
          "internalType": "uint256",
          "name": "proposalId",
          "type": "uint256"
        }
      ],
      "name": "addProposalRecord",
      "outputs": [
        {
          "internalType": "uint256",
          "name": "index",
          "type": "uint256"
        }
      ],
      "stateMutability": "nonpayable",
      "type": "function"
    },
    {
      "inputs": [
        {
          "internalType": "uint256",
          "name": "",
          "type": "uint256"
        }
      ],
      "name": "companies",
      "outputs": [
        {
          "internalType": "uint256",
          "name": "jurisdiction",
          "type": "uint256"
        },
        {
          "internalType": "uint256",
          "name": "entityType",
          "type": "uint256"
        },
        {
          "internalType": "string",
          "name": "ein",
          "type": "string"
        },
        {
          "internalType": "string",
          "name": "dateOfIncorporation",
          "type": "string"
        },
        {
          "internalType": "uint256",
          "name": "fee",
          "type": "uint256"
        }
      ],
      "stateMutability": "view",
      "type": "function"
    },
    {
      "inputs": [
        {
          "internalType": "uint256",
          "name": "jurisdiction",
          "type": "uint256"
        },
        {
          "internalType": "uint256",
          "name": "entityType",
          "type": "uint256"
        }
      ],
      "name": "companyAvailable",
      "outputs": [
        {
          "internalType": "bool",
          "name": "",
          "type": "bool"
        }
      ],
      "stateMutability": "view",
      "type": "function"
    },
    {
      "inputs": [
        {
          "internalType": "bytes32",
          "name": "",
          "type": "bytes32"
        }
      ],
      "name": "companyIndex",
      "outputs": [
        {
          "internalType": "uint256",
          "name": "",
          "type": "uint256"
        }
      ],
      "stateMutability": "view",
      "type": "function"
    },
    {
      "inputs": [
        {
          "internalType": "uint256",
          "name": "",
          "type": "uint256"
        }
      ],
      "name": "contractRecords",
      "outputs": [
        {
          "internalType": "address",
          "name": "addr",
          "type": "address"
        },
        {
          "internalType": "enum IRecordsRegistry.ContractType",
          "name": "contractType",
          "type": "uint8"
        },
        {
          "internalType": "string",
          "name": "description",
          "type": "string"
        }
      ],
      "stateMutability": "view",
      "type": "function"
    },
    {
      "inputs": [],
      "name": "contractRecordsCount",
      "outputs": [
        {
          "internalType": "uint256",
          "name": "",
          "type": "uint256"
        }
      ],
      "stateMutability": "view",
      "type": "function"
    },
    {
      "inputs": [
        {
          "components": [
            {
              "internalType": "uint256",
              "name": "jurisdiction",
              "type": "uint256"
            },
            {
              "internalType": "uint256",
              "name": "entityType",
              "type": "uint256"
            },
            {
              "internalType": "string",
              "name": "ein",
              "type": "string"
            },
            {
              "internalType": "string",
              "name": "dateOfIncorporation",
              "type": "string"
            },
            {
              "internalType": "uint256",
              "name": "fee",
              "type": "uint256"
            }
          ],
          "internalType": "struct ICompaniesRegistry.CompanyInfo",
          "name": "info",
          "type": "tuple"
        }
      ],
      "name": "createCompany",
      "outputs": [],
      "stateMutability": "nonpayable",
      "type": "function"
    },
    {
      "inputs": [
        {
          "internalType": "uint256",
          "name": "jurisdiction",
          "type": "uint256"
        },
        {
          "internalType": "uint256",
          "name": "entityType",
          "type": "uint256"
        },
        {
          "internalType": "uint256",
          "name": "id",
          "type": "uint256"
        }
      ],
      "name": "deleteCompany",
      "outputs": [],
      "stateMutability": "nonpayable",
      "type": "function"
    },
    {
      "inputs": [],
      "name": "eventRecordsCount",
      "outputs": [
        {
          "internalType": "uint256",
          "name": "",
          "type": "uint256"
        }
      ],
      "stateMutability": "view",
      "type": "function"
    },
    {
      "inputs": [
        {
          "internalType": "uint256",
          "name": "",
          "type": "uint256"
        }
      ],
      "name": "events",
      "outputs": [
        {
          "internalType": "enum IRecordsRegistry.EventType",
          "name": "eventType",
          "type": "uint8"
        },
        {
          "internalType": "address",
          "name": "pool",
          "type": "address"
        },
        {
          "internalType": "address",
          "name": "eventContract",
          "type": "address"
        },
        {
          "internalType": "uint256",
          "name": "proposalId",
          "type": "uint256"
        },
        {
          "internalType": "string",
          "name": "metaHash",
          "type": "string"
        }
      ],
      "stateMutability": "view",
      "type": "function"
    },
    {
      "inputs": [
        {
          "internalType": "uint256",
          "name": "jurisdiction",
          "type": "uint256"
        },
        {
          "internalType": "uint256",
          "name": "entityType",
          "type": "uint256"
        },
        {
          "internalType": "string",
          "name": "ein",
          "type": "string"
        }
      ],
      "name": "getCompany",
      "outputs": [
        {
          "components": [
            {
              "internalType": "uint256",
              "name": "jurisdiction",
              "type": "uint256"
            },
            {
              "internalType": "uint256",
              "name": "entityType",
              "type": "uint256"
            },
            {
              "internalType": "string",
              "name": "ein",
              "type": "string"
            },
            {
              "internalType": "string",
              "name": "dateOfIncorporation",
              "type": "string"
            },
            {
              "internalType": "uint256",
              "name": "fee",
              "type": "uint256"
            }
          ],
          "internalType": "struct ICompaniesRegistry.CompanyInfo",
          "name": "",
          "type": "tuple"
        }
      ],
      "stateMutability": "view",
      "type": "function"
    },
    {
      "inputs": [
        {
          "internalType": "uint256",
          "name": "jurisdiction",
          "type": "uint256"
        },
        {
          "internalType": "uint256",
          "name": "entityType",
          "type": "uint256"
        },
        {
          "internalType": "uint256",
          "name": "id",
          "type": "uint256"
        }
      ],
      "name": "getCompanyPoolAddress",
      "outputs": [
        {
          "internalType": "address",
          "name": "",
          "type": "address"
        }
      ],
      "stateMutability": "view",
      "type": "function"
    },
    {
      "inputs": [
        {
          "internalType": "address",
          "name": "pool",
          "type": "address"
        },
        {
          "internalType": "uint256",
          "name": "proposalId",
          "type": "uint256"
        }
      ],
      "name": "getGlobalProposalId",
      "outputs": [
        {
          "internalType": "uint256",
          "name": "",
          "type": "uint256"
        }
      ],
      "stateMutability": "view",
      "type": "function"
    },
    {
      "inputs": [
        {
          "internalType": "bytes32",
          "name": "role",
          "type": "bytes32"
        }
      ],
      "name": "getRoleAdmin",
      "outputs": [
        {
          "internalType": "bytes32",
          "name": "",
          "type": "bytes32"
        }
      ],
      "stateMutability": "view",
      "type": "function"
    },
    {
      "inputs": [
        {
          "internalType": "bytes32",
          "name": "role",
          "type": "bytes32"
        },
        {
          "internalType": "uint256",
          "name": "index",
          "type": "uint256"
        }
      ],
      "name": "getRoleMember",
      "outputs": [
        {
          "internalType": "address",
          "name": "",
          "type": "address"
        }
      ],
      "stateMutability": "view",
      "type": "function"
    },
    {
      "inputs": [
        {
          "internalType": "bytes32",
          "name": "role",
          "type": "bytes32"
        }
      ],
      "name": "getRoleMemberCount",
      "outputs": [
        {
          "internalType": "uint256",
          "name": "",
          "type": "uint256"
        }
      ],
      "stateMutability": "view",
      "type": "function"
    },
    {
      "inputs": [
        {
          "internalType": "bytes32",
          "name": "role",
          "type": "bytes32"
        },
        {
          "internalType": "address",
          "name": "account",
          "type": "address"
        }
      ],
      "name": "grantRole",
      "outputs": [],
      "stateMutability": "nonpayable",
      "type": "function"
    },
    {
      "inputs": [
        {
          "internalType": "bytes32",
          "name": "role",
          "type": "bytes32"
        },
        {
          "internalType": "address",
          "name": "account",
          "type": "address"
        }
      ],
      "name": "hasRole",
      "outputs": [
        {
          "internalType": "bool",
          "name": "",
          "type": "bool"
        }
      ],
      "stateMutability": "view",
      "type": "function"
    },
    {
      "inputs": [
        {
          "internalType": "address",
          "name": "",
          "type": "address"
        }
      ],
      "name": "indexOfContract",
      "outputs": [
        {
          "internalType": "bool",
          "name": "exists",
          "type": "bool"
        },
        {
          "internalType": "uint160",
          "name": "index",
          "type": "uint160"
        }
      ],
      "stateMutability": "view",
      "type": "function"
    },
    {
      "inputs": [],
      "name": "initialize",
      "outputs": [],
      "stateMutability": "nonpayable",
      "type": "function"
    },
    {
      "inputs": [
        {
          "internalType": "address",
          "name": "token",
          "type": "address"
        }
      ],
      "name": "isTokenWhitelisted",
      "outputs": [
        {
          "internalType": "bool",
          "name": "",
          "type": "bool"
        }
      ],
      "stateMutability": "view",
      "type": "function"
    },
    {
      "inputs": [],
      "name": "lastCompanyIndex",
      "outputs": [
        {
          "internalType": "uint256",
          "name": "",
          "type": "uint256"
        }
      ],
      "stateMutability": "view",
      "type": "function"
    },
    {
      "inputs": [
        {
          "internalType": "uint256",
          "name": "jurisdiction",
          "type": "uint256"
        },
        {
          "internalType": "uint256",
          "name": "entityType",
          "type": "uint256"
        }
      ],
      "name": "lockCompany",
      "outputs": [
        {
          "components": [
            {
              "internalType": "uint256",
              "name": "jurisdiction",
              "type": "uint256"
            },
            {
              "internalType": "uint256",
              "name": "entityType",
              "type": "uint256"
            },
            {
              "internalType": "string",
              "name": "ein",
              "type": "string"
            },
            {
              "internalType": "string",
              "name": "dateOfIncorporation",
              "type": "string"
            },
            {
              "internalType": "uint256",
              "name": "fee",
              "type": "uint256"
            }
          ],
          "internalType": "struct ICompaniesRegistry.CompanyInfo",
          "name": "info",
          "type": "tuple"
        }
      ],
      "stateMutability": "nonpayable",
      "type": "function"
    },
    {
      "inputs": [
        {
          "internalType": "uint256",
          "name": "",
          "type": "uint256"
        }
      ],
      "name": "proposalRecords",
      "outputs": [
        {
          "internalType": "address",
          "name": "pool",
          "type": "address"
        },
        {
          "internalType": "uint256",
          "name": "proposalId",
          "type": "uint256"
        },
        {
          "internalType": "string",
          "name": "description",
          "type": "string"
        }
      ],
      "stateMutability": "view",
      "type": "function"
    },
    {
      "inputs": [],
      "name": "proposalRecordsCount",
      "outputs": [
        {
          "internalType": "uint256",
          "name": "",
          "type": "uint256"
        }
      ],
      "stateMutability": "view",
      "type": "function"
    },
    {
      "inputs": [
        {
          "internalType": "uint256",
          "name": "",
          "type": "uint256"
        },
        {
          "internalType": "uint256",
          "name": "",
          "type": "uint256"
        },
        {
          "internalType": "uint256",
          "name": "",
          "type": "uint256"
        }
      ],
      "name": "queue",
      "outputs": [
        {
          "internalType": "uint256",
          "name": "",
          "type": "uint256"
        }
      ],
      "stateMutability": "view",
      "type": "function"
    },
    {
      "inputs": [
        {
          "internalType": "bytes32",
          "name": "role",
          "type": "bytes32"
        },
        {
          "internalType": "address",
          "name": "account",
          "type": "address"
        }
      ],
      "name": "renounceRole",
      "outputs": [],
      "stateMutability": "nonpayable",
      "type": "function"
    },
    {
      "inputs": [
        {
          "internalType": "bytes32",
          "name": "role",
          "type": "bytes32"
        },
        {
          "internalType": "address",
          "name": "account",
          "type": "address"
        }
      ],
      "name": "revokeRole",
      "outputs": [],
      "stateMutability": "nonpayable",
      "type": "function"
    },
    {
      "inputs": [],
      "name": "service",
      "outputs": [
        {
          "internalType": "address",
          "name": "",
          "type": "address"
        }
      ],
      "stateMutability": "view",
      "type": "function"
    },
    {
      "inputs": [
        {
          "internalType": "address",
          "name": "service_",
          "type": "address"
        }
      ],
      "name": "setService",
      "outputs": [],
      "stateMutability": "nonpayable",
      "type": "function"
    },
    {
      "inputs": [
        {
          "internalType": "bytes4",
          "name": "interfaceId",
          "type": "bytes4"
        }
      ],
      "name": "supportsInterface",
      "outputs": [
        {
          "internalType": "bool",
          "name": "",
          "type": "bool"
        }
      ],
      "stateMutability": "view",
      "type": "function"
    },
    {
      "inputs": [
        {
          "internalType": "address",
          "name": "addr",
          "type": "address"
        }
      ],
      "name": "typeOf",
      "outputs": [
        {
          "internalType": "enum IRecordsRegistry.ContractType",
          "name": "",
          "type": "uint8"
        }
      ],
      "stateMutability": "view",
      "type": "function"
    },
    {
      "inputs": [
        {
          "internalType": "uint256",
          "name": "jurisdiction",
          "type": "uint256"
        },
        {
          "internalType": "uint256",
          "name": "entityType",
          "type": "uint256"
        },
        {
          "internalType": "uint256",
          "name": "id",
          "type": "uint256"
        },
        {
          "internalType": "uint256",
          "name": "fee",
          "type": "uint256"
        }
      ],
      "name": "updateCompanyFee",
      "outputs": [],
      "stateMutability": "nonpayable",
      "type": "function"
    },
    {
      "inputs": [
        {
          "internalType": "address[]",
          "name": "tokens",
          "type": "address[]"
        }
      ],
      "name": "whitelistTokens",
      "outputs": [],
      "stateMutability": "nonpayable",
      "type": "function"
    }
  ],
  "transactionHash": "0xe05385cac31036ba60f922707ebc08ff76027ad4f87ddade41bb333e6930d94d",
  "args": [],
  "numDeployments": 1,
  "solcInputHash": "c4e923031ca87de7b1fbd8c588105cbd",
  "bytecode": "0x60806040523480156200001157600080fd5b506200001c62000022565b620000e4565b600054610100900460ff16156200008f5760405162461bcd60e51b815260206004820152602760248201527f496e697469616c697a61626c653a20636f6e747261637420697320696e697469604482015266616c697a696e6760c81b606482015260840160405180910390fd5b60005460ff9081161015620000e2576000805460ff191660ff9081179091556040519081527f7f26b83ff96e1f2b6a682f133852f6798a09c465da95921460cefb38474024989060200160405180910390a15b565b61318680620000f46000396000f3fe608060405234801561001057600080fd5b506004361061023d5760003560e01c80638129fc1c1161013b578063d247616c116100b8578063e7fce55f1161007c578063e7fce55f146105aa578063eaa2e889146105bd578063ee1019d4146105d0578063f05fdfa6146105e3578063f4be9369146105f657600080fd5b8063d247616c14610553578063d547741f14610566578063d598d4c914610579578063e2938db51461058c578063e79d5930146105a157600080fd5b8063a217fddf116100ff578063a217fddf146104ff578063b5af090f14610507578063bf8bdac11461051a578063ca15c8731461052d578063ca197b311461054057600080fd5b80638129fc1c146104c15780638fc51e41146104c95780639010d07c146104d157806391d14854146104e4578063a1aa7bcc146104f757600080fd5b806323689a0b116101c957806336568abe1161018d57806336568abe146104465780633c6b770b146104595780634cb1e9e31461046c5780635d9c7cba1461047f5780636dcb0cf8146104a157600080fd5b806323689a0b146103c0578063248a9ca3146103e25780632813d19d146104055780632f2ff15d146104295780633511e9951461043e57600080fd5b806310641b151161021057806310641b15146102e957806310eca50614610314578063121f661c146103345780631d5033a6146103865780631f8b4005146103ad57600080fd5b806301ffc9a7146102425780630455b4031461026a5780630962c8c4146102985780630b791430146102c5575b600080fd5b610255610250366004612429565b610609565b60405190151581526020015b60405180910390f35b61028a610278366004612453565b60cd6020526000908152604090205481565b604051908152602001610261565b6102556102a636600461246c565b600091825260ca60209081526040808420928452919052902054151590565b6102d86102d3366004612453565b610634565b604051610261959493929190612508565b6102fc6102f7366004612553565b610710565b6040516001600160a01b039091168152602001610261565b6103276103223660046125c8565b6107d5565b604051610261919061261b565b610367610342366004612694565b60cf6020526000908152604090205460ff81169061010090046001600160a01b031682565b6040805192151583526001600160a01b03909116602083015201610261565b61028a7fa21b4d8440b478c033018a500413e67ca2910a10ce4992fb2dcba26856a32e8981565b61028a6103bb3660046126c7565b6109a6565b6103d36103ce366004612453565b610b65565b604051610261939291906127a1565b61028a6103f0366004612453565b60009081526065602052604090206001015490565b610418610413366004612453565b610c2e565b6040516102619594939291906127c8565b61043c61043736600461280c565b610d6d565b005b60ce5461028a565b61043c61045436600461280c565b610d97565b61028a61046736600461283c565b610e15565b61043c61047a3660046128c5565b610fdf565b61049261048d366004612453565b61105d565b6040516102619392919061294a565b6104b46104af366004612694565b6110a7565b6040516102619190612979565b61043c611135565b60d15461028a565b6102fc6104df36600461246c565b611246565b6102556104f236600461280c565b61125e565b60d05461028a565b61028a600081565b610255610515366004612694565b611289565b61043c610528366004612694565b6112b5565b61028a61053b366004612453565b6112e3565b61043c61054e366004612553565b6112fa565b61028a610561366004612553565b61157f565b61043c61057436600461280c565b6115bd565b60c9546102fc906001600160a01b031681565b61028a60008051602061313183398151915281565b61028a60cc5481565b61043c6105b8366004612987565b6115e2565b61028a6105cb3660046129c2565b611841565b6103276105de36600461246c565b6118fd565b61043c6105f13660046129ee565b611c03565b61028a6106043660046129c2565b611cb7565b60006001600160e01b03198216635a05180f60e01b148061062e575061062e82611e40565b92915050565b60d1818154811061064457600080fd5b6000918252602090912060049091020180546001820154600283015460038401805460ff851696506101009094046001600160a01b039081169593169391929161068d90612a20565b80601f01602080910402602001604051908101604052809291908181526020018280546106b990612a20565b80156107065780601f106106db57610100808354040283529160200191610706565b820191906000526020600020905b8154815290600101906020018083116106e957829003601f168201915b5050505050905085565b600083815260ca60209081526040808320858452909152812080548291908490811061073e5761073e612a5a565b600091825260208083209091015460c95481845260cb90925260409283902092516313d0592f60e31b81529093506001600160a01b0390911691639e82c9789161078b9190600401612aed565b602060405180830381865afa1580156107a8573d6000803e3d6000fd5b505050506040513d601f19601f820116820180604052508101906107cc9190612b4a565b95945050505050565b6108076040518060a0016040528060008152602001600081526020016060815260200160608152602001600081525090565b6000858585856040516020016108209493929190612b67565b60408051601f198184030181528282528051602091820120600081815260cd835283812054815260cb835283902060a0850184528054855260018101549285019290925260028201805491955091928401919061087c90612a20565b80601f01602080910402602001604051908101604052809291908181526020018280546108a890612a20565b80156108f55780601f106108ca576101008083540402835291602001916108f5565b820191906000526020600020905b8154815290600101906020018083116108d857829003601f168201915b5050505050815260200160038201805461090e90612a20565b80601f016020809104026020016040519081016040528092919081815260200182805461093a90612a20565b80156109875780601f1061095c57610100808354040283529160200191610987565b820191906000526020600020905b81548152906001019060200180831161096a57829003601f168201915b505050505081526020016004820154815250509150505b949350505050565b60c95460408051808201909152600b81526a4e4f545f5345525649434560a81b60208201526000916001600160a01b031633146109ff5760405162461bcd60e51b81526004016109f69190612b88565b60405180910390fd5b5060ce6040518060600160405280866001600160a01b03168152602001856004811115610a2e57610a2e61248e565b815260209081018590528254600181018455600093845292819020825160029094020180546001600160a01b039094166001600160a01b031985168117825591830151929390929183916001600160a81b03191617600160a01b836004811115610a9a57610a9a61248e565b021790555060408201516001820190610ab39082612bfe565b505060ce54610ac59150600190612cce565b604080518082018252600181526001600160a01b038381166020808401918252898316600090815260cf9091528490209251835491516001600160a81b0319909216901515610100600160a81b031916176101009190921602179055519091507f30ae76c641f7b77628da0dd91b34591e5b1dc7422220e5eb1080af2adfa142ef90610b5690839087908790612ce1565b60405180910390a19392505050565b60d08181548110610b7557600080fd5b60009182526020909120600390910201805460018201546002830180546001600160a01b039093169450909291610bab90612a20565b80601f0160208091040260200160405190810160405280929190818152602001828054610bd790612a20565b8015610c245780601f10610bf957610100808354040283529160200191610c24565b820191906000526020600020905b815481529060010190602001808311610c0757829003601f168201915b5050505050905083565b60cb6020526000908152604090208054600182015460028301805492939192610c5690612a20565b80601f0160208091040260200160405190810160405280929190818152602001828054610c8290612a20565b8015610ccf5780601f10610ca457610100808354040283529160200191610ccf565b820191906000526020600020905b815481529060010190602001808311610cb257829003601f168201915b505050505090806003018054610ce490612a20565b80601f0160208091040260200160405190810160405280929190818152602001828054610d1090612a20565b8015610d5d5780601f10610d3257610100808354040283529160200191610d5d565b820191906000526020600020905b815481529060010190602001808311610d4057829003601f168201915b5050505050908060040154905085565b600082815260656020526040902060010154610d8881611e75565b610d928383611e7f565b505050565b6001600160a01b0381163314610e075760405162461bcd60e51b815260206004820152602f60248201527f416363657373436f6e74726f6c3a2063616e206f6e6c792072656e6f756e636560448201526e103937b632b9903337b91039b2b63360891b60648201526084016109f6565b610e118282611ea1565b5050565b60c95460408051808201909152600b81526a4e4f545f5345525649434560a81b60208201526000916001600160a01b03163314610e655760405162461bcd60e51b81526004016109f69190612b88565b5060d16040518060a00160405280886003811115610e8557610e8561248e565b8152602001896001600160a01b03168152602001876001600160a01b0316815260200186815260200185858080601f016020809104026020016040519081016040528093929190818152602001838380828437600092018290525093909452505083546001818101865594825260209091208351600490920201805493949093919250839160ff191690836003811115610f2157610f2161248e565b021790555060208201518154610100600160a81b0319166101006001600160a01b039283160217825560408301516001830180546001600160a01b031916919092161790556060820151600282015560808201516003820190610f849082612bfe565b505060d154610f969150600190612cce565b90507fcd6a83e26b7223cb3ee566d6b45eb10629b98ee7442e79f67db857b62247eb4381878987604051610fcd9493929190612d04565b60405180910390a19695505050505050565b6000610fea81611e75565b60005b82811015611057576110457fa21b4d8440b478c033018a500413e67ca2910a10ce4992fb2dcba26856a32e8985858481811061102b5761102b612a5a565b90506020020160208101906110409190612694565b611e7f565b8061104f81612d33565b915050610fed565b50505050565b60ce818154811061106d57600080fd5b6000918252602090912060029091020180546001820180546001600160a01b0383169450600160a01b90920460ff169291610bab90612a20565b6001600160a01b03808216600090815260cf6020908152604080832081518083019092525460ff811615158083526101009091049094169181019190915290916110f257600061112e565b60ce81602001516001600160a01b03168154811061111257611112612a5a565b6000918252602090912060029091020154600160a01b900460ff165b9392505050565b600054610100900460ff16158080156111555750600054600160ff909116105b8061116f5750303b15801561116f575060005460ff166001145b6111d25760405162461bcd60e51b815260206004820152602e60248201527f496e697469616c697a61626c653a20636f6e747261637420697320616c72656160448201526d191e481a5b9a5d1a585b1a5e995960921b60648201526084016109f6565b6000805460ff1916600117905580156111f5576000805461ff0019166101001790555b6111fd611ec3565b8015611243576000805461ff0019169055604051600181527f7f26b83ff96e1f2b6a682f133852f6798a09c465da95921460cefb38474024989060200160405180910390a15b50565b600082815260976020526040812061112e9083611f3b565b60009182526065602090815260408084206001600160a01b0393909316845291905290205460ff1690565b600061062e7fa21b4d8440b478c033018a500413e67ca2910a10ce4992fb2dcba26856a32e898361125e565b60006112c081611e75565b5060c980546001600160a01b0319166001600160a01b0392909216919091179055565b600081815260976020526040812061062e90611f47565b60008051602061313183398151915261131281611e75565b600084815260ca60209081526040808320868452909152812080548490811061133d5761133d612a5a565b600091825260208083209091015487835260ca825260408084208885529092529082205490925061137090600190612cce565b600087815260ca6020908152604080832089845290915290208054919250908290811061139f5761139f612a5a565b600091825260208083209091015488835260ca8252604080842089855290925291208054869081106113d3576113d3612a5a565b600091825260208083209091019290925587815260ca825260408082208883529092522080548061140657611406612d4c565b60019003818190600052602060002001600090559055600060cb6000848152602001908152602001600020600201805461143f90612a20565b80601f016020809104026020016040519081016040528092919081815260200182805461146b90612a20565b80156114b85780601f1061148d576101008083540402835291602001916114b8565b820191906000526020600020905b81548152906001019060200180831161149b57829003601f168201915b505050600086815260cb602052604081208181556001810182905593945091506114e7905060028301826123db565b6114f56003830160006123db565b60048201600090555050600087878360405160200161151693929190612d62565b60408051601f198184030181528282528051602091820120600081815260cd9092529181205591507f2becd600b42eb771bee46672694b5a9e9d0acb6638d9c9a5e39bcc70954b74169061156d9088815260200190565b60405180910390a15050505050505050565b60ca60205282600052604060002060205281600052604060002081815481106115a757600080fd5b9060005260206000200160009250925050505481565b6000828152606560205260409020600101546115d881611e75565b610d928383611ea1565b6000805160206131318339815191526115fa81611e75565b81351580159061161757506116126040830183612d8f565b151590505b8015611630575061162b6060830183612d8f565b151590505b8015611640575060008260200135115b6040518060400160405280600a81526020016956414c55455f5a45524f60b01b815250906116815760405162461bcd60e51b81526004016109f69190612b88565b506000823560208401356116986040860186612d8f565b6040516020016116ab9493929190612b67565b60408051601f198184030181528282528051602091820120600081815260cd835283902054848401909352600b84526a24a72b20a624a22fa2a4a760a91b918401919091529250156117105760405162461bcd60e51b81526004016109f69190612b88565b50600060cc6000815461172290612d33565b9182905550600083815260cd6020908152604080832084905583835260cb909152902090915084906117548282612e91565b50508335600090815260ca6020908152604080832082880135845282528083208054600181018255908452919092200182905560c95490516313d0592f60e31b81527f101856a493ff171c996b3f5ccb7f358d91bcf5c3e3c6858be43f924132d676569183916001600160a01b0390911690639e82c978906117da908990600401613002565b602060405180830381865afa1580156117f7573d6000803e3d6000fd5b505050506040513d601f19601f8201168201806040525081019061181b9190612b4a565b604080519283526001600160a01b0390911660208301520160405180910390a150505050565b60d05460009060015b8181116118f257600060d0828154811061186657611866612a5a565b6000918252602082206003909102015460d080546001600160a01b039092169350908490811061189857611898612a5a565b9060005260206000209060030201600101549050866001600160a01b0316826001600160a01b03161480156118cc57508581145b156118dd578294505050505061062e565b505080806118ea90612d33565b91505061184a565b506000949350505050565b61192f6040518060a0016040528060008152602001600081526020016060815260200160608152602001600081525090565b60c95460408051808201909152600b81526a4e4f545f5345525649434560a81b6020820152906001600160a01b0316331461197d5760405162461bcd60e51b81526004016109f69190612b88565b50600083815260ca60209081526040808320858452825291829020548251808401909352600a8352694e4f5f434f4d50414e5960b01b9183019190915290816119d95760405162461bcd60e51b81526004016109f69190612b88565b50600084815260ca6020908152604080832086845290915281206119fe600184612cce565b81548110611a0e57611a0e612a5a565b600091825260208083209091015487835260ca82526040808420888552909252912080549192509080611a4357611a43612d4c565b6001900381819060005260206000200160009055905560cb60008281526020019081526020016000206040518060a00160405290816000820154815260200160018201548152602001600282018054611a9b90612a20565b80601f0160208091040260200160405190810160405280929190818152602001828054611ac790612a20565b8015611b145780601f10611ae957610100808354040283529160200191611b14565b820191906000526020600020905b815481529060010190602001808311611af757829003601f168201915b50505050508152602001600382018054611b2d90612a20565b80601f0160208091040260200160405190810160405280929190818152602001828054611b5990612a20565b8015611ba65780601f10611b7b57610100808354040283529160200191611ba6565b820191906000526020600020905b815481529060010190602001808311611b8957829003601f168201915b505050918352505060049190910154602091820152600083815260cb9091526040812081815560018101829055919450611be360028301826123db565b611bf16003830160006123db565b60048201600090555050505092915050565b600080516020613131833981519152611c1b81611e75565b600085815260ca602090815260408083208784529091528120805485908110611c4657611c46612a5a565b600091825260208083209091015480835260cb82526040928390206004018690558251898152918201889052918101869052606081018590529091507f8aa521ded3813d116c8e8814b232c4f842dcf88bc533edf4f4e52741138e3bd39060800160405180910390a1505050505050565b60c95460408051808201909152600b81526a4e4f545f5345525649434560a81b60208201526000916001600160a01b03163314611d075760405162461bcd60e51b81526004016109f69190612b88565b50604080516060810182526001600160a01b038581168252602080830186815284519182018552600080835294840191825260d08054600181018255955283517fe89d44c8fd6a9bac8af33ce47f56337617d449bf7ff3956b618c646de829cbcb600390960295860180546001600160a01b03191691909416178355517fe89d44c8fd6a9bac8af33ce47f56337617d449bf7ff3956b618c646de829cbcc85015551919290917fe89d44c8fd6a9bac8af33ce47f56337617d449bf7ff3956b618c646de829cbcd90910190611ddc9082612bfe565b505060d054611dee9150600190612cce565b604080518281526001600160a01b03861660208201529081018490529091507f275b6fbf6c9e793a28d01c614ff750fb316acacb6c25f06fdb8ac72d9dbabb089060600160405180910390a192915050565b60006001600160e01b03198216637965db0b60e01b148061062e57506301ffc9a760e01b6001600160e01b031983161461062e565b6112438133611f51565b611e898282611faa565b6000828152609760205260409020610d929082612030565b611eab8282612045565b6000828152609760205260409020610d9290826120ac565b600054610100900460ff16611f2e5760405162461bcd60e51b815260206004820152602b60248201527f496e697469616c697a61626c653a20636f6e7472616374206973206e6f74206960448201526a6e697469616c697a696e6760a81b60648201526084016109f6565b611f39600033611e7f565b565b600061112e83836120c1565b600061062e825490565b611f5b828261125e565b610e1157611f68816120eb565b611f738360206120fd565b604051602001611f8492919061307a565b60408051601f198184030181529082905262461bcd60e51b82526109f691600401612b88565b611fb4828261125e565b610e115760008281526065602090815260408083206001600160a01b03851684529091529020805460ff19166001179055611fec3390565b6001600160a01b0316816001600160a01b0316837f2f8788117e7eff1d82e926ec794901d17c78024a50270940304540a733656f0d60405160405180910390a45050565b600061112e836001600160a01b038416612299565b61204f828261125e565b15610e115760008281526065602090815260408083206001600160a01b0385168085529252808320805460ff1916905551339285917ff6391f5c32d9c69d2a47ea670b442974b53935d1edc7fd64eb21e047a839171b9190a45050565b600061112e836001600160a01b0384166122e8565b60008260000182815481106120d8576120d8612a5a565b9060005260206000200154905092915050565b606061062e6001600160a01b03831660145b6060600061210c8360026130ef565b612117906002613106565b67ffffffffffffffff81111561212f5761212f6126b1565b6040519080825280601f01601f191660200182016040528015612159576020820181803683370190505b509050600360fc1b8160008151811061217457612174612a5a565b60200101906001600160f81b031916908160001a905350600f60fb1b816001815181106121a3576121a3612a5a565b60200101906001600160f81b031916908160001a90535060006121c78460026130ef565b6121d2906001613106565b90505b600181111561224a576f181899199a1a9b1b9c1cb0b131b232b360811b85600f166010811061220657612206612a5a565b1a60f81b82828151811061221c5761221c612a5a565b60200101906001600160f81b031916908160001a90535060049490941c9361224381613119565b90506121d5565b50831561112e5760405162461bcd60e51b815260206004820181905260248201527f537472696e67733a20686578206c656e67746820696e73756666696369656e7460448201526064016109f6565b60008181526001830160205260408120546122e05750815460018181018455600084815260208082209093018490558454848252828601909352604090209190915561062e565b50600061062e565b600081815260018301602052604081205480156123d157600061230c600183612cce565b855490915060009061232090600190612cce565b905081811461238557600086600001828154811061234057612340612a5a565b906000526020600020015490508087600001848154811061236357612363612a5a565b6000918252602080832090910192909255918252600188019052604090208390555b855486908061239657612396612d4c565b60019003818190600052602060002001600090559055856001016000868152602001908152602001600020600090556001935050505061062e565b600091505061062e565b5080546123e790612a20565b6000825580601f106123f7575050565b601f01602090049060005260206000209081019061124391905b808211156124255760008155600101612411565b5090565b60006020828403121561243b57600080fd5b81356001600160e01b03198116811461112e57600080fd5b60006020828403121561246557600080fd5b5035919050565b6000806040838503121561247f57600080fd5b50508035926020909101359150565b634e487b7160e01b600052602160045260246000fd5b600481106124b4576124b461248e565b9052565b60005b838110156124d35781810151838201526020016124bb565b50506000910152565b600081518084526124f48160208601602086016124b8565b601f01601f19169290920160200192915050565b61251281876124a4565b6001600160a01b038581166020830152841660408201526060810183905260a060808201819052600090612548908301846124dc565b979650505050505050565b60008060006060848603121561256857600080fd5b505081359360208301359350604090920135919050565b60008083601f84011261259157600080fd5b50813567ffffffffffffffff8111156125a957600080fd5b6020830191508360208285010111156125c157600080fd5b9250929050565b600080600080606085870312156125de57600080fd5b8435935060208501359250604085013567ffffffffffffffff81111561260357600080fd5b61260f8782880161257f565b95989497509550505050565b6020815281516020820152602082015160408201526000604083015160a0606084015261264b60c08401826124dc565b90506060840151601f1984830301608085015261266882826124dc565b915050608084015160a08401528091505092915050565b6001600160a01b038116811461124357600080fd5b6000602082840312156126a657600080fd5b813561112e8161267f565b634e487b7160e01b600052604160045260246000fd5b6000806000606084860312156126dc57600080fd5b83356126e78161267f565b92506020840135600581106126fb57600080fd5b9150604084013567ffffffffffffffff8082111561271857600080fd5b818601915086601f83011261272c57600080fd5b81358181111561273e5761273e6126b1565b604051601f8201601f19908116603f01168101908382118183101715612766576127666126b1565b8160405282815289602084870101111561277f57600080fd5b8260208601602083013760006020848301015280955050505050509250925092565b60018060a01b03841681528260208201526060604082015260006107cc60608301846124dc565b85815284602082015260a0604082015260006127e760a08301866124dc565b82810360608401526127f981866124dc565b9150508260808301529695505050505050565b6000806040838503121561281f57600080fd5b8235915060208301356128318161267f565b809150509250929050565b60008060008060008060a0878903121561285557600080fd5b86356128608161267f565b955060208701356004811061287457600080fd5b945060408701356128848161267f565b935060608701359250608087013567ffffffffffffffff8111156128a757600080fd5b6128b389828a0161257f565b979a9699509497509295939492505050565b600080602083850312156128d857600080fd5b823567ffffffffffffffff808211156128f057600080fd5b818501915085601f83011261290457600080fd5b81358181111561291357600080fd5b8660208260051b850101111561292857600080fd5b60209290920196919550909350505050565b600581106124b4576124b461248e565b6001600160a01b0384168152612963602082018461293a565b6060604082015260006107cc60608301846124dc565b6020810161062e828461293a565b60006020828403121561299957600080fd5b813567ffffffffffffffff8111156129b057600080fd5b820160a0818503121561112e57600080fd5b600080604083850312156129d557600080fd5b82356129e08161267f565b946020939093013593505050565b60008060008060808587031215612a0457600080fd5b5050823594602084013594506040840135936060013592509050565b600181811c90821680612a3457607f821691505b602082108103612a5457634e487b7160e01b600052602260045260246000fd5b50919050565b634e487b7160e01b600052603260045260246000fd5b60008154612a7d81612a20565b808552602060018381168015612a9a5760018114612ab457612ae2565b60ff1985168884015283151560051b880183019550612ae2565b866000528260002060005b85811015612ada5781548a8201860152908301908401612abf565b890184019650505b505050505092915050565b60208152815460208201526001820154604082015260a060608201526000612b1b60c0830160028501612a70565b828103601f19016080840152612b348160038601612a70565b9050600484015460a08401528091505092915050565b600060208284031215612b5c57600080fd5b815161112e8161267f565b84815283602082015281836040830137600091016040019081529392505050565b60208152600061112e60208301846124dc565b601f821115610d9257600081815260208120601f850160051c81016020861015612bc25750805b601f850160051c820191505b81811015612be157828155600101612bce565b505050505050565b600019600383901b1c191660019190911b1790565b815167ffffffffffffffff811115612c1857612c186126b1565b612c2c81612c268454612a20565b84612b9b565b602080601f831160018114612c5b5760008415612c495750858301515b612c538582612be9565b865550612be1565b600085815260208120601f198616915b82811015612c8a57888601518255948401946001909101908401612c6b565b5085821015612ca85787850151600019600388901b60f8161c191681555b5050505050600190811b01905550565b634e487b7160e01b600052601160045260246000fd5b8181038181111561062e5761062e612cb8565b8381526001600160a01b03831660208201526060810161099e604083018461293a565b84815260808101612d1860208301866124a4565b6001600160a01b039390931660408201526060015292915050565b600060018201612d4557612d45612cb8565b5060010190565b634e487b7160e01b600052603160045260246000fd5b83815282602082015260008251612d808160408501602087016124b8565b91909101604001949350505050565b6000808335601e19843603018112612da657600080fd5b83018035915067ffffffffffffffff821115612dc157600080fd5b6020019150368190038213156125c157600080fd5b67ffffffffffffffff831115612dee57612dee6126b1565b612e0283612dfc8354612a20565b83612b9b565b6000601f841160018114612e305760008515612e1e5750838201355b612e288682612be9565b845550612e8a565b600083815260209020601f19861690835b82811015612e615786850135825560209485019460019092019101612e41565b5086821015612e7e5760001960f88860031b161c19848701351681555b505060018560011b0183555b5050505050565b8135815560016020808401358284015560028301612eb26040860186612d8f565b67ffffffffffffffff811115612eca57612eca6126b1565b612ede81612ed88554612a20565b85612b9b565b6000601f821160018114612f0c5760008315612efa5750838201355b612f048482612be9565b865550612f61565b600085815260209020601f19841690835b82811015612f3a5786850135825593880193908901908801612f1d565b5084821015612f575760001960f88660031b161c19848701351681555b50508683881b0185555b50505050505050612f756060830183612d8f565b612f83818360038601612dd6565b5050608082013560048201555050565b6000808335601e19843603018112612faa57600080fd5b830160208101925035905067ffffffffffffffff811115612fca57600080fd5b8036038213156125c157600080fd5b81835281816020850137506000828201602090810191909152601f909101601f19169091010190565b60208152813560208201526020820135604082015260006130266040840184612f93565b60a0606085015261303b60c085018284612fd9565b91505061304b6060850185612f93565b848303601f19016080860152613062838284612fd9565b92505050608084013560a08401528091505092915050565b7f416363657373436f6e74726f6c3a206163636f756e74200000000000000000008152600083516130b28160178501602088016124b8565b7001034b99036b4b9b9b4b733903937b6329607d1b60179184019182015283516130e38160288401602088016124b8565b01602801949350505050565b808202811582820484141761062e5761062e612cb8565b8082018082111561062e5761062e612cb8565b60008161312857613128612cb8565b50600019019056fe0482b95699990ff052aaeda01e4b518e6066bb6d6932719cd6a7bf74a2fb5e81a2646970667358221220475e520fbfc03c35ee7c489a11e4ea4643f1e10f38fb1ad1e9e724af465640db64736f6c63430008110033",
  "devdoc": {
    "details": "Protocol registry",
    "kind": "dev",
    "methods": {
      "addContractRecord(address,uint8,string)": {
        "details": "Add contract record",
        "params": {
          "addr": "Contract address",
          "contractType": "Contract type"
        },
        "returns": {
          "index": "Record index"
        }
      },
      "addEventRecord(address,uint8,address,uint256,string)": {
        "details": "Add event record",
        "params": {
          "eventContract": "Address of the event contract",
          "eventType": "Event type",
          "metaHash": "Hash value of event metadata",
          "pool": "Pool address",
          "proposalId": "Proposal ID"
        },
        "returns": {
          "index": "Record index"
        }
      },
      "addProposalRecord(address,uint256)": {
        "details": "Add proposal record",
        "params": {
          "pool": "Pool address",
          "proposalId": "Proposal ID"
        },
        "returns": {
          "index": "Record index"
        }
      },
      "companyAvailable(uint256,uint256)": {
        "details": "Check if pool available",
        "params": {
          "entityType": "Entity type",
          "jurisdiction": "Jurisdiction"
        },
        "returns": {
          "_0": "Flag if company is available"
        }
      },
      "constructor": {
        "custom:oz-upgrades-unsafe-allow": "constructor"
      },
      "contractRecordsCount()": {
        "returns": {
          "_0": "Contract records count"
        }
      },
      "createCompany((uint256,uint256,string,string,uint256))": {
        "details": "Create company record",
        "params": {
          "info": "Company Info"
        }
      },
      "deleteCompany(uint256,uint256,uint256)": {
        "details": "Delete queue record",
        "params": {
          "entityType": "Entity type",
          "id": "Queue index",
          "jurisdiction": "Jurisdiction"
        }
      },
      "eventRecordsCount()": {
        "returns": {
          "_0": "Event records count"
        }
      },
      "getCompany(uint256,uint256,string)": {
        "details": "Get company array by metadata",
        "params": {
          "ein": "EIN",
          "entityType": "Entity type",
          "jurisdiction": "Jurisdiction"
        },
        "returns": {
          "_0": "Company data"
        }
      },
      "getCompanyPoolAddress(uint256,uint256,uint256)": {
        "details": "Get company pool address by metadata",
        "params": {
          "entityType": "Entity type",
          "id": "Queue id",
          "jurisdiction": "Jurisdiction"
        },
        "returns": {
          "_0": "Future company's pool address"
        }
      },
      "getGlobalProposalId(address,uint256)": {
        "details": "Return global proposal ID",
        "params": {
          "pool": "Pool address",
          "proposalId": "Proposal ID"
        },
        "returns": {
          "_0": "Global proposal ID"
        }
      },
      "getRoleAdmin(bytes32)": {
        "details": "Returns the admin role that controls `role`. See {grantRole} and {revokeRole}. To change a role's admin, use {_setRoleAdmin}."
      },
      "getRoleMember(bytes32,uint256)": {
        "details": "Returns one of the accounts that have `role`. `index` must be a value between 0 and {getRoleMemberCount}, non-inclusive. Role bearers are not sorted in any particular way, and their ordering may change at any point. WARNING: When using {getRoleMember} and {getRoleMemberCount}, make sure you perform all queries on the same block. See the following https://forum.openzeppelin.com/t/iterating-over-elements-on-enumerableset-in-openzeppelin-contracts/2296[forum post] for more information."
      },
      "getRoleMemberCount(bytes32)": {
        "details": "Returns the number of accounts that have `role`. Can be used together with {getRoleMember} to enumerate all bearers of a role."
      },
      "grantRole(bytes32,address)": {
        "details": "Grants `role` to `account`. If `account` had not been already granted `role`, emits a {RoleGranted} event. Requirements: - the caller must have ``role``'s admin role. May emit a {RoleGranted} event."
      },
      "hasRole(bytes32,address)": {
        "details": "Returns `true` if `account` has been granted `role`."
      },
      "initialize()": {
        "details": "Initializer"
      },
      "isTokenWhitelisted(address)": {
        "details": "Check if token is whitelisted",
        "params": {
          "token": "Token"
        },
        "returns": {
          "_0": "Is token whitelisted"
        }
      },
      "lockCompany(uint256,uint256)": {
        "details": "Lock company record",
        "returns": {
          "info": "Company info"
        }
      },
      "proposalRecordsCount()": {
        "returns": {
          "_0": "Proposal records count"
        }
      },
      "renounceRole(bytes32,address)": {
        "details": "Revokes `role` from the calling account. Roles are often managed via {grantRole} and {revokeRole}: this function's purpose is to provide a mechanism for accounts to lose their privileges if they are compromised (such as when a trusted device is misplaced). If the calling account had been revoked `role`, emits a {RoleRevoked} event. Requirements: - the caller must be `account`. May emit a {RoleRevoked} event."
      },
      "revokeRole(bytes32,address)": {
        "details": "Revokes `role` from `account`. If `account` had been granted `role`, emits a {RoleRevoked} event. Requirements: - the caller must have ``role``'s admin role. May emit a {RoleRevoked} event."
      },
      "supportsInterface(bytes4)": {
        "details": "See {IERC165-supportsInterface}."
      },
      "typeOf(address)": {
        "params": {
          "addr": "Address of contract"
        },
        "returns": {
          "_0": "Contract type"
        }
      },
      "updateCompanyFee(uint256,uint256,uint256,uint256)": {
        "details": "Update company fee",
        "params": {
          "entityType": "Entity type",
          "fee": "Fee to update",
          "id": "Queue index",
          "jurisdiction": "Jurisdiction"
        }
      }
    },
    "version": 1
  },
  "userdoc": {
    "kind": "user",
    "methods": {
      "contractRecordsCount()": {
        "notice": "Returns number of contract records"
      },
      "eventRecordsCount()": {
        "notice": "Returns number of event records"
      },
      "proposalRecordsCount()": {
        "notice": "Returns number of proposal records"
      },
      "typeOf(address)": {
        "notice": "Returns type of given contract"
      }
    },
    "version": 1
  },
  "storageLayout": {
    "storage": [
      {
        "astId": 1184,
        "contract": "contracts/Registry.sol:Registry",
        "label": "_initialized",
        "offset": 0,
        "slot": "0",
        "type": "t_uint8"
      },
      {
        "astId": 1187,
        "contract": "contracts/Registry.sol:Registry",
        "label": "_initializing",
        "offset": 1,
        "slot": "0",
        "type": "t_bool"
      },
      {
        "astId": 4034,
        "contract": "contracts/Registry.sol:Registry",
        "label": "__gap",
        "offset": 0,
        "slot": "1",
        "type": "t_array(t_uint256)50_storage"
      },
      {
        "astId": 4979,
        "contract": "contracts/Registry.sol:Registry",
        "label": "__gap",
        "offset": 0,
        "slot": "51",
        "type": "t_array(t_uint256)50_storage"
      },
      {
        "astId": 184,
        "contract": "contracts/Registry.sol:Registry",
        "label": "_roles",
        "offset": 0,
        "slot": "101",
        "type": "t_mapping(t_bytes32,t_struct(RoleData)179_storage)"
      },
      {
        "astId": 479,
        "contract": "contracts/Registry.sol:Registry",
        "label": "__gap",
        "offset": 0,
        "slot": "102",
        "type": "t_array(t_uint256)49_storage"
      },
      {
        "astId": 33,
        "contract": "contracts/Registry.sol:Registry",
        "label": "_roleMembers",
        "offset": 0,
        "slot": "151",
        "type": "t_mapping(t_bytes32,t_struct(AddressSet)7724_storage)"
      },
      {
        "astId": 143,
        "contract": "contracts/Registry.sol:Registry",
        "label": "__gap",
        "offset": 0,
        "slot": "152",
        "type": "t_array(t_uint256)49_storage"
      },
      {
        "astId": 15257,
        "contract": "contracts/Registry.sol:Registry",
        "label": "service",
        "offset": 0,
        "slot": "201",
        "type": "t_address"
      },
      {
        "astId": 14516,
        "contract": "contracts/Registry.sol:Registry",
        "label": "queue",
        "offset": 0,
        "slot": "202",
        "type": "t_mapping(t_uint256,t_mapping(t_uint256,t_array(t_uint256)dyn_storage))"
      },
      {
        "astId": 14522,
        "contract": "contracts/Registry.sol:Registry",
        "label": "companies",
        "offset": 0,
        "slot": "203",
        "type": "t_mapping(t_uint256,t_struct(CompanyInfo)14211_storage)"
      },
      {
        "astId": 14525,
        "contract": "contracts/Registry.sol:Registry",
        "label": "lastCompanyIndex",
        "offset": 0,
        "slot": "204",
        "type": "t_uint256"
      },
      {
        "astId": 14530,
        "contract": "contracts/Registry.sol:Registry",
        "label": "companyIndex",
        "offset": 0,
        "slot": "205",
        "type": "t_mapping(t_bytes32,t_uint256)"
      },
      {
        "astId": 14949,
        "contract": "contracts/Registry.sol:Registry",
        "label": "contractRecords",
        "offset": 0,
        "slot": "206",
        "type": "t_array(t_struct(ContractInfo)14243_storage)dyn_storage"
      },
      {
        "astId": 14960,
        "contract": "contracts/Registry.sol:Registry",
        "label": "indexOfContract",
        "offset": 0,
        "slot": "207",
        "type": "t_mapping(t_address,t_struct(ContractIndex)14954_storage)"
      },
      {
        "astId": 14965,
        "contract": "contracts/Registry.sol:Registry",
        "label": "proposalRecords",
        "offset": 0,
        "slot": "208",
        "type": "t_array(t_struct(ProposalInfo)14250_storage)dyn_storage"
      },
      {
        "astId": 14970,
        "contract": "contracts/Registry.sol:Registry",
        "label": "events",
        "offset": 0,
        "slot": "209",
        "type": "t_array(t_struct(Event)14262_storage)dyn_storage"
      }
    ],
    "types": {
      "t_address": {
        "encoding": "inplace",
        "label": "address",
        "numberOfBytes": "20"
      },
      "t_array(t_bytes32)dyn_storage": {
        "base": "t_bytes32",
        "encoding": "dynamic_array",
        "label": "bytes32[]",
        "numberOfBytes": "32"
      },
      "t_array(t_struct(ContractInfo)14243_storage)dyn_storage": {
        "base": "t_struct(ContractInfo)14243_storage",
        "encoding": "dynamic_array",
        "label": "struct IRecordsRegistry.ContractInfo[]",
        "numberOfBytes": "32"
      },
      "t_array(t_struct(Event)14262_storage)dyn_storage": {
        "base": "t_struct(Event)14262_storage",
        "encoding": "dynamic_array",
        "label": "struct IRecordsRegistry.Event[]",
        "numberOfBytes": "32"
      },
      "t_array(t_struct(ProposalInfo)14250_storage)dyn_storage": {
        "base": "t_struct(ProposalInfo)14250_storage",
        "encoding": "dynamic_array",
        "label": "struct IRecordsRegistry.ProposalInfo[]",
        "numberOfBytes": "32"
      },
      "t_array(t_uint256)49_storage": {
        "base": "t_uint256",
        "encoding": "inplace",
        "label": "uint256[49]",
        "numberOfBytes": "1568"
      },
      "t_array(t_uint256)50_storage": {
        "base": "t_uint256",
        "encoding": "inplace",
        "label": "uint256[50]",
        "numberOfBytes": "1600"
      },
      "t_array(t_uint256)dyn_storage": {
        "base": "t_uint256",
        "encoding": "dynamic_array",
        "label": "uint256[]",
        "numberOfBytes": "32"
      },
      "t_bool": {
        "encoding": "inplace",
        "label": "bool",
        "numberOfBytes": "1"
      },
      "t_bytes32": {
        "encoding": "inplace",
        "label": "bytes32",
        "numberOfBytes": "32"
      },
      "t_enum(ContractType)14230": {
        "encoding": "inplace",
        "label": "enum IRecordsRegistry.ContractType",
        "numberOfBytes": "1"
      },
      "t_enum(EventType)14235": {
        "encoding": "inplace",
        "label": "enum IRecordsRegistry.EventType",
        "numberOfBytes": "1"
      },
      "t_mapping(t_address,t_bool)": {
        "encoding": "mapping",
        "key": "t_address",
        "label": "mapping(address => bool)",
        "numberOfBytes": "32",
        "value": "t_bool"
      },
      "t_mapping(t_address,t_struct(ContractIndex)14954_storage)": {
        "encoding": "mapping",
        "key": "t_address",
        "label": "mapping(address => struct RecordsRegistry.ContractIndex)",
        "numberOfBytes": "32",
        "value": "t_struct(ContractIndex)14954_storage"
      },
      "t_mapping(t_bytes32,t_struct(AddressSet)7724_storage)": {
        "encoding": "mapping",
        "key": "t_bytes32",
        "label": "mapping(bytes32 => struct EnumerableSetUpgradeable.AddressSet)",
        "numberOfBytes": "32",
        "value": "t_struct(AddressSet)7724_storage"
      },
      "t_mapping(t_bytes32,t_struct(RoleData)179_storage)": {
        "encoding": "mapping",
        "key": "t_bytes32",
        "label": "mapping(bytes32 => struct AccessControlUpgradeable.RoleData)",
        "numberOfBytes": "32",
        "value": "t_struct(RoleData)179_storage"
      },
      "t_mapping(t_bytes32,t_uint256)": {
        "encoding": "mapping",
        "key": "t_bytes32",
        "label": "mapping(bytes32 => uint256)",
        "numberOfBytes": "32",
        "value": "t_uint256"
      },
      "t_mapping(t_uint256,t_array(t_uint256)dyn_storage)": {
        "encoding": "mapping",
        "key": "t_uint256",
        "label": "mapping(uint256 => uint256[])",
        "numberOfBytes": "32",
        "value": "t_array(t_uint256)dyn_storage"
      },
      "t_mapping(t_uint256,t_mapping(t_uint256,t_array(t_uint256)dyn_storage))": {
        "encoding": "mapping",
        "key": "t_uint256",
        "label": "mapping(uint256 => mapping(uint256 => uint256[]))",
        "numberOfBytes": "32",
        "value": "t_mapping(t_uint256,t_array(t_uint256)dyn_storage)"
      },
      "t_mapping(t_uint256,t_struct(CompanyInfo)14211_storage)": {
        "encoding": "mapping",
        "key": "t_uint256",
        "label": "mapping(uint256 => struct ICompaniesRegistry.CompanyInfo)",
        "numberOfBytes": "32",
        "value": "t_struct(CompanyInfo)14211_storage"
      },
      "t_string_storage": {
        "encoding": "bytes",
        "label": "string",
        "numberOfBytes": "32"
      },
      "t_struct(AddressSet)7724_storage": {
        "encoding": "inplace",
        "label": "struct EnumerableSetUpgradeable.AddressSet",
        "members": [
          {
            "astId": 7723,
            "contract": "contracts/Registry.sol:Registry",
            "label": "_inner",
            "offset": 0,
            "slot": "0",
            "type": "t_struct(Set)7409_storage"
          }
        ],
        "numberOfBytes": "64"
      },
      "t_struct(CompanyInfo)14211_storage": {
        "encoding": "inplace",
        "label": "struct ICompaniesRegistry.CompanyInfo",
        "members": [
          {
            "astId": 14202,
            "contract": "contracts/Registry.sol:Registry",
            "label": "jurisdiction",
            "offset": 0,
            "slot": "0",
            "type": "t_uint256"
          },
          {
            "astId": 14204,
            "contract": "contracts/Registry.sol:Registry",
            "label": "entityType",
            "offset": 0,
            "slot": "1",
            "type": "t_uint256"
          },
          {
            "astId": 14206,
            "contract": "contracts/Registry.sol:Registry",
            "label": "ein",
            "offset": 0,
            "slot": "2",
            "type": "t_string_storage"
          },
          {
            "astId": 14208,
            "contract": "contracts/Registry.sol:Registry",
            "label": "dateOfIncorporation",
            "offset": 0,
            "slot": "3",
            "type": "t_string_storage"
          },
          {
            "astId": 14210,
            "contract": "contracts/Registry.sol:Registry",
            "label": "fee",
            "offset": 0,
            "slot": "4",
            "type": "t_uint256"
          }
        ],
        "numberOfBytes": "160"
      },
      "t_struct(ContractIndex)14954_storage": {
        "encoding": "inplace",
        "label": "struct RecordsRegistry.ContractIndex",
        "members": [
          {
            "astId": 14951,
            "contract": "contracts/Registry.sol:Registry",
            "label": "exists",
            "offset": 0,
            "slot": "0",
            "type": "t_bool"
          },
          {
            "astId": 14953,
            "contract": "contracts/Registry.sol:Registry",
            "label": "index",
            "offset": 1,
            "slot": "0",
            "type": "t_uint160"
          }
        ],
        "numberOfBytes": "32"
      },
      "t_struct(ContractInfo)14243_storage": {
        "encoding": "inplace",
        "label": "struct IRecordsRegistry.ContractInfo",
        "members": [
          {
            "astId": 14237,
            "contract": "contracts/Registry.sol:Registry",
            "label": "addr",
            "offset": 0,
            "slot": "0",
            "type": "t_address"
          },
          {
            "astId": 14240,
            "contract": "contracts/Registry.sol:Registry",
            "label": "contractType",
            "offset": 20,
            "slot": "0",
            "type": "t_enum(ContractType)14230"
          },
          {
            "astId": 14242,
            "contract": "contracts/Registry.sol:Registry",
            "label": "description",
            "offset": 0,
            "slot": "1",
            "type": "t_string_storage"
          }
        ],
        "numberOfBytes": "64"
      },
      "t_struct(Event)14262_storage": {
        "encoding": "inplace",
        "label": "struct IRecordsRegistry.Event",
        "members": [
          {
            "astId": 14253,
            "contract": "contracts/Registry.sol:Registry",
            "label": "eventType",
            "offset": 0,
            "slot": "0",
            "type": "t_enum(EventType)14235"
          },
          {
            "astId": 14255,
            "contract": "contracts/Registry.sol:Registry",
            "label": "pool",
            "offset": 1,
            "slot": "0",
            "type": "t_address"
          },
          {
            "astId": 14257,
            "contract": "contracts/Registry.sol:Registry",
            "label": "eventContract",
            "offset": 0,
            "slot": "1",
            "type": "t_address"
          },
          {
            "astId": 14259,
            "contract": "contracts/Registry.sol:Registry",
            "label": "proposalId",
            "offset": 0,
            "slot": "2",
            "type": "t_uint256"
          },
          {
            "astId": 14261,
            "contract": "contracts/Registry.sol:Registry",
            "label": "metaHash",
            "offset": 0,
            "slot": "3",
            "type": "t_string_storage"
          }
        ],
        "numberOfBytes": "128"
      },
      "t_struct(ProposalInfo)14250_storage": {
        "encoding": "inplace",
        "label": "struct IRecordsRegistry.ProposalInfo",
        "members": [
          {
            "astId": 14245,
            "contract": "contracts/Registry.sol:Registry",
            "label": "pool",
            "offset": 0,
            "slot": "0",
            "type": "t_address"
          },
          {
            "astId": 14247,
            "contract": "contracts/Registry.sol:Registry",
            "label": "proposalId",
            "offset": 0,
            "slot": "1",
            "type": "t_uint256"
          },
          {
            "astId": 14249,
            "contract": "contracts/Registry.sol:Registry",
            "label": "description",
            "offset": 0,
            "slot": "2",
            "type": "t_string_storage"
          }
        ],
        "numberOfBytes": "96"
      },
      "t_struct(RoleData)179_storage": {
        "encoding": "inplace",
        "label": "struct AccessControlUpgradeable.RoleData",
        "members": [
          {
            "astId": 176,
            "contract": "contracts/Registry.sol:Registry",
            "label": "members",
            "offset": 0,
            "slot": "0",
            "type": "t_mapping(t_address,t_bool)"
          },
          {
            "astId": 178,
            "contract": "contracts/Registry.sol:Registry",
            "label": "adminRole",
            "offset": 0,
            "slot": "1",
            "type": "t_bytes32"
          }
        ],
        "numberOfBytes": "64"
      },
      "t_struct(Set)7409_storage": {
        "encoding": "inplace",
        "label": "struct EnumerableSetUpgradeable.Set",
        "members": [
          {
            "astId": 7404,
            "contract": "contracts/Registry.sol:Registry",
            "label": "_values",
            "offset": 0,
            "slot": "0",
            "type": "t_array(t_bytes32)dyn_storage"
          },
          {
            "astId": 7408,
            "contract": "contracts/Registry.sol:Registry",
            "label": "_indexes",
            "offset": 0,
            "slot": "1",
            "type": "t_mapping(t_bytes32,t_uint256)"
          }
        ],
        "numberOfBytes": "64"
      },
      "t_uint160": {
        "encoding": "inplace",
        "label": "uint160",
        "numberOfBytes": "20"
      },
      "t_uint256": {
        "encoding": "inplace",
        "label": "uint256",
        "numberOfBytes": "32"
      },
      "t_uint8": {
        "encoding": "inplace",
        "label": "uint8",
        "numberOfBytes": "1"
      }
    }
  }
}