{
  "address": "0xc9f9c6b5a5703c14c86c3fcac7f6d16d3ae91d5c",
  "abi": [
    {
      "inputs": [],
      "stateMutability": "nonpayable",
      "type": "constructor"
    },
    {
      "anonymous": false,
      "inputs": [
        {
          "indexed": false,
          "internalType": "address",
          "name": "to",
          "type": "address"
        },
        {
          "indexed": false,
          "internalType": "uint256",
          "name": "amount",
          "type": "uint256"
        }
      ],
      "name": "FeesTransferred",
      "type": "event"
    },
    {
      "anonymous": false,
      "inputs": [
        {
          "indexed": false,
          "internalType": "uint8",
          "name": "version",
          "type": "uint8"
        }
      ],
      "name": "Initialized",
      "type": "event"
    },
    {
      "anonymous": false,
      "inputs": [
        {
          "indexed": false,
          "internalType": "address",
          "name": "account",
          "type": "address"
        }
      ],
      "name": "Paused",
      "type": "event"
    },
    {
      "anonymous": false,
      "inputs": [
        {
          "indexed": false,
          "internalType": "address",
          "name": "pool",
          "type": "address"
        },
        {
          "indexed": false,
          "internalType": "address",
          "name": "token",
          "type": "address"
        },
        {
          "indexed": false,
          "internalType": "address",
          "name": "tge",
          "type": "address"
        }
      ],
      "name": "PoolCreated",
      "type": "event"
    },
    {
      "anonymous": false,
      "inputs": [
        {
          "indexed": false,
          "internalType": "address",
          "name": "pool",
          "type": "address"
        },
        {
          "indexed": false,
          "internalType": "uint256",
          "name": "proposalId",
          "type": "uint256"
        }
      ],
      "name": "ProposalCancelled",
      "type": "event"
    },
    {
      "anonymous": false,
      "inputs": [
        {
          "indexed": false,
          "internalType": "uint256",
          "name": "protocolTokenFee",
          "type": "uint256"
        }
      ],
      "name": "ProtocolTokenFeeChanged",
      "type": "event"
    },
    {
      "anonymous": false,
      "inputs": [
        {
          "indexed": false,
          "internalType": "address",
          "name": "protocolTreasury",
          "type": "address"
        }
      ],
      "name": "ProtocolTreasuryChanged",
      "type": "event"
    },
    {
      "anonymous": false,
      "inputs": [
        {
          "indexed": true,
          "internalType": "bytes32",
          "name": "role",
          "type": "bytes32"
        },
        {
          "indexed": true,
          "internalType": "bytes32",
          "name": "previousAdminRole",
          "type": "bytes32"
        },
        {
          "indexed": true,
          "internalType": "bytes32",
          "name": "newAdminRole",
          "type": "bytes32"
        }
      ],
      "name": "RoleAdminChanged",
      "type": "event"
    },
    {
      "anonymous": false,
      "inputs": [
        {
          "indexed": true,
          "internalType": "bytes32",
          "name": "role",
          "type": "bytes32"
        },
        {
          "indexed": true,
          "internalType": "address",
          "name": "account",
          "type": "address"
        },
        {
          "indexed": true,
          "internalType": "address",
          "name": "sender",
          "type": "address"
        }
      ],
      "name": "RoleGranted",
      "type": "event"
    },
    {
      "anonymous": false,
      "inputs": [
        {
          "indexed": true,
          "internalType": "bytes32",
          "name": "role",
          "type": "bytes32"
        },
        {
          "indexed": true,
          "internalType": "address",
          "name": "account",
          "type": "address"
        },
        {
          "indexed": true,
          "internalType": "address",
          "name": "sender",
          "type": "address"
        }
      ],
      "name": "RoleRevoked",
      "type": "event"
    },
    {
      "anonymous": false,
      "inputs": [
        {
          "indexed": false,
          "internalType": "address",
          "name": "pool",
          "type": "address"
        },
        {
          "indexed": false,
          "internalType": "address",
          "name": "tge",
          "type": "address"
        },
        {
          "indexed": false,
          "internalType": "address",
          "name": "token",
          "type": "address"
        }
      ],
      "name": "SecondaryTGECreated",
      "type": "event"
    },
    {
      "anonymous": false,
      "inputs": [
        {
          "indexed": false,
          "internalType": "address",
          "name": "account",
          "type": "address"
        }
      ],
      "name": "Unpaused",
      "type": "event"
    },
    {
      "inputs": [],
      "name": "ADMIN_ROLE",
      "outputs": [
        {
          "internalType": "bytes32",
          "name": "",
          "type": "bytes32"
        }
      ],
      "stateMutability": "view",
      "type": "function"
    },
    {
      "inputs": [],
      "name": "DEFAULT_ADMIN_ROLE",
      "outputs": [
        {
          "internalType": "bytes32",
          "name": "",
          "type": "bytes32"
        }
      ],
      "stateMutability": "view",
      "type": "function"
    },
    {
      "inputs": [],
      "name": "EXECUTOR_ROLE",
      "outputs": [
        {
          "internalType": "bytes32",
          "name": "",
          "type": "bytes32"
        }
      ],
      "stateMutability": "view",
      "type": "function"
    },
    {
      "inputs": [],
      "name": "SERVICE_MANAGER_ROLE",
      "outputs": [
        {
          "internalType": "bytes32",
          "name": "",
          "type": "bytes32"
        }
      ],
      "stateMutability": "view",
      "type": "function"
    },
    {
      "inputs": [],
      "name": "WHITELISTED_USER_ROLE",
      "outputs": [
        {
          "internalType": "bytes32",
          "name": "",
          "type": "bytes32"
        }
      ],
      "stateMutability": "view",
      "type": "function"
    },
    {
      "inputs": [
        {
          "internalType": "enum IRecordsRegistry.EventType",
          "name": "eventType",
          "type": "uint8"
        },
        {
          "internalType": "uint256",
          "name": "proposalId",
          "type": "uint256"
        },
        {
          "internalType": "string",
          "name": "metaHash",
          "type": "string"
        }
      ],
      "name": "addEvent",
      "outputs": [],
      "stateMutability": "nonpayable",
      "type": "function"
    },
    {
      "inputs": [
        {
          "internalType": "uint256",
          "name": "proposalId",
          "type": "uint256"
        }
      ],
      "name": "addProposal",
      "outputs": [],
      "stateMutability": "nonpayable",
      "type": "function"
    },
    {
      "inputs": [
        {
          "internalType": "address",
          "name": "pool",
          "type": "address"
        },
        {
          "internalType": "uint256",
          "name": "proposalId",
          "type": "uint256"
        }
      ],
      "name": "cancelProposal",
      "outputs": [],
      "stateMutability": "nonpayable",
      "type": "function"
    },
    {
      "inputs": [
        {
          "internalType": "contract IPool",
          "name": "pool",
          "type": "address"
        },
        {
          "internalType": "uint256",
          "name": "tokenCap",
          "type": "uint256"
        },
        {
          "internalType": "string",
          "name": "tokenSymbol",
          "type": "string"
        },
        {
          "components": [
            {
              "internalType": "uint256",
              "name": "price",
              "type": "uint256"
            },
            {
              "internalType": "uint256",
              "name": "hardcap",
              "type": "uint256"
            },
            {
              "internalType": "uint256",
              "name": "softcap",
              "type": "uint256"
            },
            {
              "internalType": "uint256",
              "name": "minPurchase",
              "type": "uint256"
            },
            {
              "internalType": "uint256",
              "name": "maxPurchase",
              "type": "uint256"
            },
            {
              "internalType": "uint256",
              "name": "vestingPercent",
              "type": "uint256"
            },
            {
              "internalType": "uint256",
              "name": "vestingDuration",
              "type": "uint256"
            },
            {
              "internalType": "uint256",
              "name": "vestingTVL",
              "type": "uint256"
            },
            {
              "internalType": "uint256",
              "name": "duration",
              "type": "uint256"
            },
            {
              "internalType": "address[]",
              "name": "userWhitelist",
              "type": "address[]"
            },
            {
              "internalType": "address",
              "name": "unitOfAccount",
              "type": "address"
            },
            {
              "internalType": "uint256",
              "name": "lockupDuration",
              "type": "uint256"
            },
            {
              "internalType": "uint256",
              "name": "lockupTVL",
              "type": "uint256"
            }
          ],
          "internalType": "struct ITGE.TGEInfo",
          "name": "tgeInfo",
          "type": "tuple"
        },
        {
          "internalType": "uint256",
          "name": "jurisdiction",
          "type": "uint256"
        },
        {
          "internalType": "uint256",
          "name": "entityType",
          "type": "uint256"
        },
        {
          "components": [
            {
              "internalType": "uint256",
              "name": "proposalThreshold",
              "type": "uint256"
            },
            {
              "internalType": "uint256",
              "name": "quorumThreshold",
              "type": "uint256"
            },
            {
              "internalType": "uint256",
              "name": "decisionThreshold",
              "type": "uint256"
            },
            {
              "internalType": "uint256",
              "name": "votingDuration",
              "type": "uint256"
            },
            {
              "internalType": "uint256",
              "name": "transferValueForDelay",
              "type": "uint256"
            },
            {
              "internalType": "uint256[4]",
              "name": "executionDelays",
              "type": "uint256[4]"
            }
          ],
          "internalType": "struct IGovernanceSettings.NewGovernanceSettings",
          "name": "governanceSettings",
          "type": "tuple"
        },
        {
          "internalType": "string",
          "name": "trademark",
          "type": "string"
        },
        {
          "internalType": "string",
          "name": "metadataURI",
          "type": "string"
        }
      ],
      "name": "createPool",
      "outputs": [],
      "stateMutability": "payable",
      "type": "function"
    },
    {
      "inputs": [
        {
          "components": [
            {
              "internalType": "uint256",
              "name": "price",
              "type": "uint256"
            },
            {
              "internalType": "uint256",
              "name": "hardcap",
              "type": "uint256"
            },
            {
              "internalType": "uint256",
              "name": "softcap",
              "type": "uint256"
            },
            {
              "internalType": "uint256",
              "name": "minPurchase",
              "type": "uint256"
            },
            {
              "internalType": "uint256",
              "name": "maxPurchase",
              "type": "uint256"
            },
            {
              "internalType": "uint256",
              "name": "vestingPercent",
              "type": "uint256"
            },
            {
              "internalType": "uint256",
              "name": "vestingDuration",
              "type": "uint256"
            },
            {
              "internalType": "uint256",
              "name": "vestingTVL",
              "type": "uint256"
            },
            {
              "internalType": "uint256",
              "name": "duration",
              "type": "uint256"
            },
            {
              "internalType": "address[]",
              "name": "userWhitelist",
              "type": "address[]"
            },
            {
              "internalType": "address",
              "name": "unitOfAccount",
              "type": "address"
            },
            {
              "internalType": "uint256",
              "name": "lockupDuration",
              "type": "uint256"
            },
            {
              "internalType": "uint256",
              "name": "lockupTVL",
              "type": "uint256"
            }
          ],
          "internalType": "struct ITGE.TGEInfo",
          "name": "tgeInfo",
          "type": "tuple"
        },
        {
          "components": [
            {
              "internalType": "enum IToken.TokenType",
              "name": "tokenType",
              "type": "uint8"
            },
            {
              "internalType": "string",
              "name": "name",
              "type": "string"
            },
            {
              "internalType": "string",
              "name": "symbol",
              "type": "string"
            },
            {
              "internalType": "string",
              "name": "description",
              "type": "string"
            },
            {
              "internalType": "uint256",
              "name": "cap",
              "type": "uint256"
            },
            {
              "internalType": "uint8",
              "name": "decimals",
              "type": "uint8"
            }
          ],
          "internalType": "struct IToken.TokenInfo",
          "name": "tokenInfo",
          "type": "tuple"
        },
        {
          "internalType": "string",
          "name": "metadataURI",
          "type": "string"
        }
      ],
      "name": "createSecondaryTGE",
      "outputs": [],
      "stateMutability": "nonpayable",
      "type": "function"
    },
    {
      "inputs": [
        {
          "internalType": "address",
          "name": "_pool",
          "type": "address"
        }
      ],
      "name": "getMaxHardCap",
      "outputs": [
        {
          "internalType": "uint256",
          "name": "",
          "type": "uint256"
        }
      ],
      "stateMutability": "view",
      "type": "function"
    },
    {
      "inputs": [],
      "name": "getMinSoftCap",
      "outputs": [
        {
          "internalType": "uint256",
          "name": "",
          "type": "uint256"
        }
      ],
      "stateMutability": "view",
      "type": "function"
    },
    {
      "inputs": [
        {
          "components": [
            {
              "internalType": "uint256",
              "name": "jurisdiction",
              "type": "uint256"
            },
            {
              "internalType": "uint256",
              "name": "entityType",
              "type": "uint256"
            },
            {
              "internalType": "string",
              "name": "ein",
              "type": "string"
            },
            {
              "internalType": "string",
              "name": "dateOfIncorporation",
              "type": "string"
            },
            {
              "internalType": "uint256",
              "name": "fee",
              "type": "uint256"
            }
          ],
          "internalType": "struct ICompaniesRegistry.CompanyInfo",
          "name": "info",
          "type": "tuple"
        }
      ],
      "name": "getPoolAddress",
      "outputs": [
        {
          "internalType": "address",
          "name": "",
          "type": "address"
        }
      ],
      "stateMutability": "view",
      "type": "function"
    },
    {
      "inputs": [
        {
          "internalType": "uint256",
          "name": "amount",
          "type": "uint256"
        }
      ],
      "name": "getProtocolTokenFee",
      "outputs": [
        {
          "internalType": "uint256",
          "name": "",
          "type": "uint256"
        }
      ],
      "stateMutability": "view",
      "type": "function"
    },
    {
      "inputs": [
        {
          "internalType": "bytes32",
          "name": "role",
          "type": "bytes32"
        }
      ],
      "name": "getRoleAdmin",
      "outputs": [
        {
          "internalType": "bytes32",
          "name": "",
          "type": "bytes32"
        }
      ],
      "stateMutability": "view",
      "type": "function"
    },
    {
      "inputs": [
        {
          "internalType": "bytes32",
          "name": "role",
          "type": "bytes32"
        },
        {
          "internalType": "uint256",
          "name": "index",
          "type": "uint256"
        }
      ],
      "name": "getRoleMember",
      "outputs": [
        {
          "internalType": "address",
          "name": "",
          "type": "address"
        }
      ],
      "stateMutability": "view",
      "type": "function"
    },
    {
      "inputs": [
        {
          "internalType": "bytes32",
          "name": "role",
          "type": "bytes32"
        }
      ],
      "name": "getRoleMemberCount",
      "outputs": [
        {
          "internalType": "uint256",
          "name": "",
          "type": "uint256"
        }
      ],
      "stateMutability": "view",
      "type": "function"
    },
    {
      "inputs": [
        {
          "internalType": "bytes32",
          "name": "role",
          "type": "bytes32"
        },
        {
          "internalType": "address",
          "name": "account",
          "type": "address"
        }
      ],
      "name": "grantRole",
      "outputs": [],
      "stateMutability": "nonpayable",
      "type": "function"
    },
    {
      "inputs": [
        {
          "internalType": "bytes32",
          "name": "role",
          "type": "bytes32"
        },
        {
          "internalType": "address",
          "name": "account",
          "type": "address"
        }
      ],
      "name": "hasRole",
      "outputs": [
        {
          "internalType": "bool",
          "name": "",
          "type": "bool"
        }
      ],
      "stateMutability": "view",
      "type": "function"
    },
    {
      "inputs": [
        {
          "internalType": "contract IRegistry",
          "name": "registry_",
          "type": "address"
        },
        {
          "internalType": "address",
          "name": "poolBeacon_",
          "type": "address"
        },
        {
          "internalType": "address",
          "name": "tokenBeacon_",
          "type": "address"
        },
        {
          "internalType": "address",
          "name": "tgeBeacon_",
          "type": "address"
        },
        {
          "internalType": "uint256",
          "name": "protocolTokenFee_",
          "type": "uint256"
        }
      ],
      "name": "initialize",
      "outputs": [],
      "stateMutability": "nonpayable",
      "type": "function"
    },
    {
      "inputs": [],
      "name": "pause",
      "outputs": [],
      "stateMutability": "nonpayable",
      "type": "function"
    },
    {
      "inputs": [],
      "name": "paused",
      "outputs": [
        {
          "internalType": "bool",
          "name": "",
          "type": "bool"
        }
      ],
      "stateMutability": "view",
      "type": "function"
    },
    {
      "inputs": [],
      "name": "poolBeacon",
      "outputs": [
        {
          "internalType": "address",
          "name": "",
          "type": "address"
        }
      ],
      "stateMutability": "view",
      "type": "function"
    },
    {
      "inputs": [],
      "name": "protocolTokenFee",
      "outputs": [
        {
          "internalType": "uint256",
          "name": "",
          "type": "uint256"
        }
      ],
      "stateMutability": "view",
      "type": "function"
    },
    {
      "inputs": [],
      "name": "protocolTreasury",
      "outputs": [
        {
          "internalType": "address",
          "name": "",
          "type": "address"
        }
      ],
      "stateMutability": "view",
      "type": "function"
    },
    {
      "inputs": [],
      "name": "registry",
      "outputs": [
        {
          "internalType": "contract IRegistry",
          "name": "",
          "type": "address"
        }
      ],
      "stateMutability": "view",
      "type": "function"
    },
    {
      "inputs": [
        {
          "internalType": "bytes32",
          "name": "role",
          "type": "bytes32"
        },
        {
          "internalType": "address",
          "name": "account",
          "type": "address"
        }
      ],
      "name": "renounceRole",
      "outputs": [],
      "stateMutability": "nonpayable",
      "type": "function"
    },
    {
      "inputs": [
        {
          "internalType": "bytes32",
          "name": "role",
          "type": "bytes32"
        },
        {
          "internalType": "address",
          "name": "account",
          "type": "address"
        }
      ],
      "name": "revokeRole",
      "outputs": [],
      "stateMutability": "nonpayable",
      "type": "function"
    },
    {
      "inputs": [
        {
          "internalType": "uint256",
          "name": "_protocolTokenFee",
          "type": "uint256"
        }
      ],
      "name": "setProtocolTokenFee",
      "outputs": [],
      "stateMutability": "nonpayable",
      "type": "function"
    },
    {
      "inputs": [
        {
          "internalType": "address",
          "name": "_protocolTreasury",
          "type": "address"
        }
      ],
      "name": "setProtocolTreasury",
      "outputs": [],
      "stateMutability": "nonpayable",
      "type": "function"
    },
    {
      "inputs": [
        {
          "internalType": "bytes4",
          "name": "interfaceId",
          "type": "bytes4"
        }
      ],
      "name": "supportsInterface",
      "outputs": [
        {
          "internalType": "bool",
          "name": "",
          "type": "bool"
        }
      ],
      "stateMutability": "view",
      "type": "function"
    },
    {
      "inputs": [],
      "name": "tgeBeacon",
      "outputs": [
        {
          "internalType": "address",
          "name": "",
          "type": "address"
        }
      ],
      "stateMutability": "view",
      "type": "function"
    },
    {
      "inputs": [],
      "name": "tokenBeacon",
      "outputs": [
        {
          "internalType": "address",
          "name": "",
          "type": "address"
        }
      ],
      "stateMutability": "view",
      "type": "function"
    },
    {
      "inputs": [
        {
          "internalType": "address",
          "name": "to",
          "type": "address"
        }
      ],
      "name": "transferCollectedFees",
      "outputs": [],
      "stateMutability": "nonpayable",
      "type": "function"
    },
    {
      "inputs": [],
      "name": "unpause",
      "outputs": [],
      "stateMutability": "nonpayable",
      "type": "function"
    },
    {
      "inputs": [
        {
          "components": [
            {
              "internalType": "uint256",
              "name": "price",
              "type": "uint256"
            },
            {
              "internalType": "uint256",
              "name": "hardcap",
              "type": "uint256"
            },
            {
              "internalType": "uint256",
              "name": "softcap",
              "type": "uint256"
            },
            {
              "internalType": "uint256",
              "name": "minPurchase",
              "type": "uint256"
            },
            {
              "internalType": "uint256",
              "name": "maxPurchase",
              "type": "uint256"
            },
            {
              "internalType": "uint256",
              "name": "vestingPercent",
              "type": "uint256"
            },
            {
              "internalType": "uint256",
              "name": "vestingDuration",
              "type": "uint256"
            },
            {
              "internalType": "uint256",
              "name": "vestingTVL",
              "type": "uint256"
            },
            {
              "internalType": "uint256",
              "name": "duration",
              "type": "uint256"
            },
            {
              "internalType": "address[]",
              "name": "userWhitelist",
              "type": "address[]"
            },
            {
              "internalType": "address",
              "name": "unitOfAccount",
              "type": "address"
            },
            {
              "internalType": "uint256",
              "name": "lockupDuration",
              "type": "uint256"
            },
            {
              "internalType": "uint256",
              "name": "lockupTVL",
              "type": "uint256"
            }
          ],
          "internalType": "struct ITGE.TGEInfo",
          "name": "info",
          "type": "tuple"
        },
        {
          "internalType": "uint256",
          "name": "cap",
          "type": "uint256"
        },
        {
          "internalType": "uint256",
          "name": "totalSupply",
          "type": "uint256"
        },
        {
          "internalType": "enum IToken.TokenType",
          "name": "tokenType",
          "type": "uint8"
        }
      ],
      "name": "validateTGEInfo",
      "outputs": [],
      "stateMutability": "view",
      "type": "function"
    }
  ],
  "transactionHash": "0x5b712a11836901085cfa6a887aafbb6f20aa4e3aabf703565f7641634f2ade8f",
  "args": [],
  "numDeployments": 1,
  "solcInputHash": "c4e923031ca87de7b1fbd8c588105cbd",
  "bytecode": "0x60806040523480156200001157600080fd5b506200001c62000022565b620000e4565b600054610100900460ff16156200008f5760405162461bcd60e51b815260206004820152602760248201527f496e697469616c697a61626c653a20636f6e747261637420697320696e697469604482015266616c697a696e6760c81b606482015260840160405180910390fd5b60005460ff9081161015620000e2576000805460ff191660ff9081179091556040519081527f7f26b83ff96e1f2b6a682f133852f6798a09c465da95921460cefb38474024989060200160405180910390a15b565b61519080620000f46000396000f3fe6080604052600436106200023b5760003560e01c8063879010f4116200012f578063c5a7b2ea11620000ad578063d547741f1162000078578063d547741f14620006af578063db47fbe914620006d4578063dedcd30714620006f9578063e7682928146200071e578063f7013ef6146200073657600080fd5b8063c5a7b2ea146200060e578063c979e8a71462000631578063ca15c8731462000667578063ccf5a77c146200068c57600080fd5b80639e82c97811620000fa5780639e82c9781462000588578063a217fddf146200047f578063a368947114620005ad578063b3e8616514620005d2578063b677bc6914620005e957600080fd5b8063879010f414620004f45780639010d07c146200051957806391d14854146200053e5780639d838ad3146200056357600080fd5b80633fec91a411620001bd57806368f7f8bb116200018857806368f7f8bb146200045a57806375b238fc146200047f5780637b1039991462000496578063803db96d14620004b95780638456cb5914620004dc57600080fd5b80633fec91a414620003d157806346b3b62614620003f657806353350755146200041b5780635c975abb146200044057600080fd5b80630c5a61f8116200020a5780630c5a61f81462000314578063248a9ca3146200033b5780632f2ff15d146200036f57806336568abe14620003945780633f4ba83a14620003b957600080fd5b806301569ab0146200024057806301ffc9a7146200028057806303700be814620002b657806307bd026514620002de575b600080fd5b3480156200024d57600080fd5b506101305462000263906001600160a01b031681565b6040516001600160a01b0390911681526020015b60405180910390f35b3480156200028d57600080fd5b50620002a56200029f36600462003374565b6200075b565b604051901515815260200162000277565b348015620002c357600080fd5b50620002cf6101325481565b60405190815260200162000277565b348015620002eb57600080fd5b50620002cf7f9cf85f95575c3af1e116e3d37fd41e7f36a8a373623f51ffaaa87fdd032fa76781565b3480156200032157600080fd5b506200033962000333366004620033c8565b62000789565b005b3480156200034857600080fd5b50620002cf6200035a366004620033e8565b60009081526065602052604090206001015490565b3480156200037c57600080fd5b50620003396200038e36600462003402565b62000844565b348015620003a157600080fd5b5062000339620003b336600462003402565b62000872565b348015620003c657600080fd5b5062000339620008f4565b348015620003de57600080fd5b5062000339620003f0366004620033e8565b6200090e565b3480156200040357600080fd5b506200033962000415366004620035b9565b62000a5a565b3480156200042857600080fd5b50620003396200043a36600462003651565b62001224565b3480156200044d57600080fd5b5060fb5460ff16620002a5565b3480156200046757600080fd5b5062000339620004793660046200368e565b620012d5565b3480156200048c57600080fd5b50620002cf600081565b348015620004a357600080fd5b5061012d5462000263906001600160a01b031681565b348015620004c657600080fd5b506101315462000263906001600160a01b031681565b348015620004e957600080fd5b5062000339620014eb565b3480156200050157600080fd5b506200033962000513366004620033c8565b62001502565b3480156200052657600080fd5b506200026362000538366004620036f6565b6200164a565b3480156200054b57600080fd5b50620002a56200055d36600462003402565b6200166b565b3480156200057057600080fd5b50620002cf62000582366004620033e8565b62001696565b3480156200059557600080fd5b5062000263620005a736600462003719565b62001726565b348015620005ba57600080fd5b50620002cf620005cc366004620033c8565b62001755565b62000339620005e3366004620039f3565b62001a2b565b348015620005f657600080fd5b50620003396200060836600462003af1565b6200209b565b3480156200061b57600080fd5b5061012e5462000263906001600160a01b031681565b3480156200063e57600080fd5b50620002cf7f2b1db18cd92cf6947e9bb2f532380e05e806a043d20a65c532268a1d7f4b5e7381565b3480156200067457600080fd5b50620002cf62000686366004620033e8565b620021f2565b3480156200069957600080fd5b5061012f5462000263906001600160a01b031681565b348015620006bc57600080fd5b5062000339620006ce36600462003402565b6200220b565b348015620006e157600080fd5b50620002cf600080516020620050e883398151915281565b3480156200070657600080fd5b506200033962000718366004620033e8565b62002234565b3480156200072b57600080fd5b50620002cf620022c4565b3480156200074357600080fd5b50620003396200075536600462003b83565b620022f9565b60006001600160e01b03198216635a05180f60e01b148062000783575062000783826200265d565b92915050565b6000620007968162002694565b60408051808201909152600c81526b414444524553535f5a45524f60a01b60208201526001600160a01b038316620007ec5760405162461bcd60e51b8152600401620007e3919062003c44565b60405180910390fd5b5061013180546001600160a01b0319166001600160a01b0384169081179091556040519081527f48919a8bb9d5ad92fa352adb62046eaabb006b67ba2fcf7566ed0879ab5a27c3906020015b60405180910390a15050565b600082815260656020526040902060010154620008618162002694565b6200086d8383620026a0565b505050565b6001600160a01b0381163314620008e45760405162461bcd60e51b815260206004820152602f60248201527f416363657373436f6e74726f6c3a2063616e206f6e6c792072656e6f756e636560448201526e103937b632b9903337b91039b2b63360891b6064820152608401620007e3565b620008f08282620026c6565b5050565b6000620009018162002694565b6200090b620026ec565b50565b61012d54604051630db9619f60e31b81523360048201526001916001600160a01b031690636dcb0cf890602401602060405180830381865afa15801562000959573d6000803e3d6000fd5b505050506040513d601f19601f820116820180604052508101906200097f919062003c6f565b600481111562000993576200099362003c59565b14604051806040016040528060088152602001671393d517d413d3d360c21b81525090620009d65760405162461bcd60e51b8152600401620007e3919062003c44565b50620009e162002740565b61012d5460405163f4be936960e01b8152336004820152602481018390526001600160a01b039091169063f4be9369906044016020604051808303816000875af115801562000a34573d6000803e3d6000fd5b505050506040513d601f19601f82011682018060405250810190620008f0919062003c92565b61012d54604051630db9619f60e31b81523360048201526001916001600160a01b031690636dcb0cf890602401602060405180830381865afa15801562000aa5573d6000803e3d6000fd5b505050506040513d601f19601f8201168201806040525081019062000acb919062003c6f565b600481111562000adf5762000adf62003c59565b14604051806040016040528060088152602001671393d517d413d3d360c21b8152509062000b225760405162461bcd60e51b8152600401620007e3919062003c44565b5062000b2d6200278a565b62000b3762002740565b600062000b458233620027e5565b90506000336382b8660062000b5e602087018762003cac565b6040518263ffffffff1660e01b815260040162000b7c919062003ce3565b602060405180830381865afa15801562000b9a573d6000803e3d6000fd5b505050506040513d601f19601f8201168201806040525081019062000bc0919062003cf3565b9050600162000bd3602086018662003cac565b600281111562000be75762000be762003c59565b0362000de6576000816001600160a01b0316633eac99986040518163ffffffff1660e01b8152600401602060405180830381865afa15801562000c2e573d6000803e3d6000fd5b505050506040513d601f19601f8201168201806040525081019062000c54919062003cf3565b6001600160a01b031663c19d93fb6040518163ffffffff1660e01b8152600401602060405180830381865afa15801562000c92573d6000803e3d6000fd5b505050506040513d601f19601f8201168201806040525081019062000cb8919062003d13565b600281111562000ccc5762000ccc62003c59565b1415604051806040016040528060118152602001704143544956455f5447455f45584953545360781b8152509062000d195760405162461bcd60e51b8152600401620007e3919062003c44565b50604051630a08df1760e31b81526001600160a01b038381166004830152821690635046f8b890602401600060405180830381600087803b15801562000d5e57600080fd5b505af115801562000d73573d6000803e3d6000fd5b50506101325460405163647ddc7960e11b81526001600160a01b038616935063c8fbb8f2925062000dac9185918a919060040162003e92565b600060405180830381600087803b15801562000dc757600080fd5b505af115801562000ddc573d6000803e3d6000fd5b50505050620011ce565b600262000df7602086018662003cac565b600281111562000e0b5762000e0b62003c59565b0362001188576001600160a01b038116158062000f2457506001816001600160a01b0316620a04ae6040518163ffffffff1660e01b8152600401600060405180830381865afa15801562000e63573d6000803e3d6000fd5b505050506040513d6000823e601f3d908101601f1916820160405262000e8d919081019062003ec8565b60008151811062000ea25762000ea262003f6c565b60200260200101516001600160a01b031663c19d93fb6040518163ffffffff1660e01b8152600401602060405180830381865afa15801562000ee8573d6000803e3d6000fd5b505050506040513d601f19601f8201168201806040525081019062000f0e919062003d13565b600281111562000f225762000f2262003c59565b145b156200102c5762000f3462002948565b604051635c138e7d60e01b81529091506001600160a01b03821690635c138e7d9062000f699033908890879060040162003ff3565b600060405180830381600087803b15801562000f8457600080fd5b505af115801562000f99573d6000803e3d6000fd5b505060405163c4767b9560e01b815233925063c4767b95915062000fc5908490600290600401620040e8565b600060405180830381600087803b15801562000fe057600080fd5b505af115801562000ff5573d6000803e3d6000fd5b505060405163647ddc7960e11b81526001600160a01b038516925063c8fbb8f2915062000dac908490899060009060040162003e92565b6000816001600160a01b0316633eac99986040518163ffffffff1660e01b8152600401602060405180830381865afa1580156200106d573d6000803e3d6000fd5b505050506040513d601f19601f8201168201806040525081019062001093919062003cf3565b6001600160a01b031663c19d93fb6040518163ffffffff1660e01b8152600401602060405180830381865afa158015620010d1573d6000803e3d6000fd5b505050506040513d601f19601f82011682018060405250810190620010f7919062003d13565b60028111156200110b576200110b62003c59565b1415604051806040016040528060118152602001704143544956455f5447455f45584953545360781b81525090620011585760405162461bcd60e51b8152600401620007e3919062003c44565b50604051630a08df1760e31b81526001600160a01b038381166004830152821690635046f8b89060240162000fc5565b6040805180820182526016815275554e535550504f525445445f544f4b454e5f5459504560501b6020820152905162461bcd60e51b8152620007e3919060040162003c44565b604080513381526001600160a01b03848116602083015283168183015290517ff74d32d2119bcaf2616d37895d32adafbee1dceb25a98646ca514098f422fd899181900360600190a150506200086d600160c955565b6000620012318162002694565b60405163e0a8f6f560e01b8152600481018390526001600160a01b0384169063e0a8f6f590602401600060405180830381600087803b1580156200127457600080fd5b505af115801562001289573d6000803e3d6000fd5b5050604080516001600160a01b0387168152602081018690527f5d423f6a55211a90b8438786aa7edfa40d3eef381b6aae048b52daf814c16462935001905060405180910390a1505050565b6000620012eb61016086016101408701620033c8565b6001600160a01b031614620013be5760006200131061016086016101408701620033c8565b6001600160a01b03166318160ddd6040518163ffffffff1660e01b8152600401602060405180830381865afa1580156200134e573d6000803e3d6000fd5b505050506040513d601f19601f8201168201806040525081019062001374919062003c92565b116040518060400160405280600d81526020016c24a72b20a624a22faa27a5a2a760991b81525090620013bc5760405162461bcd60e51b8152600401620007e3919062003c44565b505b8360400135846020013510156040518060400160405280600f81526020016e0494e56414c49445f4841524443415608c1b81525090620014135760405162461bcd60e51b8152600401620007e3919062003c44565b5060006200142283856200411d565b905080856020013511156040518060600160405280602181526020016200513a6021913990620014675760405162461bcd60e51b8152600401620007e3919062003c44565b5060018260028111156200147f576200147f62003c59565b03620014e4578062001495866020013562001696565b620014a590602088013562004133565b1115604051806060016040528060328152602001620051086032913990620014e25760405162461bcd60e51b8152600401620007e3919062003c44565b505b5050505050565b6000620014f88162002694565b6200090b62002a2c565b60006200150f8162002694565b60408051808201909152600c81526b414444524553535f5a45524f60a01b60208201526001600160a01b0383166200155c5760405162461bcd60e51b8152600401620007e3919062003c44565b506040513031906000906001600160a01b0385169083908381818185875af1925050503d8060008114620015ad576040519150601f19603f3d011682016040523d82523d6000602084013e620015b2565b606091505b50509050806040518060400160405280601081526020016f11561150d5551253d397d1905253115160821b81525090620016015760405162461bcd60e51b8152600401620007e3919062003c44565b50604080516001600160a01b0386168152602081018490527fc812aa15be10cc23ff245a12080e7de523f13b7fd4a16277a703c4f8e3113709910160405180910390a150505050565b600082815260976020526040812062001664908362002a6c565b9392505050565b60009182526065602090815260408084206001600160a01b0393909316845291905290205460ff1690565b6000620016a2620022c4565b8210156040518060400160405280600d81526020016c494e56414c49445f56414c554560981b81525090620016ec5760405162461bcd60e51b8152600401620007e3919062003c44565b50620f4240620016fe6001826200411d565b610132546200170e908562004149565b6200171a919062004133565b62000783919062004163565b6000806000620017368462002a7a565b915091506200174d82828051906020012062002b3e565b949350505050565b6000600161012d54604051630db9619f60e31b81526001600160a01b03858116600483015290911690636dcb0cf890602401602060405180830381865afa158015620017a5573d6000803e3d6000fd5b505050506040513d601f19601f82011682018060405250810190620017cb919062003c6f565b6004811115620017df57620017df62003c59565b1480156200184d5750816001600160a01b031663e47bfee86040518163ffffffff1660e01b8152600401602060405180830381865afa15801562001827573d6000803e3d6000fd5b505050506040513d601f19601f820116820180604052508101906200184d919062004186565b1562001a105760405162415c3360e91b81526200192e906001600160a01b038416906382b8660090620018869060019060040162003ce3565b602060405180830381865afa158015620018a4573d6000803e3d6000fd5b505050506040513d601f19601f82011682018060405250810190620018ca919062003cf3565b6001600160a01b031663355274ea6040518163ffffffff1660e01b8152600401602060405180830381865afa15801562001908573d6000803e3d6000fd5b505050506040513d601f19601f8201168201806040525081019062000582919062003c92565b60405162415c3360e91b81526001600160a01b038416906382b86600906200195c9060019060040162003ce3565b602060405180830381865afa1580156200197a573d6000803e3d6000fd5b505050506040513d601f19601f82011682018060405250810190620019a0919062003cf3565b6001600160a01b031663355274ea6040518163ffffffff1660e01b8152600401602060405180830381865afa158015620019de573d6000803e3d6000fd5b505050506040513d601f19601f8201168201806040525081019062001a04919062003c92565b6200078391906200411d565b62001a1d60001962001696565b62000783906000196200411d565b62001a356200278a565b62001a3f62002740565b60408051808201909152600b81526a0494e56414c49445f4341560ac1b6020820152670de0b6b3a764000089101562001a8d5760405162461bcd60e51b8152600401620007e3919062003c44565b5062001a998862001696565b62001aa5908962004133565b97506001600160a01b03891662001c3f5762001ad0600080516020620050e883398151915262002694565b62001aeb600080516020620050e883398151915233620026c6565b61012d54604051633b84067560e21b815260048101879052602481018690526000916001600160a01b03169063ee1019d4906044016000604051808303816000875af115801562001b40573d6000803e3d6000fd5b505050506040513d6000823e601f3d908101601f1916820160405262001b6a9190810190620041f6565b90508060800151341460405180604001604052806014815260200173125390d3d4949150d517d1551217d41054d4d15160621b8152509062001bc15760405162461bcd60e51b8152600401620007e3919062003c44565b5062001bcd8162002b4d565b60405163aecb96c960e01b8152909a506001600160a01b038b169063aecb96c99062001c049033908790899087906004016200430f565b600060405180830381600087803b15801562001c1f57600080fd5b505af115801562001c34573d6000803e3d6000fd5b505050505062001e74565b61012d54604051630db9619f60e31b81526001600160a01b038b811660048301526001921690636dcb0cf890602401602060405180830381865afa15801562001c8c573d6000803e3d6000fd5b505050506040513d601f19601f8201168201806040525081019062001cb2919062003c6f565b600481111562001cc65762001cc662003c59565b14604051806040016040528060088152602001671393d517d413d3d360c21b8152509062001d095760405162461bcd60e51b8152600401620007e3919062003c44565b50886001600160a01b0316638da5cb5b6040518163ffffffff1660e01b8152600401602060405180830381865afa15801562001d49573d6000803e3d6000fd5b505050506040513d601f19601f8201168201806040525081019062001d6f919062003cf3565b6001600160a01b0316336001600160a01b0316146040518060400160405280600e81526020016d2727aa2fa827a7a62fa7aba722a960911b8152509062001dcb5760405162461bcd60e51b8152600401620007e3919062003c44565b50886001600160a01b031663e47bfee86040518163ffffffff1660e01b8152600401602060405180830381865afa15801562001e0b573d6000803e3d6000fd5b505050506040513d601f19601f8201168201806040525081019062001e31919062004186565b156040518060400160405280600681526020016549535f44414f60d01b8152509062001e725760405162461bcd60e51b8152600401620007e3919062003c44565b505b600062001e8062002948565b9050600062001e90838c620027e5565b9050816001600160a01b0316635c138e7d8c6040518060c001604052806001600281111562001ec35762001ec362003c59565b81526020016040518060200160405280600081525081526020018d81526020016040518060200160405280600081525081526020018e8152602001601260ff16815250846040518463ffffffff1660e01b815260040162001f2793929190620043ac565b600060405180830381600087803b15801562001f4257600080fd5b505af115801562001f57573d6000803e3d6000fd5b505060405163c4767b9560e01b81526001600160a01b038e16925063c4767b95915062001f8c908590600190600401620040e8565b600060405180830381600087803b15801562001fa757600080fd5b505af115801562001fbc573d6000803e3d6000fd5b50506101325460405163647ddc7960e11b81526001600160a01b038516935063c8fbb8f2925062001ff59186918d91906004016200449c565b600060405180830381600087803b1580156200201057600080fd5b505af115801562002025573d6000803e3d6000fd5b505050507f9c5d829b9b23efc461f9aeef91979ec04bb903feb3bee4f26d22114abfc7335b8b83836040516200207b939291906001600160a01b0393841681529183166020830152909116604082015260600190565b60405180910390a1505062002090600160c955565b505050505050505050565b61012d54604051630db9619f60e31b81523360048201526001916001600160a01b031690636dcb0cf890602401602060405180830381865afa158015620020e6573d6000803e3d6000fd5b505050506040513d601f19601f820116820180604052508101906200210c919062003c6f565b600481111562002120576200212062003c59565b14604051806040016040528060088152602001671393d517d413d3d360c21b81525090620021635760405162461bcd60e51b8152600401620007e3919062003c44565b506200216e62002740565b61012d54604051633c6b770b60e01b81526001600160a01b0390911690633c6b770b90620021ac903390889060009089908990899060040162004583565b6020604051808303816000875af1158015620021cc573d6000803e3d6000fd5b505050506040513d601f19601f82011682018060405250810190620014e4919062003c92565b6000818152609760205260408120620007839062002bf4565b600082815260656020526040902060010154620022288162002694565b6200086d8383620026c6565b6000620022418162002694565b60408051808201909152600d81526c494e56414c49445f56414c554560981b6020820152620f42408311156200228c5760405162461bcd60e51b8152600401620007e3919062003c44565b506101328290556040518281527f3356e979ac6b186521938f589b0f14ab4bac888ba2f12703da660b1f4ed1119f9060200162000838565b610132546000906001620022dc82620f424062004133565b620022e891906200411d565b620022f4919062004163565b905090565b600054610100900460ff16158080156200231a5750600054600160ff909116105b80620023365750303b15801562002336575060005460ff166001145b6200239b5760405162461bcd60e51b815260206004820152602e60248201527f496e697469616c697a61626c653a20636f6e747261637420697320616c72656160448201526d191e481a5b9a5d1a585b1a5e995960921b6064820152608401620007e3565b6000805460ff191660011790558015620023bf576000805461ff0019166101001790555b60408051808201909152600c81526b414444524553535f5a45524f60a01b60208201526001600160a01b0387166200240c5760405162461bcd60e51b8152600401620007e3919062003c44565b5060408051808201909152600c81526b414444524553535f5a45524f60a01b60208201526001600160a01b0386166200245a5760405162461bcd60e51b8152600401620007e3919062003c44565b5060408051808201909152600c81526b414444524553535f5a45524f60a01b60208201526001600160a01b038516620024a85760405162461bcd60e51b8152600401620007e3919062003c44565b5060408051808201909152600c81526b414444524553535f5a45524f60a01b60208201526001600160a01b038416620024f65760405162461bcd60e51b8152600401620007e3919062003c44565b506200250162002bff565b6200250b62002c33565b61012d80546001600160a01b038089166001600160a01b03199283161790925561012e805488841690831617905561012f805487841690831617905561013080549286169290911691909117905562002566600033620026a0565b620025927f2b1db18cd92cf6947e9bb2f532380e05e806a043d20a65c532268a1d7f4b5e7333620026a0565b620025be7f9cf85f95575c3af1e116e3d37fd41e7f36a8a373623f51ffaaa87fdd032fa76733620026a0565b620025f9600080516020620050e88339815191527f2b1db18cd92cf6947e9bb2f532380e05e806a043d20a65c532268a1d7f4b5e7362002c67565b620026043062000789565b6200260f8262002234565b8015620014e2576000805461ff0019169055604051600181527f7f26b83ff96e1f2b6a682f133852f6798a09c465da95921460cefb38474024989060200160405180910390a1505050505050565b60006001600160e01b03198216637965db0b60e01b14806200078357506301ffc9a760e01b6001600160e01b031983161462000783565b6200090b813362002cb2565b620026ac828262002d16565b60008281526097602052604090206200086d908262002da0565b620026d2828262002db7565b60008281526097602052604090206200086d908262002e21565b620026f662002e38565b60fb805460ff191690557f5db9ee0a495bf2e6ff9c91a7834c1ba4fdd244a5e8aa4e537bd38aeae4b073aa335b6040516001600160a01b03909116815260200160405180910390a1565b60fb5460ff1615620027885760405162461bcd60e51b815260206004820152601060248201526f14185d5cd8589b194e881c185d5cd95960821b6044820152606401620007e3565b565b600260c95403620027de5760405162461bcd60e51b815260206004820152601f60248201527f5265656e7472616e637947756172643a207265656e7472616e742063616c6c006044820152606401620007e3565b600260c955565b610130546040516000916001600160a01b031690620028049062003366565b6001600160a01b039091168152604060208201819052600090820152606001604051809103906000f08015801562002840573d6000803e3d6000fd5b5061012d54604051631f8b400560e01b81529192506001600160a01b031690631f8b4005906200287990849060049088908201620045e7565b6020604051808303816000875af115801562002899573d6000803e3d6000fd5b505050506040513d601f19601f82011682018060405250810190620028bf919062003c92565b5061012d54604051633c6b770b60e01b81526001600160a01b0390911690633c6b770b90620028fb908590600290869060009060040162004623565b6020604051808303816000875af11580156200291b573d6000803e3d6000fd5b505050506040513d601f19601f8201168201806040525081019062002941919062003c92565b5092915050565b61012f546040516000916001600160a01b031690620029679062003366565b6001600160a01b039091168152604060208201819052600090820152606001604051809103906000f080158015620029a3573d6000803e3d6000fd5b5061012d54604051631f8b400560e01b81529192506001600160a01b031690631f8b400590620029db9084906002906004016200466c565b6020604051808303816000875af1158015620029fb573d6000803e3d6000fd5b505050506040513d601f19601f8201168201806040525081019062002a21919062003c92565b5090565b600160c955565b62002a3662002740565b60fb805460ff191660011790557f62e78cea01bee320cd4e420270b5ea74000d11b0c9f74754ebdbfc544b05a258620027233390565b600062001664838362002e83565b6000606082600001518360200151846040015160405160200162002aa1939291906200469f565b60405160208183030381529060405280519060200120915060006040518060200162002acd9062003366565b601f1982820381018352601f90910116604081815261012e546001600160a01b031660208301528082015260006060820152909150819060800160408051601f198184030181529082905262002b279291602001620046c0565b604051602081830303815290604052915050915091565b60006200166483833062002eb0565b600080600062002b5d8462002a7a565b9150915062002b6f6000838362002eda565b61012d54604051631f8b400560e01b81529194506001600160a01b031690631f8b40059062002ba69086906001906004016200466c565b6020604051808303816000875af115801562002bc6573d6000803e3d6000fd5b505050506040513d601f19601f8201168201806040525081019062002bec919062003c92565b505050919050565b600062000783825490565b600054610100900460ff1662002c295760405162461bcd60e51b8152600401620007e390620046f3565b6200278862002fe4565b600054610100900460ff1662002c5d5760405162461bcd60e51b8152600401620007e390620046f3565b620027886200301a565b600082815260656020526040808220600101805490849055905190918391839186917fbd79b86ffe0ab8e8776151514217cd7cacd52c909f66475c3af44e129f0b00ff9190a4505050565b62002cbe82826200166b565b620008f05762002cce8162003044565b62002cdb83602062003057565b60405160200162002cee9291906200473e565b60408051601f198184030181529082905262461bcd60e51b8252620007e39160040162003c44565b62002d2282826200166b565b620008f05760008281526065602090815260408083206001600160a01b03851684529091529020805460ff1916600117905562002d5c3390565b6001600160a01b0316816001600160a01b0316837f2f8788117e7eff1d82e926ec794901d17c78024a50270940304540a733656f0d60405160405180910390a45050565b600062001664836001600160a01b03841662003210565b62002dc382826200166b565b15620008f05760008281526065602090815260408083206001600160a01b0385168085529252808320805460ff1916905551339285917ff6391f5c32d9c69d2a47ea670b442974b53935d1edc7fd64eb21e047a839171b9190a45050565b600062001664836001600160a01b03841662003262565b60fb5460ff16620027885760405162461bcd60e51b815260206004820152601460248201527314185d5cd8589b194e881b9bdd081c185d5cd95960621b6044820152606401620007e3565b600082600001828154811062002e9d5762002e9d62003f6c565b9060005260206000200154905092915050565b6000604051836040820152846020820152828152600b8101905060ff815360559020949350505050565b60008347101562002f2e5760405162461bcd60e51b815260206004820152601d60248201527f437265617465323a20696e73756666696369656e742062616c616e63650000006044820152606401620007e3565b815160000362002f815760405162461bcd60e51b815260206004820181905260248201527f437265617465323a2062797465636f6465206c656e677468206973207a65726f6044820152606401620007e3565b8282516020840186f590506001600160a01b038116620016645760405162461bcd60e51b815260206004820152601960248201527f437265617465323a204661696c6564206f6e206465706c6f79000000000000006044820152606401620007e3565b600054610100900460ff166200300e5760405162461bcd60e51b8152600401620007e390620046f3565b60fb805460ff19169055565b600054610100900460ff1662002a255760405162461bcd60e51b8152600401620007e390620046f3565b6060620007836001600160a01b03831660145b606060006200306883600262004149565b6200307590600262004133565b6001600160401b038111156200308f576200308f6200344f565b6040519080825280601f01601f191660200182016040528015620030ba576020820181803683370190505b509050600360fc1b81600081518110620030d857620030d862003f6c565b60200101906001600160f81b031916908160001a905350600f60fb1b816001815181106200310a576200310a62003f6c565b60200101906001600160f81b031916908160001a90535060006200313084600262004149565b6200313d90600162004133565b90505b6001811115620031bf576f181899199a1a9b1b9c1cb0b131b232b360811b85600f166010811062003175576200317562003f6c565b1a60f81b8282815181106200318e576200318e62003f6c565b60200101906001600160f81b031916908160001a90535060049490941c93620031b781620047b7565b905062003140565b508315620016645760405162461bcd60e51b815260206004820181905260248201527f537472696e67733a20686578206c656e67746820696e73756666696369656e746044820152606401620007e3565b6000818152600183016020526040812054620032595750815460018181018455600084815260208082209093018490558454848252828601909352604090209190915562000783565b50600062000783565b600081815260018301602052604081205480156200335b576000620032896001836200411d565b85549091506000906200329f906001906200411d565b90508181146200330b576000866000018281548110620032c357620032c362003f6c565b9060005260206000200154905080876000018481548110620032e957620032e962003f6c565b6000918252602080832090910192909255918252600188019052604090208390555b85548690806200331f576200331f620047d1565b60019003818190600052602060002001600090559055856001016000868152602001908152602001600020600090556001935050505062000783565b600091505062000783565b61090080620047e883390190565b6000602082840312156200338757600080fd5b81356001600160e01b0319811681146200166457600080fd5b6001600160a01b03811681146200090b57600080fd5b8035620033c381620033a0565b919050565b600060208284031215620033db57600080fd5b81356200166481620033a0565b600060208284031215620033fb57600080fd5b5035919050565b600080604083850312156200341657600080fd5b8235915060208301356200342a81620033a0565b809150509250929050565b60006101a082840312156200344957600080fd5b50919050565b634e487b7160e01b600052604160045260246000fd5b60405160a081016001600160401b03811182821017156200348a576200348a6200344f565b60405290565b6040516101a081016001600160401b03811182821017156200348a576200348a6200344f565b60405160c081016001600160401b03811182821017156200348a576200348a6200344f565b604051608081016001600160401b03811182821017156200348a576200348a6200344f565b604051601f8201601f191681016001600160401b03811182821017156200352b576200352b6200344f565b604052919050565b60006001600160401b038211156200354f576200354f6200344f565b50601f01601f191660200190565b600082601f8301126200356f57600080fd5b813562003586620035808262003533565b62003500565b8181528460208386010111156200359c57600080fd5b816020850160208301376000918101602001919091529392505050565b600080600060608486031215620035cf57600080fd5b83356001600160401b0380821115620035e757600080fd5b620035f58783880162003435565b945060208601359150808211156200360c57600080fd5b9085019060c082880312156200362157600080fd5b909250604085013590808211156200363857600080fd5b5062003647868287016200355d565b9150509250925092565b600080604083850312156200366557600080fd5b82356200367281620033a0565b946020939093013593505050565b600381106200090b57600080fd5b60008060008060808587031215620036a557600080fd5b84356001600160401b03811115620036bc57600080fd5b620036ca8782880162003435565b94505060208501359250604085013591506060850135620036eb8162003680565b939692955090935050565b600080604083850312156200370a57600080fd5b50508035926020909101359150565b6000602082840312156200372c57600080fd5b81356001600160401b03808211156200374457600080fd5b9083019060a082860312156200375957600080fd5b6200376362003465565b82358152602083013560208201526040830135828111156200378457600080fd5b62003792878286016200355d565b604083015250606083013582811115620037ab57600080fd5b620037b9878286016200355d565b6060830152506080830135608082015280935050505092915050565b60006001600160401b03821115620037f157620037f16200344f565b5060051b60200190565b600082601f8301126200380d57600080fd5b81356020620038206200358083620037d5565b82815260059290921b840181019181810190868411156200384057600080fd5b8286015b84811015620038685780356200385a81620033a0565b835291830191830162003844565b509695505050505050565b60006101a082840312156200388757600080fd5b6200389162003490565b9050813581526020820135602082015260408201356040820152606082013560608201526080820135608082015260a082013560a082015260c082013560c082015260e082013560e0820152610100808301358183015250610120808301356001600160401b038111156200390557600080fd5b6200391385828601620037fb565b82840152505061014062003929818401620033b6565b9082015261016082810135908201526101809182013591810191909152919050565b60006101208083850312156200396057600080fd5b6200396a620034b6565b915082358252602080840135818401526040840135604084015260608401356060840152608084013560808401528460bf850112620039a857600080fd5b620039b2620034db565b918401918086841115620039c557600080fd5b60a086015b84811015620039e35780358352918301918301620039ca565b5060a08501525091949350505050565b60008060008060008060008060006102208a8c03121562003a1357600080fd5b62003a1e8a620033b6565b985060208a0135975060408a01356001600160401b038082111562003a4257600080fd5b62003a508d838e016200355d565b985060608c013591508082111562003a6757600080fd5b62003a758d838e0162003873565b975060808c0135965060a08c0135955062003a948d60c08e016200394b565b94506101e08c013591508082111562003aac57600080fd5b62003aba8d838e016200355d565b93506102008c013591508082111562003ad257600080fd5b5062003ae18c828d016200355d565b9150509295985092959850929598565b6000806000806060858703121562003b0857600080fd5b84356004811062003b1857600080fd5b93506020850135925060408501356001600160401b038082111562003b3c57600080fd5b818701915087601f83011262003b5157600080fd5b81358181111562003b6157600080fd5b88602082850101111562003b7457600080fd5b95989497505060200194505050565b600080600080600060a0868803121562003b9c57600080fd5b853562003ba981620033a0565b9450602086013562003bbb81620033a0565b9350604086013562003bcd81620033a0565b9250606086013562003bdf81620033a0565b949793965091946080013592915050565b60005b8381101562003c0d57818101518382015260200162003bf3565b50506000910152565b6000815180845262003c3081602086016020860162003bf0565b601f01601f19169290920160200192915050565b60208152600062001664602083018462003c16565b634e487b7160e01b600052602160045260246000fd5b60006020828403121562003c8257600080fd5b8151600581106200166457600080fd5b60006020828403121562003ca557600080fd5b5051919050565b60006020828403121562003cbf57600080fd5b8135620016648162003680565b6003811062003cdf5762003cdf62003c59565b9052565b6020810162000783828462003ccc565b60006020828403121562003d0657600080fd5b81516200166481620033a0565b60006020828403121562003d2657600080fd5b8151620016648162003680565b6000808335601e1984360301811262003d4b57600080fd5b83016020810192503590506001600160401b0381111562003d6b57600080fd5b8060051b360382131562003d7e57600080fd5b9250929050565b8183526000602080850194508260005b8581101562003dc757813562003dab81620033a0565b6001600160a01b03168752958201959082019060010162003d95565b509495945050505050565b60006101a0823584526020830135602085015260408301356040850152606083013560608501526080830135608085015260a083013560a085015260c083013560c085015260e083013560e085015261010080840135818601525061012062003e3e8185018562003d33565b838388015262003e52848801828462003d85565b935050505061014062003e67818501620033b6565b6001600160a01b03169085015261016083810135908501526101809283013592909301919091525090565b6001600160a01b038416815260606020820181905260009062003eb89083018562003dd2565b9050826040830152949350505050565b6000602080838503121562003edc57600080fd5b82516001600160401b0381111562003ef357600080fd5b8301601f8101851362003f0557600080fd5b805162003f166200358082620037d5565b81815260059190911b8201830190838101908783111562003f3657600080fd5b928401925b8284101562003f6157835162003f5181620033a0565b8252928401929084019062003f3b565b979650505050505050565b634e487b7160e01b600052603260045260246000fd5b6000808335601e1984360301811262003f9a57600080fd5b83016020810192503590506001600160401b0381111562003fba57600080fd5b80360382131562003d7e57600080fd5b81835281816020850137506000828201602090810191909152601f909101601f19169091010190565b6001600160a01b03841681526060602082015260008335620040158162003680565b62004024606084018262003ccc565b5062004034602085018562003f82565b60c060808501526200404c6101208501828462003fca565b9150506200405e604086018662003f82565b605f19808685030160a08701526200407884838562003fca565b935062004089606089018962003f82565b93509150808685030160c087015250620040a583838362003fca565b92505050608085013560e084015260a085013560ff81168114620040c857600080fd5b60ff166101008401526001600160a01b038416604084015290506200174d565b6001600160a01b03831681526040810162001664602083018462003ccc565b634e487b7160e01b600052601160045260246000fd5b8181038181111562000783576200078362004107565b8082018082111562000783576200078362004107565b808202811582820484141762000783576200078362004107565b6000826200418157634e487b7160e01b600052601260045260246000fd5b500490565b6000602082840312156200419957600080fd5b815180151581146200166457600080fd5b600082601f830112620041bc57600080fd5b8151620041cd620035808262003533565b818152846020838601011115620041e357600080fd5b6200174d82602083016020870162003bf0565b6000602082840312156200420957600080fd5b81516001600160401b03808211156200422157600080fd5b9083019060a082860312156200423657600080fd5b6200424062003465565b82518152602083015160208201526040830151828111156200426157600080fd5b6200426f87828601620041aa565b6040830152506060830151828111156200428857600080fd5b6200429687828601620041aa565b6060830152506080830151608082015280935050505092915050565b80518252602081015160208301526000604082015160a06040850152620042dd60a085018262003c16565b905060608301518482036060860152620042f8828262003c16565b915050608083015160808501528091505092915050565b6001600160a01b0385168152610180602080830182905260009190620043388483018862003c16565b91508551604085015280860151606085015260408601516080850152606086015160a0850152608086015160c085015260a086015160e0850160005b6004811015620043935782518252918301919083019060010162004374565b5050505082810361016084015262003f618185620042b2565b6001600160a01b03841681526060602082018190528351620043d19183019062003ccc565b6000602084015160c06080840152620043ef61012084018262003c16565b90506040850151605f19808584030160a08601526200440f838362003c16565b925060608701519150808584030160c0860152506200442f828262003c16565b608087015160e086015260a087015160ff166101008601526001600160a01b038616604086015292506200174d915050565b600081518084526020808501945080840160005b8381101562003dc75781516001600160a01b03168752958201959082019060010162004475565b60018060a01b0384168152606060208201528251606082015260208301516080820152604083015160a0820152606083015160c0820152608083015160e0820152600060a0840151610100818185015260c08601519150610120828186015260e087015192506101408381870152828801519350610160925083838701528188015193506101a0915061018082818801526200453d61020088018662004461565b918901516001600160a01b031692870192909252918701516101c0860152909501516101e0840152505060400152919050565b6004811062003cdf5762003cdf62003c59565b6001600160a01b038781168252600090620045a2602084018962004570565b80871660408401525084606083015260a06080830152620045c860a08301848662003fca565b98975050505050505050565b6005811062003cdf5762003cdf62003c59565b6001600160a01b0384168152620046026020820184620045d4565b6060604082015260006200461a606083018462003c16565b95945050505050565b6001600160a01b03858116825260009062004642602084018762004570565b939093166040820152606081019190915260a06080820181905260009082015260c0019392505050565b6001600160a01b0383168152620046876020820183620045d4565b60606040820181905260009082015260800192915050565b8381528260208201526060604082015260006200461a606083018462003c16565b60008351620046d481846020880162003bf0565b835190830190620046ea81836020880162003bf0565b01949350505050565b6020808252602b908201527f496e697469616c697a61626c653a20636f6e7472616374206973206e6f74206960408201526a6e697469616c697a696e6760a81b606082015260800190565b7f416363657373436f6e74726f6c3a206163636f756e74200000000000000000008152600083516200477881601785016020880162003bf0565b7001034b99036b4b9b9b4b733903937b6329607d1b6017918401918201528351620047ab81602884016020880162003bf0565b01602801949350505050565b600081620047c957620047c962004107565b506000190190565b634e487b7160e01b600052603160045260246000fdfe60806040526040516109003803806109008339810160408190526100229161045b565b61002e82826000610035565b5050610585565b61003e83610100565b6040516001600160a01b038416907f1cf3b03a6cf19fa2baba4df148e9dcabedea7f8a5c07840e207e5c089be95d3e90600090a260008251118061007f5750805b156100fb576100f9836001600160a01b0316635c60da1b6040518163ffffffff1660e01b8152600401602060405180830381865afa1580156100c5573d6000803e3d6000fd5b505050506040513d601f19601f820116820180604052508101906100e9919061051b565b836102a360201b6100291760201c565b505b505050565b610113816102cf60201b6100551760201c565b6101725760405162461bcd60e51b815260206004820152602560248201527f455243313936373a206e657720626561636f6e206973206e6f74206120636f6e6044820152641d1c9858dd60da1b60648201526084015b60405180910390fd5b6101e6816001600160a01b0316635c60da1b6040518163ffffffff1660e01b8152600401602060405180830381865afa1580156101b3573d6000803e3d6000fd5b505050506040513d601f19601f820116820180604052508101906101d7919061051b565b6102cf60201b6100551760201c565b61024b5760405162461bcd60e51b815260206004820152603060248201527f455243313936373a20626561636f6e20696d706c656d656e746174696f6e206960448201526f1cc81b9bdd08184818dbdb9d1c9858dd60821b6064820152608401610169565b806102827fa3f0ad74e5423aebfd80d3ef4346578335a9a72aeaee59ff6cb3582b35133d5060001b6102de60201b6100641760201c565b80546001600160a01b0319166001600160a01b039290921691909117905550565b60606102c883836040518060600160405280602781526020016108d9602791396102e1565b9392505050565b6001600160a01b03163b151590565b90565b6060600080856001600160a01b0316856040516102fe9190610536565b600060405180830381855af49150503d8060008114610339576040519150601f19603f3d011682016040523d82523d6000602084013e61033e565b606091505b5090925090506103508683838761035a565b9695505050505050565b606083156103c95782516000036103c2576001600160a01b0385163b6103c25760405162461bcd60e51b815260206004820152601d60248201527f416464726573733a2063616c6c20746f206e6f6e2d636f6e74726163740000006044820152606401610169565b50816103d3565b6103d383836103db565b949350505050565b8151156103eb5781518083602001fd5b8060405162461bcd60e51b81526004016101699190610552565b80516001600160a01b038116811461041c57600080fd5b919050565b634e487b7160e01b600052604160045260246000fd5b60005b8381101561045257818101518382015260200161043a565b50506000910152565b6000806040838503121561046e57600080fd5b61047783610405565b60208401519092506001600160401b038082111561049457600080fd5b818501915085601f8301126104a857600080fd5b8151818111156104ba576104ba610421565b604051601f8201601f19908116603f011681019083821181831017156104e2576104e2610421565b816040528281528860208487010111156104fb57600080fd5b61050c836020830160208801610437565b80955050505050509250929050565b60006020828403121561052d57600080fd5b6102c882610405565b60008251610548818460208701610437565b9190910192915050565b6020815260008251806020840152610571816040850160208701610437565b601f01601f19169190910160400192915050565b610345806105946000396000f3fe60806040523661001357610011610017565b005b6100115b610027610022610067565b610100565b565b606061004e83836040518060600160405280602781526020016102e960279139610124565b9392505050565b6001600160a01b03163b151590565b90565b600061009a7fa3f0ad74e5423aebfd80d3ef4346578335a9a72aeaee59ff6cb3582b35133d50546001600160a01b031690565b6001600160a01b0316635c60da1b6040518163ffffffff1660e01b8152600401602060405180830381865afa1580156100d7573d6000803e3d6000fd5b505050506040513d601f19601f820116820180604052508101906100fb919061024c565b905090565b3660008037600080366000845af43d6000803e80801561011f573d6000f35b3d6000fd5b6060600080856001600160a01b0316856040516101419190610299565b600060405180830381855af49150503d806000811461017c576040519150601f19603f3d011682016040523d82523d6000602084013e610181565b606091505b50915091506101928683838761019c565b9695505050505050565b60608315610210578251600003610209576001600160a01b0385163b6102095760405162461bcd60e51b815260206004820152601d60248201527f416464726573733a2063616c6c20746f206e6f6e2d636f6e747261637400000060448201526064015b60405180910390fd5b508161021a565b61021a8383610222565b949350505050565b8151156102325781518083602001fd5b8060405162461bcd60e51b815260040161020091906102b5565b60006020828403121561025e57600080fd5b81516001600160a01b038116811461004e57600080fd5b60005b83811015610290578181015183820152602001610278565b50506000910152565b600082516102ab818460208701610275565b9190910192915050565b60208152600082518060208401526102d4816040850160208701610275565b601f01601f1916919091016040019291505056fe416464726573733a206c6f772d6c6576656c2064656c65676174652063616c6c206661696c6564a264697066735822122022a6bf5ebbb7518c40e703958b5c8e4d70ca6715c1e1ccf9e9591bfc86e066d164736f6c63430008110033416464726573733a206c6f772d6c6576656c2064656c65676174652063616c6c206661696c6564cdb004a2c4b58a687fd075d3ee33590a4807decba9bf65227a1ff25b56b056e9484152444341505f414e445f50524f544f434f4c5f4645455f4f564552464c4f575f52454d41494e494e475f535550504c59484152444341505f4f564552464c4f575f52454d41494e494e475f535550504c59a2646970667358221220974f6a6d74feee4f5a480ee3213adb133725f69067c84258f0740f2aac44039464736f6c63430008110033",
  "devdoc": {
    "details": "Protocol entry point",
    "events": {
      "FeesTransferred(address,uint256)": {
        "details": "Event emitted on transferring collected fees.",
        "params": {
          "amount": "Amount of transferred ETH",
          "to": "Transfer recepient"
        }
      },
      "PoolCreated(address,address,address)": {
        "details": "Event emitted on pool creation.",
        "params": {
          "pool": "Pool address",
          "tge": "Pool primary TGE address",
          "token": "Pool token address"
        }
      },
      "ProposalCancelled(address,uint256)": {
        "details": "Event emitted on proposal cacellation by service owner.",
        "params": {
          "pool": "Pool address",
          "proposalId": "Pool local proposal id"
        }
      },
      "ProtocolTokenFeeChanged(uint256)": {
        "details": "Event emitted on protocol token fee change.",
        "params": {
          "protocolTokenFee": "Protocol token fee"
        }
      },
      "ProtocolTreasuryChanged(address)": {
        "details": "Event emitted on protocol treasury change.",
        "params": {
          "protocolTreasury": "Protocol treasury address"
        }
      },
      "SecondaryTGECreated(address,address,address)": {
        "details": "Event emitted on creation of secondary TGE.",
        "params": {
          "pool": "Pool address",
          "tge": "Secondary TGE address",
          "token": "Preference token address"
        }
      }
    },
    "kind": "dev",
    "methods": {
      "addEvent(uint8,uint256,string)": {
        "details": "Add event to directory",
        "params": {
          "eventType": "Event type",
          "metaHash": "Hash value of event metadata",
          "proposalId": "Proposal ID"
        }
      },
      "addProposal(uint256)": {
        "details": "Add proposal to directory",
        "params": {
          "proposalId": "Proposal ID"
        }
      },
      "cancelProposal(address,uint256)": {
        "details": "Cancel pool's proposal",
        "params": {
          "pool": "pool",
          "proposalId": "proposalId"
        }
      },
      "constructor": {
        "custom:oz-upgrades-unsafe-allow": "constructor"
      },
      "createPool(address,uint256,string,(uint256,uint256,uint256,uint256,uint256,uint256,uint256,uint256,uint256,address[],address,uint256,uint256),uint256,uint256,(uint256,uint256,uint256,uint256,uint256,uint256[4]),string,string)": {
        "details": "Create pool",
        "params": {
          "entityType": "Company entity type",
          "governanceSettings": "Governance setting parameters",
          "jurisdiction": "Pool jurisdiction",
          "metadataURI": "Metadata URI",
          "pool": "Pool address. If not address(0) - creates new token and new primary TGE for an existing pool.",
          "tgeInfo": "Pool TGE parameters",
          "tokenCap": "Pool token cap",
          "tokenSymbol": "Pool token symbol",
          "trademark": "Pool trademark"
        }
      },
      "createSecondaryTGE((uint256,uint256,uint256,uint256,uint256,uint256,uint256,uint256,uint256,address[],address,uint256,uint256),(uint8,string,string,string,uint256,uint8),string)": {
        "details": "Create secondary TGE",
        "params": {
          "metadataURI": "Metadata URI",
          "tgeInfo": "TGE parameters",
          "tokenInfo": "Token parameters"
        }
      },
      "getMaxHardCap(address)": {
        "details": "Return max hard cap accounting for protocol token fee",
        "params": {
          "_pool": "pool to calculate hard cap against"
        },
        "returns": {
          "_0": "Maximum hard cap"
        }
      },
      "getMinSoftCap()": {
        "details": "Calculate minimum soft cap for token fee mechanism to work",
        "returns": {
          "_0": "softCap minimum soft cap"
        }
      },
      "getPoolAddress((uint256,uint256,string,string,uint256))": {
        "details": "Get's create2 address for pool",
        "params": {
          "info": "Company info"
        },
        "returns": {
          "_0": "Pool contract address"
        }
      },
      "getProtocolTokenFee(uint256)": {
        "details": "alculates protocol token fee for given token amount",
        "params": {
          "amount": "Token amount"
        },
        "returns": {
          "_0": "tokenFee"
        }
      },
      "getRoleAdmin(bytes32)": {
        "details": "Returns the admin role that controls `role`. See {grantRole} and {revokeRole}. To change a role's admin, use {_setRoleAdmin}."
      },
      "getRoleMember(bytes32,uint256)": {
        "details": "Returns one of the accounts that have `role`. `index` must be a value between 0 and {getRoleMemberCount}, non-inclusive. Role bearers are not sorted in any particular way, and their ordering may change at any point. WARNING: When using {getRoleMember} and {getRoleMemberCount}, make sure you perform all queries on the same block. See the following https://forum.openzeppelin.com/t/iterating-over-elements-on-enumerableset-in-openzeppelin-contracts/2296[forum post] for more information."
      },
      "getRoleMemberCount(bytes32)": {
        "details": "Returns the number of accounts that have `role`. Can be used together with {getRoleMember} to enumerate all bearers of a role."
      },
      "grantRole(bytes32,address)": {
        "details": "Grants `role` to `account`. If `account` had not been already granted `role`, emits a {RoleGranted} event. Requirements: - the caller must have ``role``'s admin role. May emit a {RoleGranted} event."
      },
      "hasRole(bytes32,address)": {
        "details": "Returns `true` if `account` has been granted `role`."
      },
      "initialize(address,address,address,address,uint256)": {
        "details": "Constructor function, can only be called once",
        "params": {
          "poolBeacon_": "Pool beacon",
          "protocolTokenFee_": "Protocol token fee",
          "registry_": "Registry address",
          "tgeBeacon_": "TGE beacon",
          "tokenBeacon_": "Governance token beacon"
        }
      },
      "pause()": {
        "details": "Pause service"
      },
      "paused()": {
        "details": "Returns true if the contract is paused, and false otherwise."
      },
      "renounceRole(bytes32,address)": {
        "details": "Revokes `role` from the calling account. Roles are often managed via {grantRole} and {revokeRole}: this function's purpose is to provide a mechanism for accounts to lose their privileges if they are compromised (such as when a trusted device is misplaced). If the calling account had been revoked `role`, emits a {RoleRevoked} event. Requirements: - the caller must be `account`. May emit a {RoleRevoked} event."
      },
      "revokeRole(bytes32,address)": {
        "details": "Revokes `role` from `account`. If `account` had been granted `role`, emits a {RoleRevoked} event. Requirements: - the caller must have ``role``'s admin role. May emit a {RoleRevoked} event."
      },
      "setProtocolTokenFee(uint256)": {
        "details": "Set protocol token fee",
        "params": {
          "_protocolTokenFee": "protocol token fee percentage value with 4 decimals. Examples: 1% = 10000, 100% = 1000000, 0.1% = 1000."
        }
      },
      "setProtocolTreasury(address)": {
        "details": "Set protocol treasury address",
        "params": {
          "_protocolTreasury": "Protocol treasury address"
        }
      },
      "supportsInterface(bytes4)": {
        "details": "See {IERC165-supportsInterface}."
      },
      "transferCollectedFees(address)": {
        "details": "Transfer collected createPool protocol fees",
        "params": {
          "to": "Transfer recipient"
        }
      },
      "unpause()": {
        "details": "Unpause service"
      }
    },
    "stateVariables": {
      "poolBeacon": {
        "details": "Pool beacon"
      },
      "protocolTokenFee": {
        "details": "protocol token fee percentage value with 4 decimals. Examples: 1% = 10000, 100% = 1000000, 0.1% = 1000"
      },
      "protocolTreasury": {
        "details": "address that collects protocol token fees"
      },
      "registry": {
        "details": "Registry address"
      },
      "tgeBeacon": {
        "details": "TGE beacon"
      },
      "tokenBeacon": {
        "details": "Token beacon"
      }
    },
    "version": 1
  },
  "userdoc": {
    "kind": "user",
    "methods": {
      "ADMIN_ROLE()": {
        "notice": "Default admin  role"
      },
      "EXECUTOR_ROLE()": {
        "notice": "Executor role"
      },
      "SERVICE_MANAGER_ROLE()": {
        "notice": "User manager role"
      },
      "WHITELISTED_USER_ROLE()": {
        "notice": "User role"
      }
    },
    "version": 1
  },
  "storageLayout": {
    "storage": [
      {
        "astId": 1184,
        "contract": "contracts/Service.sol:Service",
        "label": "_initialized",
        "offset": 0,
        "slot": "0",
        "type": "t_uint8"
      },
      {
        "astId": 1187,
        "contract": "contracts/Service.sol:Service",
        "label": "_initializing",
        "offset": 1,
        "slot": "0",
        "type": "t_bool"
      },
      {
        "astId": 4034,
        "contract": "contracts/Service.sol:Service",
        "label": "__gap",
        "offset": 0,
        "slot": "1",
        "type": "t_array(t_uint256)50_storage"
      },
      {
        "astId": 4979,
        "contract": "contracts/Service.sol:Service",
        "label": "__gap",
        "offset": 0,
        "slot": "51",
        "type": "t_array(t_uint256)50_storage"
      },
      {
        "astId": 184,
        "contract": "contracts/Service.sol:Service",
        "label": "_roles",
        "offset": 0,
        "slot": "101",
        "type": "t_mapping(t_bytes32,t_struct(RoleData)179_storage)"
      },
      {
        "astId": 479,
        "contract": "contracts/Service.sol:Service",
        "label": "__gap",
        "offset": 0,
        "slot": "102",
        "type": "t_array(t_uint256)49_storage"
      },
      {
        "astId": 33,
        "contract": "contracts/Service.sol:Service",
        "label": "_roleMembers",
        "offset": 0,
        "slot": "151",
        "type": "t_mapping(t_bytes32,t_struct(AddressSet)7724_storage)"
      },
      {
        "astId": 143,
        "contract": "contracts/Service.sol:Service",
        "label": "__gap",
        "offset": 0,
        "slot": "152",
        "type": "t_array(t_uint256)49_storage"
      },
      {
        "astId": 1623,
        "contract": "contracts/Service.sol:Service",
        "label": "_status",
        "offset": 0,
        "slot": "201",
        "type": "t_uint256"
      },
      {
        "astId": 1681,
        "contract": "contracts/Service.sol:Service",
        "label": "__gap",
        "offset": 0,
        "slot": "202",
        "type": "t_array(t_uint256)49_storage"
      },
      {
        "astId": 1503,
        "contract": "contracts/Service.sol:Service",
        "label": "_paused",
        "offset": 0,
        "slot": "251",
        "type": "t_bool"
      },
      {
        "astId": 1608,
        "contract": "contracts/Service.sol:Service",
        "label": "__gap",
        "offset": 0,
        "slot": "252",
        "type": "t_array(t_uint256)49_storage"
      },
      {
        "astId": 9390,
        "contract": "contracts/Service.sol:Service",
        "label": "registry",
        "offset": 0,
        "slot": "301",
        "type": "t_contract(IRegistry)14320"
      },
      {
        "astId": 9393,
        "contract": "contracts/Service.sol:Service",
        "label": "poolBeacon",
        "offset": 0,
        "slot": "302",
        "type": "t_address"
      },
      {
        "astId": 9396,
        "contract": "contracts/Service.sol:Service",
        "label": "tokenBeacon",
        "offset": 0,
        "slot": "303",
        "type": "t_address"
      },
      {
        "astId": 9399,
        "contract": "contracts/Service.sol:Service",
        "label": "tgeBeacon",
        "offset": 0,
        "slot": "304",
        "type": "t_address"
      },
      {
        "astId": 9402,
        "contract": "contracts/Service.sol:Service",
        "label": "protocolTreasury",
        "offset": 0,
        "slot": "305",
        "type": "t_address"
      },
      {
        "astId": 9405,
        "contract": "contracts/Service.sol:Service",
        "label": "protocolTokenFee",
        "offset": 0,
        "slot": "306",
        "type": "t_uint256"
      }
    ],
    "types": {
      "t_address": {
        "encoding": "inplace",
        "label": "address",
        "numberOfBytes": "20"
      },
      "t_array(t_bytes32)dyn_storage": {
        "base": "t_bytes32",
        "encoding": "dynamic_array",
        "label": "bytes32[]",
        "numberOfBytes": "32"
      },
      "t_array(t_uint256)49_storage": {
        "base": "t_uint256",
        "encoding": "inplace",
        "label": "uint256[49]",
        "numberOfBytes": "1568"
      },
      "t_array(t_uint256)50_storage": {
        "base": "t_uint256",
        "encoding": "inplace",
        "label": "uint256[50]",
        "numberOfBytes": "1600"
      },
      "t_bool": {
        "encoding": "inplace",
        "label": "bool",
        "numberOfBytes": "1"
      },
      "t_bytes32": {
        "encoding": "inplace",
        "label": "bytes32",
        "numberOfBytes": "32"
      },
      "t_contract(IRegistry)14320": {
        "encoding": "inplace",
        "label": "contract IRegistry",
        "numberOfBytes": "20"
      },
      "t_mapping(t_address,t_bool)": {
        "encoding": "mapping",
        "key": "t_address",
        "label": "mapping(address => bool)",
        "numberOfBytes": "32",
        "value": "t_bool"
      },
      "t_mapping(t_bytes32,t_struct(AddressSet)7724_storage)": {
        "encoding": "mapping",
        "key": "t_bytes32",
        "label": "mapping(bytes32 => struct EnumerableSetUpgradeable.AddressSet)",
        "numberOfBytes": "32",
        "value": "t_struct(AddressSet)7724_storage"
      },
      "t_mapping(t_bytes32,t_struct(RoleData)179_storage)": {
        "encoding": "mapping",
        "key": "t_bytes32",
        "label": "mapping(bytes32 => struct AccessControlUpgradeable.RoleData)",
        "numberOfBytes": "32",
        "value": "t_struct(RoleData)179_storage"
      },
      "t_mapping(t_bytes32,t_uint256)": {
        "encoding": "mapping",
        "key": "t_bytes32",
        "label": "mapping(bytes32 => uint256)",
        "numberOfBytes": "32",
        "value": "t_uint256"
      },
      "t_struct(AddressSet)7724_storage": {
        "encoding": "inplace",
        "label": "struct EnumerableSetUpgradeable.AddressSet",
        "members": [
          {
            "astId": 7723,
            "contract": "contracts/Service.sol:Service",
            "label": "_inner",
            "offset": 0,
            "slot": "0",
            "type": "t_struct(Set)7409_storage"
          }
        ],
        "numberOfBytes": "64"
      },
      "t_struct(RoleData)179_storage": {
        "encoding": "inplace",
        "label": "struct AccessControlUpgradeable.RoleData",
        "members": [
          {
            "astId": 176,
            "contract": "contracts/Service.sol:Service",
            "label": "members",
            "offset": 0,
            "slot": "0",
            "type": "t_mapping(t_address,t_bool)"
          },
          {
            "astId": 178,
            "contract": "contracts/Service.sol:Service",
            "label": "adminRole",
            "offset": 0,
            "slot": "1",
            "type": "t_bytes32"
          }
        ],
        "numberOfBytes": "64"
      },
      "t_struct(Set)7409_storage": {
        "encoding": "inplace",
        "label": "struct EnumerableSetUpgradeable.Set",
        "members": [
          {
            "astId": 7404,
            "contract": "contracts/Service.sol:Service",
            "label": "_values",
            "offset": 0,
            "slot": "0",
            "type": "t_array(t_bytes32)dyn_storage"
          },
          {
            "astId": 7408,
            "contract": "contracts/Service.sol:Service",
            "label": "_indexes",
            "offset": 0,
            "slot": "1",
            "type": "t_mapping(t_bytes32,t_uint256)"
          }
        ],
        "numberOfBytes": "64"
      },
      "t_uint256": {
        "encoding": "inplace",
        "label": "uint256",
        "numberOfBytes": "32"
      },
      "t_uint8": {
        "encoding": "inplace",
        "label": "uint8",
        "numberOfBytes": "1"
      }
    }
  }
}