{
  "address": "0x31C8D6615EA724293BB090E562A2feA7619622F3",
  "abi": [
    {
      "inputs": [],
      "stateMutability": "nonpayable",
      "type": "constructor"
    },
    {
      "anonymous": false,
      "inputs": [
        {
          "indexed": false,
          "internalType": "address",
          "name": "to",
          "type": "address"
        },
        {
          "indexed": false,
          "internalType": "uint256",
          "name": "amount",
          "type": "uint256"
        }
      ],
      "name": "FeesTransferred",
      "type": "event"
    },
    {
      "anonymous": false,
      "inputs": [
        {
          "indexed": false,
          "internalType": "uint8",
          "name": "version",
          "type": "uint8"
        }
      ],
      "name": "Initialized",
      "type": "event"
    },
    {
      "anonymous": false,
      "inputs": [
        {
          "indexed": false,
          "internalType": "address",
          "name": "account",
          "type": "address"
        }
      ],
      "name": "Paused",
      "type": "event"
    },
    {
      "anonymous": false,
      "inputs": [
        {
          "indexed": false,
          "internalType": "address",
          "name": "pool",
          "type": "address"
        },
        {
          "indexed": false,
          "internalType": "address",
          "name": "token",
          "type": "address"
        },
        {
          "indexed": false,
          "internalType": "address",
          "name": "tge",
          "type": "address"
        }
      ],
      "name": "PoolCreated",
      "type": "event"
    },
    {
      "anonymous": false,
      "inputs": [
        {
          "indexed": false,
          "internalType": "address",
          "name": "pool",
          "type": "address"
        },
        {
          "indexed": false,
          "internalType": "uint256",
          "name": "proposalId",
          "type": "uint256"
        }
      ],
      "name": "ProposalCancelled",
      "type": "event"
    },
    {
      "anonymous": false,
      "inputs": [
        {
          "indexed": false,
          "internalType": "uint256",
          "name": "protocolTokenFee",
          "type": "uint256"
        }
      ],
      "name": "ProtocolTokenFeeChanged",
      "type": "event"
    },
    {
      "anonymous": false,
      "inputs": [
        {
          "indexed": false,
          "internalType": "address",
          "name": "protocolTreasury",
          "type": "address"
        }
      ],
      "name": "ProtocolTreasuryChanged",
      "type": "event"
    },
    {
      "anonymous": false,
      "inputs": [
        {
          "indexed": true,
          "internalType": "bytes32",
          "name": "role",
          "type": "bytes32"
        },
        {
          "indexed": true,
          "internalType": "bytes32",
          "name": "previousAdminRole",
          "type": "bytes32"
        },
        {
          "indexed": true,
          "internalType": "bytes32",
          "name": "newAdminRole",
          "type": "bytes32"
        }
      ],
      "name": "RoleAdminChanged",
      "type": "event"
    },
    {
      "anonymous": false,
      "inputs": [
        {
          "indexed": true,
          "internalType": "bytes32",
          "name": "role",
          "type": "bytes32"
        },
        {
          "indexed": true,
          "internalType": "address",
          "name": "account",
          "type": "address"
        },
        {
          "indexed": true,
          "internalType": "address",
          "name": "sender",
          "type": "address"
        }
      ],
      "name": "RoleGranted",
      "type": "event"
    },
    {
      "anonymous": false,
      "inputs": [
        {
          "indexed": true,
          "internalType": "bytes32",
          "name": "role",
          "type": "bytes32"
        },
        {
          "indexed": true,
          "internalType": "address",
          "name": "account",
          "type": "address"
        },
        {
          "indexed": true,
          "internalType": "address",
          "name": "sender",
          "type": "address"
        }
      ],
      "name": "RoleRevoked",
      "type": "event"
    },
    {
      "anonymous": false,
      "inputs": [
        {
          "indexed": false,
          "internalType": "address",
          "name": "pool",
          "type": "address"
        },
        {
          "indexed": false,
          "internalType": "address",
          "name": "tge",
          "type": "address"
        },
        {
          "indexed": false,
          "internalType": "address",
          "name": "token",
          "type": "address"
        }
      ],
      "name": "SecondaryTGECreated",
      "type": "event"
    },
    {
      "anonymous": false,
      "inputs": [
        {
          "indexed": false,
          "internalType": "address",
          "name": "account",
          "type": "address"
        }
      ],
      "name": "Unpaused",
      "type": "event"
    },
    {
      "inputs": [],
      "name": "ADMIN_ROLE",
      "outputs": [
        {
          "internalType": "bytes32",
          "name": "",
          "type": "bytes32"
        }
      ],
      "stateMutability": "view",
      "type": "function"
    },
    {
      "inputs": [],
      "name": "DEFAULT_ADMIN_ROLE",
      "outputs": [
        {
          "internalType": "bytes32",
          "name": "",
          "type": "bytes32"
        }
      ],
      "stateMutability": "view",
      "type": "function"
    },
    {
      "inputs": [],
      "name": "EXECUTOR_ROLE",
      "outputs": [
        {
          "internalType": "bytes32",
          "name": "",
          "type": "bytes32"
        }
      ],
      "stateMutability": "view",
      "type": "function"
    },
    {
      "inputs": [],
      "name": "SERVICE_MANAGER_ROLE",
      "outputs": [
        {
          "internalType": "bytes32",
          "name": "",
          "type": "bytes32"
        }
      ],
      "stateMutability": "view",
      "type": "function"
    },
    {
      "inputs": [],
      "name": "WHITELISTED_USER_ROLE",
      "outputs": [
        {
          "internalType": "bytes32",
          "name": "",
          "type": "bytes32"
        }
      ],
      "stateMutability": "view",
      "type": "function"
    },
    {
      "inputs": [
        {
          "internalType": "enum IRecordsRegistry.EventType",
          "name": "eventType",
          "type": "uint8"
        },
        {
          "internalType": "uint256",
          "name": "proposalId",
          "type": "uint256"
        },
        {
          "internalType": "string",
          "name": "metaHash",
          "type": "string"
        }
      ],
      "name": "addEvent",
      "outputs": [],
      "stateMutability": "nonpayable",
      "type": "function"
    },
    {
      "inputs": [
        {
          "internalType": "uint256",
          "name": "proposalId",
          "type": "uint256"
        }
      ],
      "name": "addProposal",
      "outputs": [],
      "stateMutability": "nonpayable",
      "type": "function"
    },
    {
      "inputs": [
        {
          "internalType": "address",
          "name": "pool",
          "type": "address"
        },
        {
          "internalType": "uint256",
          "name": "proposalId",
          "type": "uint256"
        }
      ],
      "name": "cancelProposal",
      "outputs": [],
      "stateMutability": "nonpayable",
      "type": "function"
    },
    {
      "inputs": [
        {
          "internalType": "contract IPool",
          "name": "pool",
          "type": "address"
        },
        {
          "internalType": "uint256",
          "name": "tokenCap",
          "type": "uint256"
        },
        {
          "internalType": "string",
          "name": "tokenSymbol",
          "type": "string"
        },
        {
          "components": [
            {
              "internalType": "uint256",
              "name": "price",
              "type": "uint256"
            },
            {
              "internalType": "uint256",
              "name": "hardcap",
              "type": "uint256"
            },
            {
              "internalType": "uint256",
              "name": "softcap",
              "type": "uint256"
            },
            {
              "internalType": "uint256",
              "name": "minPurchase",
              "type": "uint256"
            },
            {
              "internalType": "uint256",
              "name": "maxPurchase",
              "type": "uint256"
            },
            {
              "internalType": "uint256",
              "name": "vestingPercent",
              "type": "uint256"
            },
            {
              "internalType": "uint256",
              "name": "vestingDuration",
              "type": "uint256"
            },
            {
              "internalType": "uint256",
              "name": "vestingTVL",
              "type": "uint256"
            },
            {
              "internalType": "uint256",
              "name": "duration",
              "type": "uint256"
            },
            {
              "internalType": "address[]",
              "name": "userWhitelist",
              "type": "address[]"
            },
            {
              "internalType": "address",
              "name": "unitOfAccount",
              "type": "address"
            },
            {
              "internalType": "uint256",
              "name": "lockupDuration",
              "type": "uint256"
            },
            {
              "internalType": "uint256",
              "name": "lockupTVL",
              "type": "uint256"
            }
          ],
          "internalType": "struct ITGE.TGEInfo",
          "name": "tgeInfo",
          "type": "tuple"
        },
        {
          "internalType": "uint256",
          "name": "jurisdiction",
          "type": "uint256"
        },
        {
          "internalType": "uint256",
          "name": "entityType",
          "type": "uint256"
        },
        {
          "components": [
            {
              "internalType": "uint256",
              "name": "proposalThreshold",
              "type": "uint256"
            },
            {
              "internalType": "uint256",
              "name": "quorumThreshold",
              "type": "uint256"
            },
            {
              "internalType": "uint256",
              "name": "decisionThreshold",
              "type": "uint256"
            },
            {
              "internalType": "uint256",
              "name": "votingDuration",
              "type": "uint256"
            },
            {
              "internalType": "uint256",
              "name": "transferValueForDelay",
              "type": "uint256"
            },
            {
              "internalType": "uint256[4]",
              "name": "executionDelays",
              "type": "uint256[4]"
            }
          ],
          "internalType": "struct IGovernanceSettings.NewGovernanceSettings",
          "name": "governanceSettings",
          "type": "tuple"
        },
        {
          "internalType": "string",
          "name": "trademark",
          "type": "string"
        },
        {
          "internalType": "string",
          "name": "metadataURI",
          "type": "string"
        }
      ],
      "name": "createPool",
      "outputs": [],
      "stateMutability": "payable",
      "type": "function"
    },
    {
      "inputs": [
        {
          "components": [
            {
              "internalType": "uint256",
              "name": "price",
              "type": "uint256"
            },
            {
              "internalType": "uint256",
              "name": "hardcap",
              "type": "uint256"
            },
            {
              "internalType": "uint256",
              "name": "softcap",
              "type": "uint256"
            },
            {
              "internalType": "uint256",
              "name": "minPurchase",
              "type": "uint256"
            },
            {
              "internalType": "uint256",
              "name": "maxPurchase",
              "type": "uint256"
            },
            {
              "internalType": "uint256",
              "name": "vestingPercent",
              "type": "uint256"
            },
            {
              "internalType": "uint256",
              "name": "vestingDuration",
              "type": "uint256"
            },
            {
              "internalType": "uint256",
              "name": "vestingTVL",
              "type": "uint256"
            },
            {
              "internalType": "uint256",
              "name": "duration",
              "type": "uint256"
            },
            {
              "internalType": "address[]",
              "name": "userWhitelist",
              "type": "address[]"
            },
            {
              "internalType": "address",
              "name": "unitOfAccount",
              "type": "address"
            },
            {
              "internalType": "uint256",
              "name": "lockupDuration",
              "type": "uint256"
            },
            {
              "internalType": "uint256",
              "name": "lockupTVL",
              "type": "uint256"
            }
          ],
          "internalType": "struct ITGE.TGEInfo",
          "name": "tgeInfo",
          "type": "tuple"
        },
        {
          "components": [
            {
              "internalType": "enum IToken.TokenType",
              "name": "tokenType",
              "type": "uint8"
            },
            {
              "internalType": "string",
              "name": "name",
              "type": "string"
            },
            {
              "internalType": "string",
              "name": "symbol",
              "type": "string"
            },
            {
              "internalType": "string",
              "name": "description",
              "type": "string"
            },
            {
              "internalType": "uint256",
              "name": "cap",
              "type": "uint256"
            },
            {
              "internalType": "uint8",
              "name": "decimals",
              "type": "uint8"
            }
          ],
          "internalType": "struct IToken.TokenInfo",
          "name": "tokenInfo",
          "type": "tuple"
        },
        {
          "internalType": "string",
          "name": "metadataURI",
          "type": "string"
        }
      ],
      "name": "createSecondaryTGE",
      "outputs": [],
      "stateMutability": "nonpayable",
      "type": "function"
    },
    {
      "inputs": [
        {
          "internalType": "address",
          "name": "_pool",
          "type": "address"
        }
      ],
      "name": "getMaxHardCap",
      "outputs": [
        {
          "internalType": "uint256",
          "name": "",
          "type": "uint256"
        }
      ],
      "stateMutability": "view",
      "type": "function"
    },
    {
      "inputs": [],
      "name": "getMinSoftCap",
      "outputs": [
        {
          "internalType": "uint256",
          "name": "",
          "type": "uint256"
        }
      ],
      "stateMutability": "view",
      "type": "function"
    },
    {
      "inputs": [
        {
          "internalType": "uint256",
          "name": "amount",
          "type": "uint256"
        }
      ],
      "name": "getProtocolTokenFee",
      "outputs": [
        {
          "internalType": "uint256",
          "name": "",
          "type": "uint256"
        }
      ],
      "stateMutability": "view",
      "type": "function"
    },
    {
      "inputs": [
        {
          "internalType": "bytes32",
          "name": "role",
          "type": "bytes32"
        }
      ],
      "name": "getRoleAdmin",
      "outputs": [
        {
          "internalType": "bytes32",
          "name": "",
          "type": "bytes32"
        }
      ],
      "stateMutability": "view",
      "type": "function"
    },
    {
      "inputs": [
        {
          "internalType": "bytes32",
          "name": "role",
          "type": "bytes32"
        },
        {
          "internalType": "uint256",
          "name": "index",
          "type": "uint256"
        }
      ],
      "name": "getRoleMember",
      "outputs": [
        {
          "internalType": "address",
          "name": "",
          "type": "address"
        }
      ],
      "stateMutability": "view",
      "type": "function"
    },
    {
      "inputs": [
        {
          "internalType": "bytes32",
          "name": "role",
          "type": "bytes32"
        }
      ],
      "name": "getRoleMemberCount",
      "outputs": [
        {
          "internalType": "uint256",
          "name": "",
          "type": "uint256"
        }
      ],
      "stateMutability": "view",
      "type": "function"
    },
    {
      "inputs": [
        {
          "internalType": "bytes32",
          "name": "role",
          "type": "bytes32"
        },
        {
          "internalType": "address",
          "name": "account",
          "type": "address"
        }
      ],
      "name": "grantRole",
      "outputs": [],
      "stateMutability": "nonpayable",
      "type": "function"
    },
    {
      "inputs": [
        {
          "internalType": "bytes32",
          "name": "role",
          "type": "bytes32"
        },
        {
          "internalType": "address",
          "name": "account",
          "type": "address"
        }
      ],
      "name": "hasRole",
      "outputs": [
        {
          "internalType": "bool",
          "name": "",
          "type": "bool"
        }
      ],
      "stateMutability": "view",
      "type": "function"
    },
    {
      "inputs": [
        {
          "internalType": "contract IRegistry",
          "name": "registry_",
          "type": "address"
        },
        {
          "internalType": "address",
          "name": "poolBeacon_",
          "type": "address"
        },
        {
          "internalType": "address",
          "name": "tokenBeacon_",
          "type": "address"
        },
        {
          "internalType": "address",
          "name": "tgeBeacon_",
          "type": "address"
        },
        {
          "internalType": "uint256",
          "name": "protocolTokenFee_",
          "type": "uint256"
        }
      ],
      "name": "initialize",
      "outputs": [],
      "stateMutability": "nonpayable",
      "type": "function"
    },
    {
      "inputs": [],
      "name": "pause",
      "outputs": [],
      "stateMutability": "nonpayable",
      "type": "function"
    },
    {
      "inputs": [],
      "name": "paused",
      "outputs": [
        {
          "internalType": "bool",
          "name": "",
          "type": "bool"
        }
      ],
      "stateMutability": "view",
      "type": "function"
    },
    {
      "inputs": [],
      "name": "poolBeacon",
      "outputs": [
        {
          "internalType": "address",
          "name": "",
          "type": "address"
        }
      ],
      "stateMutability": "view",
      "type": "function"
    },
    {
      "inputs": [],
      "name": "protocolTokenFee",
      "outputs": [
        {
          "internalType": "uint256",
          "name": "",
          "type": "uint256"
        }
      ],
      "stateMutability": "view",
      "type": "function"
    },
    {
      "inputs": [],
      "name": "protocolTreasury",
      "outputs": [
        {
          "internalType": "address",
          "name": "",
          "type": "address"
        }
      ],
      "stateMutability": "view",
      "type": "function"
    },
    {
      "inputs": [],
      "name": "registry",
      "outputs": [
        {
          "internalType": "contract IRegistry",
          "name": "",
          "type": "address"
        }
      ],
      "stateMutability": "view",
      "type": "function"
    },
    {
      "inputs": [
        {
          "internalType": "bytes32",
          "name": "role",
          "type": "bytes32"
        },
        {
          "internalType": "address",
          "name": "account",
          "type": "address"
        }
      ],
      "name": "renounceRole",
      "outputs": [],
      "stateMutability": "nonpayable",
      "type": "function"
    },
    {
      "inputs": [
        {
          "internalType": "bytes32",
          "name": "role",
          "type": "bytes32"
        },
        {
          "internalType": "address",
          "name": "account",
          "type": "address"
        }
      ],
      "name": "revokeRole",
      "outputs": [],
      "stateMutability": "nonpayable",
      "type": "function"
    },
    {
      "inputs": [
        {
          "internalType": "uint256",
          "name": "_protocolTokenFee",
          "type": "uint256"
        }
      ],
      "name": "setProtocolTokenFee",
      "outputs": [],
      "stateMutability": "nonpayable",
      "type": "function"
    },
    {
      "inputs": [
        {
          "internalType": "address",
          "name": "_protocolTreasury",
          "type": "address"
        }
      ],
      "name": "setProtocolTreasury",
      "outputs": [],
      "stateMutability": "nonpayable",
      "type": "function"
    },
    {
      "inputs": [
        {
          "internalType": "bytes4",
          "name": "interfaceId",
          "type": "bytes4"
        }
      ],
      "name": "supportsInterface",
      "outputs": [
        {
          "internalType": "bool",
          "name": "",
          "type": "bool"
        }
      ],
      "stateMutability": "view",
      "type": "function"
    },
    {
      "inputs": [],
      "name": "tgeBeacon",
      "outputs": [
        {
          "internalType": "address",
          "name": "",
          "type": "address"
        }
      ],
      "stateMutability": "view",
      "type": "function"
    },
    {
      "inputs": [],
      "name": "tokenBeacon",
      "outputs": [
        {
          "internalType": "address",
          "name": "",
          "type": "address"
        }
      ],
      "stateMutability": "view",
      "type": "function"
    },
    {
      "inputs": [
        {
          "internalType": "address",
          "name": "to",
          "type": "address"
        }
      ],
      "name": "transferCollectedFees",
      "outputs": [],
      "stateMutability": "nonpayable",
      "type": "function"
    },
    {
      "inputs": [],
      "name": "unpause",
      "outputs": [],
      "stateMutability": "nonpayable",
      "type": "function"
    },
    {
      "inputs": [
        {
          "components": [
            {
              "internalType": "uint256",
              "name": "price",
              "type": "uint256"
            },
            {
              "internalType": "uint256",
              "name": "hardcap",
              "type": "uint256"
            },
            {
              "internalType": "uint256",
              "name": "softcap",
              "type": "uint256"
            },
            {
              "internalType": "uint256",
              "name": "minPurchase",
              "type": "uint256"
            },
            {
              "internalType": "uint256",
              "name": "maxPurchase",
              "type": "uint256"
            },
            {
              "internalType": "uint256",
              "name": "vestingPercent",
              "type": "uint256"
            },
            {
              "internalType": "uint256",
              "name": "vestingDuration",
              "type": "uint256"
            },
            {
              "internalType": "uint256",
              "name": "vestingTVL",
              "type": "uint256"
            },
            {
              "internalType": "uint256",
              "name": "duration",
              "type": "uint256"
            },
            {
              "internalType": "address[]",
              "name": "userWhitelist",
              "type": "address[]"
            },
            {
              "internalType": "address",
              "name": "unitOfAccount",
              "type": "address"
            },
            {
              "internalType": "uint256",
              "name": "lockupDuration",
              "type": "uint256"
            },
            {
              "internalType": "uint256",
              "name": "lockupTVL",
              "type": "uint256"
            }
          ],
          "internalType": "struct ITGE.TGEInfo",
          "name": "info",
          "type": "tuple"
        },
        {
          "internalType": "uint256",
          "name": "cap",
          "type": "uint256"
        },
        {
          "internalType": "uint256",
          "name": "totalSupply",
          "type": "uint256"
        }
      ],
      "name": "validateTGEInfo",
      "outputs": [],
      "stateMutability": "view",
      "type": "function"
    }
  ],
  "transactionHash": "0x6398e333a2e18b9d787cd12441dde516d67f781a21ea45fdfcc8b8862b373bf4",
  "args": [],
  "numDeployments": 1,
  "solcInputHash": "0ef7830a8524aeb6236d3b1395ba5b96",
  "bytecode": "0x60806040523480156200001157600080fd5b506200001c62000022565b620000e4565b600054610100900460ff16156200008f5760405162461bcd60e51b815260206004820152602760248201527f496e697469616c697a61626c653a20636f6e747261637420697320696e697469604482015266616c697a696e6760c81b606482015260840160405180910390fd5b60005460ff9081161015620000e2576000805460ff191660ff9081179091556040519081527f7f26b83ff96e1f2b6a682f133852f6798a09c465da95921460cefb38474024989060200160405180910390a15b565b614c7a80620000f46000396000f3fe6080604052600436106200022f5760003560e01c8063879010f4116200012f578063c979e8a711620000ad578063d7f964fd1162000078578063d7f964fd146200067e578063db47fbe914620006a3578063dedcd30714620006c8578063e768292814620006ed578063f7013ef6146200070557600080fd5b8063c979e8a714620005db578063ca15c8731462000611578063ccf5a77c1462000636578063d547741f146200065957600080fd5b8063a217fddf11620000fa578063a217fddf146200044e578063a36894711462000557578063b3e86165146200057c578063b677bc691462000593578063c5a7b2ea14620005b857600080fd5b8063879010f414620004c35780639010d07c14620004e857806391d14854146200050d5780639d838ad3146200053257600080fd5b80633f4ba83a11620001bd5780635c975abb11620001885780635c975abb146200043457806375b238fc146200044e5780637b1039991462000465578063803db96d14620004885780638456cb5914620004ab57600080fd5b80633f4ba83a14620003ad5780633fec91a414620003c557806346b3b62614620003ea57806353350755146200040f57600080fd5b80630c5a61f811620001fe5780630c5a61f81462000308578063248a9ca3146200032f5780632f2ff15d146200036357806336568abe146200038857600080fd5b806301569ab0146200023457806301ffc9a7146200027457806303700be814620002aa57806307bd026514620002d2575b600080fd5b3480156200024157600080fd5b506101305462000257906001600160a01b031681565b6040516001600160a01b0390911681526020015b60405180910390f35b3480156200028157600080fd5b50620002996200029336600462002fb2565b6200072a565b60405190151581526020016200026b565b348015620002b757600080fd5b50620002c36101325481565b6040519081526020016200026b565b348015620002df57600080fd5b50620002c37f9cf85f95575c3af1e116e3d37fd41e7f36a8a373623f51ffaaa87fdd032fa76781565b3480156200031557600080fd5b506200032d6200032736600462003006565b62000758565b005b3480156200033c57600080fd5b50620002c36200034e36600462003026565b60009081526065602052604090206001015490565b3480156200037057600080fd5b506200032d6200038236600462003040565b62000813565b3480156200039557600080fd5b506200032d620003a736600462003040565b62000841565b348015620003ba57600080fd5b506200032d620008c3565b348015620003d257600080fd5b506200032d620003e436600462003026565b620008dd565b348015620003f757600080fd5b506200032d62000409366004620031f7565b62000a29565b3480156200041c57600080fd5b506200032d6200042e3660046200328f565b62001035565b3480156200044157600080fd5b5060fb5460ff1662000299565b3480156200045b57600080fd5b50620002c3600081565b3480156200047257600080fd5b5061012d5462000257906001600160a01b031681565b3480156200049557600080fd5b506101315462000257906001600160a01b031681565b348015620004b857600080fd5b506200032d620010e6565b348015620004d057600080fd5b506200032d620004e236600462003006565b620010fd565b348015620004f557600080fd5b506200025762000507366004620032be565b62001245565b3480156200051a57600080fd5b50620002996200052c36600462003040565b62001266565b3480156200053f57600080fd5b50620002c36200055136600462003026565b62001291565b3480156200056457600080fd5b50620002c36200057636600462003006565b62001340565b6200032d6200058d366004620034ff565b62001616565b348015620005a057600080fd5b506200032d620005b2366004620035fd565b62001c80565b348015620005c557600080fd5b5061012e5462000257906001600160a01b031681565b348015620005e857600080fd5b50620002c37f2b1db18cd92cf6947e9bb2f532380e05e806a043d20a65c532268a1d7f4b5e7381565b3480156200061e57600080fd5b50620002c36200063036600462003026565b62001ddb565b3480156200064357600080fd5b5061012f5462000257906001600160a01b031681565b3480156200066657600080fd5b506200032d6200067836600462003040565b62001df4565b3480156200068b57600080fd5b506200032d6200069d3660046200368f565b62001e1d565b348015620006b057600080fd5b50620002c360008051602062004bd283398151915281565b348015620006d557600080fd5b506200032d620006e736600462003026565b620020a8565b348015620006fa57600080fd5b50620002c362002138565b3480156200071257600080fd5b506200032d62000724366004620036e0565b62002153565b60006001600160e01b03198216635a05180f60e01b14806200075257506200075282620024b8565b92915050565b60006200076581620024ef565b60408051808201909152600c81526b414444524553535f5a45524f60a01b60208201526001600160a01b038316620007bb5760405162461bcd60e51b8152600401620007b29190620037a1565b60405180910390fd5b5061013180546001600160a01b0319166001600160a01b0384169081179091556040519081527f48919a8bb9d5ad92fa352adb62046eaabb006b67ba2fcf7566ed0879ab5a27c3906020015b60405180910390a15050565b6000828152606560205260409020600101546200083081620024ef565b6200083c8383620024fb565b505050565b6001600160a01b0381163314620008b35760405162461bcd60e51b815260206004820152602f60248201527f416363657373436f6e74726f6c3a2063616e206f6e6c792072656e6f756e636560448201526e103937b632b9903337b91039b2b63360891b6064820152608401620007b2565b620008bf828262002521565b5050565b6000620008d081620024ef565b620008da62002547565b50565b61012d54604051630db9619f60e31b81523360048201526001916001600160a01b031690636dcb0cf890602401602060405180830381865afa15801562000928573d6000803e3d6000fd5b505050506040513d601f19601f820116820180604052508101906200094e9190620037cc565b6004811115620009625762000962620037b6565b14604051806040016040528060088152602001671393d517d413d3d360c21b81525090620009a55760405162461bcd60e51b8152600401620007b29190620037a1565b50620009b06200259b565b61012d5460405163f4be936960e01b8152336004820152602481018390526001600160a01b039091169063f4be9369906044016020604051808303816000875af115801562000a03573d6000803e3d6000fd5b505050506040513d601f19601f82011682018060405250810190620008bf9190620037ef565b61012d54604051630db9619f60e31b81523360048201526001916001600160a01b031690636dcb0cf890602401602060405180830381865afa15801562000a74573d6000803e3d6000fd5b505050506040513d601f19601f8201168201806040525081019062000a9a9190620037cc565b600481111562000aae5762000aae620037b6565b14604051806040016040528060088152602001671393d517d413d3d360c21b8152509062000af15760405162461bcd60e51b8152600401620007b29190620037a1565b5062000afc620025e5565b62000b066200259b565b600062000b14823362002640565b90506000336382b8660062000b2d602087018762003817565b6040518263ffffffff1660e01b815260040162000b4b91906200384e565b602060405180830381865afa15801562000b69573d6000803e3d6000fd5b505050506040513d601f19601f8201168201806040525081019062000b8f91906200385e565b9050600162000ba2602086018662003817565b600281111562000bb65762000bb6620037b6565b0362000db25760005b816001600160a01b0316633eac99986040518163ffffffff1660e01b8152600401602060405180830381865afa15801562000bfe573d6000803e3d6000fd5b505050506040513d601f19601f8201168201806040525081019062000c2491906200385e565b6001600160a01b031663c19d93fb6040518163ffffffff1660e01b8152600401602060405180830381865afa15801562000c62573d6000803e3d6000fd5b505050506040513d601f19601f8201168201806040525081019062000c8891906200387e565b600281111562000c9c5762000c9c620037b6565b1415604051806040016040528060118152602001704143544956455f5447455f45584953545360781b8152509062000ce95760405162461bcd60e51b8152600401620007b29190620037a1565b50604051630a08df1760e31b81526001600160a01b038381166004830152821690635046f8b8906024015b600060405180830381600087803b15801562000d2f57600080fd5b505af115801562000d44573d6000803e3d6000fd5b5050604051632c4e8d5560e01b81526001600160a01b0385169250632c4e8d55915062000d7890849089906004016200393d565b600060405180830381600087803b15801562000d9357600080fd5b505af115801562000da8573d6000803e3d6000fd5b5050505062000fdf565b600262000dc3602086018662003817565b600281111562000dd75762000dd7620037b6565b0362000f99576001600160a01b038116158062000ef057506001816001600160a01b0316620a04ae6040518163ffffffff1660e01b8152600401600060405180830381865afa15801562000e2f573d6000803e3d6000fd5b505050506040513d6000823e601f3d908101601f1916820160405262000e59919081019062003a22565b60008151811062000e6e5762000e6e62003ac6565b60200260200101516001600160a01b031663c19d93fb6040518163ffffffff1660e01b8152600401602060405180830381865afa15801562000eb4573d6000803e3d6000fd5b505050506040513d601f19601f8201168201806040525081019062000eda91906200387e565b600281111562000eee5762000eee620037b6565b145b1562000f915762000f00620027a1565b604051635c138e7d60e01b81529091506001600160a01b03821690635c138e7d9062000f359033908890879060040162003b4d565b600060405180830381600087803b15801562000f5057600080fd5b505af115801562000f65573d6000803e3d6000fd5b505060405163c4767b9560e01b815233925063c4767b95915062000d1490849060029060040162003c45565b600062000bbf565b6040805180820182526016815275554e535550504f525445445f544f4b454e5f5459504560501b6020820152905162461bcd60e51b8152620007b29190600401620037a1565b604080513381526001600160a01b03848116602083015283168183015290517ff74d32d2119bcaf2616d37895d32adafbee1dceb25a98646ca514098f422fd899181900360600190a150506200083c600160c955565b60006200104281620024ef565b60405163e0a8f6f560e01b8152600481018390526001600160a01b0384169063e0a8f6f590602401600060405180830381600087803b1580156200108557600080fd5b505af11580156200109a573d6000803e3d6000fd5b5050604080516001600160a01b0387168152602081018690527f5d423f6a55211a90b8438786aa7edfa40d3eef381b6aae048b52daf814c16462935001905060405180910390a1505050565b6000620010f381620024ef565b620008da62002885565b60006200110a81620024ef565b60408051808201909152600c81526b414444524553535f5a45524f60a01b60208201526001600160a01b038316620011575760405162461bcd60e51b8152600401620007b29190620037a1565b506040513031906000906001600160a01b0385169083908381818185875af1925050503d8060008114620011a8576040519150601f19603f3d011682016040523d82523d6000602084013e620011ad565b606091505b50509050806040518060400160405280601081526020016f11561150d5551253d397d1905253115160821b81525090620011fc5760405162461bcd60e51b8152600401620007b29190620037a1565b50604080516001600160a01b0386168152602081018490527fc812aa15be10cc23ff245a12080e7de523f13b7fd4a16277a703c4f8e3113709910160405180910390a150505050565b60008281526097602052604081206200125f9083620028c5565b9392505050565b60009182526065602090815260408084206001600160a01b0393909316845291905290205460ff1690565b60006200129d62002138565b8210156040518060400160405280600d81526020016c494e56414c49445f56414c554560981b81525090620012e75760405162461bcd60e51b8152600401620007b29190620037a1565b50600168056bc75e2d6310000083111562001312575064e8d4a510006200130f818462003c7a565b92505b80620f4240846101325462001328919062003c9d565b62001334919062003c7a565b6200125f919062003c9d565b6000600161012d54604051630db9619f60e31b81526001600160a01b03858116600483015290911690636dcb0cf890602401602060405180830381865afa15801562001390573d6000803e3d6000fd5b505050506040513d601f19601f82011682018060405250810190620013b69190620037cc565b6004811115620013ca57620013ca620037b6565b148015620014385750816001600160a01b031663e47bfee86040518163ffffffff1660e01b8152600401602060405180830381865afa15801562001412573d6000803e3d6000fd5b505050506040513d601f19601f8201168201806040525081019062001438919062003cb7565b15620015fb5760405162415c3360e91b815262001519906001600160a01b038416906382b866009062001471906001906004016200384e565b602060405180830381865afa1580156200148f573d6000803e3d6000fd5b505050506040513d601f19601f82011682018060405250810190620014b591906200385e565b6001600160a01b031663355274ea6040518163ffffffff1660e01b8152600401602060405180830381865afa158015620014f3573d6000803e3d6000fd5b505050506040513d601f19601f82011682018060405250810190620005519190620037ef565b60405162415c3360e91b81526001600160a01b038416906382b866009062001547906001906004016200384e565b602060405180830381865afa15801562001565573d6000803e3d6000fd5b505050506040513d601f19601f820116820180604052508101906200158b91906200385e565b6001600160a01b031663355274ea6040518163ffffffff1660e01b8152600401602060405180830381865afa158015620015c9573d6000803e3d6000fd5b505050506040513d601f19601f82011682018060405250810190620015ef9190620037ef565b62000752919062003cdb565b6200160860001962001291565b620007529060001962003cdb565b62001620620025e5565b6200162a6200259b565b60408051808201909152600b81526a0494e56414c49445f4341560ac1b6020820152670de0b6b3a7640000891015620016785760405162461bcd60e51b8152600401620007b29190620037a1565b50620016848862001291565b62001690908962003cf1565b97506001600160a01b0389166200182957620016bb60008051602062004bd2833981519152620024ef565b620016d660008051602062004bd28339815191523362002521565b61012d54604051633b84067560e21b815260048101879052602481018690526000916001600160a01b03169063ee1019d4906044016000604051808303816000875af11580156200172b573d6000803e3d6000fd5b505050506040513d6000823e601f3d908101601f1916820160405262001755919081019062003d53565b90508060800151341460405180604001604052806014815260200173125390d3d4949150d517d1551217d41054d4d15160621b81525090620017ac5760405162461bcd60e51b8152600401620007b29190620037a1565b50620017b7620028d3565b60405163aecb96c960e01b8152909a506001600160a01b038b169063aecb96c990620017ee90339087908990879060040162003e6c565b600060405180830381600087803b1580156200180957600080fd5b505af11580156200181e573d6000803e3d6000fd5b505050505062001a5e565b61012d54604051630db9619f60e31b81526001600160a01b038b811660048301526001921690636dcb0cf890602401602060405180830381865afa15801562001876573d6000803e3d6000fd5b505050506040513d601f19601f820116820180604052508101906200189c9190620037cc565b6004811115620018b057620018b0620037b6565b14604051806040016040528060088152602001671393d517d413d3d360c21b81525090620018f35760405162461bcd60e51b8152600401620007b29190620037a1565b50886001600160a01b0316638da5cb5b6040518163ffffffff1660e01b8152600401602060405180830381865afa15801562001933573d6000803e3d6000fd5b505050506040513d601f19601f820116820180604052508101906200195991906200385e565b6001600160a01b0316336001600160a01b0316146040518060400160405280600e81526020016d2727aa2fa827a7a62fa7aba722a960911b81525090620019b55760405162461bcd60e51b8152600401620007b29190620037a1565b50886001600160a01b031663e47bfee86040518163ffffffff1660e01b8152600401602060405180830381865afa158015620019f5573d6000803e3d6000fd5b505050506040513d601f19601f8201168201806040525081019062001a1b919062003cb7565b156040518060400160405280600681526020016549535f44414f60d01b8152509062001a5c5760405162461bcd60e51b8152600401620007b29190620037a1565b505b600062001a6a620027a1565b9050600062001a7a838c62002640565b9050816001600160a01b0316635c138e7d8c6040518060c001604052806001600281111562001aad5762001aad620037b6565b81526020016040518060200160405280600081525081526020018d81526020016040518060200160405280600081525081526020018e8152602001601260ff16815250846040518463ffffffff1660e01b815260040162001b119392919062003f09565b600060405180830381600087803b15801562001b2c57600080fd5b505af115801562001b41573d6000803e3d6000fd5b505060405163c4767b9560e01b81526001600160a01b038e16925063c4767b95915062001b7690859060019060040162003c45565b600060405180830381600087803b15801562001b9157600080fd5b505af115801562001ba6573d6000803e3d6000fd5b5050604051632c4e8d5560e01b81526001600160a01b0384169250632c4e8d55915062001bda9085908c9060040162003ff9565b600060405180830381600087803b15801562001bf557600080fd5b505af115801562001c0a573d6000803e3d6000fd5b505050507f9c5d829b9b23efc461f9aeef91979ec04bb903feb3bee4f26d22114abfc7335b8b838360405162001c60939291906001600160a01b0393841681529183166020830152909116604082015260600190565b60405180910390a1505062001c75600160c955565b505050505050505050565b61012d54604051630db9619f60e31b81523360048201526001916001600160a01b031690636dcb0cf890602401602060405180830381865afa15801562001ccb573d6000803e3d6000fd5b505050506040513d601f19601f8201168201806040525081019062001cf19190620037cc565b600481111562001d055762001d05620037b6565b14604051806040016040528060088152602001671393d517d413d3d360c21b8152509062001d485760405162461bcd60e51b8152600401620007b29190620037a1565b5062001d536200259b565b61012d546040516308c2f38b60e31b81526001600160a01b03909116906346179c589062001d8e9033908890889088908890600401620040e6565b6020604051808303816000875af115801562001dae573d6000803e3d6000fd5b505050506040513d601f19601f8201168201806040525081019062001dd49190620037ef565b5050505050565b6000818152609760205260408120620007529062002966565b60008281526065602052604090206001015462001e1181620024ef565b6200083c838362002521565b600062001e336101608501610140860162003006565b6001600160a01b03161462001f0657600062001e586101608501610140860162003006565b6001600160a01b03166318160ddd6040518163ffffffff1660e01b8152600401602060405180830381865afa15801562001e96573d6000803e3d6000fd5b505050506040513d601f19601f8201168201806040525081019062001ebc9190620037ef565b116040518060400160405280600d81526020016c24a72b20a624a22faa27a5a2a760991b8152509062001f045760405162461bcd60e51b8152600401620007b29190620037a1565b505b6103e883606001351015801562001f3f5750670de0b6b3a764000062001f326060850135853562003c9d565b10158062001f3f57508235155b6040518060400160405280600d81526020016c494e56414c49445f56414c554560981b8152509062001f865760405162461bcd60e51b8152600401620007b29190620037a1565b5062001f9162002138565b83602001351015801562001fad57508260400135836020013510155b6040518060400160405280600f81526020016e0494e56414c49445f4841524443415608c1b8152509062001ff65760405162461bcd60e51b8152600401620007b29190620037a1565b50600062002005828462003cdb565b9050808460200135111560405180606001604052806021815260200162004c2460219139906200204a5760405162461bcd60e51b8152600401620007b29190620037a1565b50806200205b856020013562001291565b6200206b90602087013562003cf1565b111560405180606001604052806032815260200162004bf2603291399062001dd45760405162461bcd60e51b8152600401620007b29190620037a1565b6000620020b581620024ef565b60408051808201909152600d81526c494e56414c49445f56414c554560981b6020820152620f4240831115620021005760405162461bcd60e51b8152600401620007b29190620037a1565b506101328290556040518281527f3356e979ac6b186521938f589b0f14ab4bac888ba2f12703da660b1f4ed1119f9060200162000807565b600061013254620f42406200214e919062003c7a565b905090565b600054610100900460ff1615808015620021745750600054600160ff909116105b80620021905750303b15801562002190575060005460ff166001145b620021f55760405162461bcd60e51b815260206004820152602e60248201527f496e697469616c697a61626c653a20636f6e747261637420697320616c72656160448201526d191e481a5b9a5d1a585b1a5e995960921b6064820152608401620007b2565b6000805460ff19166001179055801562002219576000805461ff0019166101001790555b60408051808201909152600c81526b414444524553535f5a45524f60a01b60208201526001600160a01b038716620022665760405162461bcd60e51b8152600401620007b29190620037a1565b5060408051808201909152600c81526b414444524553535f5a45524f60a01b60208201526001600160a01b038616620022b45760405162461bcd60e51b8152600401620007b29190620037a1565b5060408051808201909152600c81526b414444524553535f5a45524f60a01b60208201526001600160a01b038516620023025760405162461bcd60e51b8152600401620007b29190620037a1565b5060408051808201909152600c81526b414444524553535f5a45524f60a01b60208201526001600160a01b038416620023505760405162461bcd60e51b8152600401620007b29190620037a1565b506200235b62002971565b62002365620029a5565b61012d80546001600160a01b038089166001600160a01b03199283161790925561012e805488841690831617905561012f8054878416908316179055610130805492861692909116919091179055620023c0600033620024fb565b620023ec7f2b1db18cd92cf6947e9bb2f532380e05e806a043d20a65c532268a1d7f4b5e7333620024fb565b620024187f9cf85f95575c3af1e116e3d37fd41e7f36a8a373623f51ffaaa87fdd032fa76733620024fb565b6200245360008051602062004bd28339815191527f2b1db18cd92cf6947e9bb2f532380e05e806a043d20a65c532268a1d7f4b5e73620029d9565b6200245e3062000758565b6200246982620020a8565b8015620024b0576000805461ff0019169055604051600181527f7f26b83ff96e1f2b6a682f133852f6798a09c465da95921460cefb38474024989060200160405180910390a15b505050505050565b60006001600160e01b03198216637965db0b60e01b14806200075257506301ffc9a760e01b6001600160e01b031983161462000752565b620008da813362002a24565b62002507828262002a88565b60008281526097602052604090206200083c908262002b12565b6200252d828262002b29565b60008281526097602052604090206200083c908262002b93565b6200255162002baa565b60fb805460ff191690557f5db9ee0a495bf2e6ff9c91a7834c1ba4fdd244a5e8aa4e537bd38aeae4b073aa335b6040516001600160a01b03909116815260200160405180910390a1565b60fb5460ff1615620025e35760405162461bcd60e51b815260206004820152601060248201526f14185d5cd8589b194e881c185d5cd95960821b6044820152606401620007b2565b565b600260c95403620026395760405162461bcd60e51b815260206004820152601f60248201527f5265656e7472616e637947756172643a207265656e7472616e742063616c6c006044820152606401620007b2565b600260c955565b610130546040516000916001600160a01b0316906200265f9062002fa4565b6001600160a01b039091168152604060208201819052600090820152606001604051809103906000f0801580156200269b573d6000803e3d6000fd5b5061012d54604051631f8b400560e01b81529192506001600160a01b031690631f8b400590620026d49084906004908890820162004133565b6020604051808303816000875af1158015620026f4573d6000803e3d6000fd5b505050506040513d601f19601f820116820180604052508101906200271a9190620037ef565b5061012d546040516308c2f38b60e31b81526001600160a01b03909116906346179c5890620027549085906002906000906004016200416f565b6020604051808303816000875af115801562002774573d6000803e3d6000fd5b505050506040513d601f19601f820116820180604052508101906200279a9190620037ef565b5092915050565b61012f546040516000916001600160a01b031690620027c09062002fa4565b6001600160a01b039091168152604060208201819052600090820152606001604051809103906000f080158015620027fc573d6000803e3d6000fd5b5061012d54604051631f8b400560e01b81529192506001600160a01b031690631f8b40059062002834908490600290600401620041aa565b6020604051808303816000875af115801562002854573d6000803e3d6000fd5b505050506040513d601f19601f820116820180604052508101906200287a9190620037ef565b5090565b600160c955565b6200288f6200259b565b60fb805460ff191660011790557f62e78cea01bee320cd4e420270b5ea74000d11b0c9f74754ebdbfc544b05a2586200257e3390565b60006200125f838362002bf5565b61012e546040516000916001600160a01b031690620028f29062002fa4565b6001600160a01b039091168152604060208201819052600090820152606001604051809103906000f0801580156200292e573d6000803e3d6000fd5b5061012d54604051631f8b400560e01b81529192506001600160a01b031690631f8b40059062002834908490600190600401620041aa565b600062000752825490565b600054610100900460ff166200299b5760405162461bcd60e51b8152600401620007b290620041dd565b620025e362002c22565b600054610100900460ff16620029cf5760405162461bcd60e51b8152600401620007b290620041dd565b620025e362002c58565b600082815260656020526040808220600101805490849055905190918391839186917fbd79b86ffe0ab8e8776151514217cd7cacd52c909f66475c3af44e129f0b00ff9190a4505050565b62002a30828262001266565b620008bf5762002a408162002c82565b62002a4d83602062002c95565b60405160200162002a6092919062004228565b60408051601f198184030181529082905262461bcd60e51b8252620007b291600401620037a1565b62002a94828262001266565b620008bf5760008281526065602090815260408083206001600160a01b03851684529091529020805460ff1916600117905562002ace3390565b6001600160a01b0316816001600160a01b0316837f2f8788117e7eff1d82e926ec794901d17c78024a50270940304540a733656f0d60405160405180910390a45050565b60006200125f836001600160a01b03841662002e4e565b62002b35828262001266565b15620008bf5760008281526065602090815260408083206001600160a01b0385168085529252808320805460ff1916905551339285917ff6391f5c32d9c69d2a47ea670b442974b53935d1edc7fd64eb21e047a839171b9190a45050565b60006200125f836001600160a01b03841662002ea0565b60fb5460ff16620025e35760405162461bcd60e51b815260206004820152601460248201527314185d5cd8589b194e881b9bdd081c185d5cd95960621b6044820152606401620007b2565b600082600001828154811062002c0f5762002c0f62003ac6565b9060005260206000200154905092915050565b600054610100900460ff1662002c4c5760405162461bcd60e51b8152600401620007b290620041dd565b60fb805460ff19169055565b600054610100900460ff166200287e5760405162461bcd60e51b8152600401620007b290620041dd565b6060620007526001600160a01b03831660145b6060600062002ca683600262003c9d565b62002cb390600262003cf1565b6001600160401b0381111562002ccd5762002ccd6200308d565b6040519080825280601f01601f19166020018201604052801562002cf8576020820181803683370190505b509050600360fc1b8160008151811062002d165762002d1662003ac6565b60200101906001600160f81b031916908160001a905350600f60fb1b8160018151811062002d485762002d4862003ac6565b60200101906001600160f81b031916908160001a905350600062002d6e84600262003c9d565b62002d7b90600162003cf1565b90505b600181111562002dfd576f181899199a1a9b1b9c1cb0b131b232b360811b85600f166010811062002db35762002db362003ac6565b1a60f81b82828151811062002dcc5762002dcc62003ac6565b60200101906001600160f81b031916908160001a90535060049490941c9362002df581620042a1565b905062002d7e565b5083156200125f5760405162461bcd60e51b815260206004820181905260248201527f537472696e67733a20686578206c656e67746820696e73756666696369656e746044820152606401620007b2565b600081815260018301602052604081205462002e975750815460018181018455600084815260208082209093018490558454848252828601909352604090209190915562000752565b50600062000752565b6000818152600183016020526040812054801562002f9957600062002ec760018362003cdb565b855490915060009062002edd9060019062003cdb565b905081811462002f4957600086600001828154811062002f015762002f0162003ac6565b906000526020600020015490508087600001848154811062002f275762002f2762003ac6565b6000918252602080832090910192909255918252600188019052604090208390555b855486908062002f5d5762002f5d620042bb565b60019003818190600052602060002001600090559055856001016000868152602001908152602001600020600090556001935050505062000752565b600091505062000752565b61090080620042d283390190565b60006020828403121562002fc557600080fd5b81356001600160e01b0319811681146200125f57600080fd5b6001600160a01b0381168114620008da57600080fd5b8035620030018162002fde565b919050565b6000602082840312156200301957600080fd5b81356200125f8162002fde565b6000602082840312156200303957600080fd5b5035919050565b600080604083850312156200305457600080fd5b823591506020830135620030688162002fde565b809150509250929050565b60006101a082840312156200308757600080fd5b50919050565b634e487b7160e01b600052604160045260246000fd5b6040516101a081016001600160401b0381118282101715620030c957620030c96200308d565b60405290565b60405160c081016001600160401b0381118282101715620030c957620030c96200308d565b604051608081016001600160401b0381118282101715620030c957620030c96200308d565b60405160a081016001600160401b0381118282101715620030c957620030c96200308d565b604051601f8201601f191681016001600160401b03811182821017156200316957620031696200308d565b604052919050565b60006001600160401b038211156200318d576200318d6200308d565b50601f01601f191660200190565b600082601f830112620031ad57600080fd5b8135620031c4620031be8262003171565b6200313e565b818152846020838601011115620031da57600080fd5b816020850160208301376000918101602001919091529392505050565b6000806000606084860312156200320d57600080fd5b83356001600160401b03808211156200322557600080fd5b620032338783880162003073565b945060208601359150808211156200324a57600080fd5b9085019060c082880312156200325f57600080fd5b909250604085013590808211156200327657600080fd5b5062003285868287016200319b565b9150509250925092565b60008060408385031215620032a357600080fd5b8235620032b08162002fde565b946020939093013593505050565b60008060408385031215620032d257600080fd5b50508035926020909101359150565b60006001600160401b03821115620032fd57620032fd6200308d565b5060051b60200190565b600082601f8301126200331957600080fd5b813560206200332c620031be83620032e1565b82815260059290921b840181019181810190868411156200334c57600080fd5b8286015b8481101562003374578035620033668162002fde565b835291830191830162003350565b509695505050505050565b60006101a082840312156200339357600080fd5b6200339d620030a3565b9050813581526020820135602082015260408201356040820152606082013560608201526080820135608082015260a082013560a082015260c082013560c082015260e082013560e0820152610100808301358183015250610120808301356001600160401b038111156200341157600080fd5b6200341f8582860162003307565b8284015250506101406200343581840162002ff4565b9082015261016082810135908201526101809182013591810191909152919050565b60006101208083850312156200346c57600080fd5b62003476620030cf565b915082358252602080840135818401526040840135604084015260608401356060840152608084013560808401528460bf850112620034b457600080fd5b620034be620030f4565b918401918086841115620034d157600080fd5b60a086015b84811015620034ef5780358352918301918301620034d6565b5060a08501525091949350505050565b60008060008060008060008060006102208a8c0312156200351f57600080fd5b6200352a8a62002ff4565b985060208a0135975060408a01356001600160401b03808211156200354e57600080fd5b6200355c8d838e016200319b565b985060608c01359150808211156200357357600080fd5b620035818d838e016200337f565b975060808c0135965060a08c01359550620035a08d60c08e0162003457565b94506101e08c0135915080821115620035b857600080fd5b620035c68d838e016200319b565b93506102008c0135915080821115620035de57600080fd5b50620035ed8c828d016200319b565b9150509295985092959850929598565b600080600080606085870312156200361457600080fd5b8435600481106200362457600080fd5b93506020850135925060408501356001600160401b03808211156200364857600080fd5b818701915087601f8301126200365d57600080fd5b8135818111156200366d57600080fd5b8860208285010111156200368057600080fd5b95989497505060200194505050565b600080600060608486031215620036a557600080fd5b83356001600160401b03811115620036bc57600080fd5b620036ca8682870162003073565b9660208601359650604090950135949350505050565b600080600080600060a08688031215620036f957600080fd5b8535620037068162002fde565b94506020860135620037188162002fde565b935060408601356200372a8162002fde565b925060608601356200373c8162002fde565b949793965091946080013592915050565b60005b838110156200376a57818101518382015260200162003750565b50506000910152565b600081518084526200378d8160208601602086016200374d565b601f01601f19169290920160200192915050565b6020815260006200125f602083018462003773565b634e487b7160e01b600052602160045260246000fd5b600060208284031215620037df57600080fd5b8151600581106200125f57600080fd5b6000602082840312156200380257600080fd5b5051919050565b60038110620008da57600080fd5b6000602082840312156200382a57600080fd5b81356200125f8162003809565b600381106200384a576200384a620037b6565b9052565b6020810162000752828462003837565b6000602082840312156200387157600080fd5b81516200125f8162002fde565b6000602082840312156200389157600080fd5b81516200125f8162003809565b6000808335601e19843603018112620038b657600080fd5b83016020810192503590506001600160401b03811115620038d657600080fd5b8060051b3603821315620038e957600080fd5b9250929050565b8183526000602080850194508260005b8581101562003932578135620039168162002fde565b6001600160a01b03168752958201959082019060010162003900565b509495945050505050565b60018060a01b038316815260406020820152813560408201526020820135606082015260408201356080820152606082013560a0820152608082013560c082015260a082013560e0820152600061010060c08401358184015261012060e0850135818501526101408286013581860152620039bb828701876200389e565b935091506101a06101608181880152620039db6101e088018686620038f0565b9450620039ea83890162002ff4565b9350610180925062003a06838801856001600160a01b03169052565b87013590860152909401356101c0909301929092525092915050565b6000602080838503121562003a3657600080fd5b82516001600160401b0381111562003a4d57600080fd5b8301601f8101851362003a5f57600080fd5b805162003a70620031be82620032e1565b81815260059190911b8201830190838101908783111562003a9057600080fd5b928401925b8284101562003abb57835162003aab8162002fde565b8252928401929084019062003a95565b979650505050505050565b634e487b7160e01b600052603260045260246000fd5b6000808335601e1984360301811262003af457600080fd5b83016020810192503590506001600160401b0381111562003b1457600080fd5b803603821315620038e957600080fd5b81835281816020850137506000828201602090810191909152601f909101601f19169091010190565b6001600160a01b0384168152606060208201526000833562003b6f8162003809565b62003b7e606084018262003837565b5062003b8e602085018562003adc565b60c0608085015262003ba66101208501828462003b24565b91505062003bb8604086018662003adc565b605f19808685030160a087015262003bd284838562003b24565b935062003be3606089018962003adc565b93509150808685030160c08701525062003bff83838362003b24565b92505050608085013560e084015260a085013560ff8116811462003c2257600080fd5b60ff166101008401526001600160a01b038416604084015290505b949350505050565b6001600160a01b0383168152604081016200125f602083018462003837565b634e487b7160e01b600052601160045260246000fd5b60008262003c9857634e487b7160e01b600052601260045260246000fd5b500490565b808202811582820484141762000752576200075262003c64565b60006020828403121562003cca57600080fd5b815180151581146200125f57600080fd5b8181038181111562000752576200075262003c64565b8082018082111562000752576200075262003c64565b600082601f83011262003d1957600080fd5b815162003d2a620031be8262003171565b81815284602083860101111562003d4057600080fd5b62003c3d8260208301602087016200374d565b60006020828403121562003d6657600080fd5b81516001600160401b038082111562003d7e57600080fd5b9083019060a0828603121562003d9357600080fd5b62003d9d62003119565b825181526020830151602082015260408301518281111562003dbe57600080fd5b62003dcc8782860162003d07565b60408301525060608301518281111562003de557600080fd5b62003df38782860162003d07565b6060830152506080830151608082015280935050505092915050565b80518252602081015160208301526000604082015160a0604085015262003e3a60a085018262003773565b90506060830151848203606086015262003e55828262003773565b915050608083015160808501528091505092915050565b6001600160a01b038516815261018060208083018290526000919062003e958483018862003773565b91508551604085015280860151606085015260408601516080850152606086015160a0850152608086015160c085015260a086015160e0850160005b600481101562003ef05782518252918301919083019060010162003ed1565b5050505082810361016084015262003abb818562003e0f565b6001600160a01b0384168152606060208201819052835162003f2e9183019062003837565b6000602084015160c0608084015262003f4c61012084018262003773565b90506040850151605f19808584030160a086015262003f6c838362003773565b925060608701519150808584030160c08601525062003f8c828262003773565b608087015160e086015260a087015160ff166101008601526001600160a01b0386166040860152925062003c3d915050565b600081518084526020808501945080840160005b83811015620039325781516001600160a01b03168752958201959082019060010162003fd2565b60018060a01b038316815260406020820152815160408201526020820151606082015260408201516080820152606082015160a0820152608082015160c082015260a082015160e0820152600060c0830151610100818185015260e08501519150610120828186015281860151925061014091508282860152808601519250506101a06101608181870152620040946101e087018562003fbe565b92870151929350610180620040b3878201856001600160a01b03169052565b9087015191860191909152909401516101c0909301929092525092915050565b600481106200384a576200384a620037b6565b6001600160a01b0386168152620041016020820186620040d3565b83604082015260806060820152600062003abb60808301848662003b24565b600581106200384a576200384a620037b6565b6001600160a01b03841681526200414e602082018462004120565b60606040820152600062004166606083018462003773565b95945050505050565b6001600160a01b03841681526200418a6020820184620040d3565b604081019190915260806060820181905260009082015260a00192915050565b6001600160a01b0383168152620041c5602082018362004120565b60606040820181905260009082015260800192915050565b6020808252602b908201527f496e697469616c697a61626c653a20636f6e7472616374206973206e6f74206960408201526a6e697469616c697a696e6760a81b606082015260800190565b7f416363657373436f6e74726f6c3a206163636f756e7420000000000000000000815260008351620042628160178501602088016200374d565b7001034b99036b4b9b9b4b733903937b6329607d1b6017918401918201528351620042958160288401602088016200374d565b01602801949350505050565b600081620042b357620042b362003c64565b506000190190565b634e487b7160e01b600052603160045260246000fdfe60806040526040516109003803806109008339810160408190526100229161045b565b61002e82826000610035565b5050610585565b61003e83610100565b6040516001600160a01b038416907f1cf3b03a6cf19fa2baba4df148e9dcabedea7f8a5c07840e207e5c089be95d3e90600090a260008251118061007f5750805b156100fb576100f9836001600160a01b0316635c60da1b6040518163ffffffff1660e01b8152600401602060405180830381865afa1580156100c5573d6000803e3d6000fd5b505050506040513d601f19601f820116820180604052508101906100e9919061051b565b836102a360201b6100291760201c565b505b505050565b610113816102cf60201b6100551760201c565b6101725760405162461bcd60e51b815260206004820152602560248201527f455243313936373a206e657720626561636f6e206973206e6f74206120636f6e6044820152641d1c9858dd60da1b60648201526084015b60405180910390fd5b6101e6816001600160a01b0316635c60da1b6040518163ffffffff1660e01b8152600401602060405180830381865afa1580156101b3573d6000803e3d6000fd5b505050506040513d601f19601f820116820180604052508101906101d7919061051b565b6102cf60201b6100551760201c565b61024b5760405162461bcd60e51b815260206004820152603060248201527f455243313936373a20626561636f6e20696d706c656d656e746174696f6e206960448201526f1cc81b9bdd08184818dbdb9d1c9858dd60821b6064820152608401610169565b806102827fa3f0ad74e5423aebfd80d3ef4346578335a9a72aeaee59ff6cb3582b35133d5060001b6102de60201b6100641760201c565b80546001600160a01b0319166001600160a01b039290921691909117905550565b60606102c883836040518060600160405280602781526020016108d9602791396102e1565b9392505050565b6001600160a01b03163b151590565b90565b6060600080856001600160a01b0316856040516102fe9190610536565b600060405180830381855af49150503d8060008114610339576040519150601f19603f3d011682016040523d82523d6000602084013e61033e565b606091505b5090925090506103508683838761035a565b9695505050505050565b606083156103c95782516000036103c2576001600160a01b0385163b6103c25760405162461bcd60e51b815260206004820152601d60248201527f416464726573733a2063616c6c20746f206e6f6e2d636f6e74726163740000006044820152606401610169565b50816103d3565b6103d383836103db565b949350505050565b8151156103eb5781518083602001fd5b8060405162461bcd60e51b81526004016101699190610552565b80516001600160a01b038116811461041c57600080fd5b919050565b634e487b7160e01b600052604160045260246000fd5b60005b8381101561045257818101518382015260200161043a565b50506000910152565b6000806040838503121561046e57600080fd5b61047783610405565b60208401519092506001600160401b038082111561049457600080fd5b818501915085601f8301126104a857600080fd5b8151818111156104ba576104ba610421565b604051601f8201601f19908116603f011681019083821181831017156104e2576104e2610421565b816040528281528860208487010111156104fb57600080fd5b61050c836020830160208801610437565b80955050505050509250929050565b60006020828403121561052d57600080fd5b6102c882610405565b60008251610548818460208701610437565b9190910192915050565b6020815260008251806020840152610571816040850160208701610437565b601f01601f19169190910160400192915050565b610345806105946000396000f3fe60806040523661001357610011610017565b005b6100115b610027610022610067565b610100565b565b606061004e83836040518060600160405280602781526020016102e960279139610124565b9392505050565b6001600160a01b03163b151590565b90565b600061009a7fa3f0ad74e5423aebfd80d3ef4346578335a9a72aeaee59ff6cb3582b35133d50546001600160a01b031690565b6001600160a01b0316635c60da1b6040518163ffffffff1660e01b8152600401602060405180830381865afa1580156100d7573d6000803e3d6000fd5b505050506040513d601f19601f820116820180604052508101906100fb919061024c565b905090565b3660008037600080366000845af43d6000803e80801561011f573d6000f35b3d6000fd5b6060600080856001600160a01b0316856040516101419190610299565b600060405180830381855af49150503d806000811461017c576040519150601f19603f3d011682016040523d82523d6000602084013e610181565b606091505b50915091506101928683838761019c565b9695505050505050565b60608315610210578251600003610209576001600160a01b0385163b6102095760405162461bcd60e51b815260206004820152601d60248201527f416464726573733a2063616c6c20746f206e6f6e2d636f6e747261637400000060448201526064015b60405180910390fd5b508161021a565b61021a8383610222565b949350505050565b8151156102325781518083602001fd5b8060405162461bcd60e51b815260040161020091906102b5565b60006020828403121561025e57600080fd5b81516001600160a01b038116811461004e57600080fd5b60005b83811015610290578181015183820152602001610278565b50506000910152565b600082516102ab818460208701610275565b9190910192915050565b60208152600082518060208401526102d4816040850160208701610275565b601f01601f1916919091016040019291505056fe416464726573733a206c6f772d6c6576656c2064656c65676174652063616c6c206661696c6564a264697066735822122022a6bf5ebbb7518c40e703958b5c8e4d70ca6715c1e1ccf9e9591bfc86e066d164736f6c63430008110033416464726573733a206c6f772d6c6576656c2064656c65676174652063616c6c206661696c6564cdb004a2c4b58a687fd075d3ee33590a4807decba9bf65227a1ff25b56b056e9484152444341505f414e445f50524f544f434f4c5f4645455f4f564552464c4f575f52454d41494e494e475f535550504c59484152444341505f4f564552464c4f575f52454d41494e494e475f535550504c59a26469706673582212206a605d39f9dea9b26c30fbfcbc865d059a2fe99aa72ee43820076aa82e3b089d64736f6c63430008110033",
  "devdoc": {
    "details": "Protocol entry point",
    "events": {
      "FeesTransferred(address,uint256)": {
        "details": "Event emitted on transferring collected fees.",
        "params": {
          "amount": "Amount of transferred ETH",
          "to": "Transfer recepient"
        }
      },
      "PoolCreated(address,address,address)": {
        "details": "Event emitted on pool creation.",
        "params": {
          "pool": "Pool address",
          "tge": "Pool primary TGE address",
          "token": "Pool token address"
        }
      },
      "ProposalCancelled(address,uint256)": {
        "details": "Event emitted on proposal cacellation by service owner.",
        "params": {
          "pool": "Pool address",
          "proposalId": "Pool local proposal id"
        }
      },
      "ProtocolTokenFeeChanged(uint256)": {
        "details": "Event emitted on protocol token fee change.",
        "params": {
          "protocolTokenFee": "Protocol token fee"
        }
      },
      "ProtocolTreasuryChanged(address)": {
        "details": "Event emitted on protocol treasury change.",
        "params": {
          "protocolTreasury": "Protocol treasury address"
        }
      },
      "SecondaryTGECreated(address,address,address)": {
        "details": "Event emitted on creation of secondary TGE.",
        "params": {
          "pool": "Pool address",
          "tge": "Secondary TGE address",
          "token": "Preference token address"
        }
      }
    },
    "kind": "dev",
    "methods": {
      "addEvent(uint8,uint256,string)": {
        "details": "Add event to directory",
        "params": {
          "eventType": "Event type",
          "metaHash": "Hash value of event metadata",
          "proposalId": "Proposal ID"
        }
      },
      "addProposal(uint256)": {
        "details": "Add proposal to directory",
        "params": {
          "proposalId": "Proposal ID"
        }
      },
      "cancelProposal(address,uint256)": {
        "details": "Cancel pool's proposal",
        "params": {
          "pool": "pool",
          "proposalId": "proposalId"
        }
      },
      "constructor": {
        "custom:oz-upgrades-unsafe-allow": "constructor"
      },
      "createPool(address,uint256,string,(uint256,uint256,uint256,uint256,uint256,uint256,uint256,uint256,uint256,address[],address,uint256,uint256),uint256,uint256,(uint256,uint256,uint256,uint256,uint256,uint256[4]),string,string)": {
        "details": "Create pool",
        "params": {
          "entityType": "Company entity type",
          "governanceSettings": "Governance setting parameters",
          "jurisdiction": "Pool jurisdiction",
          "metadataURI": "Metadata URI",
          "pool": "Pool address. If not address(0) - creates new token and new primary TGE for an existing pool.",
          "tgeInfo": "Pool TGE parameters",
          "tokenCap": "Pool token cap",
          "tokenSymbol": "Pool token symbol",
          "trademark": "Pool trademark"
        }
      },
      "createSecondaryTGE((uint256,uint256,uint256,uint256,uint256,uint256,uint256,uint256,uint256,address[],address,uint256,uint256),(uint8,string,string,string,uint256,uint8),string)": {
        "details": "Create secondary TGE",
        "params": {
          "metadataURI": "Metadata URI",
          "tgeInfo": "TGE parameters",
          "tokenInfo": "Token parameters"
        }
      },
      "getMaxHardCap(address)": {
        "details": "Return max hard cap accounting for protocol token fee",
        "params": {
          "_pool": "pool to calculate hard cap against"
        },
        "returns": {
          "_0": "Maximum hard cap"
        }
      },
      "getMinSoftCap()": {
        "details": "Calculate minimum soft cap for token fee mechanism to work",
        "returns": {
          "_0": "softCap minimum soft cap"
        }
      },
      "getProtocolTokenFee(uint256)": {
        "details": "calculates protocol token fee for given token amount",
        "params": {
          "amount": "Token amount"
        },
        "returns": {
          "_0": "tokenFee"
        }
      },
      "getRoleAdmin(bytes32)": {
        "details": "Returns the admin role that controls `role`. See {grantRole} and {revokeRole}. To change a role's admin, use {_setRoleAdmin}."
      },
      "getRoleMember(bytes32,uint256)": {
        "details": "Returns one of the accounts that have `role`. `index` must be a value between 0 and {getRoleMemberCount}, non-inclusive. Role bearers are not sorted in any particular way, and their ordering may change at any point. WARNING: When using {getRoleMember} and {getRoleMemberCount}, make sure you perform all queries on the same block. See the following https://forum.openzeppelin.com/t/iterating-over-elements-on-enumerableset-in-openzeppelin-contracts/2296[forum post] for more information."
      },
      "getRoleMemberCount(bytes32)": {
        "details": "Returns the number of accounts that have `role`. Can be used together with {getRoleMember} to enumerate all bearers of a role."
      },
      "grantRole(bytes32,address)": {
        "details": "Grants `role` to `account`. If `account` had not been already granted `role`, emits a {RoleGranted} event. Requirements: - the caller must have ``role``'s admin role. May emit a {RoleGranted} event."
      },
      "hasRole(bytes32,address)": {
        "details": "Returns `true` if `account` has been granted `role`."
      },
      "initialize(address,address,address,address,uint256)": {
        "details": "Constructor function, can only be called once",
        "params": {
          "poolBeacon_": "Pool beacon",
          "protocolTokenFee_": "Protocol token fee",
          "registry_": "Registry address",
          "tgeBeacon_": "TGE beacon",
          "tokenBeacon_": "Governance token beacon"
        }
      },
      "pause()": {
        "details": "Pause service"
      },
      "paused()": {
        "details": "Returns true if the contract is paused, and false otherwise."
      },
      "renounceRole(bytes32,address)": {
        "details": "Revokes `role` from the calling account. Roles are often managed via {grantRole} and {revokeRole}: this function's purpose is to provide a mechanism for accounts to lose their privileges if they are compromised (such as when a trusted device is misplaced). If the calling account had been revoked `role`, emits a {RoleRevoked} event. Requirements: - the caller must be `account`. May emit a {RoleRevoked} event."
      },
      "revokeRole(bytes32,address)": {
        "details": "Revokes `role` from `account`. If `account` had been granted `role`, emits a {RoleRevoked} event. Requirements: - the caller must have ``role``'s admin role. May emit a {RoleRevoked} event."
      },
      "setProtocolTokenFee(uint256)": {
        "details": "Set protocol token fee",
        "params": {
          "_protocolTokenFee": "protocol token fee percentage value with 4 decimals. Examples: 1% = 10000, 100% = 1000000, 0.1% = 1000."
        }
      },
      "setProtocolTreasury(address)": {
        "details": "Set protocol treasury address",
        "params": {
          "_protocolTreasury": "Protocol treasury address"
        }
      },
      "supportsInterface(bytes4)": {
        "details": "See {IERC165-supportsInterface}."
      },
      "transferCollectedFees(address)": {
        "details": "Transfer collected createPool protocol fees",
        "params": {
          "to": "Transfer recipient"
        }
      },
      "unpause()": {
        "details": "Unpause service"
      }
    },
    "stateVariables": {
      "poolBeacon": {
        "details": "Pool beacon"
      },
      "protocolTokenFee": {
        "details": "protocol token fee percentage value with 4 decimals. Examples: 1% = 10000, 100% = 1000000, 0.1% = 1000"
      },
      "protocolTreasury": {
        "details": "address that collects protocol token fees"
      },
      "registry": {
        "details": "Registry address"
      },
      "tgeBeacon": {
        "details": "TGE beacon"
      },
      "tokenBeacon": {
        "details": "Token beacon"
      }
    },
    "version": 1
  },
  "userdoc": {
    "kind": "user",
    "methods": {
      "ADMIN_ROLE()": {
        "notice": "Default admin  role"
      },
      "EXECUTOR_ROLE()": {
        "notice": "Executor role"
      },
      "SERVICE_MANAGER_ROLE()": {
        "notice": "User manager role"
      },
      "WHITELISTED_USER_ROLE()": {
        "notice": "User role"
      }
    },
    "version": 1
  },
  "storageLayout": {
    "storage": [
      {
        "astId": 663,
        "contract": "contracts/Service.sol:Service",
        "label": "_initialized",
        "offset": 0,
        "slot": "0",
        "type": "t_uint8"
      },
      {
        "astId": 666,
        "contract": "contracts/Service.sol:Service",
        "label": "_initializing",
        "offset": 1,
        "slot": "0",
        "type": "t_bool"
      },
      {
        "astId": 1428,
        "contract": "contracts/Service.sol:Service",
        "label": "__gap",
        "offset": 0,
        "slot": "1",
        "type": "t_array(t_uint256)50_storage"
      },
      {
        "astId": 1647,
        "contract": "contracts/Service.sol:Service",
        "label": "__gap",
        "offset": 0,
        "slot": "51",
        "type": "t_array(t_uint256)50_storage"
      },
      {
        "astId": 184,
        "contract": "contracts/Service.sol:Service",
        "label": "_roles",
        "offset": 0,
        "slot": "101",
        "type": "t_mapping(t_bytes32,t_struct(RoleData)179_storage)"
      },
      {
        "astId": 479,
        "contract": "contracts/Service.sol:Service",
        "label": "__gap",
        "offset": 0,
        "slot": "102",
        "type": "t_array(t_uint256)49_storage"
      },
      {
        "astId": 33,
        "contract": "contracts/Service.sol:Service",
        "label": "_roleMembers",
        "offset": 0,
        "slot": "151",
        "type": "t_mapping(t_bytes32,t_struct(AddressSet)2851_storage)"
      },
      {
        "astId": 143,
        "contract": "contracts/Service.sol:Service",
        "label": "__gap",
        "offset": 0,
        "slot": "152",
        "type": "t_array(t_uint256)49_storage"
      },
      {
        "astId": 966,
        "contract": "contracts/Service.sol:Service",
        "label": "_status",
        "offset": 0,
        "slot": "201",
        "type": "t_uint256"
      },
      {
        "astId": 1024,
        "contract": "contracts/Service.sol:Service",
        "label": "__gap",
        "offset": 0,
        "slot": "202",
        "type": "t_array(t_uint256)49_storage"
      },
      {
        "astId": 846,
        "contract": "contracts/Service.sol:Service",
        "label": "_paused",
        "offset": 0,
        "slot": "251",
        "type": "t_bool"
      },
      {
        "astId": 951,
        "contract": "contracts/Service.sol:Service",
        "label": "__gap",
        "offset": 0,
        "slot": "252",
        "type": "t_array(t_uint256)49_storage"
      },
      {
        "astId": 4052,
        "contract": "contracts/Service.sol:Service",
        "label": "registry",
        "offset": 0,
        "slot": "301",
        "type": "t_contract(IRegistry)5742"
      },
      {
        "astId": 4055,
        "contract": "contracts/Service.sol:Service",
        "label": "poolBeacon",
        "offset": 0,
        "slot": "302",
        "type": "t_address"
      },
      {
        "astId": 4058,
        "contract": "contracts/Service.sol:Service",
        "label": "tokenBeacon",
        "offset": 0,
        "slot": "303",
        "type": "t_address"
      },
      {
        "astId": 4061,
        "contract": "contracts/Service.sol:Service",
        "label": "tgeBeacon",
        "offset": 0,
        "slot": "304",
        "type": "t_address"
      },
      {
        "astId": 4064,
        "contract": "contracts/Service.sol:Service",
        "label": "protocolTreasury",
        "offset": 0,
        "slot": "305",
        "type": "t_address"
      },
      {
        "astId": 4067,
        "contract": "contracts/Service.sol:Service",
        "label": "protocolTokenFee",
        "offset": 0,
        "slot": "306",
        "type": "t_uint256"
      }
    ],
    "types": {
      "t_address": {
        "encoding": "inplace",
        "label": "address",
        "numberOfBytes": "20"
      },
      "t_array(t_bytes32)dyn_storage": {
        "base": "t_bytes32",
        "encoding": "dynamic_array",
        "label": "bytes32[]",
        "numberOfBytes": "32"
      },
      "t_array(t_uint256)49_storage": {
        "base": "t_uint256",
        "encoding": "inplace",
        "label": "uint256[49]",
        "numberOfBytes": "1568"
      },
      "t_array(t_uint256)50_storage": {
        "base": "t_uint256",
        "encoding": "inplace",
        "label": "uint256[50]",
        "numberOfBytes": "1600"
      },
      "t_bool": {
        "encoding": "inplace",
        "label": "bool",
        "numberOfBytes": "1"
      },
      "t_bytes32": {
        "encoding": "inplace",
        "label": "bytes32",
        "numberOfBytes": "32"
      },
      "t_contract(IRegistry)5742": {
        "encoding": "inplace",
        "label": "contract IRegistry",
        "numberOfBytes": "20"
      },
      "t_mapping(t_address,t_bool)": {
        "encoding": "mapping",
        "key": "t_address",
        "label": "mapping(address => bool)",
        "numberOfBytes": "32",
        "value": "t_bool"
      },
      "t_mapping(t_bytes32,t_struct(AddressSet)2851_storage)": {
        "encoding": "mapping",
        "key": "t_bytes32",
        "label": "mapping(bytes32 => struct EnumerableSetUpgradeable.AddressSet)",
        "numberOfBytes": "32",
        "value": "t_struct(AddressSet)2851_storage"
      },
      "t_mapping(t_bytes32,t_struct(RoleData)179_storage)": {
        "encoding": "mapping",
        "key": "t_bytes32",
        "label": "mapping(bytes32 => struct AccessControlUpgradeable.RoleData)",
        "numberOfBytes": "32",
        "value": "t_struct(RoleData)179_storage"
      },
      "t_mapping(t_bytes32,t_uint256)": {
        "encoding": "mapping",
        "key": "t_bytes32",
        "label": "mapping(bytes32 => uint256)",
        "numberOfBytes": "32",
        "value": "t_uint256"
      },
      "t_struct(AddressSet)2851_storage": {
        "encoding": "inplace",
        "label": "struct EnumerableSetUpgradeable.AddressSet",
        "members": [
          {
            "astId": 2850,
            "contract": "contracts/Service.sol:Service",
            "label": "_inner",
            "offset": 0,
            "slot": "0",
            "type": "t_struct(Set)2536_storage"
          }
        ],
        "numberOfBytes": "64"
      },
      "t_struct(RoleData)179_storage": {
        "encoding": "inplace",
        "label": "struct AccessControlUpgradeable.RoleData",
        "members": [
          {
            "astId": 176,
            "contract": "contracts/Service.sol:Service",
            "label": "members",
            "offset": 0,
            "slot": "0",
            "type": "t_mapping(t_address,t_bool)"
          },
          {
            "astId": 178,
            "contract": "contracts/Service.sol:Service",
            "label": "adminRole",
            "offset": 0,
            "slot": "1",
            "type": "t_bytes32"
          }
        ],
        "numberOfBytes": "64"
      },
      "t_struct(Set)2536_storage": {
        "encoding": "inplace",
        "label": "struct EnumerableSetUpgradeable.Set",
        "members": [
          {
            "astId": 2531,
            "contract": "contracts/Service.sol:Service",
            "label": "_values",
            "offset": 0,
            "slot": "0",
            "type": "t_array(t_bytes32)dyn_storage"
          },
          {
            "astId": 2535,
            "contract": "contracts/Service.sol:Service",
            "label": "_indexes",
            "offset": 0,
            "slot": "1",
            "type": "t_mapping(t_bytes32,t_uint256)"
          }
        ],
        "numberOfBytes": "64"
      },
      "t_uint256": {
        "encoding": "inplace",
        "label": "uint256",
        "numberOfBytes": "32"
      },
      "t_uint8": {
        "encoding": "inplace",
        "label": "uint8",
        "numberOfBytes": "1"
      }
    }
  }
}