{
  "address": "0xBFfEF7371953353250781cA3544D1c7fDf873bA5",
  "abi": [
    {
      "inputs": [],
      "stateMutability": "nonpayable",
      "type": "constructor"
    },
    {
      "anonymous": false,
      "inputs": [
        {
          "indexed": false,
          "internalType": "address",
          "name": "account",
          "type": "address"
        },
        {
          "indexed": false,
          "internalType": "uint256",
          "name": "amount",
          "type": "uint256"
        }
      ],
      "name": "Claimed",
      "type": "event"
    },
    {
      "anonymous": false,
      "inputs": [
        {
          "indexed": false,
          "internalType": "uint256",
          "name": "amount",
          "type": "uint256"
        }
      ],
      "name": "FundsTransferred",
      "type": "event"
    },
    {
      "anonymous": false,
      "inputs": [
        {
          "indexed": false,
          "internalType": "uint8",
          "name": "version",
          "type": "uint8"
        }
      ],
      "name": "Initialized",
      "type": "event"
    },
    {
      "anonymous": false,
      "inputs": [
        {
          "indexed": false,
          "internalType": "address",
          "name": "token",
          "type": "address"
        },
        {
          "indexed": false,
          "internalType": "uint256",
          "name": "tokenFee",
          "type": "uint256"
        }
      ],
      "name": "ProtocolTokenFeeClaimed",
      "type": "event"
    },
    {
      "anonymous": false,
      "inputs": [
        {
          "indexed": false,
          "internalType": "address",
          "name": "buyer",
          "type": "address"
        },
        {
          "indexed": false,
          "internalType": "uint256",
          "name": "amount",
          "type": "uint256"
        }
      ],
      "name": "Purchased",
      "type": "event"
    },
    {
      "anonymous": false,
      "inputs": [
        {
          "indexed": false,
          "internalType": "address",
          "name": "account",
          "type": "address"
        },
        {
          "indexed": false,
          "internalType": "uint256",
          "name": "refundValue",
          "type": "uint256"
        }
      ],
      "name": "Redeemed",
      "type": "event"
    },
    {
      "inputs": [],
      "name": "claim",
      "outputs": [],
      "stateMutability": "nonpayable",
      "type": "function"
    },
    {
      "inputs": [],
      "name": "claimAvailable",
      "outputs": [
        {
          "internalType": "bool",
          "name": "",
          "type": "bool"
        }
      ],
      "stateMutability": "view",
      "type": "function"
    },
    {
      "inputs": [],
      "name": "createdAt",
      "outputs": [
        {
          "internalType": "uint256",
          "name": "",
          "type": "uint256"
        }
      ],
      "stateMutability": "view",
      "type": "function"
    },
    {
      "inputs": [],
      "name": "getTotalPurchasedValue",
      "outputs": [
        {
          "internalType": "uint256",
          "name": "",
          "type": "uint256"
        }
      ],
      "stateMutability": "view",
      "type": "function"
    },
    {
      "inputs": [],
      "name": "getTotalVestedValue",
      "outputs": [
        {
          "internalType": "uint256",
          "name": "",
          "type": "uint256"
        }
      ],
      "stateMutability": "view",
      "type": "function"
    },
    {
      "inputs": [],
      "name": "getUserWhitelist",
      "outputs": [
        {
          "internalType": "address[]",
          "name": "",
          "type": "address[]"
        }
      ],
      "stateMutability": "view",
      "type": "function"
    },
    {
      "inputs": [],
      "name": "info",
      "outputs": [
        {
          "internalType": "uint256",
          "name": "price",
          "type": "uint256"
        },
        {
          "internalType": "uint256",
          "name": "hardcap",
          "type": "uint256"
        },
        {
          "internalType": "uint256",
          "name": "softcap",
          "type": "uint256"
        },
        {
          "internalType": "uint256",
          "name": "minPurchase",
          "type": "uint256"
        },
        {
          "internalType": "uint256",
          "name": "maxPurchase",
          "type": "uint256"
        },
        {
          "internalType": "uint256",
          "name": "vestingPercent",
          "type": "uint256"
        },
        {
          "internalType": "uint256",
          "name": "vestingDuration",
          "type": "uint256"
        },
        {
          "internalType": "uint256",
          "name": "vestingTVL",
          "type": "uint256"
        },
        {
          "internalType": "uint256",
          "name": "duration",
          "type": "uint256"
        },
        {
          "internalType": "address",
          "name": "unitOfAccount",
          "type": "address"
        },
        {
          "internalType": "uint256",
          "name": "lockupDuration",
          "type": "uint256"
        },
        {
          "internalType": "uint256",
          "name": "lockupTVL",
          "type": "uint256"
        }
      ],
      "stateMutability": "view",
      "type": "function"
    },
    {
      "inputs": [
        {
          "internalType": "contract IToken",
          "name": "_token",
          "type": "address"
        },
        {
          "components": [
            {
              "internalType": "uint256",
              "name": "price",
              "type": "uint256"
            },
            {
              "internalType": "uint256",
              "name": "hardcap",
              "type": "uint256"
            },
            {
              "internalType": "uint256",
              "name": "softcap",
              "type": "uint256"
            },
            {
              "internalType": "uint256",
              "name": "minPurchase",
              "type": "uint256"
            },
            {
              "internalType": "uint256",
              "name": "maxPurchase",
              "type": "uint256"
            },
            {
              "internalType": "uint256",
              "name": "vestingPercent",
              "type": "uint256"
            },
            {
              "internalType": "uint256",
              "name": "vestingDuration",
              "type": "uint256"
            },
            {
              "internalType": "uint256",
              "name": "vestingTVL",
              "type": "uint256"
            },
            {
              "internalType": "uint256",
              "name": "duration",
              "type": "uint256"
            },
            {
              "internalType": "address[]",
              "name": "userWhitelist",
              "type": "address[]"
            },
            {
              "internalType": "address",
              "name": "unitOfAccount",
              "type": "address"
            },
            {
              "internalType": "uint256",
              "name": "lockupDuration",
              "type": "uint256"
            },
            {
              "internalType": "uint256",
              "name": "lockupTVL",
              "type": "uint256"
            }
          ],
          "internalType": "struct ITGE.TGEInfo",
          "name": "_info",
          "type": "tuple"
        }
      ],
      "name": "initialize",
      "outputs": [],
      "stateMutability": "nonpayable",
      "type": "function"
    },
    {
      "inputs": [],
      "name": "isProtocolTokenFeeClaimed",
      "outputs": [
        {
          "internalType": "bool",
          "name": "",
          "type": "bool"
        }
      ],
      "stateMutability": "view",
      "type": "function"
    },
    {
      "inputs": [
        {
          "internalType": "address",
          "name": "",
          "type": "address"
        }
      ],
      "name": "isUserWhitelisted",
      "outputs": [
        {
          "internalType": "bool",
          "name": "",
          "type": "bool"
        }
      ],
      "stateMutability": "view",
      "type": "function"
    },
    {
      "inputs": [
        {
          "internalType": "address",
          "name": "account",
          "type": "address"
        }
      ],
      "name": "lockedBalanceOf",
      "outputs": [
        {
          "internalType": "uint256",
          "name": "",
          "type": "uint256"
        }
      ],
      "stateMutability": "view",
      "type": "function"
    },
    {
      "inputs": [],
      "name": "lockupTVLReached",
      "outputs": [
        {
          "internalType": "bool",
          "name": "",
          "type": "bool"
        }
      ],
      "stateMutability": "view",
      "type": "function"
    },
    {
      "inputs": [
        {
          "internalType": "address",
          "name": "account",
          "type": "address"
        }
      ],
      "name": "maxPurchaseOf",
      "outputs": [
        {
          "internalType": "uint256",
          "name": "",
          "type": "uint256"
        }
      ],
      "stateMutability": "view",
      "type": "function"
    },
    {
      "inputs": [
        {
          "internalType": "uint256",
          "name": "amount",
          "type": "uint256"
        }
      ],
      "name": "purchase",
      "outputs": [],
      "stateMutability": "payable",
      "type": "function"
    },
    {
      "inputs": [
        {
          "internalType": "address",
          "name": "",
          "type": "address"
        }
      ],
      "name": "purchaseOf",
      "outputs": [
        {
          "internalType": "uint256",
          "name": "",
          "type": "uint256"
        }
      ],
      "stateMutability": "view",
      "type": "function"
    },
    {
      "inputs": [],
      "name": "redeem",
      "outputs": [],
      "stateMutability": "nonpayable",
      "type": "function"
    },
    {
      "inputs": [],
      "name": "setLockupTVLReached",
      "outputs": [],
      "stateMutability": "nonpayable",
      "type": "function"
    },
    {
      "inputs": [],
      "name": "setVestingTVLReached",
      "outputs": [],
      "stateMutability": "nonpayable",
      "type": "function"
    },
    {
      "inputs": [],
      "name": "state",
      "outputs": [
        {
          "internalType": "enum ITGE.State",
          "name": "",
          "type": "uint8"
        }
      ],
      "stateMutability": "view",
      "type": "function"
    },
    {
      "inputs": [],
      "name": "token",
      "outputs": [
        {
          "internalType": "contract IToken",
          "name": "",
          "type": "address"
        }
      ],
      "stateMutability": "view",
      "type": "function"
    },
    {
      "inputs": [],
      "name": "totalPurchased",
      "outputs": [
        {
          "internalType": "uint256",
          "name": "",
          "type": "uint256"
        }
      ],
      "stateMutability": "view",
      "type": "function"
    },
    {
      "inputs": [],
      "name": "totalVested",
      "outputs": [
        {
          "internalType": "uint256",
          "name": "",
          "type": "uint256"
        }
      ],
      "stateMutability": "view",
      "type": "function"
    },
    {
      "inputs": [],
      "name": "transferFunds",
      "outputs": [],
      "stateMutability": "nonpayable",
      "type": "function"
    },
    {
      "inputs": [],
      "name": "transferUnlocked",
      "outputs": [
        {
          "internalType": "bool",
          "name": "",
          "type": "bool"
        }
      ],
      "stateMutability": "view",
      "type": "function"
    },
    {
      "inputs": [
        {
          "internalType": "address",
          "name": "",
          "type": "address"
        }
      ],
      "name": "vestedBalanceOf",
      "outputs": [
        {
          "internalType": "uint256",
          "name": "",
          "type": "uint256"
        }
      ],
      "stateMutability": "view",
      "type": "function"
    },
    {
      "inputs": [],
      "name": "vestingTVLReached",
      "outputs": [
        {
          "internalType": "bool",
          "name": "",
          "type": "bool"
        }
      ],
      "stateMutability": "view",
      "type": "function"
    }
  ],
  "transactionHash": "0x2b5e43ff32b1779f4bee335dedbc38df364fb9daab122874129aaceaaac3683d",
  "args": [],
  "numDeployments": 1,
  "solcInputHash": "eb381282f548b11e208d3b7fcd990bbb",
  "bytecode": "0x60806040523480156200001157600080fd5b506200001c62000022565b620000e4565b600054610100900460ff16156200008f5760405162461bcd60e51b815260206004820152602760248201527f496e697469616c697a61626c653a20636f6e747261637420697320696e697469604482015266616c697a696e6760c81b606482015260840160405180910390fd5b60005460ff9081161015620000e2576000805460ff191660ff9081179091556040519081527f7f26b83ff96e1f2b6a682f133852f6798a09c465da95921460cefb38474024989060200160405180910390a15b565b612f9780620000f46000396000f3fe6080604052600436106101815760003560e01c80637805511d116100d1578063df60fa401161008a578063ec76d21511610064578063ec76d2151461048a578063efef39a1146104a9578063fb237eb2146104bc578063fc0c546a146104ec57600080fd5b8063df60fa401461043d578063e411d9a914610452578063e632c2f31461047457600080fd5b80637805511d1461039957806380f68bdc146103ae578063be040fb0146103c3578063bf7fec08146103d8578063c19d93fb14610405578063cf09e0d01461042757600080fd5b806337c62eb11161013e5780634e71d92d116101185780634e71d92d14610335578063593557361461034a57806367887a771461036a5780636a38f3ca1461037f57600080fd5b806337c62eb1146102eb5780633c68eb811461030057806342ee5d841461031557600080fd5b80630e2d1a2a14610186578063199cbc54146101c6578063205decf4146101dc5780632c4e8d55146101f35780633253423f14610213578063370158ea1461023d575b600080fd5b34801561019257600080fd5b506101b36101a1366004612849565b60466020526000908152604090205481565b6040519081526020015b60405180910390f35b3480156101d257600080fd5b506101b360475481565b3480156101e857600080fd5b506101f1610524565b005b3480156101ff57600080fd5b506101f161020e366004612866565b610840565b34801561021f57600080fd5b5060485461022d9060ff1681565b60405190151581526020016101bd565b34801561024957600080fd5b50603454603554603654603754603854603954603a54603b54603c54603e54603f546040546102899b9a99989796959493926001600160a01b031691908c565b604080519c8d5260208d019b909b52998b019890985260608a0196909652608089019490945260a088019290925260c087015260e08601526101008501526001600160a01b0316610120840152610140830152610160820152610180016101bd565b3480156102f757600080fd5b5061022d610b55565b34801561030c57600080fd5b506101f1610ba3565b34801561032157600080fd5b506101b3610330366004612849565b610e95565b34801561034157600080fd5b506101f1610ed9565b34801561035657600080fd5b506101b3610365366004612849565b611123565b34801561037657600080fd5b506101b361116d565b34801561038b57600080fd5b5060455461022d9060ff1681565b3480156103a557600080fd5b506101f1611195565b3480156103ba57600080fd5b506101b36114a2565b3480156103cf57600080fd5b506101f16114c0565b3480156103e457600080fd5b506101b36103f3366004612849565b60436020526000908152604090205481565b34801561041157600080fd5b5061041a611985565b6040516101bd91906128d4565b34801561043357600080fd5b506101b360425481565b34801561044957600080fd5b5061022d611aa1565b34801561045e57600080fd5b50610467611ace565b6040516101bd91906128fc565b34801561048057600080fd5b506101b360445481565b34801561049657600080fd5b5060455461022d90610100900460ff1681565b6101f16104b7366004612949565b611b33565b3480156104c857600080fd5b5061022d6104d7366004612849565b60416020526000908152604090205460ff1681565b3480156104f857600080fd5b5060335461050c906001600160a01b031681565b6040516001600160a01b0390911681526020016101bd565b603360009054906101000a90046001600160a01b03166001600160a01b03166316f0115b6040518163ffffffff1660e01b8152600401602060405180830381865afa158015610577573d6000803e3d6000fd5b505050506040513d601f19601f8201168201806040525081019061059b919061296d565b6001600160a01b0316635c975abb6040518163ffffffff1660e01b8152600401602060405180830381865afa1580156105d8573d6000803e3d6000fd5b505050506040513d601f19601f820116820180604052508101906105fc919061298a565b156040518060400160405280600e81526020016d14d154959250d157d4105554d15160921b8152509061064b5760405162461bcd60e51b815260040161064291906129d0565b60405180910390fd5b506033546040805163d598d4c960e01b815290516000926001600160a01b03169163d598d4c99160048083019260209291908290030181865afa158015610696573d6000803e3d6000fd5b505050506040513d601f19601f820116820180604052508101906106ba919061296d565b9050806001600160a01b03166391d14854826001600160a01b031663c979e8a76040518163ffffffff1660e01b8152600401602060405180830381865afa158015610709573d6000803e3d6000fd5b505050506040513d601f19601f8201168201806040525081019061072d9190612a03565b6040516001600160e01b031960e084901b1681526004810191909152336024820152604401602060405180830381865afa15801561076f573d6000803e3d6000fd5b505050506040513d601f19601f82011682018060405250810190610793919061298a565b6040518060400160405280600f81526020016e1393d517d5d2125511531254d51151608a1b815250906107d95760405162461bcd60e51b815260040161064291906129d0565b506045546040805180820190915260128152711313d0d2d55417d5159317d4915050d2115160721b602082015290610100900460ff161561082d5760405162461bcd60e51b815260040161064291906129d0565b50506045805461ff001916610100179055565b600054610100900460ff16158080156108605750600054600160ff909116105b8061087a5750303b15801561087a575060005460ff166001145b6108dd5760405162461bcd60e51b815260206004820152602e60248201527f496e697469616c697a61626c653a20636f6e747261637420697320616c72656160448201526d191e481a5b9a5d1a585b1a5e995960921b6064820152608401610642565b6000805460ff191660011790558015610900576000805461ff0019166101001790555b61090861206c565b336001600160a01b031663d7f964fd83856001600160a01b031663355274ea6040518163ffffffff1660e01b8152600401602060405180830381865afa158015610956573d6000803e3d6000fd5b505050506040513d601f19601f8201168201806040525081019061097a9190612a03565b866001600160a01b03166318160ddd6040518163ffffffff1660e01b8152600401602060405180830381865afa1580156109b8573d6000803e3d6000fd5b505050506040513d601f19601f820116820180604052508101906109dc9190612a03565b6040518463ffffffff1660e01b81526004016109fa93929190612ab5565b60006040518083038186803b158015610a1257600080fd5b505afa158015610a26573d6000803e3d6000fd5b5050603380546001600160a01b0319166001600160a01b038716179055508290506034610a538282612cc3565b50506045805461ffff191660e08401351561ff00191617610100610180850135150217905560005b610a89610120840184612b88565b9050811015610b0557600160416000610aa6610120870187612b88565b85818110610ab657610ab6612d84565b9050602002016020810190610acb9190612849565b6001600160a01b031681526020810191909152604001600020805460ff191691151591909117905580610afd81612d9a565b915050610a7b565b50436042558015610b50576000805461ff0019169055604051600181527f7f26b83ff96e1f2b6a682f133852f6798a09c465da95921460cefb38474024989060200160405180910390a15b505050565b60455460009060ff168015610b795750603a54604254610b759190612db3565b4310155b8015610b9e57506001610b8a611985565b6002811115610b9b57610b9b6128be565b14155b905090565b600280610bae611985565b6002811115610bbf57610bbf6128be565b146040518060400160405280600b81526020016a57524f4e475f535441544560a81b81525090610c025760405162461bcd60e51b815260040161064291906129d0565b50603360009054906101000a90046001600160a01b03166001600160a01b03166316f0115b6040518163ffffffff1660e01b8152600401602060405180830381865afa158015610c56573d6000803e3d6000fd5b505050506040513d601f19601f82011682018060405250810190610c7a919061296d565b6001600160a01b0316635c975abb6040518163ffffffff1660e01b8152600401602060405180830381865afa158015610cb7573d6000803e3d6000fd5b505050506040513d601f19601f82011682018060405250810190610cdb919061298a565b156040518060400160405280600e81526020016d14d154959250d157d4105554d15160921b81525090610d215760405162461bcd60e51b815260040161064291906129d0565b5060445415610e9257610d3261209d565b603e54603354604080516316f0115b60e01b815290516001600160a01b039384169360009316916316f0115b9160048083019260209291908290030181865afa158015610d83573d6000803e3d6000fd5b505050506040513d601f19601f82011682018060405250810190610da7919061296d565b60345490915060009015610e5b576001600160a01b038316610ddd575047610dd86001600160a01b03831682612377565b610e5b565b6040516370a0823160e01b81523060048201526001600160a01b038416906370a0823190602401602060405180830381865afa158015610e21573d6000803e3d6000fd5b505050506040513d601f19601f82011682018060405250810190610e459190612a03565b9050610e5b6001600160a01b0384168383612490565b6040518181527fe057af857c4cd43c642d89c71d82bfcef75327272b9cc78e3951f824bd5dd6cb9060200160405180910390a15050505b50565b6001600160a01b038116600090815260436020526040812054603854610ed391610ebe91612dc6565b604454603554610ece9190612dc6565b6124e6565b92915050565b603360009054906101000a90046001600160a01b03166001600160a01b03166316f0115b6040518163ffffffff1660e01b8152600401602060405180830381865afa158015610f2c573d6000803e3d6000fd5b505050506040513d601f19601f82011682018060405250810190610f50919061296d565b6001600160a01b0316635c975abb6040518163ffffffff1660e01b8152600401602060405180830381865afa158015610f8d573d6000803e3d6000fd5b505050506040513d601f19601f82011682018060405250810190610fb1919061298a565b156040518060400160405280600e81526020016d14d154959250d157d4105554d15160921b81525090610ff75760405162461bcd60e51b815260040161064291906129d0565b50611000610b55565b60405180604001604052806013815260200172434c41494d5f4e4f545f415641494c41424c4560681b8152509061104a5760405162461bcd60e51b815260040161064291906129d0565b503360009081526046602090815260409182902054825180840190935260118352704e4f5f4c4f434b45445f42414c414e434560781b9183019190915290816110a65760405162461bcd60e51b815260040161064291906129d0565b50336000908152604660205260408120819055604780548392906110cb908490612dc6565b90915550506033546110e7906001600160a01b03163383612490565b7fd8138f8a3f377c5259ca548e70e4c2de94f129f5a11036a15b69513cba2b426a3382604051611118929190612dd9565b60405180910390a150565b600061112d611aa1565b611165576001600160a01b0382166000908152604660209081526040808320546043909252909120546111609190612dc6565b610ed3565b600092915050565b6000670de0b6b3a764000060346000015460445461118b9190612bfe565b610b9e9190612df2565b603360009054906101000a90046001600160a01b03166001600160a01b03166316f0115b6040518163ffffffff1660e01b8152600401602060405180830381865afa1580156111e8573d6000803e3d6000fd5b505050506040513d601f19601f8201168201806040525081019061120c919061296d565b6001600160a01b0316635c975abb6040518163ffffffff1660e01b8152600401602060405180830381865afa158015611249573d6000803e3d6000fd5b505050506040513d601f19601f8201168201806040525081019061126d919061298a565b156040518060400160405280600e81526020016d14d154959250d157d4105554d15160921b815250906112b35760405162461bcd60e51b815260040161064291906129d0565b506033546040805163d598d4c960e01b815290516000926001600160a01b03169163d598d4c99160048083019260209291908290030181865afa1580156112fe573d6000803e3d6000fd5b505050506040513d601f19601f82011682018060405250810190611322919061296d565b9050806001600160a01b03166391d14854826001600160a01b031663c979e8a76040518163ffffffff1660e01b8152600401602060405180830381865afa158015611371573d6000803e3d6000fd5b505050506040513d601f19601f820116820180604052508101906113959190612a03565b6040516001600160e01b031960e084901b1681526004810191909152336024820152604401602060405180830381865afa1580156113d7573d6000803e3d6000fd5b505050506040513d601f19601f820116820180604052508101906113fb919061298a565b6040518060400160405280600f81526020016e1393d517d5d2125511531254d51151608a1b815250906114415760405162461bcd60e51b815260040161064291906129d0565b50604554604080518082019091526013815272159154d5125391d7d5159317d4915050d21151606a1b60208201529060ff16156114915760405162461bcd60e51b815260040161064291906129d0565b50506045805460ff19166001179055565b6000670de0b6b3a764000060346000015460475461118b9190612bfe565b6001806114cb611985565b60028111156114dc576114dc6128be565b146040518060400160405280600b81526020016a57524f4e475f535441544560a81b8152509061151f5760405162461bcd60e51b815260040161064291906129d0565b506115286124fe565b603360009054906101000a90046001600160a01b03166001600160a01b03166316f0115b6040518163ffffffff1660e01b8152600401602060405180830381865afa15801561157b573d6000803e3d6000fd5b505050506040513d601f19601f8201168201806040525081019061159f919061296d565b6001600160a01b0316635c975abb6040518163ffffffff1660e01b8152600401602060405180830381865afa1580156115dc573d6000803e3d6000fd5b505050506040513d601f19601f82011682018060405250810190611600919061298a565b156040518060400160405280600e81526020016d14d154959250d157d4105554d15160921b815250906116465760405162461bcd60e51b815260040161064291906129d0565b503360009081526043602090815260409182902054825180840190935260158352745a45524f5f50555243484153455f414d4f554e547360581b918301919091526116a45760405162461bcd60e51b815260040161064291906129d0565b50336000908152604660205260408120548015611776573360009081526046602090815260408083208390556043909152812080548392906116e7908490612dc6565b9250508190555080604760008282546117009190612dc6565b9091555061171090508183612db3565b603354604051632770a7eb60e21b81529193506001600160a01b031690639dc29fac906117439030908590600401612dd9565b600060405180830381600087803b15801561175d57600080fd5b505af1158015611771573d6000803e3d6000fd5b505050505b6033546040516370a0823160e01b81523360048201526000916117fe916001600160a01b03909116906370a0823190602401602060405180830381865afa1580156117c5573d6000803e3d6000fd5b505050506040513d601f19601f820116820180604052508101906117e99190612a03565b336000908152604360205260409020546124e6565b9050801561189b573360009081526043602052604081208054839290611825908490612dc6565b9091555061183590508184612db3565b603354604051632770a7eb60e21b81529194506001600160a01b031690639dc29fac906118689033908590600401612dd9565b600060405180830381600087803b15801561188257600080fd5b505af1158015611896573d6000803e3d6000fd5b505050505b6040805180820190915260118152704e4f5448494e475f544f5f52454445454d60781b6020820152836118e15760405162461bcd60e51b815260040161064291906129d0565b50603454600090670de0b6b3a7640000906118fc9086612bfe565b6119069190612df2565b603e549091506001600160a01b0316611928576119233382612377565b61193f565b603e5461193f906001600160a01b03163383612490565b7f4896181ff8f4543cc00db9fe9b6fb7e6f032b7eb772c72ab1ec1b4d2e03b93693382604051611970929190612dd9565b60405180910390a150505050610e9260018055565b60006034600101546044540361199b5750600290565b603c546042546119ab9190612db3565b4310156119b85750600090565b603360009054906101000a90046001600160a01b03166001600160a01b0316620a04ae6040518163ffffffff1660e01b8152600401600060405180830381865afa158015611a0a573d6000803e3d6000fd5b505050506040513d6000823e601f3d908101601f19168201604052611a329190810190612e14565b600081518110611a4457611a44612d84565b60200260200101516001600160a01b0316306001600160a01b031614158015611a6f57506000604454115b15611a7a5750600290565b60365460445410801590611a9057506000604454115b15611a9b5750600290565b50600190565b604554600090610100900460ff168015610b9e5750603f54604254611ac69190612db3565b431015905090565b60606034600901805480602002602001604051908101604052809291908181526020018280548015611b2957602002820191906000526020600020905b81546001600160a01b03168152600190910190602001808311611b0b575b5050505050905090565b603d541580611b5157503360009081526041602052604090205460ff165b6040518060400160405280600f81526020016e1393d517d5d2125511531254d51151608a1b81525090611b975760405162461bcd60e51b815260040161064291906129d0565b50600080611ba3611985565b6002811115611bb457611bb46128be565b146040518060400160405280600b81526020016a57524f4e475f535441544560a81b81525090611bf75760405162461bcd60e51b815260040161064291906129d0565b50611c006124fe565b603360009054906101000a90046001600160a01b03166001600160a01b03166316f0115b6040518163ffffffff1660e01b8152600401602060405180830381865afa158015611c53573d6000803e3d6000fd5b505050506040513d601f19601f82011682018060405250810190611c77919061296d565b6001600160a01b0316635c975abb6040518163ffffffff1660e01b8152600401602060405180830381865afa158015611cb4573d6000803e3d6000fd5b505050506040513d601f19601f82011682018060405250810190611cd8919061298a565b156040518060400160405280600e81526020016d14d154959250d157d4105554d15160921b81525090611d1e5760405162461bcd60e51b815260040161064291906129d0565b50603e546001600160a01b031680611da557603454670de0b6b3a764000090611d479085612bfe565b611d519190612df2565b34101560405180604001604052806014815260200173125390d3d4949150d517d1551217d41054d4d15160621b81525090611d9f5760405162461bcd60e51b815260040161064291906129d0565b50611de0565b611de03330670de0b6b3a764000060346000015487611dc49190612bfe565b611dce9190612df2565b6001600160a01b03851692919061255d565b6037546040805180820190915260168152754d494e5f50555243484153455f554e444552464c4f5760501b602082015290841015611e315760405162461bcd60e51b815260040161064291906129d0565b50611e3b33610e95565b831115604051806040016040528060158152602001744d41585f50555243484153455f4f564552464c4f5760581b81525090611e8a5760405162461bcd60e51b815260040161064291906129d0565b508260446000828254611e9d9190612db3565b90915550503360009081526043602052604081208054859290611ec1908490612db3565b9091555060009050620f4240611ed8600182612dc6565b603954611ee59087612bfe565b611eef9190612db3565b611ef99190612df2565b6033549091506001600160a01b03166000611f148387612dc6565b1115611f84576001600160a01b0381166340c10f1933611f348589612dc6565b6040518363ffffffff1660e01b8152600401611f51929190612dd9565b600060405180830381600087803b158015611f6b57600080fd5b505af1158015611f7f573d6000803e3d6000fd5b505050505b6040516340c10f1960e01b81526001600160a01b038216906340c10f1990611fb29030908690600401612dd9565b600060405180830381600087803b158015611fcc57600080fd5b505af1158015611fe0573d6000803e3d6000fd5b50503360009081526046602052604081208054869450909250612004908490612db3565b92505081905550816047600082825461201d9190612db3565b90915550506040517fa512fb2532ca8587f236380171326ebb69670e86a2ba0c4412a3fcca4c3ada9b906120549033908890612dd9565b60405180910390a150505061206860018055565b5050565b600054610100900460ff166120935760405162461bcd60e51b815260040161064290612ed9565b61209b61259b565b565b60485460ff16156120aa57565b6033546001600160a01b03166002816001600160a01b03166330fa738c6040518163ffffffff1660e01b8152600401602060405180830381865afa1580156120f6573d6000803e3d6000fd5b505050506040513d601f19601f8201168201806040525081019061211a9190612f24565b600281111561212b5761212b6128be565b036121335750565b6000816001600160a01b031663d598d4c96040518163ffffffff1660e01b8152600401602060405180830381865afa158015612173573d6000803e3d6000fd5b505050506040513d601f19601f82011682018060405250810190612197919061296d565b6001600160a01b0316639d838ad36044546040518263ffffffff1660e01b81526004016121c691815260200190565b602060405180830381865afa1580156121e3573d6000803e3d6000fd5b505050506040513d601f19601f820116820180604052508101906122079190612a03565b6048805460ff191660011790556040805163d598d4c960e01b815290519192506001600160a01b038416916340c10f1991839163d598d4c9916004808201926020929091908290030181865afa158015612265573d6000803e3d6000fd5b505050506040513d601f19601f82011682018060405250810190612289919061296d565b6001600160a01b031663803db96d6040518163ffffffff1660e01b8152600401602060405180830381865afa1580156122c6573d6000803e3d6000fd5b505050506040513d601f19601f820116820180604052508101906122ea919061296d565b836040518363ffffffff1660e01b8152600401612308929190612dd9565b600060405180830381600087803b15801561232257600080fd5b505af1158015612336573d6000803e3d6000fd5b505050507f261ee2056de47cac1d419457dbe29f4c1990ecb02a836ab87921fc97df8544f4828260405161236b929190612dd9565b60405180910390a15050565b804710156123c75760405162461bcd60e51b815260206004820152601d60248201527f416464726573733a20696e73756666696369656e742062616c616e63650000006044820152606401610642565b6000826001600160a01b03168260405160006040518083038185875af1925050503d8060008114612414576040519150601f19603f3d011682016040523d82523d6000602084013e612419565b606091505b5050905080610b505760405162461bcd60e51b815260206004820152603a60248201527f416464726573733a20756e61626c6520746f2073656e642076616c75652c207260448201527f6563697069656e74206d617920686176652072657665727465640000000000006064820152608401610642565b610b508363a9059cbb60e01b84846040516024016124af929190612dd9565b60408051601f198184030181529190526020810180516001600160e01b03166001600160e01b0319909316929092179091526125c2565b60008183106124f557816124f7565b825b9392505050565b6002600154036125505760405162461bcd60e51b815260206004820152601f60248201527f5265656e7472616e637947756172643a207265656e7472616e742063616c6c006044820152606401610642565b6002600155565b60018055565b6040516001600160a01b03808516602483015283166044820152606481018290526125959085906323b872dd60e01b906084016124af565b50505050565b600054610100900460ff166125575760405162461bcd60e51b815260040161064290612ed9565b6000612617826040518060400160405280602081526020017f5361666545524332303a206c6f772d6c6576656c2063616c6c206661696c6564815250856001600160a01b03166126949092919063ffffffff16565b805190915015610b505780806020019051810190612635919061298a565b610b505760405162461bcd60e51b815260206004820152602a60248201527f5361666545524332303a204552433230206f7065726174696f6e20646964206e6044820152691bdd081cdd58d8d9595960b21b6064820152608401610642565b60606126a384846000856126ab565b949350505050565b60608247101561270c5760405162461bcd60e51b815260206004820152602660248201527f416464726573733a20696e73756666696369656e742062616c616e636520666f6044820152651c8818d85b1b60d21b6064820152608401610642565b600080866001600160a01b031685876040516127289190612f45565b60006040518083038185875af1925050503d8060008114612765576040519150601f19603f3d011682016040523d82523d6000602084013e61276a565b606091505b509150915061277b87838387612786565b979650505050505050565b606083156127f55782516000036127ee576001600160a01b0385163b6127ee5760405162461bcd60e51b815260206004820152601d60248201527f416464726573733a2063616c6c20746f206e6f6e2d636f6e74726163740000006044820152606401610642565b50816126a3565b6126a3838381511561280a5781518083602001fd5b8060405162461bcd60e51b815260040161064291906129d0565b6001600160a01b0381168114610e9257600080fd5b803561284481612824565b919050565b60006020828403121561285b57600080fd5b81356124f781612824565b6000806040838503121561287957600080fd5b823561288481612824565b9150602083013567ffffffffffffffff8111156128a057600080fd5b83016101a081860312156128b357600080fd5b809150509250929050565b634e487b7160e01b600052602160045260246000fd5b60208101600383106128f657634e487b7160e01b600052602160045260246000fd5b91905290565b6020808252825182820181905260009190848201906040850190845b8181101561293d5783516001600160a01b031683529284019291840191600101612918565b50909695505050505050565b60006020828403121561295b57600080fd5b5035919050565b805161284481612824565b60006020828403121561297f57600080fd5b81516124f781612824565b60006020828403121561299c57600080fd5b815180151581146124f757600080fd5b60005b838110156129c75781810151838201526020016129af565b50506000910152565b60208152600082518060208401526129ef8160408501602087016129ac565b601f01601f19169190910160400192915050565b600060208284031215612a1557600080fd5b5051919050565b6000808335601e19843603018112612a3357600080fd5b830160208101925035905067ffffffffffffffff811115612a5357600080fd5b8060051b3603821315612a6557600080fd5b9250929050565b8183526000602080850194508260005b85811015612aaa578135612a8f81612824565b6001600160a01b031687529582019590820190600101612a7c565b509495945050505050565b606081528335606082015260208401356080820152604084013560a0820152606084013560c0820152608084013560e0820152600061010060a08601358184015261012060c08701358185015261014060e0880135818601526101608389013581870152612b25838a018a612a1c565b945092506101a06101808181890152612b4361020089018787612a6c565b9550612b50848c01612839565b6001600160a01b038116898401529450918a01356101c088015250909701356101e08501525060208301949094525060400152919050565b6000808335601e19843603018112612b9f57600080fd5b83018035915067ffffffffffffffff821115612bba57600080fd5b6020019150600581901b3603821315612a6557600080fd5b634e487b7160e01b600052604160045260246000fd5b634e487b7160e01b600052601160045260246000fd5b8082028115828204841417610ed357610ed3612be8565b60008135610ed381612824565b67ffffffffffffffff831115612c3a57612c3a612bd2565b68010000000000000000831115612c5357612c53612bd2565b805483825580841015612c8a576000828152602081208581019083015b80821015612c8657828255600182019150612c70565b5050505b5060008181526020812083915b85811015612cbb57612ca883612c15565b8282015560209290920191600101612c97565b505050505050565b813581556020820135600182015560408201356002820155606082013560038201556080820135600482015560a0820135600582015560c0820135600682015560e082013560078201556101008201356008820155612d26610120830183612b88565b612d34818360098601612c22565b5050612d6a612d466101408401612c15565b600a830180546001600160a01b0319166001600160a01b0392909216919091179055565b610160820135600b820155610180820135600c8201555050565b634e487b7160e01b600052603260045260246000fd5b600060018201612dac57612dac612be8565b5060010190565b80820180821115610ed357610ed3612be8565b81810381811115610ed357610ed3612be8565b6001600160a01b03929092168252602082015260400190565b600082612e0f57634e487b7160e01b600052601260045260246000fd5b500490565b60006020808385031215612e2757600080fd5b825167ffffffffffffffff80821115612e3f57600080fd5b818501915085601f830112612e5357600080fd5b815181811115612e6557612e65612bd2565b8060051b604051601f19603f83011681018181108582111715612e8a57612e8a612bd2565b604052918252848201925083810185019188831115612ea857600080fd5b938501935b82851015612ecd57612ebe85612962565b84529385019392850192612ead565b98975050505050505050565b6020808252602b908201527f496e697469616c697a61626c653a20636f6e7472616374206973206e6f74206960408201526a6e697469616c697a696e6760a81b606082015260800190565b600060208284031215612f3657600080fd5b8151600381106124f757600080fd5b60008251612f578184602087016129ac565b919091019291505056fea2646970667358221220a215df993e04a3537ef37be0606d8dbe26915c50a7723cd27a52197beb33ff7564736f6c63430008110033",
  "devdoc": {
    "events": {
      "Claimed(address,uint256)": {
        "details": "Event emitted on token claim.",
        "params": {
          "account": "Claimer address",
          "amount": "Amount of claimed tokens"
        }
      },
      "FundsTransferred(uint256)": {
        "details": "Event emitted on transfer funds to pool.",
        "params": {
          "amount": "Amount of transferred tokens/ETH"
        }
      },
      "ProtocolTokenFeeClaimed(address,uint256)": {
        "details": "Event emitted on claim of protocol token fee.",
        "params": {
          "token": "token",
          "tokenFee": "amount of tokens"
        }
      },
      "Purchased(address,uint256)": {
        "details": "Event emitted on token purchase.",
        "params": {
          "amount": "amount of tokens",
          "buyer": "buyer"
        }
      },
      "Redeemed(address,uint256)": {
        "details": "Event emitted on token claim.",
        "params": {
          "account": "Redeemer address",
          "refundValue": "Refund value"
        }
      }
    },
    "kind": "dev",
    "methods": {
      "claim()": {
        "details": "Claim vested tokens"
      },
      "claimAvailable()": {
        "details": "Is claim available for vested tokens.",
        "returns": {
          "_0": "Is claim available"
        }
      },
      "constructor": {
        "custom:oz-upgrades-unsafe-allow": "constructor"
      },
      "getTotalPurchasedValue()": {
        "details": "Get total value of all purchased tokens",
        "returns": {
          "_0": "Total value"
        }
      },
      "getTotalVestedValue()": {
        "details": "Get total value of all vestied tokens",
        "returns": {
          "_0": "Total value"
        }
      },
      "getUserWhitelist()": {
        "details": "Get userwhitelist info",
        "returns": {
          "_0": "User whitelist"
        }
      },
      "initialize(address,(uint256,uint256,uint256,uint256,uint256,uint256,uint256,uint256,uint256,address[],address,uint256,uint256))": {
        "details": "Constructor function, can only be called once",
        "params": {
          "_info": "TGE parameters",
          "_token": "pool's token"
        }
      },
      "lockedBalanceOf(address)": {
        "details": "Locked balance of account in current TGE",
        "params": {
          "account": "Account address"
        },
        "returns": {
          "_0": "Locked balance"
        }
      },
      "maxPurchaseOf(address)": {
        "details": "How many tokens an address can purchase.",
        "returns": {
          "_0": "Amount of tokens"
        }
      },
      "purchase(uint256)": {
        "details": "Purchase pool's tokens during TGE",
        "params": {
          "amount": "amount of tokens in wei (10**18 = 1 token)"
        }
      },
      "redeem()": {
        "details": "Return purchased tokens and get back tokens paid"
      },
      "state()": {
        "details": "Returns TGE's state.",
        "returns": {
          "_0": "State"
        }
      },
      "transferFunds()": {
        "details": "Transfer proceeds from TGE to pool's treasury. Claim protocol fee."
      },
      "transferUnlocked()": {
        "details": "Is transfer available for lockup preference tokens.",
        "returns": {
          "_0": "Is transfer available"
        }
      }
    },
    "stateVariables": {
      "createdAt": {
        "details": "Block of TGE's creation"
      },
      "info": {
        "details": "TGE info struct"
      },
      "isProtocolTokenFeeClaimed": {
        "details": "Protocol token fee is a percentage of tokens sold during TGE. Returns true if fee was claimed by the governing DAO."
      },
      "isUserWhitelisted": {
        "details": "Mapping of user's address to whitelist status"
      },
      "lockupTVLReached": {
        "details": "Is lockup TVL reached. Users can claim their tokens only if lockup TVL was reached."
      },
      "purchaseOf": {
        "details": "Mapping of an address to total amount of tokens purchased during TGE"
      },
      "token": {
        "details": "Pool's ERC20 token"
      },
      "totalPurchased": {
        "details": "Total amount of tokens purchased during TGE"
      },
      "totalVested": {
        "details": "Total amount of tokens vested"
      },
      "vestedBalanceOf": {
        "details": "Mapping of addresses to total amounts of tokens vested"
      },
      "vestingTVLReached": {
        "details": "Is vesting TVL reached. Users can claim their tokens only if vesting TVL was reached."
      }
    },
    "title": "Token Generation Event",
    "version": 1
  },
  "userdoc": {
    "kind": "user",
    "methods": {},
    "version": 1
  },
  "storageLayout": {
    "storage": [
      {
        "astId": 182,
        "contract": "contracts/TGE.sol:TGE",
        "label": "_initialized",
        "offset": 0,
        "slot": "0",
        "type": "t_uint8"
      },
      {
        "astId": 185,
        "contract": "contracts/TGE.sol:TGE",
        "label": "_initializing",
        "offset": 1,
        "slot": "0",
        "type": "t_bool"
      },
      {
        "astId": 358,
        "contract": "contracts/TGE.sol:TGE",
        "label": "_status",
        "offset": 0,
        "slot": "1",
        "type": "t_uint256"
      },
      {
        "astId": 416,
        "contract": "contracts/TGE.sol:TGE",
        "label": "__gap",
        "offset": 0,
        "slot": "2",
        "type": "t_array(t_uint256)49_storage"
      },
      {
        "astId": 1999,
        "contract": "contracts/TGE.sol:TGE",
        "label": "token",
        "offset": 0,
        "slot": "51",
        "type": "t_contract(IToken)3369"
      },
      {
        "astId": 2003,
        "contract": "contracts/TGE.sol:TGE",
        "label": "info",
        "offset": 0,
        "slot": "52",
        "type": "t_struct(TGEInfo)3201_storage"
      },
      {
        "astId": 2008,
        "contract": "contracts/TGE.sol:TGE",
        "label": "isUserWhitelisted",
        "offset": 0,
        "slot": "65",
        "type": "t_mapping(t_address,t_bool)"
      },
      {
        "astId": 2011,
        "contract": "contracts/TGE.sol:TGE",
        "label": "createdAt",
        "offset": 0,
        "slot": "66",
        "type": "t_uint256"
      },
      {
        "astId": 2016,
        "contract": "contracts/TGE.sol:TGE",
        "label": "purchaseOf",
        "offset": 0,
        "slot": "67",
        "type": "t_mapping(t_address,t_uint256)"
      },
      {
        "astId": 2019,
        "contract": "contracts/TGE.sol:TGE",
        "label": "totalPurchased",
        "offset": 0,
        "slot": "68",
        "type": "t_uint256"
      },
      {
        "astId": 2022,
        "contract": "contracts/TGE.sol:TGE",
        "label": "vestingTVLReached",
        "offset": 0,
        "slot": "69",
        "type": "t_bool"
      },
      {
        "astId": 2025,
        "contract": "contracts/TGE.sol:TGE",
        "label": "lockupTVLReached",
        "offset": 1,
        "slot": "69",
        "type": "t_bool"
      },
      {
        "astId": 2030,
        "contract": "contracts/TGE.sol:TGE",
        "label": "vestedBalanceOf",
        "offset": 0,
        "slot": "70",
        "type": "t_mapping(t_address,t_uint256)"
      },
      {
        "astId": 2033,
        "contract": "contracts/TGE.sol:TGE",
        "label": "totalVested",
        "offset": 0,
        "slot": "71",
        "type": "t_uint256"
      },
      {
        "astId": 2036,
        "contract": "contracts/TGE.sol:TGE",
        "label": "isProtocolTokenFeeClaimed",
        "offset": 0,
        "slot": "72",
        "type": "t_bool"
      }
    ],
    "types": {
      "t_address": {
        "encoding": "inplace",
        "label": "address",
        "numberOfBytes": "20"
      },
      "t_array(t_address)dyn_storage": {
        "base": "t_address",
        "encoding": "dynamic_array",
        "label": "address[]",
        "numberOfBytes": "32"
      },
      "t_array(t_uint256)49_storage": {
        "base": "t_uint256",
        "encoding": "inplace",
        "label": "uint256[49]",
        "numberOfBytes": "1568"
      },
      "t_bool": {
        "encoding": "inplace",
        "label": "bool",
        "numberOfBytes": "1"
      },
      "t_contract(IToken)3369": {
        "encoding": "inplace",
        "label": "contract IToken",
        "numberOfBytes": "20"
      },
      "t_mapping(t_address,t_bool)": {
        "encoding": "mapping",
        "key": "t_address",
        "label": "mapping(address => bool)",
        "numberOfBytes": "32",
        "value": "t_bool"
      },
      "t_mapping(t_address,t_uint256)": {
        "encoding": "mapping",
        "key": "t_address",
        "label": "mapping(address => uint256)",
        "numberOfBytes": "32",
        "value": "t_uint256"
      },
      "t_struct(TGEInfo)3201_storage": {
        "encoding": "inplace",
        "label": "struct ITGE.TGEInfo",
        "members": [
          {
            "astId": 3175,
            "contract": "contracts/TGE.sol:TGE",
            "label": "price",
            "offset": 0,
            "slot": "0",
            "type": "t_uint256"
          },
          {
            "astId": 3177,
            "contract": "contracts/TGE.sol:TGE",
            "label": "hardcap",
            "offset": 0,
            "slot": "1",
            "type": "t_uint256"
          },
          {
            "astId": 3179,
            "contract": "contracts/TGE.sol:TGE",
            "label": "softcap",
            "offset": 0,
            "slot": "2",
            "type": "t_uint256"
          },
          {
            "astId": 3181,
            "contract": "contracts/TGE.sol:TGE",
            "label": "minPurchase",
            "offset": 0,
            "slot": "3",
            "type": "t_uint256"
          },
          {
            "astId": 3183,
            "contract": "contracts/TGE.sol:TGE",
            "label": "maxPurchase",
            "offset": 0,
            "slot": "4",
            "type": "t_uint256"
          },
          {
            "astId": 3185,
            "contract": "contracts/TGE.sol:TGE",
            "label": "vestingPercent",
            "offset": 0,
            "slot": "5",
            "type": "t_uint256"
          },
          {
            "astId": 3187,
            "contract": "contracts/TGE.sol:TGE",
            "label": "vestingDuration",
            "offset": 0,
            "slot": "6",
            "type": "t_uint256"
          },
          {
            "astId": 3189,
            "contract": "contracts/TGE.sol:TGE",
            "label": "vestingTVL",
            "offset": 0,
            "slot": "7",
            "type": "t_uint256"
          },
          {
            "astId": 3191,
            "contract": "contracts/TGE.sol:TGE",
            "label": "duration",
            "offset": 0,
            "slot": "8",
            "type": "t_uint256"
          },
          {
            "astId": 3194,
            "contract": "contracts/TGE.sol:TGE",
            "label": "userWhitelist",
            "offset": 0,
            "slot": "9",
            "type": "t_array(t_address)dyn_storage"
          },
          {
            "astId": 3196,
            "contract": "contracts/TGE.sol:TGE",
            "label": "unitOfAccount",
            "offset": 0,
            "slot": "10",
            "type": "t_address"
          },
          {
            "astId": 3198,
            "contract": "contracts/TGE.sol:TGE",
            "label": "lockupDuration",
            "offset": 0,
            "slot": "11",
            "type": "t_uint256"
          },
          {
            "astId": 3200,
            "contract": "contracts/TGE.sol:TGE",
            "label": "lockupTVL",
            "offset": 0,
            "slot": "12",
            "type": "t_uint256"
          }
        ],
        "numberOfBytes": "416"
      },
      "t_uint256": {
        "encoding": "inplace",
        "label": "uint256",
        "numberOfBytes": "32"
      },
      "t_uint8": {
        "encoding": "inplace",
        "label": "uint8",
        "numberOfBytes": "1"
      }
    }
  }
}