{
  "address": "0xAB5FeeA56Fd9F0134533C96a95617862fce1e9e7",
  "abi": [
    {
      "inputs": [],
      "stateMutability": "nonpayable",
      "type": "constructor"
    },
    {
      "anonymous": false,
      "inputs": [
        {
          "indexed": true,
          "internalType": "address",
          "name": "owner",
          "type": "address"
        },
        {
          "indexed": true,
          "internalType": "address",
          "name": "spender",
          "type": "address"
        },
        {
          "indexed": false,
          "internalType": "uint256",
          "name": "value",
          "type": "uint256"
        }
      ],
      "name": "Approval",
      "type": "event"
    },
    {
      "anonymous": false,
      "inputs": [
        {
          "indexed": true,
          "internalType": "address",
          "name": "delegator",
          "type": "address"
        },
        {
          "indexed": true,
          "internalType": "address",
          "name": "fromDelegate",
          "type": "address"
        },
        {
          "indexed": true,
          "internalType": "address",
          "name": "toDelegate",
          "type": "address"
        }
      ],
      "name": "DelegateChanged",
      "type": "event"
    },
    {
      "anonymous": false,
      "inputs": [
        {
          "indexed": true,
          "internalType": "address",
          "name": "delegate",
          "type": "address"
        },
        {
          "indexed": false,
          "internalType": "uint256",
          "name": "previousBalance",
          "type": "uint256"
        },
        {
          "indexed": false,
          "internalType": "uint256",
          "name": "newBalance",
          "type": "uint256"
        }
      ],
      "name": "DelegateVotesChanged",
      "type": "event"
    },
    {
      "anonymous": false,
      "inputs": [
        {
          "indexed": false,
          "internalType": "uint8",
          "name": "version",
          "type": "uint8"
        }
      ],
      "name": "Initialized",
      "type": "event"
    },
    {
      "anonymous": false,
      "inputs": [
        {
          "indexed": true,
          "internalType": "address",
          "name": "from",
          "type": "address"
        },
        {
          "indexed": true,
          "internalType": "address",
          "name": "to",
          "type": "address"
        },
        {
          "indexed": false,
          "internalType": "uint256",
          "name": "value",
          "type": "uint256"
        }
      ],
      "name": "Transfer",
      "type": "event"
    },
    {
      "inputs": [],
      "name": "DOMAIN_SEPARATOR",
      "outputs": [
        {
          "internalType": "bytes32",
          "name": "",
          "type": "bytes32"
        }
      ],
      "stateMutability": "view",
      "type": "function"
    },
    {
      "inputs": [
        {
          "internalType": "address",
          "name": "tge",
          "type": "address"
        }
      ],
      "name": "addTGE",
      "outputs": [],
      "stateMutability": "nonpayable",
      "type": "function"
    },
    {
      "inputs": [
        {
          "internalType": "address",
          "name": "owner",
          "type": "address"
        },
        {
          "internalType": "address",
          "name": "spender",
          "type": "address"
        }
      ],
      "name": "allowance",
      "outputs": [
        {
          "internalType": "uint256",
          "name": "",
          "type": "uint256"
        }
      ],
      "stateMutability": "view",
      "type": "function"
    },
    {
      "inputs": [
        {
          "internalType": "address",
          "name": "spender",
          "type": "address"
        },
        {
          "internalType": "uint256",
          "name": "amount",
          "type": "uint256"
        }
      ],
      "name": "approve",
      "outputs": [
        {
          "internalType": "bool",
          "name": "",
          "type": "bool"
        }
      ],
      "stateMutability": "nonpayable",
      "type": "function"
    },
    {
      "inputs": [
        {
          "internalType": "address",
          "name": "account",
          "type": "address"
        }
      ],
      "name": "balanceOf",
      "outputs": [
        {
          "internalType": "uint256",
          "name": "",
          "type": "uint256"
        }
      ],
      "stateMutability": "view",
      "type": "function"
    },
    {
      "inputs": [
        {
          "internalType": "address",
          "name": "from",
          "type": "address"
        },
        {
          "internalType": "uint256",
          "name": "amount",
          "type": "uint256"
        }
      ],
      "name": "burn",
      "outputs": [],
      "stateMutability": "nonpayable",
      "type": "function"
    },
    {
      "inputs": [],
      "name": "cap",
      "outputs": [
        {
          "internalType": "uint256",
          "name": "",
          "type": "uint256"
        }
      ],
      "stateMutability": "view",
      "type": "function"
    },
    {
      "inputs": [
        {
          "internalType": "address",
          "name": "account",
          "type": "address"
        },
        {
          "internalType": "uint32",
          "name": "pos",
          "type": "uint32"
        }
      ],
      "name": "checkpoints",
      "outputs": [
        {
          "components": [
            {
              "internalType": "uint32",
              "name": "fromBlock",
              "type": "uint32"
            },
            {
              "internalType": "uint224",
              "name": "votes",
              "type": "uint224"
            }
          ],
          "internalType": "struct ERC20VotesUpgradeable.Checkpoint",
          "name": "",
          "type": "tuple"
        }
      ],
      "stateMutability": "view",
      "type": "function"
    },
    {
      "inputs": [],
      "name": "decimals",
      "outputs": [
        {
          "internalType": "uint8",
          "name": "",
          "type": "uint8"
        }
      ],
      "stateMutability": "view",
      "type": "function"
    },
    {
      "inputs": [
        {
          "internalType": "address",
          "name": "spender",
          "type": "address"
        },
        {
          "internalType": "uint256",
          "name": "subtractedValue",
          "type": "uint256"
        }
      ],
      "name": "decreaseAllowance",
      "outputs": [
        {
          "internalType": "bool",
          "name": "",
          "type": "bool"
        }
      ],
      "stateMutability": "nonpayable",
      "type": "function"
    },
    {
      "inputs": [
        {
          "internalType": "address",
          "name": "delegatee",
          "type": "address"
        }
      ],
      "name": "delegate",
      "outputs": [],
      "stateMutability": "nonpayable",
      "type": "function"
    },
    {
      "inputs": [
        {
          "internalType": "address",
          "name": "delegatee",
          "type": "address"
        },
        {
          "internalType": "uint256",
          "name": "nonce",
          "type": "uint256"
        },
        {
          "internalType": "uint256",
          "name": "expiry",
          "type": "uint256"
        },
        {
          "internalType": "uint8",
          "name": "v",
          "type": "uint8"
        },
        {
          "internalType": "bytes32",
          "name": "r",
          "type": "bytes32"
        },
        {
          "internalType": "bytes32",
          "name": "s",
          "type": "bytes32"
        }
      ],
      "name": "delegateBySig",
      "outputs": [],
      "stateMutability": "nonpayable",
      "type": "function"
    },
    {
      "inputs": [
        {
          "internalType": "address",
          "name": "account",
          "type": "address"
        }
      ],
      "name": "delegates",
      "outputs": [
        {
          "internalType": "address",
          "name": "",
          "type": "address"
        }
      ],
      "stateMutability": "view",
      "type": "function"
    },
    {
      "inputs": [],
      "name": "description",
      "outputs": [
        {
          "internalType": "string",
          "name": "",
          "type": "string"
        }
      ],
      "stateMutability": "view",
      "type": "function"
    },
    {
      "inputs": [
        {
          "internalType": "uint256",
          "name": "blockNumber",
          "type": "uint256"
        }
      ],
      "name": "getPastTotalSupply",
      "outputs": [
        {
          "internalType": "uint256",
          "name": "",
          "type": "uint256"
        }
      ],
      "stateMutability": "view",
      "type": "function"
    },
    {
      "inputs": [
        {
          "internalType": "address",
          "name": "account",
          "type": "address"
        },
        {
          "internalType": "uint256",
          "name": "blockNumber",
          "type": "uint256"
        }
      ],
      "name": "getPastVotes",
      "outputs": [
        {
          "internalType": "uint256",
          "name": "",
          "type": "uint256"
        }
      ],
      "stateMutability": "view",
      "type": "function"
    },
    {
      "inputs": [],
      "name": "getTGEList",
      "outputs": [
        {
          "internalType": "address[]",
          "name": "",
          "type": "address[]"
        }
      ],
      "stateMutability": "view",
      "type": "function"
    },
    {
      "inputs": [],
      "name": "getTotalTGEVestedTokens",
      "outputs": [
        {
          "internalType": "uint256",
          "name": "",
          "type": "uint256"
        }
      ],
      "stateMutability": "view",
      "type": "function"
    },
    {
      "inputs": [
        {
          "internalType": "address",
          "name": "account",
          "type": "address"
        }
      ],
      "name": "getVotes",
      "outputs": [
        {
          "internalType": "uint256",
          "name": "",
          "type": "uint256"
        }
      ],
      "stateMutability": "view",
      "type": "function"
    },
    {
      "inputs": [
        {
          "internalType": "address",
          "name": "spender",
          "type": "address"
        },
        {
          "internalType": "uint256",
          "name": "addedValue",
          "type": "uint256"
        }
      ],
      "name": "increaseAllowance",
      "outputs": [
        {
          "internalType": "bool",
          "name": "",
          "type": "bool"
        }
      ],
      "stateMutability": "nonpayable",
      "type": "function"
    },
    {
      "inputs": [
        {
          "internalType": "address",
          "name": "pool_",
          "type": "address"
        },
        {
          "components": [
            {
              "internalType": "enum IToken.TokenType",
              "name": "tokenType",
              "type": "uint8"
            },
            {
              "internalType": "string",
              "name": "name",
              "type": "string"
            },
            {
              "internalType": "string",
              "name": "symbol",
              "type": "string"
            },
            {
              "internalType": "string",
              "name": "description",
              "type": "string"
            },
            {
              "internalType": "uint256",
              "name": "cap",
              "type": "uint256"
            },
            {
              "internalType": "uint8",
              "name": "decimals",
              "type": "uint8"
            }
          ],
          "internalType": "struct IToken.TokenInfo",
          "name": "info",
          "type": "tuple"
        },
        {
          "internalType": "address",
          "name": "primaryTGE_",
          "type": "address"
        }
      ],
      "name": "initialize",
      "outputs": [],
      "stateMutability": "nonpayable",
      "type": "function"
    },
    {
      "inputs": [],
      "name": "isPrimaryTGESuccessful",
      "outputs": [
        {
          "internalType": "bool",
          "name": "",
          "type": "bool"
        }
      ],
      "stateMutability": "view",
      "type": "function"
    },
    {
      "inputs": [],
      "name": "lastTGE",
      "outputs": [
        {
          "internalType": "address",
          "name": "",
          "type": "address"
        }
      ],
      "stateMutability": "view",
      "type": "function"
    },
    {
      "inputs": [
        {
          "internalType": "address",
          "name": "to",
          "type": "address"
        },
        {
          "internalType": "uint256",
          "name": "amount",
          "type": "uint256"
        }
      ],
      "name": "mint",
      "outputs": [],
      "stateMutability": "nonpayable",
      "type": "function"
    },
    {
      "inputs": [],
      "name": "name",
      "outputs": [
        {
          "internalType": "string",
          "name": "",
          "type": "string"
        }
      ],
      "stateMutability": "view",
      "type": "function"
    },
    {
      "inputs": [
        {
          "internalType": "address",
          "name": "owner",
          "type": "address"
        }
      ],
      "name": "nonces",
      "outputs": [
        {
          "internalType": "uint256",
          "name": "",
          "type": "uint256"
        }
      ],
      "stateMutability": "view",
      "type": "function"
    },
    {
      "inputs": [
        {
          "internalType": "address",
          "name": "account",
          "type": "address"
        }
      ],
      "name": "numCheckpoints",
      "outputs": [
        {
          "internalType": "uint32",
          "name": "",
          "type": "uint32"
        }
      ],
      "stateMutability": "view",
      "type": "function"
    },
    {
      "inputs": [
        {
          "internalType": "address",
          "name": "owner",
          "type": "address"
        },
        {
          "internalType": "address",
          "name": "spender",
          "type": "address"
        },
        {
          "internalType": "uint256",
          "name": "value",
          "type": "uint256"
        },
        {
          "internalType": "uint256",
          "name": "deadline",
          "type": "uint256"
        },
        {
          "internalType": "uint8",
          "name": "v",
          "type": "uint8"
        },
        {
          "internalType": "bytes32",
          "name": "r",
          "type": "bytes32"
        },
        {
          "internalType": "bytes32",
          "name": "s",
          "type": "bytes32"
        }
      ],
      "name": "permit",
      "outputs": [],
      "stateMutability": "nonpayable",
      "type": "function"
    },
    {
      "inputs": [],
      "name": "pool",
      "outputs": [
        {
          "internalType": "address",
          "name": "",
          "type": "address"
        }
      ],
      "stateMutability": "view",
      "type": "function"
    },
    {
      "inputs": [],
      "name": "service",
      "outputs": [
        {
          "internalType": "contract IService",
          "name": "",
          "type": "address"
        }
      ],
      "stateMutability": "view",
      "type": "function"
    },
    {
      "inputs": [],
      "name": "symbol",
      "outputs": [
        {
          "internalType": "string",
          "name": "",
          "type": "string"
        }
      ],
      "stateMutability": "view",
      "type": "function"
    },
    {
      "inputs": [
        {
          "internalType": "uint256",
          "name": "",
          "type": "uint256"
        }
      ],
      "name": "tgeList",
      "outputs": [
        {
          "internalType": "address",
          "name": "",
          "type": "address"
        }
      ],
      "stateMutability": "view",
      "type": "function"
    },
    {
      "inputs": [],
      "name": "tokenType",
      "outputs": [
        {
          "internalType": "enum IToken.TokenType",
          "name": "",
          "type": "uint8"
        }
      ],
      "stateMutability": "view",
      "type": "function"
    },
    {
      "inputs": [],
      "name": "totalSupply",
      "outputs": [
        {
          "internalType": "uint256",
          "name": "",
          "type": "uint256"
        }
      ],
      "stateMutability": "view",
      "type": "function"
    },
    {
      "inputs": [
        {
          "internalType": "address",
          "name": "to",
          "type": "address"
        },
        {
          "internalType": "uint256",
          "name": "amount",
          "type": "uint256"
        }
      ],
      "name": "transfer",
      "outputs": [
        {
          "internalType": "bool",
          "name": "",
          "type": "bool"
        }
      ],
      "stateMutability": "nonpayable",
      "type": "function"
    },
    {
      "inputs": [
        {
          "internalType": "address",
          "name": "from",
          "type": "address"
        },
        {
          "internalType": "address",
          "name": "to",
          "type": "address"
        },
        {
          "internalType": "uint256",
          "name": "amount",
          "type": "uint256"
        }
      ],
      "name": "transferFrom",
      "outputs": [
        {
          "internalType": "bool",
          "name": "",
          "type": "bool"
        }
      ],
      "stateMutability": "nonpayable",
      "type": "function"
    },
    {
      "inputs": [
        {
          "internalType": "address",
          "name": "account",
          "type": "address"
        }
      ],
      "name": "unlockedBalanceOf",
      "outputs": [
        {
          "internalType": "uint256",
          "name": "",
          "type": "uint256"
        }
      ],
      "stateMutability": "view",
      "type": "function"
    }
  ],
  "transactionHash": "0xe2e3f055ab9e8f7c1404642f99d9b209c9de3dda35c74bcf961545a2b0cad98d",
  "args": [],
  "numDeployments": 1,
  "solcInputHash": "c4e923031ca87de7b1fbd8c588105cbd",
  "bytecode": "0x60806040523480156200001157600080fd5b506200001c62000022565b620000e4565b600054610100900460ff16156200008f5760405162461bcd60e51b815260206004820152602760248201527f496e697469616c697a61626c653a20636f6e747261637420697320696e697469604482015266616c697a696e6760c81b606482015260840160405180910390fd5b60005460ff9081161015620000e2576000805460ff191660ff9081179091556040519081527f7f26b83ff96e1f2b6a682f133852f6798a09c465da95921460cefb38474024989060200160405180910390a15b565b6132f180620000f46000396000f3fe608060405234801561001057600080fd5b50600436106102265760003560e01c80636fcfff45116101305780639dc29fac116100b8578063d505accf1161007c578063d505accf146104c1578063d554934b146104d4578063d598d4c9146104dc578063dd62ed3e146104f0578063f1127ed81461050357600080fd5b80639dc29fac1461046d578063a457c2d714610480578063a9059cbb14610493578063c3cda520146104a6578063d04d79b5146104b957600080fd5b8063811d170f116100ff578063811d170f1461041957806384955c881461042c5780638e539e8c1461043f57806395d89b41146104525780639ab24eb01461045a57600080fd5b80636fcfff45146103ad57806370a08231146103d55780637284e416146103fe5780637ecebe001461040657600080fd5b80633644e515116101b357806340c10f191161018257806340c10f191461034c5780635046f8b814610361578063587cde1e146103745780635c138e7d146103875780635c19a95c1461039a57600080fd5b80633644e51514610316578063395093511461031e5780633a46b1a8146103315780633eac99981461034457600080fd5b806318160ddd116101fa57806318160ddd146102ad57806323b872dd146102bf57806330fa738c146102d2578063313ce567146102f4578063355274ea1461030e57600080fd5b80620a04ae1461022b57806306fdde0314610249578063095ea7b31461025e57806316f0115b14610281575b600080fd5b610233610540565b6040516102409190612a89565b60405180910390f35b6102516105a3565b6040516102409190612afa565b61027161026c366004612b52565b61062c565b6040519015158152602001610240565b61013254610295906001600160a01b031681565b6040516001600160a01b039091168152602001610240565b6035545b604051908152602001610240565b6102716102cd366004612b7e565b610646565b610132546102e790600160a01b900460ff1681565b6040516102409190612bd5565b6102fc61066a565b60405160ff9091168152602001610240565b6102b16106a3565b6102b16106b3565b61027161032c366004612b52565b6106bd565b6102b161033f366004612b52565b6106df565b61029561075f565b61035f61035a366004612b52565b61079e565b005b61035f61036f366004612bfd565b61091a565b610295610382366004612bfd565b6109bd565b61035f610395366004612d31565b6109db565b61035f6103a8366004612bfd565b610c66565b6103c06103bb366004612bfd565b610c73565b60405163ffffffff9091168152602001610240565b6102b16103e3366004612bfd565b6001600160a01b031660009081526033602052604090205490565b610251610c96565b6102b1610414366004612bfd565b610d25565b610295610427366004612e36565b610d43565b6102b161043a366004612bfd565b610d6e565b6102b161044d366004612e36565b610f45565b610251610fa2565b6102b1610468366004612bfd565b610fac565b61035f61047b366004612b52565b611035565b61027161048e366004612b52565b61123e565b6102716104a1366004612b52565b6112b9565b61035f6104b4366004612e4f565b6112c7565b6102716113fd565b61035f6104cf366004612ea9565b61149f565b6102b1611603565b61013154610295906001600160a01b031681565b6102b16104fe366004612f17565b611711565b610516610511366004612f50565b61173c565b60408051825163ffffffff1681526020928301516001600160e01b03169281019290925201610240565b606061013480548060200260200160405190810160405280929190818152602001828054801561059957602002820191906000526020600020905b81546001600160a01b0316815260019091019060200180831161057b575b5050505050905090565b6060603680546105b290612f87565b80601f01602080910402602001604051908101604052809291908181526020018280546105de90612f87565b80156105995780601f1061060057610100808354040283529160200191610599565b820191906000526020600020905b81548152906001019060200180831161060e57509395945050505050565b60003361063a8185856117c1565b60019150505b92915050565b6000336106548582856118e5565b61065f858585611959565b506001949350505050565b6000600161013254600160a01b900460ff16600281111561068d5761068d612bbf565b036106985750601290565b506101355460ff1690565b60006106ae60655490565b905090565b60006106ae611a80565b60003361063a8185856106d08383611711565b6106da9190612fd1565b6117c1565b60004382106107355760405162461bcd60e51b815260206004820152601f60248201527f4552433230566f7465733a20626c6f636b206e6f7420796574206d696e65640060448201526064015b60405180910390fd5b6001600160a01b0383166000908152610100602052604090206107589083611afb565b9392505050565b61013480546000919061077490600190612fe4565b8154811061078457610784612ff7565b6000918252602090912001546001600160a01b0316919050565b6101315460408051637b10399960e01b815290516004926001600160a01b031691637b103999918185019160209190819003860181865afa1580156107e7573d6000803e3d6000fd5b505050506040513d601f19601f8201168201806040525081019061080b919061300d565b604051630db9619f60e31b81523360048201526001600160a01b039190911690636dcb0cf890602401602060405180830381865afa158015610851573d6000803e3d6000fd5b505050506040513d601f19601f82011682018060405250810190610875919061302a565b600481111561088657610886612bbf565b14604051806040016040528060078152602001664e4f545f54474560c81b815250906108c55760405162461bcd60e51b815260040161072c9190612afa565b506001600160a01b0382166000908152603360205260409020541580156108fd575060006108f2836109bd565b6001600160a01b0316145b1561090c5761090c8283611bf2565b6109168282611c88565b5050565b6101315460408051808201909152600b81526a4e4f545f5345525649434560a81b6020820152906001600160a01b031633146109695760405162461bcd60e51b815260040161072c9190612afa565b5061013480546001810182556000919091527fe1c588fe1269da19c317f679b04e226f5e48296f9b2c8351127eb010907c472f0180546001600160a01b0319166001600160a01b0392909216919091179055565b6001600160a01b03908116600090815260ff60205260409020541690565b600054610100900460ff16158080156109fb5750600054600160ff909116105b80610a155750303b158015610a15575060005460ff166001145b610a785760405162461bcd60e51b815260206004820152602e60248201527f496e697469616c697a61626c653a20636f6e747261637420697320616c72656160448201526d191e481a5b9a5d1a585b1a5e995960921b606482015260840161072c565b6000805460ff191660011790558015610a9b576000805461ff0019166101001790555b610aa88360800151611c92565b600283516002811115610abd57610abd612bbf565b03610b0657610ad483602001518460400151611cc2565b606083015161013390610ae79082613099565b5060a0830151610135805460ff191660ff909216919091179055610b79565b610b79846001600160a01b031663165610766040518163ffffffff1660e01b8152600401600060405180830381865afa158015610b47573d6000803e3d6000fd5b505050506040513d6000823e601f3d908101601f19168201604052610b6f9190810190613159565b8460400151611cc2565b61013480546001810182556000919091527fe1c588fe1269da19c317f679b04e226f5e48296f9b2c8351127eb010907c472f0180546001600160a01b0319166001600160a01b0384161790558251610132805460ff60a01b1916600160a01b836002811115610bea57610bea612bbf565b02179055506101318054336001600160a01b03199182161790915561013280549091166001600160a01b0386161790558015610c60576000805461ff0019169055604051600181527f7f26b83ff96e1f2b6a682f133852f6798a09c465da95921460cefb38474024989060200160405180910390a15b50505050565b610c703382611bf2565b50565b6001600160a01b0381166000908152610100602052604081205461064090611cf3565b6101338054610ca490612f87565b80601f0160208091040260200160405190810160405280929190818152602001828054610cd090612f87565b8015610d1d5780601f10610cf257610100808354040283529160200191610d1d565b820191906000526020600020905b815481529060010190602001808311610d0057829003601f168201915b505050505081565b6001600160a01b038116600090815260cc6020526040812054610640565b6101348181548110610d5457600080fd5b6000918252602090912001546001600160a01b0316905081565b6001600160a01b0381166000908152603360205260408120546000610134805480602002602001604051908101604052809291908181526020018280548015610de057602002820191906000526020600020905b81546001600160a01b03168152600190910190602001808311610dc2575b505050505090506000805b8251811015610f31576001838281518110610e0857610e08612ff7565b60200260200101516001600160a01b031663c19d93fb6040518163ffffffff1660e01b8152600401602060405180830381865afa158015610e4d573d6000803e3d6000fd5b505050506040513d601f19601f82011682018060405250810190610e7191906131c7565b6002811115610e8257610e82612bbf565b14610f1f576101348181548110610e9b57610e9b612ff7565b600091825260209091200154604051632c9aab9b60e11b81526001600160a01b03888116600483015290911690635935573690602401602060405180830381865afa158015610eee573d6000803e3d6000fd5b505050506040513d601f19601f82011682018060405250810190610f1291906131e4565b610f1c9083612fd1565b91505b80610f29816131fd565b915050610deb565b50610f3c8184612fe4565b95945050505050565b6000438210610f965760405162461bcd60e51b815260206004820152601f60248201527f4552433230566f7465733a20626c6f636b206e6f7420796574206d696e656400604482015260640161072c565b61064061010183611afb565b60606106ae611d5c565b6001600160a01b038116600090815261010060205260408120548015611022576001600160a01b038316600090815261010060205260409020610ff0600183612fe4565b8154811061100057611000612ff7565b60009182526020909120015464010000000090046001600160e01b0316611025565b60005b6001600160e01b03169392505050565b61013260009054906101000a90046001600160a01b03166001600160a01b0316635c975abb6040518163ffffffff1660e01b8152600401602060405180830381865afa158015611089573d6000803e3d6000fd5b505050506040513d601f19601f820116820180604052508101906110ad9190613216565b156040518060400160405280600e81526020016d14d154959250d157d4105554d15160921b815250906110f35760405162461bcd60e51b815260040161072c9190612afa565b506101315460408051637b10399960e01b815290516004926001600160a01b031691637b103999918185019160209190819003860181865afa15801561113d573d6000803e3d6000fd5b505050506040513d601f19601f82011682018060405250810190611161919061300d565b604051630db9619f60e31b81523360048201526001600160a01b039190911690636dcb0cf890602401602060405180830381865afa1580156111a7573d6000803e3d6000fd5b505050506040513d601f19601f820116820180604052508101906111cb919061302a565b60048111156111dc576111dc612bbf565b14806111f05750336001600160a01b038316145b6040518060400160405280600c81526020016b24a72b20a624a22faaa9a2a960a11b815250906112335760405162461bcd60e51b815260040161072c9190612afa565b506109168282611d6b565b6000338161124c8286611711565b9050838110156112ac5760405162461bcd60e51b815260206004820152602560248201527f45524332303a2064656372656173656420616c6c6f77616e63652062656c6f77604482015264207a65726f60d81b606482015260840161072c565b61065f82868684036117c1565b60003361063a818585611959565b834211156113175760405162461bcd60e51b815260206004820152601d60248201527f4552433230566f7465733a207369676e61747572652065787069726564000000604482015260640161072c565b604080517fe48329057bfd03d55e49b547132e39cffd9c1820ad7b9d4c5307691425d15adf60208201526001600160a01b038816918101919091526060810186905260808101859052600090611391906113899060a00160405160208183030381529060405280519060200120611d75565b858585611dc3565b905061139c81611deb565b86146113ea5760405162461bcd60e51b815260206004820152601960248201527f4552433230566f7465733a20696e76616c6964206e6f6e636500000000000000604482015260640161072c565b6113f48188611bf2565b50505050505050565b6000600261013460008154811061141657611416612ff7565b600091825260209182902001546040805163c19d93fb60e01b815290516001600160a01b039092169263c19d93fb926004808401938290030181865afa158015611464573d6000803e3d6000fd5b505050506040513d601f19601f8201168201806040525081019061148891906131c7565b600281111561149957611499612bbf565b14905090565b834211156114ef5760405162461bcd60e51b815260206004820152601d60248201527f45524332305065726d69743a206578706972656420646561646c696e65000000604482015260640161072c565b60007f6e71edae12b1b97f4d1f60370fef10105fa2faae0126114a169c64845d6126c988888861151e8c611deb565b6040805160208101969096526001600160a01b0394851690860152929091166060840152608083015260a082015260c0810186905260e001604051602081830303815290604052805190602001209050600061157982611d75565b9050600061158982878787611dc3565b9050896001600160a01b0316816001600160a01b0316146115ec5760405162461bcd60e51b815260206004820152601e60248201527f45524332305065726d69743a20696e76616c6964207369676e61747572650000604482015260640161072c565b6115f78a8a8a6117c1565b50505050505050505050565b60008061013480548060200260200160405190810160405280929190818152602001828054801561165d57602002820191906000526020600020905b81546001600160a01b0316815260019091019060200180831161163f575b505050505090506000805b825181101561170a5782818151811061168357611683612ff7565b60200260200101516001600160a01b031663199cbc546040518163ffffffff1660e01b8152600401602060405180830381865afa1580156116c8573d6000803e3d6000fd5b505050506040513d601f19601f820116820180604052508101906116ec91906131e4565b6116f69083612fd1565b915080611702816131fd565b915050611668565b5092915050565b6001600160a01b03918216600090815260346020908152604080832093909416825291909152205490565b60408051808201909152600080825260208201526001600160a01b038316600090815261010060205260409020805463ffffffff841690811061178157611781612ff7565b60009182526020918290206040805180820190915291015463ffffffff8116825264010000000090046001600160e01b0316918101919091529392505050565b6001600160a01b0383166118235760405162461bcd60e51b8152602060048201526024808201527f45524332303a20617070726f76652066726f6d20746865207a65726f206164646044820152637265737360e01b606482015260840161072c565b6001600160a01b0382166118845760405162461bcd60e51b815260206004820152602260248201527f45524332303a20617070726f766520746f20746865207a65726f206164647265604482015261737360f01b606482015260840161072c565b6001600160a01b0383811660008181526034602090815260408083209487168084529482529182902085905590518481527f8c5be1e5ebec7d5bd14f71427d1e84f3dd0314c0f7b2291e5b200ac8c7c3b925910160405180910390a3505050565b60006118f18484611711565b90506000198114610c60578181101561194c5760405162461bcd60e51b815260206004820152601d60248201527f45524332303a20696e73756666696369656e7420616c6c6f77616e6365000000604482015260640161072c565b610c6084848484036117c1565b61013260009054906101000a90046001600160a01b03166001600160a01b0316635c975abb6040518163ffffffff1660e01b8152600401602060405180830381865afa1580156119ad573d6000803e3d6000fd5b505050506040513d601f19601f820116820180604052508101906119d19190613216565b156040518060400160405280600e81526020016d14d154959250d157d4105554d15160921b81525090611a175760405162461bcd60e51b815260040161072c9190612afa565b50611a2183610d6e565b811115604051806040016040528060148152602001734c4f575f554e4c4f434b45445f42414c414e434560601b81525090611a6f5760405162461bcd60e51b815260040161072c9190612afa565b50611a7b838383611e13565b505050565b60006106ae7f8b73c3c69bb8fe3d512ecc4cf759cc79239f7b179b0ffacaa9a75d522b39400f611aaf60985490565b6099546040805160208101859052908101839052606081018290524660808201523060a082015260009060c0016040516020818303038152906040528051906020012090509392505050565b815460009081816005811115611b55576000611b1684611fc4565b611b209085612fe4565b600088815260209020909150869082015463ffffffff161115611b4557809150611b53565b611b50816001612fd1565b92505b505b80821015611ba2576000611b6983836120ac565b600088815260209020909150869082015463ffffffff161115611b8e57809150611b9c565b611b99816001612fd1565b92505b50611b55565b8015611bdc57611bc586611bb7600184612fe4565b600091825260209091200190565b5464010000000090046001600160e01b0316611bdf565b60005b6001600160e01b03169695505050505050565b6000611bfd836109bd565b90506000611c20846001600160a01b031660009081526033602052604090205490565b6001600160a01b03858116600081815260ff602052604080822080546001600160a01b031916898616908117909155905194955093928616927f3134e8a2e6d97e929a7e54011ea5485d7d196dd5f0ba4d4ef95803e8e3fc257f9190a4610c608284836120c7565b6109168282612206565b600054610100900460ff16611cb95760405162461bcd60e51b815260040161072c90613238565b610c7081612291565b600054610100900460ff16611ce95760405162461bcd60e51b815260040161072c90613238565b6109168282612305565b600063ffffffff821115611d585760405162461bcd60e51b815260206004820152602660248201527f53616665436173743a2076616c756520646f65736e27742066697420696e203360448201526532206269747360d01b606482015260840161072c565b5090565b6060603780546105b290612f87565b6109168282612345565b6000610640611d82611a80565b8360405161190160f01b6020820152602281018390526042810182905260009060620160405160208183030381529060405280519060200120905092915050565b6000806000611dd48787878761235e565b91509150611de181612422565b5095945050505050565b6001600160a01b038116600090815260cc602052604090208054600181018255905b50919050565b6001600160a01b038316611e775760405162461bcd60e51b815260206004820152602560248201527f45524332303a207472616e736665722066726f6d20746865207a65726f206164604482015264647265737360d81b606482015260840161072c565b6001600160a01b038216611ed95760405162461bcd60e51b815260206004820152602360248201527f45524332303a207472616e7366657220746f20746865207a65726f206164647260448201526265737360e81b606482015260840161072c565b6001600160a01b03831660009081526033602052604090205481811015611f515760405162461bcd60e51b815260206004820152602660248201527f45524332303a207472616e7366657220616d6f756e7420657863656564732062604482015265616c616e636560d01b606482015260840161072c565b6001600160a01b0380851660008181526033602052604080822086860390559286168082529083902080548601905591517fddf252ad1be2c89b69c2b068fc378daa952ba7f163c4a11628f55a4df523b3ef90611fb19086815260200190565b60405180910390a3610c6084848461256c565b600081600003611fd657506000919050565b60006001611fe384612577565b901c6001901b90506001818481611ffc57611ffc613283565b048201901c9050600181848161201457612014613283565b048201901c9050600181848161202c5761202c613283565b048201901c9050600181848161204457612044613283565b048201901c9050600181848161205c5761205c613283565b048201901c9050600181848161207457612074613283565b048201901c9050600181848161208c5761208c613283565b048201901c9050610758818285816120a6576120a6613283565b0461260b565b60006120bb6002848418613299565b61075890848416612fd1565b816001600160a01b0316836001600160a01b0316141580156120e95750600081115b15611a7b576001600160a01b03831615612178576001600160a01b0383166000908152610100602052604081208190612125906126218561262d565b91509150846001600160a01b03167fdec2bacdd2f05b59de34da9b523dff8be42e5e38e818c82fdb0bae774387a724838360405161216d929190918252602082015260400190565b60405180910390a250505b6001600160a01b03821615611a7b576001600160a01b03821660009081526101006020526040812081906121af906127818561262d565b91509150836001600160a01b03167fdec2bacdd2f05b59de34da9b523dff8be42e5e38e818c82fdb0bae774387a72483836040516121f7929190918252602082015260400190565b60405180910390a25050505050565b612210828261278d565b6035546001600160e01b0310156122825760405162461bcd60e51b815260206004820152603060248201527f4552433230566f7465733a20746f74616c20737570706c79207269736b73206f60448201526f766572666c6f77696e6720766f74657360801b606482015260840161072c565b610c606101016127818361262d565b600054610100900460ff166122b85760405162461bcd60e51b815260040161072c90613238565b600081116123005760405162461bcd60e51b8152602060048201526015602482015274045524332304361707065643a20636170206973203605c1b604482015260640161072c565b606555565b600054610100900460ff1661232c5760405162461bcd60e51b815260040161072c90613238565b60366123388382613099565b506037611a7b8282613099565b61234f8282612801565b610c606101016126218361262d565b6000807f7fffffffffffffffffffffffffffffff5d576e7357a4501ddfe92f46681b20a08311156123955750600090506003612419565b6040805160008082526020820180845289905260ff881692820192909252606081018690526080810185905260019060a0016020604051602081039080840390855afa1580156123e9573d6000803e3d6000fd5b5050604051601f1901519150506001600160a01b03811661241257600060019250925050612419565b9150600090505b94509492505050565b600081600481111561243657612436612bbf565b0361243e5750565b600181600481111561245257612452612bbf565b0361249f5760405162461bcd60e51b815260206004820152601860248201527f45434453413a20696e76616c6964207369676e61747572650000000000000000604482015260640161072c565b60028160048111156124b3576124b3612bbf565b036125005760405162461bcd60e51b815260206004820152601f60248201527f45434453413a20696e76616c6964207369676e6174757265206c656e67746800604482015260640161072c565b600381600481111561251457612514612bbf565b03610c705760405162461bcd60e51b815260206004820152602260248201527f45434453413a20696e76616c6964207369676e6174757265202773272076616c604482015261756560f01b606482015260840161072c565b611a7b83838361293c565b600080608083901c1561258c57608092831c92015b604083901c1561259e57604092831c92015b602083901c156125b057602092831c92015b601083901c156125c257601092831c92015b600883901c156125d457600892831c92015b600483901c156125e657600492831c92015b600283901c156125f857600292831c92015b600183901c156106405760010192915050565b600081831061261a5781610758565b5090919050565b60006107588284612fe4565b8254600090819081811561267a5761264a87611bb7600185612fe4565b60408051808201909152905463ffffffff8116825264010000000090046001600160e01b0316602082015261268f565b60408051808201909152600080825260208201525b905080602001516001600160e01b031693506126af84868863ffffffff16565b92506000821180156126c75750805163ffffffff1643145b1561270c576126d583612957565b6126e488611bb7600186612fe4565b80546001600160e01b03929092166401000000000263ffffffff909216919091179055612777565b86604051806040016040528061272143611cf3565b63ffffffff16815260200161273586612957565b6001600160e01b0390811690915282546001810184556000938452602093849020835194909301519091166401000000000263ffffffff909316929092179101555b5050935093915050565b60006107588284612fd1565b6127956106a3565b8161279f60355490565b6127a99190612fd1565b11156127f75760405162461bcd60e51b815260206004820152601960248201527f45524332304361707065643a2063617020657863656564656400000000000000604482015260640161072c565b61091682826129c0565b6001600160a01b0382166128615760405162461bcd60e51b815260206004820152602160248201527f45524332303a206275726e2066726f6d20746865207a65726f206164647265736044820152607360f81b606482015260840161072c565b6001600160a01b038216600090815260336020526040902054818110156128d55760405162461bcd60e51b815260206004820152602260248201527f45524332303a206275726e20616d6f756e7420657863656564732062616c616e604482015261636560f01b606482015260840161072c565b6001600160a01b03831660008181526033602090815260408083208686039055603580548790039055518581529192917fddf252ad1be2c89b69c2b068fc378daa952ba7f163c4a11628f55a4df523b3ef910160405180910390a3611a7b8360008461256c565b611a7b612948846109bd565b612951846109bd565b836120c7565b60006001600160e01b03821115611d585760405162461bcd60e51b815260206004820152602760248201527f53616665436173743a2076616c756520646f65736e27742066697420696e20326044820152663234206269747360c81b606482015260840161072c565b6001600160a01b038216612a165760405162461bcd60e51b815260206004820152601f60248201527f45524332303a206d696e7420746f20746865207a65726f206164647265737300604482015260640161072c565b8060356000828254612a289190612fd1565b90915550506001600160a01b0382166000818152603360209081526040808320805486019055518481527fddf252ad1be2c89b69c2b068fc378daa952ba7f163c4a11628f55a4df523b3ef910160405180910390a36109166000838361256c565b6020808252825182820181905260009190848201906040850190845b81811015612aca5783516001600160a01b031683529284019291840191600101612aa5565b50909695505050505050565b60005b83811015612af1578181015183820152602001612ad9565b50506000910152565b6020815260008251806020840152612b19816040850160208701612ad6565b601f01601f19169190910160400192915050565b6001600160a01b0381168114610c7057600080fd5b8035612b4d81612b2d565b919050565b60008060408385031215612b6557600080fd5b8235612b7081612b2d565b946020939093013593505050565b600080600060608486031215612b9357600080fd5b8335612b9e81612b2d565b92506020840135612bae81612b2d565b929592945050506040919091013590565b634e487b7160e01b600052602160045260246000fd5b6020810160038310612bf757634e487b7160e01b600052602160045260246000fd5b91905290565b600060208284031215612c0f57600080fd5b813561075881612b2d565b634e487b7160e01b600052604160045260246000fd5b60405160c0810167ffffffffffffffff81118282101715612c5357612c53612c1a565b60405290565b604051601f8201601f1916810167ffffffffffffffff81118282101715612c8257612c82612c1a565b604052919050565b60038110610c7057600080fd5b8035612b4d81612c8a565b600067ffffffffffffffff821115612cbc57612cbc612c1a565b50601f01601f191660200190565b600082601f830112612cdb57600080fd5b8135612cee612ce982612ca2565b612c59565b818152846020838601011115612d0357600080fd5b816020850160208301376000918101602001919091529392505050565b803560ff81168114612b4d57600080fd5b600080600060608486031215612d4657600080fd5b8335612d5181612b2d565b9250602084013567ffffffffffffffff80821115612d6e57600080fd5b9085019060c08288031215612d8257600080fd5b612d8a612c30565b612d9383612c97565b8152602083013582811115612da757600080fd5b612db389828601612cca565b602083015250604083013582811115612dcb57600080fd5b612dd789828601612cca565b604083015250606083013582811115612def57600080fd5b612dfb89828601612cca565b60608301525060808301356080820152612e1760a08401612d20565b60a08201529350612e2d91505060408501612b42565b90509250925092565b600060208284031215612e4857600080fd5b5035919050565b60008060008060008060c08789031215612e6857600080fd5b8635612e7381612b2d565b95506020870135945060408701359350612e8f60608801612d20565b92506080870135915060a087013590509295509295509295565b600080600080600080600060e0888a031215612ec457600080fd5b8735612ecf81612b2d565b96506020880135612edf81612b2d565b95506040880135945060608801359350612efb60808901612d20565b925060a0880135915060c0880135905092959891949750929550565b60008060408385031215612f2a57600080fd5b8235612f3581612b2d565b91506020830135612f4581612b2d565b809150509250929050565b60008060408385031215612f6357600080fd5b8235612f6e81612b2d565b9150602083013563ffffffff81168114612f4557600080fd5b600181811c90821680612f9b57607f821691505b602082108103611e0d57634e487b7160e01b600052602260045260246000fd5b634e487b7160e01b600052601160045260246000fd5b8082018082111561064057610640612fbb565b8181038181111561064057610640612fbb565b634e487b7160e01b600052603260045260246000fd5b60006020828403121561301f57600080fd5b815161075881612b2d565b60006020828403121561303c57600080fd5b81516005811061075857600080fd5b601f821115611a7b57600081815260208120601f850160051c810160208610156130725750805b601f850160051c820191505b818110156130915782815560010161307e565b505050505050565b815167ffffffffffffffff8111156130b3576130b3612c1a565b6130c7816130c18454612f87565b8461304b565b602080601f8311600181146130fc57600084156130e45750858301515b600019600386901b1c1916600185901b178555613091565b600085815260208120601f198616915b8281101561312b5788860151825594840194600190910190840161310c565b50858210156131495787850151600019600388901b60f8161c191681555b5050505050600190811b01905550565b60006020828403121561316b57600080fd5b815167ffffffffffffffff81111561318257600080fd5b8201601f8101841361319357600080fd5b80516131a1612ce982612ca2565b8181528560208385010111156131b657600080fd5b610f3c826020830160208601612ad6565b6000602082840312156131d957600080fd5b815161075881612c8a565b6000602082840312156131f657600080fd5b5051919050565b60006001820161320f5761320f612fbb565b5060010190565b60006020828403121561322857600080fd5b8151801515811461075857600080fd5b6020808252602b908201527f496e697469616c697a61626c653a20636f6e7472616374206973206e6f74206960408201526a6e697469616c697a696e6760a81b606082015260800190565b634e487b7160e01b600052601260045260246000fd5b6000826132b657634e487b7160e01b600052601260045260246000fd5b50049056fea2646970667358221220fee4bf9c650fc8bf42f4f06c38327b506ed534cc8285b4fff0c2242085d0519b64736f6c63430008110033",
  "devdoc": {
    "details": "Company (Pool) Token",
    "kind": "dev",
    "methods": {
      "DOMAIN_SEPARATOR()": {
        "details": "See {IERC20Permit-DOMAIN_SEPARATOR}."
      },
      "addTGE(address)": {
        "details": "Add TGE to TGE archive list",
        "params": {
          "tge": "TGE address"
        }
      },
      "allowance(address,address)": {
        "details": "See {IERC20-allowance}."
      },
      "approve(address,uint256)": {
        "details": "See {IERC20-approve}. NOTE: If `amount` is the maximum `uint256`, the allowance is not updated on `transferFrom`. This is semantically equivalent to an infinite approval. Requirements: - `spender` cannot be the zero address."
      },
      "balanceOf(address)": {
        "details": "See {IERC20-balanceOf}."
      },
      "burn(address,uint256)": {
        "details": "Burn token",
        "params": {
          "amount": "Amount of tokens",
          "from": "Target"
        }
      },
      "cap()": {
        "details": "Return cap",
        "returns": {
          "_0": "Cap"
        }
      },
      "checkpoints(address,uint32)": {
        "details": "Get the `pos`-th checkpoint for `account`."
      },
      "constructor": {
        "custom:oz-upgrades-unsafe-allow": "constructor"
      },
      "decimals()": {
        "details": "Return decimals",
        "returns": {
          "_0": "Decimals"
        }
      },
      "decreaseAllowance(address,uint256)": {
        "details": "Atomically decreases the allowance granted to `spender` by the caller. This is an alternative to {approve} that can be used as a mitigation for problems described in {IERC20-approve}. Emits an {Approval} event indicating the updated allowance. Requirements: - `spender` cannot be the zero address. - `spender` must have allowance for the caller of at least `subtractedValue`."
      },
      "delegate(address)": {
        "details": "Delegate votes from the sender to `delegatee`."
      },
      "delegateBySig(address,uint256,uint256,uint8,bytes32,bytes32)": {
        "details": "Delegates votes from signer to `delegatee`"
      },
      "delegates(address)": {
        "details": "Get the address `account` is currently delegating to."
      },
      "getPastTotalSupply(uint256)": {
        "details": "Retrieve the `totalSupply` at the end of `blockNumber`. Note, this value is the sum of all balances. It is but NOT the sum of all the delegated votes! Requirements: - `blockNumber` must have been already mined"
      },
      "getPastVotes(address,uint256)": {
        "details": "Retrieve the number of votes for `account` at the end of `blockNumber`. Requirements: - `blockNumber` must have been already mined"
      },
      "getTGEList()": {
        "details": "Return list of pool's TGEs",
        "returns": {
          "_0": "TGE list"
        }
      },
      "getTotalTGEVestedTokens()": {
        "details": "Return amount of tokens currently vested in TGE vesting contract(s)",
        "returns": {
          "_0": "Total vesting tokens"
        }
      },
      "getVotes(address)": {
        "details": "Gets the current votes balance for `account`"
      },
      "increaseAllowance(address,uint256)": {
        "details": "Atomically increases the allowance granted to `spender` by the caller. This is an alternative to {approve} that can be used as a mitigation for problems described in {IERC20-approve}. Emits an {Approval} event indicating the updated allowance. Requirements: - `spender` cannot be the zero address."
      },
      "initialize(address,(uint8,string,string,string,uint256,uint8),address)": {
        "details": "Constructor function, can only be called once",
        "params": {
          "info": "Token info struct",
          "pool_": "Pool",
          "primaryTGE_": "Primary tge address"
        }
      },
      "isPrimaryTGESuccessful()": {
        "details": "Return if pool had a successful TGE",
        "returns": {
          "_0": "Is any TGE successful"
        }
      },
      "lastTGE()": {
        "details": "Return list of pool's TGEs",
        "returns": {
          "_0": "TGE list"
        }
      },
      "mint(address,uint256)": {
        "details": "Mint token",
        "params": {
          "amount": "Amount of tokens",
          "to": "Recipient"
        }
      },
      "name()": {
        "details": "Returns the name of the token."
      },
      "nonces(address)": {
        "details": "See {IERC20Permit-nonces}."
      },
      "numCheckpoints(address)": {
        "details": "Get number of checkpoints for `account`."
      },
      "permit(address,address,uint256,uint256,uint8,bytes32,bytes32)": {
        "details": "See {IERC20Permit-permit}."
      },
      "symbol()": {
        "details": "Return cap",
        "returns": {
          "_0": "Cap"
        }
      },
      "totalSupply()": {
        "details": "See {IERC20-totalSupply}."
      },
      "transfer(address,uint256)": {
        "details": "See {IERC20-transfer}. Requirements: - `to` cannot be the zero address. - the caller must have a balance of at least `amount`."
      },
      "transferFrom(address,address,uint256)": {
        "details": "See {IERC20-transferFrom}. Emits an {Approval} event indicating the updated allowance. This is not required by the EIP. See the note at the beginning of {ERC20}. NOTE: Does not update the allowance if the current allowance is the maximum `uint256`. Requirements: - `from` and `to` cannot be the zero address. - `from` must have a balance of at least `amount`. - the caller must have allowance for ``from``'s tokens of at least `amount`."
      },
      "unlockedBalanceOf(address)": {
        "details": "Returns unlocked balance of account",
        "params": {
          "account": "Account address"
        },
        "returns": {
          "_0": "Unlocked balance of account"
        }
      }
    },
    "stateVariables": {
      "_decimals": {
        "details": "Token decimals"
      },
      "description": {
        "details": "Preference token description, allows up to 5000 characters, for others - \"\""
      },
      "pool": {
        "details": "Pool address"
      },
      "service": {
        "details": "Service address"
      },
      "tgeList": {
        "details": "List of all TGEs"
      },
      "tokenType": {
        "details": "Token type"
      }
    },
    "version": 1
  },
  "userdoc": {
    "kind": "user",
    "methods": {},
    "version": 1
  },
  "storageLayout": {
    "storage": [
      {
        "astId": 1184,
        "contract": "contracts/Token.sol:Token",
        "label": "_initialized",
        "offset": 0,
        "slot": "0",
        "type": "t_uint8"
      },
      {
        "astId": 1187,
        "contract": "contracts/Token.sol:Token",
        "label": "_initializing",
        "offset": 1,
        "slot": "0",
        "type": "t_bool"
      },
      {
        "astId": 4034,
        "contract": "contracts/Token.sol:Token",
        "label": "__gap",
        "offset": 0,
        "slot": "1",
        "type": "t_array(t_uint256)50_storage"
      },
      {
        "astId": 1701,
        "contract": "contracts/Token.sol:Token",
        "label": "_balances",
        "offset": 0,
        "slot": "51",
        "type": "t_mapping(t_address,t_uint256)"
      },
      {
        "astId": 1707,
        "contract": "contracts/Token.sol:Token",
        "label": "_allowances",
        "offset": 0,
        "slot": "52",
        "type": "t_mapping(t_address,t_mapping(t_address,t_uint256))"
      },
      {
        "astId": 1709,
        "contract": "contracts/Token.sol:Token",
        "label": "_totalSupply",
        "offset": 0,
        "slot": "53",
        "type": "t_uint256"
      },
      {
        "astId": 1711,
        "contract": "contracts/Token.sol:Token",
        "label": "_name",
        "offset": 0,
        "slot": "54",
        "type": "t_string_storage"
      },
      {
        "astId": 1713,
        "contract": "contracts/Token.sol:Token",
        "label": "_symbol",
        "offset": 0,
        "slot": "55",
        "type": "t_string_storage"
      },
      {
        "astId": 2293,
        "contract": "contracts/Token.sol:Token",
        "label": "__gap",
        "offset": 0,
        "slot": "56",
        "type": "t_array(t_uint256)45_storage"
      },
      {
        "astId": 2383,
        "contract": "contracts/Token.sol:Token",
        "label": "_cap",
        "offset": 0,
        "slot": "101",
        "type": "t_uint256"
      },
      {
        "astId": 2458,
        "contract": "contracts/Token.sol:Token",
        "label": "__gap",
        "offset": 0,
        "slot": "102",
        "type": "t_array(t_uint256)50_storage"
      },
      {
        "astId": 4795,
        "contract": "contracts/Token.sol:Token",
        "label": "_HASHED_NAME",
        "offset": 0,
        "slot": "152",
        "type": "t_bytes32"
      },
      {
        "astId": 4797,
        "contract": "contracts/Token.sol:Token",
        "label": "_HASHED_VERSION",
        "offset": 0,
        "slot": "153",
        "type": "t_bytes32"
      },
      {
        "astId": 4935,
        "contract": "contracts/Token.sol:Token",
        "label": "__gap",
        "offset": 0,
        "slot": "154",
        "type": "t_array(t_uint256)50_storage"
      },
      {
        "astId": 3227,
        "contract": "contracts/Token.sol:Token",
        "label": "_nonces",
        "offset": 0,
        "slot": "204",
        "type": "t_mapping(t_address,t_struct(Counter)4041_storage)"
      },
      {
        "astId": 3235,
        "contract": "contracts/Token.sol:Token",
        "label": "_PERMIT_TYPEHASH_DEPRECATED_SLOT",
        "offset": 0,
        "slot": "205",
        "type": "t_bytes32"
      },
      {
        "astId": 3391,
        "contract": "contracts/Token.sol:Token",
        "label": "__gap",
        "offset": 0,
        "slot": "206",
        "type": "t_array(t_uint256)49_storage"
      },
      {
        "astId": 2500,
        "contract": "contracts/Token.sol:Token",
        "label": "_delegates",
        "offset": 0,
        "slot": "255",
        "type": "t_mapping(t_address,t_address)"
      },
      {
        "astId": 2506,
        "contract": "contracts/Token.sol:Token",
        "label": "_checkpoints",
        "offset": 0,
        "slot": "256",
        "type": "t_mapping(t_address,t_array(t_struct(Checkpoint)2491_storage)dyn_storage)"
      },
      {
        "astId": 2510,
        "contract": "contracts/Token.sol:Token",
        "label": "_totalSupplyCheckpoints",
        "offset": 0,
        "slot": "257",
        "type": "t_array(t_struct(Checkpoint)2491_storage)dyn_storage"
      },
      {
        "astId": 3175,
        "contract": "contracts/Token.sol:Token",
        "label": "__gap",
        "offset": 0,
        "slot": "258",
        "type": "t_array(t_uint256)47_storage"
      },
      {
        "astId": 11720,
        "contract": "contracts/Token.sol:Token",
        "label": "service",
        "offset": 0,
        "slot": "305",
        "type": "t_contract(IService)13961"
      },
      {
        "astId": 11723,
        "contract": "contracts/Token.sol:Token",
        "label": "pool",
        "offset": 0,
        "slot": "306",
        "type": "t_address"
      },
      {
        "astId": 11727,
        "contract": "contracts/Token.sol:Token",
        "label": "tokenType",
        "offset": 20,
        "slot": "306",
        "type": "t_enum(TokenType)14072"
      },
      {
        "astId": 11730,
        "contract": "contracts/Token.sol:Token",
        "label": "description",
        "offset": 0,
        "slot": "307",
        "type": "t_string_storage"
      },
      {
        "astId": 11734,
        "contract": "contracts/Token.sol:Token",
        "label": "tgeList",
        "offset": 0,
        "slot": "308",
        "type": "t_array(t_address)dyn_storage"
      },
      {
        "astId": 11737,
        "contract": "contracts/Token.sol:Token",
        "label": "_decimals",
        "offset": 0,
        "slot": "309",
        "type": "t_uint8"
      }
    ],
    "types": {
      "t_address": {
        "encoding": "inplace",
        "label": "address",
        "numberOfBytes": "20"
      },
      "t_array(t_address)dyn_storage": {
        "base": "t_address",
        "encoding": "dynamic_array",
        "label": "address[]",
        "numberOfBytes": "32"
      },
      "t_array(t_struct(Checkpoint)2491_storage)dyn_storage": {
        "base": "t_struct(Checkpoint)2491_storage",
        "encoding": "dynamic_array",
        "label": "struct ERC20VotesUpgradeable.Checkpoint[]",
        "numberOfBytes": "32"
      },
      "t_array(t_uint256)45_storage": {
        "base": "t_uint256",
        "encoding": "inplace",
        "label": "uint256[45]",
        "numberOfBytes": "1440"
      },
      "t_array(t_uint256)47_storage": {
        "base": "t_uint256",
        "encoding": "inplace",
        "label": "uint256[47]",
        "numberOfBytes": "1504"
      },
      "t_array(t_uint256)49_storage": {
        "base": "t_uint256",
        "encoding": "inplace",
        "label": "uint256[49]",
        "numberOfBytes": "1568"
      },
      "t_array(t_uint256)50_storage": {
        "base": "t_uint256",
        "encoding": "inplace",
        "label": "uint256[50]",
        "numberOfBytes": "1600"
      },
      "t_bool": {
        "encoding": "inplace",
        "label": "bool",
        "numberOfBytes": "1"
      },
      "t_bytes32": {
        "encoding": "inplace",
        "label": "bytes32",
        "numberOfBytes": "32"
      },
      "t_contract(IService)13961": {
        "encoding": "inplace",
        "label": "contract IService",
        "numberOfBytes": "20"
      },
      "t_enum(TokenType)14072": {
        "encoding": "inplace",
        "label": "enum IToken.TokenType",
        "numberOfBytes": "1"
      },
      "t_mapping(t_address,t_address)": {
        "encoding": "mapping",
        "key": "t_address",
        "label": "mapping(address => address)",
        "numberOfBytes": "32",
        "value": "t_address"
      },
      "t_mapping(t_address,t_array(t_struct(Checkpoint)2491_storage)dyn_storage)": {
        "encoding": "mapping",
        "key": "t_address",
        "label": "mapping(address => struct ERC20VotesUpgradeable.Checkpoint[])",
        "numberOfBytes": "32",
        "value": "t_array(t_struct(Checkpoint)2491_storage)dyn_storage"
      },
      "t_mapping(t_address,t_mapping(t_address,t_uint256))": {
        "encoding": "mapping",
        "key": "t_address",
        "label": "mapping(address => mapping(address => uint256))",
        "numberOfBytes": "32",
        "value": "t_mapping(t_address,t_uint256)"
      },
      "t_mapping(t_address,t_struct(Counter)4041_storage)": {
        "encoding": "mapping",
        "key": "t_address",
        "label": "mapping(address => struct CountersUpgradeable.Counter)",
        "numberOfBytes": "32",
        "value": "t_struct(Counter)4041_storage"
      },
      "t_mapping(t_address,t_uint256)": {
        "encoding": "mapping",
        "key": "t_address",
        "label": "mapping(address => uint256)",
        "numberOfBytes": "32",
        "value": "t_uint256"
      },
      "t_string_storage": {
        "encoding": "bytes",
        "label": "string",
        "numberOfBytes": "32"
      },
      "t_struct(Checkpoint)2491_storage": {
        "encoding": "inplace",
        "label": "struct ERC20VotesUpgradeable.Checkpoint",
        "members": [
          {
            "astId": 2488,
            "contract": "contracts/Token.sol:Token",
            "label": "fromBlock",
            "offset": 0,
            "slot": "0",
            "type": "t_uint32"
          },
          {
            "astId": 2490,
            "contract": "contracts/Token.sol:Token",
            "label": "votes",
            "offset": 4,
            "slot": "0",
            "type": "t_uint224"
          }
        ],
        "numberOfBytes": "32"
      },
      "t_struct(Counter)4041_storage": {
        "encoding": "inplace",
        "label": "struct CountersUpgradeable.Counter",
        "members": [
          {
            "astId": 4040,
            "contract": "contracts/Token.sol:Token",
            "label": "_value",
            "offset": 0,
            "slot": "0",
            "type": "t_uint256"
          }
        ],
        "numberOfBytes": "32"
      },
      "t_uint224": {
        "encoding": "inplace",
        "label": "uint224",
        "numberOfBytes": "28"
      },
      "t_uint256": {
        "encoding": "inplace",
        "label": "uint256",
        "numberOfBytes": "32"
      },
      "t_uint32": {
        "encoding": "inplace",
        "label": "uint32",
        "numberOfBytes": "4"
      },
      "t_uint8": {
        "encoding": "inplace",
        "label": "uint8",
        "numberOfBytes": "1"
      }
    }
  }
}